:020000040000fa
:020000040040ba
:10000000f0ef4520a98a40002b9a4000879d4000d0
:100010000bb940009fc540008fd140000000000098
:100020000000000000000000000000001f6d400004
:100030009fa94000000000001f6d40001f6d4000a0
:100040001f6d40001f6d40001f6d40001f6d400080
:100050001f6d40001f6d40001f6d40001f6d400070
:100060001f6d4000000000001f6d40001f6d40002c
:100070001f6d40001f6d40001f6d40001f6d400050
:100080001f6d40001f6d40001f6d40001f6d400040
:100090001f6d40001f6d40001f6d4000d9344100ae
:1000a0001f6d40001f6d40001f6d40001f6d400020
:1000b0001f6d40001f6d40001f6d40001f6d400010
:1000c0001f6d40001f6d40001f6d40001f6d400000
:1000d0001f6d40001f6d40001f6d40003f474100f5
:1000e0001f6d40001f6d40001f6d40001f6d4000e0
:1000f0001f6d40001f6d40001f6d40001f6d4000d0
:100100001f6d40001f6d40001f6d40001f6d4000bf
:100110001f6d400000000000000000000000000013
:100120001f6d40001f6d40001f6d40001f6d40009f
:100130001f6d40001f6d40001f6d40001f6d40008f
:100140001f6d40001f6d40001f6d40001f6d40007f
:100150001f6d40001f6d40001f6d40001f6d40006f
:080160001f6d40001f6d4000ff
:020000040000fa
:020000040040ba
:10016800f8b500bff8bc08bc9e4670473d42410048
:1001780045f64000f8b500bff8bc08bc9e4670477d
:0401880021f640001c
:020000040000fa
:020000040040ba
:08018c00d45000000100000046
:020000040000fa
:020000040040ba
:10019400600740201c000000000000000000402018
:1001a4000a00000000000000e40740200c000000ea
:1001b40001000000ecff45201700000080d1f0088a
:1001c400ecff45201400000001000000a54641009a
:1001d4008d464100754641008146410099464100e3
:1001e4007c07402014000000010000000101000011
:1001f4005543410045434100654341005299000085
:100204000c0040201000000000000000f80740200f
:100214000400000000000000f0054020640000001d
:1002240000000000fc074020040000000000000063
:10023400cc0440209400000000000000000840208e
:10024400040000000000000020f945200003000025
:10025400010000002c054100000000000000000027
:10026400000000000000000000000000000000008a
:10027400000000000000000000000000000000007a
:10028400000000000000000000000000000000006a
:10029400000000000000000000000000000000005a
:100554000000000000f04520f00000000000000052
:100564001c0040201403000000000000f607402097
:100574000200000000000000980640203000000047
:10058400000000003c034020900100000000000037
:100594000408402004000000000000003003402054
:1005a4000800000000000000540640204400000041
:1005b40000000000f00740200600000001000000d9
:1005c400ffffffffffff00000808402004000000b9
:1005d400000000000c08402004000000000000009f
:1005e400100840200400000000000000e008402043
:1005f4000100000000000000140840200400000076
:1006040000000000e108402001000000010000009b
:10061400040000001808402004000000000000004e
:10062400d00840200200000000000000d208402052
:1006340002000000000000001c084020040000002c
:10064400000000002008402004000000000000001a
:100654002408402004000000000000002808402076
:100664000400000000000000a40740201000000067
:10067400000000002c0840200400000000000000de
:10068400d408402002000000000000003008402090
:1006940004000000000000003408402004000000b2
:1006a40000000000380840200400000000000000a2
:1006b4003c0840200400000000000000c806402060
:1006c4002800000000000000400840200400000052
:1006d4000000000044084020040000000000000066
:1006e400480840200400000000000000b407402037
:1006f4001000000000000000e2084020010000009b
:1007040000000000d60840200200000000000000a5
:10071400d808402002000000000000004c084020df
:100724000400000000000000c40740201000000086
:1007340000000000500840200400000000000000f9
:100744005408402004000000000000005808402025
:100754000400000000000000f00640202800000013
:1007640001000000bb010300d10101004b020100a4
:10077400330203007c020300dd030300de030300f5
:10078400e0030300e10301000000000060054020d5
:10079400900000000000000020fc452060020000e2
:1007a400000000005c08402004000000000000007d
:1007b400600840200400000000000000640840209d
:1007c400040000000000000068084020040000004d
:1007d400000000006c08402004000000000000003d
:1007e400700840200400000000000000740840204d
:1007f4000400000000000000d407402010000000a6
:1008040000000000900740201400000000000000d9
:10081400400740202000000000000000e3084020c2
:1008240001000000000000007808402004000000df
:10083400000000007c0840200400000001000000cb
:10084400ffffffff800840200400000000000000bc
:1008540084084020040000000000000088084020b4
:1008640004000000000000008c0840200400000088
:1008740000000000da084020020000000000000030
:10088400dc08402002000000000000009008402026
:100894000400000000000000940840200400000050
:1008a4000000000098084020040000000000000040
:1008b400e408402001000000000000009c084020e3
:1008c4000400000000000000a00840200400000014
:1008d40000000000a4084020040000000000000004
:1008e400a80840200400000000000000de084020aa
:1008f4000200000000000000ac08402004000000da
:1009040000000000b00840200400000000000000c7
:10091400e50840200100000000000000b408402069
:100924000400000001000000f0f04520f0f0452034
:10093400280400000100000000000000dcf3452052
:1009440044f44520acf44520000000000000000001
:100954000000000000000000000000000000000093
:100964000000000000000000000000000000000083
:100974000000000000000000000000000000000073
:100984000000000000000000000000000000000063
:100994000000000000000000000000000000000053
:1009a4000000000000000000000000000000000043
:1009b4000000000000000000000000000000000033
:1009c4000000000000000000000000000000000023
:1009d4000000000000000000000000000000000013
:1009e40001000000000000000e33cdab34126de6b0
:1009f400ecde05000b000000000000000000000019
:100a040000000000000000000000000000000000e2
:100a140000000000000000000000000000000000d2
:100a240000000000000000000000000000000000c2
:100a340000000000000000000000000000000000b2
:100d640080fe45206c0100000100000043000000eb
:100d7400000000000000000000000000000000006f
:100d8400000000000000000000000000430000001c
:100d9400000000000000000000000000000000004f
:100da40000000000000000000000000043000000fc
:100db400000000000000000000000000000000002f
:100dc40000000000000000000000000043000000dc
:100dd400000000000000000000000000000000000f
:100de40000000000000000000000000043000000bc
:100df40000000000000000000000000000000000ef
:100e0400000000000000000000000000430000009b
:100e140000000000000000000000000000000000ce
:100e2400000000000000000000000000430000007b
:100e340000000000000000000000000000000000ae
:100e4400000000000000000000000000813d41009f
:100e5400412e410000000000c4a14000384241007e
:100e640034424100344241003442410034424100a2
:100e74003442410034424100344241003442410092
:100e840034424100ffffffffffffffffffffffffb3
:100e9400ffff0000010041534349490000000000e6
:100ea400000000000000000000000000000000003e
:100eb40000000000000041534349490000000000c5
:100ec400000000000000000000000000000000001e
:100ed4000000000000000000180740202800000067
:100ee40000000000b80840200400000000000000da
:100ef400bc0840200400000000000000c00840209e
:100f0400040000000000000018f54520080400005b
:100f140001000000000000000000000018f545205a
:100f240018f5452020f5452020f5452028f54520d5
:100f340028f5452030f5452030f5452038f5452085
:100f440038f5452040f5452040f5452048f5452035
:100f540048f5452050f5452050f5452058f54520e5
:100f640058f5452060f5452060f5452068f5452095
:100f740068f5452070f5452070f5452078f5452045
:100f840078f5452080f5452080f5452088f54520f5
:100f940088f5452090f5452090f5452098f54520a5
:100fa40098f54520a0f54520a0f54520a8f5452055
:100fb400a8f54520b0f54520b0f54520b8f5452005
:100fc400b8f54520c0f54520c0f54520c8f54520b5
:100fd400c8f54520d0f54520d0f54520d8f5452065
:100fe400d8f54520e0f54520e0f54520e8f5452015
:100ff400e8f54520f0f54520f0f54520f8f54520c5
:10100400f8f5452000f6452000f6452008f6452071
:1010140008f6452010f6452010f6452018f6452020
:1010240018f6452020f6452020f6452028f64520d0
:1010340028f6452030f6452030f6452038f6452080
:1010440038f6452040f6452040f6452048f6452030
:1010540048f6452050f6452050f6452058f64520e0
:1010640058f6452060f6452060f6452068f6452090
:1010740068f6452070f6452070f6452078f6452040
:1010840078f6452080f6452080f6452088f64520f0
:1010940088f6452090f6452090f6452098f64520a0
:1010a40098f64520a0f64520a0f64520a8f6452050
:1010b400a8f64520b0f64520b0f64520b8f6452000
:1010c400b8f64520c0f64520c0f64520c8f64520b0
:1010d400c8f64520d0f64520d0f64520d8f6452060
:1010e400d8f64520e0f64520e0f64520e8f6452010
:1010f400e8f64520f0f64520f0f64520f8f64520c0
:10110400f8f6452000f7452000f7452008f745206c
:1011140008f7452010f7452010f7452018f745201b
:1011240018f7452020f7452020f7452028f74520cb
:1011340028f7452030f7452030f7452038f745207b
:1011440038f7452040f7452040f7452048f745202b
:1011540048f7452050f7452050f7452058f74520db
:1011640058f7452060f7452060f7452068f745208b
:1011740068f7452070f7452070f7452078f745203b
:1011840078f7452080f7452080f7452088f74520eb
:1011940088f7452090f7452090f7452098f745209b
:1011a40098f74520a0f74520a0f74520a8f745204b
:1011b400a8f74520b0f74520b0f74520b8f74520fb
:1011c400b8f74520c0f74520c0f74520c8f74520ab
:1011d400c8f74520d0f74520d0f74520d8f745205b
:1011e400d8f74520e0f74520e0f74520e8f745200b
:1011f400e8f74520f0f74520f0f74520f8f74520bb
:10120400f8f7452000f8452000f8452008f8452067
:1012140008f8452010f8452010f8452018f8452016
:1012240018f8452020f8452020f8452028f84520c6
:1012340028f8452030f8452030f8452038f8452076
:1012440038f8452040f8452040f8452048f8452026
:1012540048f8452050f8452050f8452058f84520d6
:1012640058f8452060f8452060f8452068f8452086
:1012740068f8452070f8452070f8452078f8452036
:1012840078f8452080f8452080f8452088f84520e6
:1012940088f8452090f8452090f8452098f8452096
:1012a40098f84520a0f84520a0f84520a8f8452046
:1012b400a8f84520b0f84520b0f84520b8f84520f6
:1012c400b8f84520c0f84520c0f84520c8f84520a6
:1012d400c8f84520d0f84520d0f84520d8f8452056
:1012e400d8f84520e0f84520e0f84520e8f8452006
:1012f400e8f84520f0f84520f0f84520f8f84520b6
:10130400f8f8452000f9452000f9452008f9452062
:1013140008f9452010f9452010f94520c40840205b
:101324000400000001000000ffffffffc808402088
:101334000400000001000000000002003803402007
:101344000400000000000000cc084020040000005d
:101354000000000000000000000000002222222201
:020000040000fa
:020000040040ba
:101364002de9f04f93b00f210a2011f02fff0790c1
:1013740010f0010f12d1079b13f0020f40f0748597
:1013840013b0bde8f08fb9f8223013f4007f0cd00d
:101394006ff00d010a22484612f0d4fb0a2012f025
:1013a40041fe81460028eed1e5e7d9f81c301c4601
:1013b4000293b9f82060132e40f24385d9f81870cf
:1013c40007f110030493fb680f933b691093002209
:1013d4008df8442006238df84530330a43ea06236a
:1013e400adf846300c210fa80ef0fefbc3439bb2b0
:1013f400b9f8222012f0040f35d03246214648466f
:101404000df0a0fa002840f02085029c20460ef042
:1014140083fb94f80cb04fea1b1b4fea8b0babf128
:10142400140b1ffa8bf30693d9f81c80d9f828c043
:10143400b8f802b0bbf1000f00f00b85fd89bb8941
:101444001d44b8f800301d4485ea0b05adb2c74b06
:101454001a68002a00f00185c54bd3f800e0002388
:101464009a4619460ee01a46314602980ef0bcfb25
:10147400c8e7206c844512d088b101331bb21946e9
:1014840093422ed25ef82140002cf6d094f86e10d0
:101494000b29f2d094f86f000128eed8e9e741b99e
:1014a400b4f86a105945e8d1baf1000f08bfa24652
:1014b400e3e7b4f86a10a942dfd1d8f80000a16dbf
:1014c4008842dad1a06bf9688842d6d1012184f828
:1014d4006f10c4f840c0049a204611f0b3f8a24635
:1014e4001de0baf1000f00f08c80fb68caf83830b8
:1014f40001218af86f10caf840c0049a504611f0ce
:10150400a1f8aaf86a50b8f80030aaf85830b8f828
:101514000230aaf85a30daf80030caf81030d9f894
:1015240010201389143b06995b1a1381029a547b89
:10153400d2f8088055689af8373013f0400f63d119
:101544009af86d306ff300038af86d309af86e30b4
:10155400002b7dd0012b00f0b280069ab61ab6b2e9
:10156400a6f1140292b2069214f001020a9200f05b
:10157400db80133e1ffa86fb14f0020f03d00bf13d
:10158400010b1ffa8bfbdaf81c60daf82020964274
:10159400c0f0cd80daf81810daf81400091ab21a7b
:1015a4008a1a92b20492daf85020af1abbf1000ff3
:1015b40000f0c280049a002a00f0cb80002f01dbe7
:1015c40097420ed307eb0b02002a40f3c280049922
:1015d400a1eb0b029742ccbf002201228f4280f282
:1015e400b58014f0060f00f0cb8014f0040f0cbf8c
:1015f40000264ff40066002150460bf003fa00f079
:101604000abc6ff00d01c5e600238af871309af820
:10161400363013f0020f93d111f04ef9cde90401e5
:10162400baf8687013f01ef8524ba3fb00231b0c8e
:1016340007fb03f7504ba3fb0737bf094f4a0023af
:10164400dde9040111f0e0f93844caf8240077e731
:1016540014f0040f1ad114f0100f1dd114f0020f5e
:1016640027d00135caf8505002980af0edfaaaf8ca
:101674006200504610f017fc01221221504601f07e
:10168400cdfd02238af86e300026c4e300215046c3
:101694000bf0b8f90026bee3caf84c8000220421fe
:1016a400504601f0bbfd002150460bf0abf900267b
:1016b400b1e3002150460bf0a5f90026abe314f08a
:1016c400040f40f0a78314f0100f00f09e85daf8a1
:1016d4004c60b04500f07a85caf84c8001220421a0
:1016e400504601f09bfdcaf84c60002693e311f0cc
:1016f400e3f806460f46baf8684012f0b3ff1d4bf4
:10170400a3fb00231b0c04fb03f41b4ba3fb0434bb
:10171400a4091a4a00233046394611f075f92044c9
:10172400caf8240000f049bdddf818b024e7921b84
:10173400013a92b2049236e7002f3ff452af002fe1
:1017440007db049a9742acbf00220122002a7ff4ef
:1017540048af14f0040f01d000265ce301221021ed
:10176400504601f05bfd002655e300bf8c08402085
:1017740088084020851dd96fd34d6210f0490200be
:1017840014f0100f00f04e83023b072b00f27e8111
:10179400dfe813f008001d001d001d001d007c0182
:1017a4001d006f01daf84c60b0450ad0caf84c80cd
:1017b40001220421504601f031fdcaf84c60002694
:1017c40029e303238af86e304ff4807600e0002684
:1017d400daf808300d93daf81020981a14d4daf8ed
:1017e4004c30a8eb0301091a00291dddbaf86c007e
:1017f40000f40170042801d101290cd00022102129
:10180400504601f00bfd06e3daf80430daf8001074
:101814005b1a1844e3e70133caf84c309af86d3088
:1018240043f002038af86d30daf84c300b93daf89f
:101834000c00a2eb000ca3eb0c0c824240d2daf8b1
:101844000430daf80010a3eb010eaceb0e0ea8eb9b
:101854000e0ebef1000f3bdddaf804301946089392
:10186400daf80030c91a714530d39af86c3003f0b5
:10187400ef036ff345138af86c309af836306ff340
:1018840045138af836307044caf80c000a44904272
:1018940076d8089b984202d3401acaf80c00daf8aa
:1018a4001030089a934202d35b1acaf810309af89f
:1018b4006e30032b01d0082b33d146f0040630e000
:1018c400a8eb0c030c93002b00f3ae84824228d0c7
:1018d4009af86c3013f0100f1dd013f0200f14d0b1
:1018e400caf84cc0824208d2daf80430daf8002090
:1018f4009b1aaceb0303caf84c30caf810009af8f0
:10190400363043f080038af836309af86c3043f06e
:1019140020038af86c309af86c3043f010038af88c
:101924006c30daf80c300d9a9a4232d0029bdb8983
:10193400baf866209a4238bfaaf86630daf84c2022
:10194400029bdb8943449b1a9bb2baf85c1031b901
:101954002bb19af8361041f040018af83610aaf8f3
:101964005c309af86e30042b57d0062b40f08f80f1
:10197400904540f05082002150460bf043f84ae273
:10198400821a0b9b1a44caf84c20caf8100000f0c3
:1019940072bc9af8373013f0010f28d113f0400fbe
:1019a4001ed010f089ffcde90801baf868300b9316
:1019b40012f058fec749a1fb00131b0c0b9a02fb43
:1019c40003f3c54aa2fb03239b090b93c34a0023d9
:1019d400dde9080111f018f80b9b1844caf824003b
:1019e4009af836306ff341038af836309ee7daf816
:1019f4004c3098459ad19af86c3013f0040f95d076
:101a04009af836306ff341038af836309af8373053
:101a14006ff300038af8373088e7904503d014f059
:101a2400200f43d0f7e19af86c3013f0040ff6d08e
:101a340010f042ffcde9080112f014fea54ba3fb00
:101a440000231b0c41f2883202fb03f3a24aa2fbdf
:101a540003239b090b93a14a0023dde9080110f03d
:101a6400d3ff0b9b1844caf8300005238af86e3064
:101a7400d5e7daf84c300133984501d00026cae1a5
:101a8400002150460af0beff0026c4e1002614f0ef
:101a9400200f40f0c0819af86e20a2f10803dbb257
:101aa400012b40f2b881062a00f0b581069b002b79
:101ab40000f0a180002f46dd069b3b4404998b4235
:101ac40002ddcc1ba3b20693029a137b1b0902eb23
:101ad40083030e93daf81c10daf81820069b3b44b3
:101ae4000b449a4280f0fc80531a0133db1b00f153
:101af400e3809ab201240094029213460ea802468f
:101b0400394448460df003ff0490069b029a9b1a41
:101b1400daf8141000949bb20eaa48460df0f7feb2
:101b2400049b034498b2069b834264d1daf8543090
:101b3400b3f1ff3f40f0dd80caf85470bdf81830af
:101b4400aaf8603057e0029a137b1b09c7eb8303a2
:101b540013440e93069b3b449cb2049ba34228bfb0
:101b640023461c46daf81c10daf818300a19934296
:101b74007fd25b1a01330293bdf808200127009736
:101b8400069213460ea8024648460df0c0fe049085
:101b9400069aa31adaf8141000979bb20eaa4846c4
:101ba4000df0b5fe049a024490b2029be31adaf8ef
:101bb4001420134484421ed1daf850102144caf888
:101bc4005010caf81c309af86e20033ad2b2022a96
:101bd40098bf46f40076daf85420b2f1ff3f0ad0f9
:101be400141bcaf85440baf8602012194cd54ff0af
:101bf400ff33caf85430bbf1000f00f0a8809af804
:101c04006e30033bdbb2022b03d9daf81c30caf87e
:101c140020309af8363013f0100f40f093809af881
:101c2400363043f010038af8363013f0080f40f0d2
:101c34008e80dbb243f008038af8363010f03cfea5
:101c4400cde9020112f00efd224ba3fb00231b0c75
:101c5400642404fb03f4204ba3fb0434a4091f4aab
:101c64000023dde9020110f0cffe2044caf82c0065
:101c74006de00123009323460eaa48460df047fe6b
:101c8400daf81c30234495e7002cb4dc1144caf87c
:101c940050101344caf81c30daf81820934206d9bd
:101ca400daf81410521ad2431344caf81c304ff015
:101cb400ff33caf854309ee7781edaf81430d21a8b
:101cc400801a01230093069b0eaa014448460df096
:101cd4001efe28e7851dd96fd34d6210f04902001e
:101ce40001230093069b0eaa394448460df00ffecb
:101cf40019e79f4214d2069ad119baf86020d01875
:101d0400814201d88b4206d9bdf81830aaf8603058
:101d1400caf854706fe71344db1baaf86030f7e786
:101d2400baf860201a4406980146394491427ff675
:101d340062af97423ff65faffb1a01461944aaf817
:101d4400601058e701221021504601f067fa0a9bff
:101d5400002b60d0daf8503001335d44ab425ad1e5
:101d6400caf8503046f480669af86e30023b032b72
:101d74002ed8dfe803f0020b334509238af86e30ce
:101d840001221121504601f049fa44e008238af85f
:101d94006e3010f091fd04460d4612f063fcd04bfa
:101da400a3fb00231b0cc82707fb03f7cd4ba3fba6
:101db4000737bf09cc4a00232046294610f024fee9
:101dc4003844caf830009af86d3013f0010f22d16c
:101dd40001221021504601f021fa1ce0daf84c30bf
:101de400984509d100221021504601f017fa00212c
:101df40050460af007fe0ee006238af86e30e7e745
:101e040000221021504601f009fa002150460af040
:101e1400f9fd00e00026baf87220324004d1022114
:101e2400fff7b8ba0026f6e7daf87440ccb1daf86e
:101e34007830d9f82810baf93400a0470221fff706
:101e4400a9ba6ff00c01fff7a5ba6ff00901fff70b
:101e5400a1ba6ff00d01fff79dba6ff00d01fff706
:101e640099ba0221fff796baa04b1b68002b3ff4e6
:101e740087aa00252b469e4fdff864b2dff864a2e0
:101e8400b5e00026b046c4e010f016fd964a0023e3
:101e940010f0bafda36ac01a0028a8bf1026bce03f
:101ea40010f00afd904a002310f0aefde36ac01a58
:101eb4000028a8bf1026b6e010f0fefc8a4a0023d2
:101ec40010f0a2fd236bc31a002bc0f2b1800923ca
:101ed40084f86e30112688f001023146204601f064
:101ee4009df9ade010f0e8fc7f4a002310f08cfd72
:101ef400236bc31a002bc0f2a080012214212046b8
:101f040001f08cf9002120460af07cfd67e094f88a
:101f1400366006f00106012120460bf0e1f894f842
:101f2400363043f0010384f836304ff480520021f8
:101f340020460ef075ff002e51d194f836306ff321
:101f4400000384f836300a2384f86e3047e010f03a
:101f5400b3fc654a002310f057fd636ac01a0028d9
:101f64003ddb94f86e30013b082b00f2fd80dfe886
:101f740013f00900c100d800e300fb00eb00fb00f4
:101f8400fb00f30094f87030032b00f296800226d5
:101f94004ff0000994f87030013384f87030a36c6a
:101fa4005b00a3642169e2688b1a9bb2914204d25c
:101fb40061682068091a0b449bb2e16cc91ae16498
:101fc400b4f85c100b44a4f85c3022610022314662
:101fd400204601f023f9b9f1000f40f0cb80013520
:101fe4002db22b46414a12689542bff4c9a93a68fa
:101ff40052f82340002cf2d094f86e300b2beed024
:1020040094f8363013f0c00f3ff43baf4fead318c7
:10201400102613f0040f7ff437af94f8363013f022
:10202400080f7ff43daf94f86e30082b3ff444afb3
:1020340094f86e30052b3ff455af002e7ff44baf70
:1020440094f8363013f0020f81d194f8373013f03e
:10205400400fc4d094f86e30032bc0d110f02cfc88
:10206400214a002310f0d0fc636ac31a002bb6dbac
:1020740094f8712094f87c309a423ff448af0222dd
:102084001021204601f0caf810f016fc804689465b
:10209400b4f8686012f0e6faabfb00231b0c06fbf5
:1020a40003f6aafb0636b6090f4a00234046494602
:1020b40010f0aafc3044606291e7042384f8703085
:1020c40012f0d0faabfb00231a0c4ff47a7303fb23
:1020d40002f3aafb03239b091b01a364022657e70f
:1020e400851dd96fd34d6210f04902008c08402041
:1020f4008808402094f87030022b40f28b8094f8ca
:10210400363013f0010314bf142602269946b8f1a1
:10211400000f7ff43faf01223146204601f07ef8e4
:1021240059e794f87030042b76d9042384f86e3080
:1021340011264ff00009eae794f87030042b6dd9aa
:1021440014264ff00109e2e794f87030042b67d9a4
:1021540014264ff00109dae794f87030042b61d9a2
:1021640014264ff00109d2e7002e3ff438af4ff0a8
:102174000009cce7002120460af044fc2fe7013592
:10218400caf850500298c389aaf86630aaf85c309d
:1021940009f05afdaaf8620050460ff084fe0122ad
:1021a4001021504601f03af803238af86e309af869
:1021b400373013f0400f7ff49aaa9af836306ff351
:1021c40041038af836304ff4807624e614f0020f87
:1021d400d5d100261fe60135caf850500298c389ac
:1021e400aaf86630aaf85c3009f02efdaaf862005d
:1021f40050460ff058fe01221221504601f00ef80d
:1022040002238af86e30002605e614f0020fe2d1ac
:10221400002600e61226bbe61026b9e61126b7e62c
:102224001026b5e61126b3e6daf804100b46089139
:10223400daf80010591a0c9b8b423ff647ab9af818
:102244006ce00ef0ef0e6ff3451e8af86ce09af81e
:1022540036e06ff3451e8af836e00c9b1844caf842
:102264000c008242bff415ab831a0b9a1344caf8cc
:102274004c30caf81000089b83427ff60dabfff781
:0422840016bb00bfc6
:020000040000fa
:020000040040ba
:102288002de9f04fabb01d468b469146069304905e
:1022980018b1836b002b00f0f883bbf90c0081b2f6
:1022a8008c040ad4dbf8643040f4005123f4005362
:1022b800abf80c10cbf8643089b2080740f167839b
:1022c800dbf81030002b00f0628301f01a010a29b4
:1022d80000f06b83002309930f930e9303931aabbb
:1022e8000d9399f800304d46002b00f09180252b76
:1022f80002d18de0252b03d015f8013f002bf9d131
:10230800a5eb0906002e00f083800e9b0f9acdf8ee
:10231800689001333244072b1b960f920e9300f3fb
:1023280060831cac039b334403932b78002b00f091
:10233800d98200224ff000038df82f3005f10109f2
:102348006b781146164692464ff0ff3509f10109a0
:10235800a3f12000582800f21582dfe810f077007a
:102368001302130272001302130213021302130260
:1023780013026700620013025d00eb011302e6011d
:10238800050205020502050205020502050205020d
:10239800050213021302130213021302130213029b
:1023a800130213021302130213021302130213027d
:1023b800130213021302130213021302130213026d
:1023c8001302130213021302130213021302b801b9
:1023d800130213021302130213021302130213024d
:1023e800130213025f0110011302130213020b01ff
:1023f800100113021302fe0013021302e900b900d0
:10240800b4001302940013027f0013021302b801f0
:102418001aac8ae7764206934af0040a99f8003023
:1024280094e799f8003001222b218fe70698066877
:102438000346002e03f10403ecdb069399f8003001
:1024480084e74af0010a99f800307fe799f80030ec
:1024580000297ff47baf0122202177e71af0200fb3
:10246800059640f09683069a1af0100f134640f02e
:1024780049831af0400f00f045831688043200277c
:102488000123069235e04ff000038df82f30069bac
:102498000596691c03f10406d3f8008000f09983bf
:1024a8002a46002140460bf03ffa002800f0aa8394
:1024b800a0eb080302939df82f300696cdf800a0f4
:1024c80001930025a0e04af0200a99f800303de782
:1024d8000699b34b059609930e6878233022043188
:1024e8008df831304af0020a069100278df8302025
:1024f80002234ff000028df82f20002201926a1c5f
:1025080061d02af08002009256ea070261d1002dbc
:1025180040f05b82002b40f0c7821af0010302935f
:1025280000f029830df1a808302308f8413d6be03d
:102538001af02003059640f041831af0100240f08b
:10254800da821af0400300f0d682069913460a464a
:1025580004320e8806920027cbe799f800306c2bde
:1025680003bf99f801304af0200a09f101094af03d
:10257800100aebe64af0400a99f80030e6e60596bc
:10258800002a40f056831af0200f40f0f7821af024
:10259800100f40f09b821af0400f00f097820699c6
:1025a800b1f900600431f71732463b460691002a1c
:1025b80073f10003c0f219839df82f3001936a1c50
:1025c8004ff001039dd156ea070200f00082cdf8d2
:1025d80000a0012b00f09c82022b40f03382099866
:1025e8000df16808330906f00f0143ea07733a0949
:1025f8001e461746435c08f8013d56ea0703f1d129
:102608001aaba3eb08030293029bab42b8bf2b465d
:102618009a46019bb3b10af1010a13e0069a05969e
:1026280013688df8403013464ff0000104338df8dd
:102638002f1006930123cdf800a002939a46002597
:102648000df14008009b13f002030793009b18bf8d
:102658000af1020a13f08403089340f0a580059b51
:10266800a3eb0a06002e40f39f80102e0f990e9ab6
:102678004c4f21dd20461023049c04e0103e102e10
:1026880000f1080017dd01321031072a0f910e9270
:1026980007604360f2dd0daa59462046019311f008
:1026a800d3fd002840f02581103e102e0f990e9a78
:1026b800019b1aa8e7dc0446531c3144072b0f91f1
:1026c8000e932760666000f3e38108346ee0059698
:1026d800002a40f0ab82324aa2f11401582b08bffd
:1026e8000a461af0200f099240f05e8206991af005
:1026f800100f0a4640f0f3811af0400f00f0ef8106
:1027080004320e88069200271af0010f00f0f181ba
:1027180056ea070200f0ed8130228df831304af098
:10272800020a8df830200223e3e64af0800a99f87d
:1027380000300be699f800302a2b09f1010700f068
:102748006a82a3f130000928b9464ff000053ff628
:10275800ffad19f8013b05eb850500eb4505a3f135
:1027680030000928f5d9f3e5a3f13000002619f85f
:10277800013b06eb860600eb4606a3f1300009286c
:10278800f5d9e5e50596002a40f05682002b00f0c1
:10279800a9808df840304ff000038df82f3049e7bd
:1027a800fc324100744341000f990e9b9df82f2085
:1027b80062b1013301310df12f000122072b0f9176
:1027c8000e9384e8050000f321810834079a5ab172
:1027d800013302310ca80222072b0f910e9384e8d3
:1027e800050000f31f810834089a802a00f08a80c7
:1027f800029aad1a002d2bdd102dad4e1edd22469e
:102808001027049c04e0103d102d02f1080214dd8d
:1028180001331031072b0f910e9382e8c000f2ddcf
:102828000daa5946204611f00ffd002861d1103d30
:10283800102d0f990e9b1aaaeadc1446013329447d
:10284800072b0f910e932660656000f3d380083440
:102858000298c4f8008001330144072b0f910e93ae
:10286800606000f382800834009b5a072ed5059bd0
:10287800a3eb0a05002d29dd102d0e9b8d4f1cddc5
:102888001026ddf8108004e0103d102d04f1080436
:1028980013dd01331031072b0f910e93276066600b
:1028a800f2dd0daa5946404611f0cefc08bb103d9a
:1028b800102d0f990e9b1aacebdc01332944072b22
:1028c8000f910e932760656000f3f680039b059acd
:1028d8005245acbf9b185344039300294fd10023a2
:1028e8000e93fee40f9b23b104980daa594611f0ec
:1028f800abfcbbf80c305b0600f1808103982bb071
:10290800bde8f08f059aa2eb0a07002f7ff770af9a
:10291800102f674e1edd2246049c04e0103f102f46
:1029280002f1080215dd013310311020072b0f9139
:102938000e9316605060f1dd0daa5946204611f03d
:1029480083fc0028d5d1103f102f0f990e9b1aaa8f
:10295800e9dc144601333944072b0f910e9384e8c0
:10296800c00000f3fc80083442e70daa59460498d9
:1029780011f06afc0028bcd10f991aac74e70daab3
:102988005946049811f060fc0028a8d0b1e75946d0
:10299800049809f0b1fb002840f03081bbf80c1016
:1029a80001f01a010a297ff495acbbf90e30002b0f
:1029b800fff690ac2b464a46594604980cf03aff6d
:1029c800039003982bb0bde8f08fddf800a0012b31
:1029d80000f0bb80022b31d1cdf800a000260027e3
:1029e800fde50daa5946049811f02efc002880d167
:1029f8001aac97e40daa5946049811f025fc002852
:102a08007ff477af0f990e9b1aac21e70daa5946b0
:102a1800049811f019fc00287ff46baf0f990e9bf6
:102a28001aacd3e60daa5946049811f00dfc0028fb
:102a38007ff45faf0f990e9b1aacd5e6cdf800a0d6
:102a4800002600271aa900e04146f20842ea477228
:102a5800f80806f0070307461646303356ea070219
:102a680001f8013c01f1ff38eed1009ad0077ff55b
:102a7800c7ad302b3ff4c4ad3023023908f8013c10
:102a88001aab5b1a02938846bee511f043fe04e4d4
:102a98000daa5946049811f0d7fb00287ff429aff6
:102aa8000f990e9b1aac81e602950df16808abe50b
:102ab80084434100744341000daa5946049811f01b
:102ac800c3fb00287ff415af0f99ffe6069a166836
:102ad80013460433f717069332463b4667e51668f4
:102ae8001af0010f02f1040206924ff000077ff47a
:102af8000fae0223fde406990a4604320e680692d8
:102b08000027f6e404321e68069201230027f0e449
:102b1800002f08bf0a2e16d30df168083046394633
:102b28000a2200230ff06eff303208f8012d3046dc
:102b3800394600230a220ff065ff06460f4656ea7b
:102b48000703ebd15ce5ddf800a0cdf800a00df19e
:102b5800a8083036012308f8416d029354e50daa00
:102b68005946049811f070fb00287ff4c2ae0f9903
:102b78000e9b1aac3ce60df1680845e5069907314d
:102b880021f00701d1e900230831069116461f46b6
:102b98000de5069b073323f0070303f10802d3e989
:102ba800006706920123a4e4069a073222f007027e
:102bb80002f108010691d2e90067a5e5069b0733f3
:102bc80023f0070303f10802d3e900670692002304
:102bd8008fe440460696cdf800a008f04dfd9df81c
:102be8002f300290019300250ee52d2376428df8b3
:102bf8002f30019367eb4707012380e44ff0ff3341
:102c080003937be69df82f30029501930696cdf845
:102c180000a00546f8e4069899f8013005680430e4
:102c280045eae575b9460690fff790bb8df82f1079
:102c380051e58df82f10a6e48df82f10a6e500bffa
:020000040000fa
:020000040040ba
:102c4800a44b834200d07047a34b1b68002bfad0db
:102c5800a24b93f90020531edbb2012bf3d82de9c8
:102c6800f04f87b0012a0bd09b4b1c68994b1b680f
:102c7800002b40f37d82002540f2dc57954e37e06b
:102c8800974b1b68b3f1ff3feed1964a0021052010
:102c980011f03af8924b1860b0f1ff3f00f06282f1
:102ca80011f0defc904aa2fb00231b0c03eb83020d
:102cb80002f2e7328d49a1fb021292094ff47a71b0
:102cc80001fb02f2b2fbf3f3894a1360cce703235a
:102cd8000422214630460cf031fa94f8433043f090
:102ce800800384f8433001356c3433689d4240da00
:102cf800e06c0028f7d0636c9b69984794f84330e0
:102d080013f0400fefd0636c5b69e06c98470028c4
:102d1800dddb0228e7d1adf81670636c1b6c03a9e4
:102d2800206d98470398e063bdf81030a4f8403050
:102d3800bdf81230003318bf012394f8432063f321
:102d4800451284f843209df8143084f86930bdf8a2
:102d58001630a4f85e3094f8423043f0400384f80b
:102d68004230d3b203f0bf0343f0800384f843300a
:102d7800b9e75a4a92f90020012a22d05d4b1b6814
:102d88003bb95d4b1b6823b95c4b1b68002b00f0fb
:102d9800ae81584b1b68002b59d10025564b1b6838
:102da800002b00f04c810022534b1a604a4b1c68e0
:102db800484b1b68934240f3db801646dff844819a
:102dc800a8e0454a1468002b40f3da8194f94320bf
:102dd800002a80f28c81224600252946012608e037
:102de80001316c328b420dd092f94300002880f2f9
:102df8007e8192f8420010f0400ff1d006fa01f0ff
:102e08000543ede701238b40013bab4200f0b8815d
:102e1800304b1b68002b16dd00252e4e4ff00308a3
:102e2800042704e001356c3433689d420bda94f8ca
:102e3800423013f0400ff5d043463a46214630461b
:102e48000cf07cf9eee7ff22244b1a704fe10022c8
:102e5800284b1a60204b1c681e4b1b68934240f39a
:102e6800508115461b4e04e001356c3433689d4291
:102e780019da94f8423013f0400ff5d0636c5b6aae
:102e8800206d984794f8603003f001038342ebd03b
:102e980094f8603043f0020360f3820360f30003a8
:102ea80084f86030e0e7012578e78c62404610f04e
:102eb800cdff636c5b6b3a463946206d98470146f7
:102ec8000028f2d10e4a13680133136046e0002748
:102ed800efe700bf4007402074084020e308402087
:102ee8007c08402081314100851dd96fd34d621087
:102ef8006c0840206408402078084020680840207a
:102f0800600840206c05402001366c34b44b1b68c7
:102f1800b3422ddd94f8423013f0400ff4d0b4f8ea
:102f28005a70636c5b6d206d98470743bfb211f010
:102f380095f9b4f85a3023ea0703a4f85a3011f087
:102f4800f5fbb4f85c303b43a4f85c30636c1b6d54
:102f58003946206d984717f0160fb8d194f84330ca
:102f680013f0200fd0d0636c9b6b206d9847cbe794
:102f78000026dff8988208f10c049a4f07f1060939
:102f88001de0ca464ff0010bbef8223023f47c53f3
:102f98009bb2aef82230baf802201343aef82230c2
:102fa800baf8040000eb4000714608eb800010f00e
:102fb8004dff012303fa0bfb1bea060f26d0204620
:102fc80010f012fd864688b3def814309a89130a89
:102fd80043ea02239bb240f60602934212d0b3f5ad
:102fe800006fced04ff6ff72934206d001226ff0e9
:102ff8000b01704610f0a4fde1e707f10c0a4ff051
:10300800020bc1e74ff0000bba46bde746ea0b06d4
:10301800baf80430744800eb0310038943f0010345
:1030280003810022012110f029fec8e711f016f9ea
:103038006d4a138b23f00103138311f077fb6b4b5d
:103048001c68674b1b68002b0cdd002640f2866865
:10305800dff8bc91624f65e0d9f800200132c9f869
:10306800002069e02db9604d05f1300405f51c75a7
:1030780030e05f4c5f4e002704f510750de01344f7
:10308800a381238943f0020323813a460221204683
:1030980010f0f4fd1034ac420fd02368002bf9d0a7
:1030a800b4f90a20002af5d0a38931685b1a9bb2cb
:1030b80019b2a1810029eddce1e711f0cff84a4a05
:1030c800138923f00203138111f030fbcbe710348e
:1030d800ac4209d054f8102c34f8083c002bf6d038
:1030e800002af4d09047f2e7434b1b6813b907b0a6
:1030f800bde8f08f00224ff48071404810f0befd0b
:10310800f5e73f4b1b68002bb3d001254be6204663
:103118000bf0daff0023a4f85c3001366c343b680e
:10312800b3429fdd94f8423013f0400ff5d0b4f865
:103138005c3013ea080f8fd194f8602012f0020f68
:10314800e8d012f0040f14bf4ff400614ff480511f
:10315800194394f860306ff3410384f86030002c11
:10316800d5d1d7e70af040fbff22264b1a70bee7fd
:10317800244b93f90030012b7ff400ae1b4b1c68e5
:103188000023039304930593154b1b68002b23dd41
:1031980062340025dff87c801b4f114ee27958f825
:1031a800223006a901eb820252f80c2c00923a4612
:1031b8000721204610f0eefd0023a371e37906aa4b
:1031c80002eb830353f80c2c013243f80c2c013525
:1031d8006c3433689d42e1db02220a4b1a70cde55c
:1031e800400740204040410020fc45207408402012
:1031f80040fc45206c0840206808402030fc4520f1
:1032080078084020e3084020503a410060054020fb
:083218005c084020e046410083
:020000040000fa
:020000040040ba
:103220002de9f04786b090f86f30012b40f0a7826f
:1032300004460f469246426c002a65d0538c13f028
:10324000080f61d143f008035384466c002e5bd015
:103250000023a6f84e30a6f84c307364a6f862300e
:10326000a6f86030b365326913603269138117f0d4
:10327000010f65d194f8363003f023036ff3451343
:1032800084f8363094f86f30012b0cbff5690025b7
:103290002b7b6ff307132b7317f0060f6cd017f00f
:1032a000020f1cd002238df8143004238df8153042
:1032b00094f86f30012b4cd00020030a43ea00231e
:1032c000adf81630a4f864002b7bc3f3031201326f
:1032d00062f307132b7394f86f30012b49d04ff032
:1032e000000917f0030f40f058821af0020f00f0a7
:1032f000518194f87130013384f87130e36c013bf3
:10330000e3644ff0010890e042f206030422142126
:103310006c200ff071ff0646002800f03382b34b9b
:103320008360c4600123a0f86430a0f85030438c5f
:1033300043f008034384636c002b98d1606496e7e4
:1033400094f8373043f0010384f8373007f0fe0774
:1033500090e7236c2bb1206c10f04efc143880b237
:10336000abe720460ef062fb0028f4d16ff00305b6
:10337000f8e1059b6b61b2e7b4f86290a26823693b
:103380009a4200f0028294f86f30012b77d0b4f8a3
:103390006430994528bf9946a36821698b4240f261
:1033a00086805b1ab4f85c80984528bf9846c14572
:1033b00006d294f8363043f0800384f83630c8469d
:1033c00094f86f30012b5fd023694344236194f854
:1033d000373013f0010f07d0b4f85c30984503d0b4
:1033e000c14518bf47f001071ffa88f9b8f1000f6f
:1033f0003ff477afb4f85c30a3eb0903a4f85c307a
:1034000047f008071af0010f40f0b1800ff056faac
:10341000774a00230ff0fafaa36c1844606294f81c
:10342000363043f0020384f83630b4f85a302b803b
:10343000b4f858306b80e36c6b60236dab602b7b12
:103440006ff303032b736f7300236b822b82e36c88
:103450004344e36417f0020f00f0d08017f0100f20
:1034600001d10023ab6094f86c3013f0080f00f02a
:10347000b1806b68013b6b604ff00408c0e011f055
:10348000e3f9002888d182e706f14402002373643f
:1034900049b11ffa88f3a6f84e30a6f84c30b16453
:1034a00033691a6090e7336900221a608ce762681a
:1034b000521a206813441b1ab4f85c80984528bf40
:1034c0009846c14506d294f8363043f0800384f81c
:1034d0003630c8461346424528bf4346b8eb030280
:1034e0002fd094f86fe0bef1010f0bd02369434455
:1034f000236162689342fff46aaf2168521a9b1af3
:10350000236164e706f1440e06f1580c90b192b2c3
:10351000a6f86220a6f86020f065c6f844c061b144
:103520009bb2a6f84e30a6f84c30b1643369c3f8ac
:1035300000e0dbe700227264f1e7336900221a60e1
:10354000d4e794f86f20012ad0d106f1440000227c
:10355000726441b19bb2a6f84e30a6f84c30b1640b
:1035600033691860c2e7336900221a60bee700239e
:1035700084f8703011f078f81e4ba3fb0023180c70
:103580004ff47a7303fb00f31b4aa2fb03239b094e
:10359000a3643be794f8363013f0020f17d01af00b
:1035a000010f08d194f870302bb1013b84f87030d2
:1035b000a36c5b08a3640ff081f90d4a00230ff0a0
:1035c00025faa36c184460624ff000082de74ff015
:1035d00000082ae7e36c0133e36494f86c3043f0ad
:1035e000080384f86c304ff0040809e0ddc74000a0
:1035f000f0490200851dd96fd34d62104ff00008cd
:1036000017f0010f05d094f86c3043f0040384f8f0
:103610006c3017f0100f05d094f86d3043f00103b3
:1036200084f86d30e269236a9a4232d3a1696069f5
:10363000091ad31acb1aeb81eb89a4f85e3028461d
:103640000cf06cfa2b7bc3f30312053262f3071301
:103650002b7394f86f30012b40f08280a36be3b999
:10366000002585f001056d426db2002d7ad117f06d
:10367000040f7bd0666f002e78d0b4f8723013f050
:10368000080f73d0a36f0822216cb4f93400b0473f
:103690006ce09b1a013beb81cee720460ef0c6f9a9
:1036a00005460028ddd008f11408e36b3363a36bf3
:1036b0007363236cb3633269138943441381336b9f
:1036c0000293736b039300228df8102006238df86c
:1036d000113008eb0905adb22b0a43ea0523adf81a
:1036e00012300c2102a80cf081fad6f81ca0c243bb
:1036f00092b2414650460cf079fac3439bb2b9f1fd
:10370000000f20d131698a8922f008028a81db43c7
:10371000aaf8103094f87e308df8053094f87f3098
:103720008df804304ff000088df8068001ab2a4672
:103730000621304605f03afdc6f80080304604f018
:1037400059fa05468de731698a8942f008028a8173
:103750004a46b16c30460bf0f7f8c3439bb2d6e74c
:103760004ff0ff3594f86f30012b03d0284606b098
:10377000bde8f087738c23f008037384f6e76ff0dd
:103780000105f3e76ff00205f0e794f8373013f026
:10379000010f0bd14ff00009a3e5b4f85c30a3eba7
:1037a0000903a4f85c304ff000082be6b4f85c3055
:1037b00013b14ff0000813e64ff0000991e500bf88
:020000040000fa
:020000040040ba
:1037c0002de9f04f01f10b06162e83b0054640f2ad
:1037d0009e8036f0070600f1bd80b14200f2ba804b
:1037e00011f038f8b6f5fc7fc0f08b82730a00f058
:1037f000b880042b00f26e81b30903f1390003f1a4
:10380000380ec300b94f3b44a3f108015c68a142e4
:1038100006d10ce0002a80f2aa80e468a14206d01a
:10382000636823f003039a1b0f2af3dd70463c699b
:10383000dff8d0e2744500f09f81636823f0030352
:103840009a1b0f2a00f38481002ac7f814e0c7f8f6
:1038500010e080f29d80b3f5007f80f05581db0899
:1038600003f1010c99107a6857f83c80c4f808807d
:1038700001238b4007ebcc0113430839e1607b60e7
:1038800047f83c40c8f80c408210012494409c4208
:1038900000f28b801c4206d120f0030064001c4221
:1038a00000f10400fad007ebc009cc468046dcf8f2
:1038b0000c309c4507d161e1002a80f26f81db6802
:1038c0009c4500f05b81596821f003018a1b0f2a97
:1038d000f2ddd3f80cc0d3f8088001939c19284678
:1038e00046f0010642f001055e60c8f80cc0ccf855
:1038f00008807c613c61c4f80ce0c4f808e06560b5
:103900005a5010f0a9ff019b03f108041ee0102992
:1039100020d810f09fff102618230220734f3b443d
:10392000a3f108025c68944200f031816368e168a9
:10393000a66823f00303234428465a68f16042f046
:1039400001028e605a6010f087ff0834204603b0f1
:10395000bde8f08f00240c2320462b6003b0bde8a7
:10396000f08f40204ff400734ff03f0e4ae723449e
:10397000e1685a68a66842f00102f16028468e604c
:103980005a6010f069ff0834204603b0bde8f08f9c
:10399000234428465a6842f001025a6010f05cff46
:1039a0000834204603b0bde8f08fbc68636823f09c
:1039b000030ab24503d3aaeb06030f2b7adc4c4b68
:1039c0004c4a019311681a6806eb0108013216bfd0
:1039d00008f18f0808f1100828f07f0841462846b2
:1039e0000ff088feb0f1ff3f04eb0a0b8146019b0c
:1039f00000f0f180834500f2ec803f4a11684144b9
:103a0000116000f047811868019201301bbfa9ebdb
:103a10000b0b5944c3f80090116019f007011cbf4b
:103a2000c1f10803994409eb080314bfc1f18801ef
:103a3000802103f07f03a1eb0308414628460ff0e5
:103a400059fe431c019a00f03f81a0eb0903434457
:103a500043f001031168c7f808904144bc42c9f81b
:103a60000430116017d0baf10f0f40f2ee80606899
:103a7000aaf10c0323f0070304eb030e00f001008e
:103a80004ff0050c18430f2b6060cef804c0cef841
:103a900008c000f21081194bbc681a68914288bfb7
:103aa0001960174b1a689142626888bf196022f04a
:103ab000030294e0a21943f0010346f00106666098
:103ac0002846ba60536010f0c7fe0834204603b0a1
:103ad000bde8f08f142b70d9542b00f2ac80330b5f
:103ae00003f16f0003f16e0ec3008be618f545205d
:103af000c4084020c008402018074020b8084020d3
:103b0000bc08402020f545205a0a042a5bd9142a13
:103b100000f2b38002f15c01c9005b3207eb010cdb
:103b20007958acf1080c8c4500f093804a6822f07b
:103b3000030293427dd289688c45f7d1dcf80c20d2
:103b40007b68e260c4f808c09460ccf80c409be647
:103b5000a11946f0010c42f00106c4f804c0284641
:103b600079613961c1f80ce0c1f808e04e60e250bb
:103b700010f072fe0834e9e67b6885e608f101087a
:103b800018f0030f0cf1080c7ff491ae37e0dc68fd
:103b9000a34208bf02303ff44aaec7e619441c46b0
:103ba0004a68db6854f8086f42f001024a60284610
:103bb000f3609e6010f050fec8e603f15c0003f174
:103bc0005b0ec3001ee69a0902f13901c9003832c2
:103bd000a4e7bc4259d0bc68626822f00302964256
:103be000a2eb060302d80f2b3ff764af284610f074
:103bf00033fe0024aae659f8083999457fd110f020
:103c0000030f00f1ff30f6d17b6823ea04037b60e9
:103c100064009c423ff6c9ae002c3ff4c6ae1c4285
:103c200040467ff440ae64001c4200f10400fad02c
:103c300039e68c4682e7b3f5aa7f13d8f30b03f17c
:103c4000780003f1770ec300dce50123c9f80430e6
:103c5000cce77b689210012101fa02f213437b60ea
:103c600062466ee740f2545293421ed8b30c03f101
:103c70007d0003f17c0ec300c4e5542a28d81a0b3a
:103c800002f16f01c9006e3248e7204a11684144d1
:103c90001160b8e61bf07f0f7ff4b5ae0aeb0803a6
:103ca000ba6843f001035360f5e67f204ff47e735a
:103cb0004ff07e0ea6e504f108012846019203f0bc
:103cc000b3fe019a1168e6e601234ff00008c1e651
:103cd000b2f5aa7f05d8da0b02f17801c900773274
:103ce0001ce740f254518a4205d89a0c02f17d013a
:103cf000c9007c3212e74ff47e717e220ee77b68aa
:103d000086e7f00806f1080308e600bf1807402020
:020000040000fa
:020000040040ba
:103d10002de9f04f99b00f210c200ff059fa10f057
:103d2000020f0fd110f0010f00f05f8210f0d2fcf3
:103d3000b0f1000840f354820024dff8d0a2dff88d
:103d4000c0b27be10ef0bafd04460d4610f08cfccb
:103d500002460023204629460ef058fea84b186064
:103d6000e4e70122114628460df061fc97f8543033
:103d70006ff3451387f854308ce128460ff0d5fed9
:103d8000002800f05781b7f84c30022b06d0032be7
:103d90000cbf09230223a7f84e304be10423a7f8f8
:103da0004e3047e1002138460af0eef9002287f84c
:103db000552097f8543003f0fd0362f3820387f82f
:103dc0005430ba62032301222946384603f0f4ff37
:103dd000002800f02f81012128460ef077f938469f
:103de0000df0f4fc0323a7f84e3023e129463846b2
:103df00008f0b0fa0a282ad0002800f01b8197f8b2
:103e0000543043f0080387f85430022840f0128100
:103e10000423a7f84e30b7f84c30022b0cbf012317
:103e2000032303222946384603f0c6ff002800f08a
:103e30000181dbf80030bb60022128460ef046f914
:103e400038460df0c3fc0523a7f84e30f2e00ef023
:103e500035fd6c4a00230ef0d9fd7b68c31a59f872
:103e600006209342c0f0e6800122022138460df080
:103e70007ffe072128460ef029f9dbe02946384667
:103e800008f068fa0a2840f0d5800ef017fd5d4a68
:103e900000230ef0bbfd7b68c31a59f8062093423d
:103ea000c0f0c8800122022138460df061fe0721d2
:103eb00028460ef00bf9bde0fb6a18a941f85c3dfd
:103ec000002228460af01af90646002860d1dbf8dd
:103ed00000307a689b1ab7f84a209342c0f0aa8053
:103ee000284610f07df80290284610f085f80390df
:103ef00007f12c09002307f13402494628460ff048
:103f00009ffb97f8553013f0020f58d195f84230c7
:103f100013f0200f0ed097f8553013f0080f54d13e
:103f200097f8553013f0100f55d007f13c01284693
:103f300010f052fc0422012128460df078fb45f2d6
:103f400002034a46494628460cf022fcfb6a7a6b7b
:103f50001a400399029b0b409a4205d0042303aafe
:103f600002a9284606f030fa04a9274bb3f900004d
:103f70000cf05cf80d9bbb620821a7f84e1097f877
:103f8000543043f0320387f8543028460ef09ef840
:103f900001a928460bf062f8002e4bd0032304221f
:103fa0002946384603f008ff0723a7f84e30dbf810
:103fb00000307b60052128460ef088f83ae007f1d2
:103fc0003001284610f000fca0e707f13801284630
:103fd00010f0fefba4e718a9002341f8503d284645
:103fe00010f0fafba6e7dbf800307a689b1a092b81
:103ff00020d90022022138460df0bafd1ae000bf98
:104000002c084020f0490200d20840201808402027
:10401000dbf80030ba689b1a3a6993420ad3092345
:10402000a7f84e30002309222946384603f0c4fe83
:1040300000284fd10134a04500f0d28020460ff077
:10404000f7fc05460028f5d090f8423013f0400ff9
:10405000f0d0daf8009010f0c7f9582606fb00f609
:1040600009eb060797f8543013f0010fe2d0b7f8c8
:104070004e20023a92b2052a0cd813f0200f09d034
:104080003b6a3bb1dbf80020d31ab7f848209342d3
:10409000bff467aeb7f84e30013b0b2bcad801a274
:1040a00052f823f07b3d4000a53d4000ed3d40002f
:1040b000173e40007d3e4000b93e4000e73f4000d3
:1040c0001140400025404000154140004b41400058
:1040d0009d414000dbf80030fb60092128460df0cf
:1040e000f5ff97f854306ff3820387f854307b69fb
:1040f000ba6813443a699b1afa689b1a5b083b2b0f
:1041000098bf3c23fb61dbf800307b600a23a7f8f3
:104110004e308fe72946384608f01cf90a2889d125
:10412000dbf80030ba689a1a79698a4203d30b2304
:10413000a7f84e307ee77a689b1afa699342fff43b
:1041400079af0923a7f84e3074e7012309222946e5
:10415000384603f031fe00283ff46cafdbf8003046
:10416000fb600a2128460df0b1ff97f854306ff339
:10417000820387f85430bb69ba6813447a699b1a82
:10418000fa689b1a5b083b2b98bf3c23fb61dbf86a
:1041900000307b600c23a7f84e304be729463846a9
:1041a00008f0d8f80a287ff445afdbf80030ba6889
:1041b0009a1ab9698a4209d27a689b1afa699342b3
:1041c000fff438af0b23a7f84e3033e7002202216b
:1041d00038460df0cdfc072128460df077ff29e782
:1041e000034bb3f900000ff022fb19b0bde8f08fcc
:0441f000d208402091
:020000040000fa
:020000040040ba
:1041f4002de9f04f89b081460591069207939df809
:104204004880cdf810805c2303fb0803d3f8ac206e
:104214000192b3f8d87008eb880300eb4303b3f8ba
:10422400b2a29e4b1b6a13f0010f58d011469b4a51
:10423400136823f004031360baf1000f46d0fe00a4
:104244008b195a6812f4804f40d13c4600255c22f9
:10425400049902fb010200920297ddf804b011e018
:10426400029f33e00134a4b2a24598bf0024013573
:10427400adb2aa4529d0e6000beb06035a6812f446
:10428400804fedd11b6833f00303ebd008eb4807f4
:10429400c8ebc707274409eb8707d9f82830d7f8b4
:1042a400840098470023c7f88430009bd3f8ac20df
:1042b400935903f003039351bff35f8f0123224605
:1042c4004146484606f01cffcce7029f734b01228f
:1042d4001a621a6842f004021a60bff35f8f059bea
:1042e400002b00f06181baf1000f00f0d3800023ad
:1042f40002930093194603934ff05c0b049b0bfb52
:10430400039b63e0536813f4804f44d05346039aed
:1043140002990a44013a92fbfaf40afb1424002c91
:1043240001dae418fdd4a4b2029e03e0013ca4b275
:10433400013eb6b2e6b108eb4805c8ebc505254415
:1043440009eb8505d9f82830d5f88400984700236f
:10435400c5f88430dbf8ac2052f8343003f00303a2
:1043640042f83430002ce1d10af1ff34a4b2dfe783
:10437400029b039a4146484606f0c2fe009b013b5d
:104384009bb227b90af1ff37bfb2002110e0013f09
:10439400bfb200210ce0029b01339bb2029353682d
:1043a40013f4004f40f00981009b01e059bb009bce
:1043b4000137bfb2ba4598bf00275a1c92b2009287
:1043c400534500f2f380009b9a4565d9019c04eba8
:1043d400c70254f8373013f0010fe7d054f83730e0
:1043e40033f00303e2d000298cd1536813f4804fd7
:1043f4004ed0536813f4004f40f0dc800397012340
:1044040019460293d4e75346039a02995418621e3c
:1044140092fbfaf40afb1424002c01dae418fdd40c
:10442400a4b2029e03e0013ca4b2013eb6b2e6b1de
:1044340008eb4805c8ebc505254409eb8505d9f803
:104444002830d5f8840098470023c5f88430dbf879
:10445400ac2052f8343003f0030342f83430002c1b
:10446400e1d10af1ff34a4b2dfe7029b039a41468b
:10447400484606f045fe009b013b9bb227b90af172
:10448400ff37bfb2002193e7013fbfb200218fe79e
:10449400009b8de701208ae0012088e000000540b0
:1044a400c2f85c722037bc45fad1bff34f8fbff31b
:1044b4006f8fc0b101339bb2b5f8b2729f4298bfff
:1044c40000232768d7f810c0f71809eb8707d7f837
:1044d40084703f69ccf80070d4f800c0dcf8107028
:1044e4003f68ccf81070013989b24ff6ff77b942b2
:1044f40044d02768d7f810c0b5f8b872874228bfef
:104504000746acf8087027683f69b5f8b8c2a7f841
:104514000ac0b5f8b872b8422cbfc01b0020f71807
:10452400203709eb87074ff0000cc7f804c04ff0a1
:104534005c0c049f0cfb0797d7f8acc05cf8337095
:1045440007f003074cf83370576917f4803fb0d075
:10455400def81070d7f804c027683f69b7f808b0d0
:104564006746bff34f8fbbf1000f9ed00bf1ff3bab
:104574002bf01f0b0bf1200bdc4491e75c2202fbb8
:104584000892d2f8ac2002ebc3035b68079a13606d
:10459400059b1b68c3f810a0029b039a414648463a
:1045a40006f0aefd002002e0012000e0012009b089
:1045b400bde8f08f03970123029308eb4803c8eb8f
:1045c400c303039d2b4409eb8303d3f884e0059cc8
:1045d400c4f800e07b1c9bb208eb880109eb4101a5
:1045e400b1f8b212994298bf00235c2101fb0891f3
:1045f400a1f8d830069b1846029901605068c0f3b0
:104604000d002368d3f810a02b46049e324606eb17
:10461400860509eb450506eb4606c2ebc606014acc
:0846240061e700bf00ed00e0ba
:020000040000fa
:020000040040ba
:10462c00002900f095802de9f04f0d46164683b019
:10463c00804606f10b0710f007f955f804ec162f1d
:10464c002ef00304a5f108093cd810221746be42ef
:10465c003dd8944243dac44b996809eb0400884274
:10466c0000f0b480436823f0010101444968c90794
:10467c004cd51ef0010f00f09b8031464046fff7f1
:10468c0099f8064600283ad055f8043c23f001036b
:10469c004b44a0f108029a4200f02181221f242ae7
:1046ac0000f20781132a00f2db8003462a461168c8
:1046bc0019605168596092689a602946404603f027
:1046cc00adf91ce027f00707002f3a46bfda0026a9
:1046dc000c233046c8f8003003b0bde8f08f2e46ee
:1046ec00e31b0f2b1ed8d9f8043003f0010323432e
:1046fc004c44c9f80430636843f0010363604046de
:10470c0010f0a4f8304603b0bde8f08f23f003039b
:10471c00e11891421fdbc36882682e46d3600c46b9
:10472c009a60dde7d9f8042009eb070102f00102d9
:10473c004c4443f001031743c9f804704b606368a1
:10474c0043f0010308316360404603f067f9d6e794
:10475c001146fff72fb81ef0010f8ed155f8081c2b
:10476c00a9eb010adaf8041021f003010b442344ed
:10477c00934225dbc26881685646ca609160daf8bc
:10478c000c1056f8080f221f242ac160886000f212
:10479c009480132a6fd92968caf808106968caf876
:1047ac000c101b2a00f2a28008350af1100263e0fb
:1047bc0055f8083ca9eb030adaf8041021f00301c0
:1047cc0063189342fff659af5646d8e7416821f07b
:1047dc00030ba34407f11000834556da1ef0010fba
:1047ec007ff44baf55f8081ca9eb010adaf804105a
:1047fc0021f003018b445845e2dc5646daf80c10e4
:10480c0056f8080f221f242ac160886000f28f809e
:10481c00132a40f28a802968caf808106968caf815
:10482c000c101b2a00f28a8008350af11002296844
:10483c00116069685160a96891600aeb0701abebe4
:10484c00070242f0010299604a60daf8043003f082
:10485c0001031f434046caf804700ff0f7ff51e7fd
:10486c002b6803606b6843601b2a2dd800f108038a
:10487c0005f108021be7324629681160696851602e
:10488c00a96891601c46d1462ae709eb0701abebfe
:10489c00070b4bf0010299604a6055f8043c03f099
:1048ac0001031f43404645f8047c0ff0cfff2e4612
:1048bc0028e7294607f082fcffe6294630461c46cd
:1048cc00d14607f07bfc0be7ab688360eb68c360f9
:1048dc00242a17d000f1100305f11002e7e650f876
:1048ec00043c23f003031c442e46f9e6a968caf8dd
:1048fc001010e968caf81410242a0cd010350af1eb
:10490c001802b9e72b6903616b69436105f1180261
:10491c0000f11803cbe62a69caf818206a69caf8ac
:10492c001c2018350af12002a6e732467fe72946fb
:10493c003046019307f042fc019b7ee7a968caf858
:10494c001010e968caf81410242a03d010350af1a3
:10495c0018026ce72a69caf818206a69caf81c2080
:0c496c0018350af1200262e718f545201a
:020000040000fa
:020000040040ba
:10497800b14b1b680bb1b1487047002900f0468164
:104988002de9f04f83b04d688c6804b125b94ff01c
:10499800ff3003b0bde8f08fab6a002b00f039811f
:1049a800ce680f69002f18bf002e0cbf4ff0010a08
:1049b8004ff0000a02d14ff0ff30eae7dff8a0c25b
:1049c8008e46bee80f00ace80f00ccf8007000215e
:1049d8009b4b19609b4b19609b4b19609b4b196053
:1049e8002022964809f07af9002f00f015813388c3
:1049f800012b6ad0781e334600220833824200f029
:104a08000b81013219880129f7d1002b00f00c81a4
:104a1800d3f80480b8f1000f00f0fe80d8f8043015
:104a2800002b00f0f980d8f80830002b00f0f48053
:104a3800d8f80c30002b00f0ef80002140460ff032
:104a4800b3fa01907d4bd860002800f0e88098f810
:104a580000201a7483686c22214681469847764b59
:104a68001860002800f0db802246294648460df0f1
:104a780099ff002800f0d380704b1c609f606e4b3c
:104a8800d3f800b0002c40f3d3804ff00009009514
:104a980000225946284605f0e5f8002800f0bf80b6
:104aa80009f101090bf16c0b38354c45f0d1009d2b
:104ab800614a1168002c26dd604ad2f804908c46c1
:104ac8004ff0000e834628460de033469de701333c
:104ad8006c329c4206d0516c8d42f8d109f1010923
:104ae800da46f4e70099dcf844500ef1010e0cf1b7
:104af8006c0c744503d0624673460091ebe705469b
:104b0800baf1000f20d14d4bd3f804e0bef1000fed
:104b180040f085807046aa46a6451bdad0b9d1f880
:104b280018c00ef1010e6c317445f5dd8b699c459a
:104b38000ed00a46734601336c329c42ecdd95690f
:104b4800ac45f8d10620e7e73c4bc3f80490dae718
:104b58000620e1e78146554600284ed14ff0000a6d
:104b68003b4bc3f800a04ff418725146394809f07e
:104b7800b5f8394bc3f800a0dff8e8e098e80f0073
:104b88008ee80f00d046dff8e0a00aeb08000ff02f
:104b9800d7fd08f10c08b8f1900ff6d10022274b89
:104ba8001a77254b1b680093dff89080dff8a0a0e8
:104bb800a34602e009f1010938356c22009b02fb8b
:104bc8000934d9451ada286a0df00efe012826d1d3
:104bd800012388f81d30c8f81440c8f818903b46df
:104be80032462946404603f06ffbc0b1daf8003080
:104bf800002bdfd1caf80040dce780b9019883694f
:104c080098470122154b1a700c48c2e64ff0ff3046
:104c180070474ff0ff30bce60022084bda6008f01e
:104c2800e3fd4ff0ff30b4e60022044bda60f6e70c
:104c3800014b196867e700bf74084020400740200f
:104c4800780840205c084020600840206408402024
:104c58007008402020fc452068084020e3084020d8
:0c4c680090074020d40740206005402049
:020000040000fa
:020000040040ba
:104c74002de9f04f85b003f03004302c00f026818c
:104c84001f4615460e460ef0c9fa0446002800f0e9
:104c94001f81192d38bf1925436802689b1a013bef
:104ca4009bb282694169521a1ffa82f817f0100ff9
:104cb40023d1192e38bf192617f0200f23d113fa48
:104cc40082f271198a4219dda8eb01021a4492b2e8
:104cd40007f00301032905d021b102290ad0324487
:104ce40096b20be00132c2f34f021644b6b2154439
:104cf400adb203e02a4495b200e046469d4203d299
:104d04005b1b9bb202e01d46eb1a9bb21f2b3ed8e5
:104d14004ff00009b04594bfa6eb0803a8eb0603c7
:104d24009bb21f2b3dd8b9f1000f00f0c3804ff0a8
:104d3400000a17f0080f00f0cd80a368e1688b42e9
:104d440045d26268521a92b20192d4f800b0a3eb31
:104d54000b081ffa88f8019a12eb080300f0f3809d
:104d6400ab4200f39380002a3bd1b8f1000f3cd151
:104d74002269e368d11a89b203919a4280f0ae8025
:104d8400636822689b1a19448bb20393a6e0764b9e
:104d940018684368691c984781460028bad10020e6
:104da400cee0714b18684368711c9847824638b14d
:104db400b9f1000fbdd1002303939846019323e07a
:104dc400694b1868c368494698470020b8e08b428d
:104dd40013d9a3eb01081ffa88f88b46002301932b
:104de400b9e7484604f0eefcbfe742465946019b4a
:104df40009eb030004f0e6fcbae7baf1000f50d067
:104e0400002303939846019317f0040f00f09e804b
:104e1400e369616db1f1ff3f0ad0b4f860200a4440
:104e24001344a269934203d96169521ad2431344c9
:104e3400216a8b4219d9a3eb010b1ffa8bfb0f4696
:104e440000230293029a12eb0b0300f08380b34217
:104e54001cdcbab9bbf1000f7cd05a463946029b20
:104e64000aeb030004f0aefc74e08b4277d2a26933
:104e74000132521a92b202926769a3eb070b1ffa2e
:104e84008bfbdfe7504604f09dfce3e7364c2068db
:104e9400c368514698472068c3684946984700202c
:104ea4004ee00027bb4602970397b84601971be0e4
:104eb400012719e0b9f1000f3dd1012040e00122a2
:104ec40010212046fef7aaf9012039e0002037e03e
:104ed400002035e00023039398460193baf1000fb4
:104ee40092d10027bb4602971f4b1868c3682168fc
:104ef4009847c4f8009001354d446560c4f80c909f
:104f0400019b43444b44a360039b4b4423612046d1
:104f14000cf0c9ff002fcdd0134b1868c36861692a
:104f24009847c4f814a05644a661c4f820a0029b74
:104f34005b445344e36194f86e30032bbfd00120eb
:104f440005b0bde8f08f00230393c7e74ff0000bd3
:104f5400cdf808b0b9f1000faad10127dae74ff074
:0c4f6400000bcdf808b0f5e790084020e5
:020000040000fa
:020000040040ba
:104f70009368002b73d02de9f04f8b8983b00c46da
:104f800019070090164626d5226922b313f00200b5
:104f900035682cd04ff00009b04fc846b246b8452e
:104fa00043464a4628bf3b460098b8f1000f50d010
:104fb000e169666ab047002858dddaf808301b1a44
:104fc0008144a8eb0008caf80830002be7d1002084
:104fd00003b0bde8f08f2146009807f091f8002853
:104fe00040f03381a389356813f00200d2d113f069
:104ff000010945d14f46019637b39a05d4f8088088
:1050000040f183804745c346c0f0ab8013f4906ff6
:1050100040f0ac802068ba465a46494607f0d4f8ba
:10502000a2682368a2eb08025b44a2602360019a95
:105030009368a3eb0a03d144a7eb0a079360002b04
:10504000c5d0a389002fd8d1d5f800906f68083556
:10505000d2e7d5f80090d5f8048008359fe7002006
:105060007047214600980df001ff70b3b4f90c3081
:1050700043f040034ff0ff30a38103b0bde8f08f51
:10508000814633464e46a8469a464d464eb380b3b7
:10509000206823696269b145cb4628bfb346984270
:1050a0005f4604d9a36813449b4500f3a68093454b
:1050b0004bdb1346676ae16900982a46b847071e2a
:1050c000d4ddb9eb0709ccd00120daf80830db1bbe
:1050d0003d44f61bcaf80830002b3ff478af002e91
:1050e000d5d108f1080313e9600098460833002e73
:1050f000f9d032460a21284608f01afc002800f0b0
:10510000a1800130a0eb0509c2e72068236998421d
:1051100002d863699f425dd2b84528bfb84642466f
:10512000494607f051f8a3682268a3eb08034244fc
:10513000a36022600bb1c24679e7214600980df0ca
:1051400095fe002892d1c24671e75a46294607f0db
:105150003bf8a2682368a2eb0b025b44a2602360c9
:10516000afe72068b846ba46bb4655e76269206893
:10517000216902eb4208a0eb010a08ebd8780af19a
:1051800001004fea680838444045424684bf8046e3
:1051900042465b0544d511460098fef711fb834655
:1051a000002855d05246216904f00efba38923f450
:1051b000906343f08003a3810beb0a00a8eb0a0382
:1051c000c4f810b0c4f814802060a360b846ba4692
:1051d000bb4621e76ff00041b94228bf39464a4635
:1051e00091fbf3f10098666a03fb01f3e169b047b4
:1051f000b0f1000a3ff71baf38e71a462946019382
:1052000006f0e2ff2268019b00981a4422602146c2
:105210000df02cfe019b00287ff428af1f4650e7bd
:105220000098fff703fa83460028c5d1009d216945
:10523000284602f0f9fbb4f90c300c2223f080036d
:105240002a6015e706f1010922e74ff0ff30bfe6bb
:10525000009a0c231360b4f90c3009e700fcff7fbf
:020000040000fa
:020000040040ba
:105260002de9f0478c460d460446089e002b51d18f
:105270008a4217466dd9b2fa82febef1000f0bd0fa
:10528000cef1200c01fa0ef520fa0cfc02fa0ef712
:105290004cea050c00fa0ef44fea174a250cbcfb49
:1052a000faf81ffa87f90afb18cc45ea0c4508fb07
:1052b00009f3ab420ad9ed1908f1ff3280f02381de
:1052c000ab4240f22081a8f102083d44ed1aa4b29d
:1052d000b5fbfaf00afb105544ea054400fb09f956
:1052e000a14509d9e41900f1ff3380f00a81a145f5
:1052f00040f2078102383c44a4eb090440ea08402c
:105300000021002e61d024fa0ef400233460736073
:10531000bde8f0878b4207d9002e54d0002186e8e3
:1053200021000846bde8f087b3fa83f1002940f078
:105330008e80ab4202d3824200f2fa80841a65eb7f
:1053400003050120ac46002e3fd086e81010bde8d2
:10535000f08712b90127b7fbf2f7b7fa87febef163
:10536000000f34d1eb1b3a0c1ffa87fc0121b3fb71
:10537000f2f8250c02fb183345ea03450cfb08f351
:10538000ab4207d9ed1908f1ff3002d2ab4200f26f
:10539000d1808046ed1aa3b2b5fbf2f002fb1055a6
:1053a00043ea05440cfb00fca44507d9e41900f1cd
:1053b000ff3302d2a44500f2b8801846a4eb0c04d7
:1053c00040ea08409de731463046bde8f087cef11f
:1053d000200405fa0ef307fa0ef720fa04f83a0c47
:1053e00025fa04f448ea0308b4fbf2f14fea184541
:1053f00002fb11441ffa87fc45ea044501fb0cf34c
:10540000ab4200fa0ef409d9ed1901f1ff3080f03a
:105410008a80ab4240f2878002393d44eb1a1ffa82
:1054200088f5b3fbf2f002fb103345ea034500fbbd
:105430000cf3ab4207d9ed1900f1ff386fd2ab4244
:105440006dd902383d44eb1a40ea01418fe7c1f1c2
:10545000200722fa07f88b4005fa01f448ea030313
:1054600020fa07fe4fea134cfd404eea040eb5fb4e
:10547000fcf94fea1e440cfb19551ffa83f844ea65
:10548000054509fb08f4ac4202fa01f200fa01fa00
:1054900008d9ed1809f1ff3043d2ac4241d9a9f146
:1054a00002091d442d1b1ffa8efeb5fbfcf00cfb00
:1054b00010554eea054400fb08f8a04507d9e4184a
:1054c00000f1ff3529d2a04527d902381c4440ea13
:1054d0000940a4eb0804a0fb02894c45c6464d4692
:1054e00015d312d056b1baeb0e0364eb050404fadf
:1054f00007f7cb401f43cc40376074600021bde804
:10550000f0871846f8e69046e0e6c245ead2b8ebe6
:10551000020e69eb03050138e4e72846d7e7404669
:1055200091e78146bee7014678e702383c4445e70b
:0c553000084608e7a8f102083d442be7fc
:020000040000fa
:020000040040ba
:04553c00040000bfa8
:020000040000fa
:020000040040ba
:10554000a2eb0300704700bf02780b78012a28bf46
:105550009a42f5d16de9044540ea0104cde90267bc
:105560006ff0000c4fea447212b380ea010414f0a9
:10557000070f6ad100f0070420f0070004f00305cc
:1055800021f007014feac505f0e8042314f0040fe9
:10559000f1e804670cfa05f462ea040266ea04061c
:1055a0000ad063ea0403624667ea0407664603e03a
:1055b000f0e80423f1e8046782fa4cf582ea060475
:1055c000a4fa8cf46cbb83fa4cf583ea0705a5fac0
:1055d0008cf595b950e9022351e9026782fa4cf53e
:1055e00082ea0604a4fa8cf483fa4cf583ea0705f0
:1055f000a5fa8cf52543dbd09cb92dbab5fa85f414
:1056000024f0070427fa04f1dde9026723fa04f322
:1056100003f0ff0001f0ff01fde80445a0eb0100ed
:10562000704724bab4fa84f424f0070426fa04f18b
:10563000dde9026722fa04f202f0ff0001f0ff0147
:10564000fde80445a0eb0100704714f0030f3cd1c6
:1056500010f0030428d150f8082b51f8083b82fac7
:105660004cf582ea0305a5fa8cf55db950f8042cd7
:1056700051f8043c82fa4cf582ea0305a5fa8cf550
:10568000002de8d02dbab5fa85f424f0070423faea
:1056900004f122fa04f202f0ff0001f0ff01fde83c
:1056a0000445a0eb010070474feac40420f003005a
:1056b00050f8082b21f0030151f8083b0cfa04f4d0
:1056c00062ea040263ea0403c9e710f003041ad093
:1056d000a1eb040120f00300e40750f8042b06d0ee
:1056e0000fd28b785ffaa2f4e41a06d12bb1cb78f3
:1056f0005ffab2f4e41a00d11bb920465df8104bf2
:10570000704701f1040150f8042bcc0721f003018c
:1057100051f8043b48d824d222f07f4482fa4cf559
:1057200094ea1325a5fa8cf50ad165b951f8043b22
:1057300084ea0204b4eb036f0ed150f8042bebe7bc
:105740004fea132355e035f07f454dd10878fde849
:105750000445c0f1000070474fea126203f0ff03f6
:1057600047e002ea1c4482fa4cf594ea1345a5fa94
:105770008cf50ad165b951f8043b84ea0204b4eb14
:10578000034f0cd150f8042bebe74fea134330e002
:1057900015ea1c4528d10b884fea124229e04fea4e
:1057a000124203ea1c4324e002f0ff0482fa4cf5a3
:1057b00094ea1365a5fa8cf50ad165b951f8043b52
:1057c00084ea0204b4eb032f09d150f8042bebe771
:1057d0004fea13630de015f0ff0f05d10b684fea98
:1057e000122223f07f4304e04ff00000fde804455f
:1057f000704712ba1bba82fa4cf482ea0304a4fa84
:105800008cf5b5fa85f402fa04f203fa04f34fead0
:0c5810001260fde80445a0eb1360704737
:020000040000fa
:020000040040ba
:10581c0041f25003984200f046814ff0ff30704740
:10582c00a74870472de9f04184b04d688e682b690c
:10583c00002b00f02181002e00f01e81f36c002b58
:10584c0000f01f81336d002b00f01e819c4c4ff437
:10585c003f720021201d08f03ffa4ff0ff33236107
:10586c00e360002222754ff0000362f30413a3756a
:10587c00272384f847302b69a361ab68e361eb689d
:10588c0023626b696362ab69a362eb69e3622b6aa7
:10589c0023635422314604f52b7003f08fff012152
:1058ac00204609f09ffd0221204609f09bfdb4f82b
:1058bc00b432002b00f0eb80b4f8b8323f2b40f23e
:1058cc00e9800123214603eb830201eb4202b2f88b
:1058dc00b422002a00f0e18003eb830201eb4202c8
:1058ec00b2f8b8223f2a40f2db800133dbb2052b41
:1058fc00e9d9734b2a4652f8360fc3f8ac0292889a
:10590c00a3f8b0221b6b33b101216e48984710b934
:10591c004ff0ff30b2e06a4c94f947000bf0c8fe30
:10592c00d4f8f86227893368d4f8fc1238469847c3
:10593c00b0f1ff3f05d1624804f072f84ff0ff3030
:10594c009ce0e0607369032138469847b0f1ff3f53
:10595c00f1d022462061d4f8fc3219890091b4f8b8
:10596c00f012adf80410997a8df806100f218df80d
:10597c0007101b690293f36c343269469847002870
:10598c00d9db4f4c204608f0d5fd4ff0ff324ff0dd
:10599c00ff33cde9002300238df80c3069462046f7
:1059ac0003f038f9484a5168484b0b4043f0400328
:1059bc005360204605f0ccfe0028bcd1404804f0d2
:1059cc0077fe0028b7d100243d4ee1b2304608f0f6
:1059dc0075fe00284dd10134e3b2052bf5d9002416
:1059ec00374b93f94730002b0cdb590903f01f039d
:1059fc00012202fa03f3364a01f1600042f820302a
:105a0c0042f821302e4e30460df0acff6f6aad6a75
:105a1c00304b1b689e4221d0002b8cd196f947004d
:105a2c000bf046fe96f94730002b09db5a0903f0c0
:105a3c001f030121994002f16003254a42f823100b
:105a4c001f4b0022a3f84a20a3f84820a3f84e20ad
:105a5c00a3f84c201f655d651e4b1e60002c7ff467
:105a6c006aaf1748837d43f00103837501230375e7
:105a7c0004e06ff00204b3e74ff0ff3004b0bde870
:105a8c00f0814ff0ff30f9e74ff0ff30f6e74ff0c1
:105a9c00ff30f3e74ff0ff30f0e74ff0ff30ede76a
:105aac004ff0ff30eae7064b9b7d13f0010f7ff4bc
:105abc00b7ae13f0020f3ff4b5ae4ff0ff307047a6
:105acc0020f945207cf945200000054007feffdb4e
:085adc0000e100e00008402099
:020000040000fa
:020000040040ba
:105ae4002de9f04f87b00f2102200df06ffb8046a7
:105af40010f0010f40f0828018f0020f40f0848013
:105b040007b0bde8f08fa28840f206439a4213d052
:105b14003946324628460ef015f830460ef082fa21
:105b240005460028e8d0ac6920460df03fff2388e5
:105b3400012be8d03946ece7a3690393d5f8289004
:105b4400daf804b048460ef04dfc04f10e03049359
:105b5400c0eb001019465bf8200009f075ff83467e
:105b640028b104f108020146484609f03bfa99f8c5
:105b7400433013f0100f3fd1d9f80430039a9a42fe
:105b840001d03146c5e7bbf1000f04d0e388012bf7
:105b940026d03146bde704f108030393daf804b0d4
:105ba40048460ef01ffcc0eb00100beb800305937e
:105bb40004995bf8200009f07bff0028e6d0037805
:105bc40013f0020f06d0059b1433039a80210cf0c6
:105bd400a5fddbe7039a0146484609f003fad5e739
:105be400d4f80e30d9f804200834009431464846dd
:105bf40007f018fc31468ce731468ae702266ff03d
:105c04000c07dff878a188e75c4c636902336361b1
:105c14000ef05efd6368021e04927ff771af03f11c
:105c2400140203f1240b002303932546904674e0e9
:105c340063687a68524900915146384607f0f2fb8e
:105c4400638a013363822468c4b134f8042c12f4e7
:105c5400007f14bfe98fa98f638a8b42f3d26969ed
:105c6400a068081a696b01fb03f39842ebd3b9f1fe
:105c7400000fddd012f4807fe5d0d9e756f8104c40
:105c840004b36b69a2689b1aea6a93421ad36ff051
:105c9400020a4ff00009211f56f8240c0ef092f965
:105ca40040460cf02ffa53464a46211d38460af066
:105cb400e5ff56f8104c2cb16b69a2689b1aea6a8e
:105cc4009342e8d256f8243c5a6a33699a4219d36b
:105cd4007369bbb100246ff0030a40460cf012fa5a
:105ce400814678b1011f56f8240c0ef06bf9534627
:105cf400002209f1040138460af0c0ff0134736937
:105d0400a342ead8039b0133039308f13c080bf147
:105d14003c0b049a9a423ff4f3ae03980df086fece
:105d240007465e46dbf80040002ca7d06b69a268ea
:105d34009b1a2a6b93421ad34ff0ff3a4ff0000993
:105d4400211f56f8240c0ef03df930460cf0daf918
:105d540053464a46211d38460af090ff3468002c09
:105d64008cd06b69a2689b1a2a6b9342e8d297f88d
:105d7400439009f010094ff0010a66e754064020e9
:045d8400f0074020c4
:020000040000fa
:020000040040ba
:105d88002de9f04f87b0074601900e465c2303fbd0
:105d980001f31946049300eb010adaf8b04006eb68
:105da800860300eb4303b3f8b652b3f8b48201f1ab
:105db800c009814448460df0e7fd029043681a691e
:105dc800baf8da300381002a00f0078106eb86036f
:105dd80007eb4303b3f8b6a210464ff0000e02e0fb
:105de8008e44006858b10789b7fbfaf399b20afbe9
:105df80013739bb2002bf3d0013189b2f0e75c201a
:105e0800019b00fb0630b0f8da304146b0f8dc0000
:105e180003f1010ca0eb0c0090fbf8fc08fb1c083c
:105e2800b8f1000f02da18eb0108fcd4f045c0f015
:105e3800ce8003eb0e0c9cfbf1f001fb10c0002898
:105e480001da4018fdd481b205917149496911f40c
:105e5800803f0bd1002a71d006eb860a019901eb2d
:105e68004a0ac5f30d0ba846154658e068490020b4
:105e7800c1f88400bff34f8fd1f88010c1f34e3ab8
:105e8800c1f3c90188464fea4a1b89070391dff825
:105e9800809143f6e07c0bea0c0c0398414640eafb
:105ea8000c07c9f86c72013900f14040b1f1ff3fad
:105eb800f5d10af1ff3aabf1200bbaf1ff3fe8d177
:105ec800bff34f8fbff36f8fc4e74768c1f30d016e
:105ed80039434160002101339bb2baf8b4029842b9
:105ee80098bf0023013a92b2bab104ebc3004768e5
:105ef80007f0404747606f68b5f808c0aceb010c85
:105f0800674444f833708845dfd247684bea07078f
:105f18004760a1eb080189b2dde72d6875b12989d1
:105f2800baf8b672b1fbf7f082b207fb101080b274
:105f380008b1013292b2002ad7d1eee7cbb906eb0d
:105f48008603019a02eb4303b3f8b432013b9bb2d8
:105f580004ebc3014a6842f400424a60029a538142
:105f68001ffa8ef5d5b106eb8600019a02eb4000c8
:105f780007e0013b9bb2ebe7013b9bb2013dadb2b1
:105f880065b104ebc3014a6822f000424a60002b65
