:020000040000fa
:10000000f0ff0320b5620100cf0b0100bf13010018
:10001000cb250100af2a0100df4d010000000000e8
:100020000000000000000000000000007b04010050
:100030009b1f0100000000007b0401007b04010005
:100040007b0401007b0401007b0401007b040100b0
:100050007b0401007b0401007b0401007b040100a0
:100060007b0401007b0401007b0401007b04010090
:100070007b0401007b0401007b0401007b04010080
:100080007b0401007b0401007b0401007b04010070
:100090007b0401007b0401007b0401007b04010060
:1000a0007b0401007b0401007b0401007b04010050
:1000b0007b0401007b0401007b0401007b04010040
:1000c0007b0401007b0401007b0401007b04010030
:1000d0007b0401007b0401007b0401007b04010020
:1000e0007b0401007b040100000000000000000010
:1000f000000000007b0401007b0401007b04010080
:100100007b0401007b0401007b0401007b040100ef
:100110007b0401007b040100d90e0100d90e01000f
:10012000d90e0100d90e01007b0401007b040100ff
:100130007b0401007b0401007b0401007b040100bf
:100140007b0401007b0401007b0401007b040100af
:100150007b0401007b0401007b0401007b0401009f
:100160007b0401007b0401007b0401007b0401008f
:100170007b0401007b0401007b0401007b0401007f
:100180007b0401007b0401007b0401007b0401006f
:100190006dd201007b0401007b0401007b0401009f
:1001a0007b0401007b0401007b0401007b0401004f
:1001b0007b0401007b0401007b0401007b0401003f
:1001c0007b0401007b0401007b0401007b0401002f
:1001d0007b0401007b0401007b0401007b0401001f
:1001e0007b0401007b0401007b040100e9b60100ef
:1001f0007b0401007b0401007b0401007b040100ff
:100200007b0401007b0401007b0401007b040100ee
:100210007b0401007b0401007b0401007b040100de
:100220007b0401007b0401007b0401007b040100ce
:100230007b0401007b0401007b0401007b040100be
:100240007b0401007b0401007b0401007b040100ae
:100250007b0401007b0401007b0401007b0401009e
:040260007b0401001a
:020000040000fa
:10026400f8b500bff8bc08bc9e467047a1cc01009d
:10027400256f0100f8b500bff8bc08bc9e46704766
:04028400016f010005
:020000040000fa
:08028800ac9e00000100000023
:020000040000fa
:100290002de9f04fd7b08b4691460b9305901cf09b
:1002a0000bfa03681893184612f04af8bbf80c30a2
:1002b00016901f0604d5dbf81030002b01f0f981f1
:1002c0009fed717b00238ded107b0f932c932b936f
:1002d00014931a9315931b93179306932dab2a939c
:1002e0009a464e46cdf820b033783446e3b1252bfc
:1002f00002d119e0252b03d014f8013f002bf9d1ce
:10030000a51b8db12b9b2c9acaf8006001332a449f
:10031000072bcaf804502c922b9300f3a8800af103
:10032000080a069b2b4406932378002b01f05f817b
:10033000002309938df88b3003934ff0ff32631c39
:10034000677807922b242025984608f10108a7f129
:1003500020035a2b00f22584dfe813f0aa022304bd
:100360002304b4022304230423046200230423048b
:10037000bb02c90223048200ff022304ce02d5027d
:10038000d502d502d502d502d502d502d502d502b5
:100390002304230423042304230423042304d60373
:1003a00023049e03b503d603d603d60323042304f4
:1003b00023042304f80223042304700323042304e6
:1003c00023042e0323045c03230423049702230441
:1003d0002304230423042304230423042304d60333
:1003e00023049e035602d603d603d603ee0256021a
:1003f0005b002304e4022304850321021a035b004b
:1004000023042e037b003f02230423049a002304c9
:100410007b00039b98f8007043f02003039394e75c
:10042000ddf8149048461cf047f9436817931846c6
:1004300011f086ff1b90074648461cf03df9836883
:10044000159337b1159b23b1159b1b78002b41f0f9
:10045000238198f8007078e7099a0b935242099229
:10046000039b98f8007043f0040303936de72aaaf6
:100470000899059810f0acfe002841f011840df1a8
:10048000b40a4ee7aff30080000000000000000057
:100490009d4b1493039bcdf83880990600f1fd81a4
:1004a000039bda0601f13e80039b5b0601f1b280fb
:1004b000039b0b9a13f4007f134601f03b80043337
:1004c00014780b930025039ad6070ad554ea05033e
:1004d00007d0302342f002028df88d7003928df820
:1004e0008c30039b022223f4806300218df88b1053
:1004f0000798411c00f0ab8123f08001039154ea7e
:10050000050140f0a981002840f07e84002a40f0d7
:10051000698513f0010556ae02d0302306f8013d7f
:1005200000230a93139312930c93079bab42b8bf1b
:100530002b4604939df88b3013b1049a0132049238
:10054000039a12f0020802d0049a02320492039a2b
:1005500012f0840940f03a83099a0499a2eb010b46
:10056000bbf1000f40f33283bbf1100f2c9a2b9b91
:100570002fdd199750465f46c246cb46b046a94686
:1005800010241946059d089e04e0103f102f00f12d
:10059000080016dd01315d4b2b91103207292c929a
:1005a00080e81800f1dd2aaa3146284610f010fe36
:1005b000002840f02c85103f102f2c9a2b992da845
:1005c000e8dc4d46d946bb46199f46460b46d04609
:1005d00082460beb020401334c4a2c94072b2b93dd
:1005e0008ae8040800f302859df88b300af1080ab6
:1005f00073b12b9b013301340df18b010122072bc9
:100600002c942b938ae8060000f31c840af1080a54
:10061000b8f1000f0dd02b9b0133023423a9022225
:10062000072b2c942b938ae8060000f317840af119
:10063000080ab9f1800f00f02f83079ba3eb05098f
:10064000b9f1000f3eddb9f1100f2b9bdff8c08030
:100650002ddd52462146b2464ff0100b4646059c12
:10066000a846089d06e0a9f11009b9f1100f02f1a2
:10067000080217dd01331031072b2c912b9382e8f0
:100680004008f0dd2aaa2946204610f0a1fd0028e6
:1006900040f09b83a9f11009b9f1100f2c992b9b05
:1006a0002daae7dc45460c46b04656469246013335
:1006b0004c44072b2c942b938ae8000300f3ae8361
:1006c0000af1080a039bda0500f182822b9bcaf823
:1006d000006001332c44072b2c94caf804502b9350
:1006e00000f369830af1080a039b5a0741d5099b65
:1006f000049a9d1a002d3cdd102d2b9b27dd102622
:10070000059fddf820800ae0009a010054ce010028
:1007100064ce0100103d102d0af1080a17dd0133e7
:10072000b94a2b931034072b2c948ae84400f1dd4e
:100730002aaa4146384610f04bfd002840f0658457
:10074000103d102d2c9c2b9b0df1b40ae7dc0133de
:10075000ad4a2b932c44072b2c948ae8240008dd07
:100760002aaa0899059810f033fd002840f0498323
:100770002c9c069b099a04998a42acbf9b185b1873
:100780000693002c40f0358300232b930a9b1bb16a
:100790000a9905980df024f80df1b40a7ae1039b4b
:1007a000cdf83880990600f15381039bda0600f1f9
:1007b000b186039b5b0600f13587039b0b9a13f40c
:1007c000007f134600f0bc86043314780b93002599
:1007d000039b002223f4806387e6039bcdf83880d7
:1007e0009e0600f11f810b99dd060a4600f1708418
:1007f0005c0600f12b87980540f16a840c7804317f
:10080000002501220b9170e6039bcdf838809e06ef
:1008100000f16181dd0600f151845c0600f1f4868f
:10082000980540f14b840b9e96f900403246e5173f
:100830000432204629460b92002871f10002c0f2d2
:100840005b810798411c4ff001027ff455ae54eada
:10085000050100f0da820393012a00f07d83022a69
:1008600040f00b83149856ae230904f00f0143eabd
:1008700005732a091c461546435c06f8013d54eaf7
:100880000503f1d156ab9d1b4ae6604b1493039bc5
:10089000cdf8388099067ff503ae0b9b03f107086e
:1008a00028f0070303f108020b92d3e900450ae69a
:1008b0009df88b30002b7ff4ccad8df88b5098f8e1
:1008c000007042e5039b98f8007043f00103039326
:1008d0003be50b990b6809931a46002a0b4603f176
:1008e0000403fff6b9ad0b9398f800702de58df871
:1008f0008b4098f8007028e5039b98f8007043f04f
:100900008003039321e5a7f13003002218f8017b4f
:1009100002eb820203eb4202a7f13003092bf5d967
:10092000099214e598f80070039b6c2f00f09586ef
:1009300043f01003039308e598f80070039b682fb9
:1009400000f0948643f040030393fee4039b98f881
:10095000007043f008030393f7e498f800702a2f1f
:1009600008f1010201f0c581a7f13003092b90467f
:1009700098bf002201f2798018f8017b02eb820215
:1009800003eb4202a7f13003092bf5d90792dee40d
:100990000b991f4b1493039b0c68cdf838803022c1
:1009a000782704318df88c2043f002030b91002549
:1009b0008df88d70022298e50b9acdf83880166874
:1009c00000248df88b4002f10408002e00f0ec8723
:1009d000079a531c00f050872146304614f010f956
:1009e0000a90002801f034800a9b07949d1b25ea99
:1009f000e5722346cdf82c8004920a931393129348
:100a00000c939df88b3097e554ce0100ec990100d2
:100a1000009a0100039bcdf8388043f010039e0636
:100a20007ff5e1ae0b9a02f1070828f0070202f108
:100a30000801d2e900450b91012256e5039bcdf850
:100a4000388043f010030393039b99067ff5adae06
:100a50000b9b03f1070828f0070303f108020b9230
:100a6000d3e90045b4e6039bcdf838809e0600f13b
:100a7000e185039bdd0607d4039b5c0600f18b87b1
:100a8000039b980500f125860b9a136804320b929c
:100a9000069a1a600e9e27e40b98cdf838800168fc
:100aa0008df8f4100022014613468df88b20043196
:100ab000012204920a930793139312930c930b91c0
:100ac00015463dae3ce5039bcdf8388043f010035e
:100ad0009e067ff59fae0b9a02f1070828f00708e3
:100ae000d8e9000108f1080200280b9271f1000218
:100af00004460d46bff6a5ae2d2264428df88b202c
:100b000065eb45050122f3e4039bcdf8388013f033
:100b1000080f0b9b03f1070800f0d38428f00703ac
:100b200093ed007b8ded107b03f108020b92dde964
:100b3000101222f000431c911d93dde91c454ff07b
:100b4000ff3220462946bb4b1af014fd002840f026
:100b500015844ff0ff32b74b204629460ff008feb0
:100b6000002840f00b8400220023dde910010ff083
:100b7000f5fd002840f02e879df88b30ae4e03988f
:100b8000032200211546049220f08000321f0a91b2
:100b90000390472fd8bf16460791139112910c91dd
:100ba000cae4cdf83880002f00f021850022012111
:100bb000134604918df8f4708df88b200a920792f9
:100bc000139212920c920d463daeb9e42c9c0fe5a7
:100bd000652f40f3a88000220023dde910010ff00b
:100be000b3fd002800f06c812b9b944acaf80020ca
:100bf000013301340122072b2c942b93caf80420d3
:100c000000f3a4840af1080a249b0f9a2c9c9342b7
:100c100003db039bdb077ff567ad2b9b1699189ac7
:100c2000caf8002001330c44072bcaf804102c9496
:100c30002b9300f324850af1080a0f9b5d1e002dfb
:100c40007ff752ad102d2b9bdff8f48140f33e83ec
:100c500047461026ddf82090ddf8148005e00af103
:100c6000080a103d102d40f3308301331034072b58
:100c70002c942b93caf80070caf80460efdd2aaafe
:100c80004946404610f0a4fa002840f009862c9c02
:100c90002b9b0df1b40ae4e7099b049aa3eb02092c
:100ca000b9f1000f7ff7c9acb9f1100f2b9bdff83a
:100cb00090812cdd52462146b2464ff0100b46463d
:100cc000059ca846089d06e0a9f11009b9f1100f8e
:100cd00002f1080216dd01331031072b2c912b9302
:100ce00082e84008f0dd2aaa2946204610f070fa72
:100cf00000286ad1a9f11009b9f1100f2c992b9b8a
:100d00002daae8dc45460c46b046564692460133cd
:100d10004c44072b2c942b938ae8000300f3188390
:100d20000af1080a89e40f9b2b9d012b40f3da821c
:100d3000013501340123072d2c942b95caf800604e
:100d4000caf8043000f3ea820af1080a169a189bde
:100d5000caf8003001351444072d2c942b95caf89d
:100d6000042000f3e8820af1080a00230022dde9ea
:100d700010010ff0e9fc0f9b002840f04a81013b75
:100d8000013501361c44072d2b952c94caf80060c0
:100d9000caf8043000f374810af1080a1a9acaf8f2
:100da00004200135144426ab072d2c942b95caf84a
:100db00000307ff797ac2aaa0899059810f008fa36
:100dc000f8b92c9c0df1b40a8ee4ab460a9b1bb11a
:100dd0000a9905980cf004fdbbf90c3013f0400f94
:100de000069b18bf4ff0ff330693069857b0bde837
:100df000f08f2aaa0899059810f0eaf900283ff424
:100e0000c3acddf820b0e1e7039b012a00f0458187
:100e1000022a2fd103930024002523e52aaa08994a
:100e2000059810f0d5f90028ebd12c9c0df1b40aef
:100e300048e400bfffffef7fe09901001c9a01002a
:100e400064ce01002aaa0899059810f0c1f900287b
:100e5000d7d12c9c0df1b40afff7dabb2aaa089966
:100e6000059810f0b5f90028cbd12c9c0df1b40aef
:100e7000fff7dfbb03930024002556a900e03146ad
:100e8000e20842ea4572e80804f007030546144602
:100e9000303354ea050201f8013c01f1ff36eed18e
:100ea000039ad0077ff5eeac302b3ff4ebac302348
:100eb000023906f8013c56ab5d1a0e46fff730bb0f
:100ec000249a002a40f35b830c9b0f9a9342a8bf9d
:100ed0001346002b1d460ddd2b9bcaf80060013325
:100ee0002c44072b2c94caf804502b9300f346850e
:100ef0000af1080a0c9b002da8bf5b1b002b1d46a6
:100f000040f3f880102d2b9bdff86c8440f3e782d0
:100f100042461027b046ddf81490ddf820b01646a2
:100f200005e00af1080a103d102d40f3d582013387
:100f30001034072b2c942b938ae8c000f1dd2aaae9
:100f40005946484610f044f900287ff43faf2c9ce6
:100f50002b9b0df1b40ae6e7002d08bf0a2c039b7a
:100f6000c0f09b8003f480680023bb4656ae474622
:100f70009946ddf854800be00023204629460a22da
:100f80001af05af804460d4654ea050300f08d8025
:100f90000a220023204629461af04ef8303206f87d
:100fa000012c09f10109013e002fe5d098f800302d
:100fb0009945e1d1b9f1ff0fded0002d08bf0a2c11
:100fc000dad31b9b1799f61a1a46304616f0a8fc7e
:100fd00098f80130002b00f0858308f101084ff0ec
:100fe0000009c9e7079d56aefff79aba2aaa0899e1
:100ff000059810f0edf800287ff403af9df88b30d2
:101000002c9c0df1b40afff7f3bac346dee6b346f3
:10101000dce65e1e002e7ff7c1ae102edff858838f
:1010200023dd1027ddf81490ddf820b004e0103e39
:10103000102e0af1080a18dd01351034072d2c9402
:101040002b95caf80080caf80470f0dd2aaa594628
:10105000484610f0bdf800287ff4b8ae103e102ec0
:101060002c9c2b9d0df1b40ae6dc01353444072d90
:101070002c942b95caf80080caf804607ff78caed8
:101080002aaa0899059810f0a3f800287ff4b9aeb1
:101090002c9c2b9d0df1b40a80e656ae30340393a0
:1010a00006f8014d0125fff73bba56ab5f46cdf878
:1010b0005480cdf83c909d1bfff732ba0b990c6819
:1010c0000a46e51704320b9220462946fff7b4bbc7
:1010d000043114680b9101220025fff706ba2aaaf1
:1010e0000899059810f074f800287ff48aae2c9cbb
:1010f0000df1b40a0c9b33449946039b5d0540f106
:1011000088800f9b199606eb030b129bcdf81c9061
:101110005146cdf830b0984fddf85490ddf84ca032
:10112000059eddf82080ddf86cb02046002b61d0f4
:10113000baf1000f00f019810af1ff3a2b9b179ac0
:101140000a6001335844072b2c90c1f804b02b934c
:1011500000f3d98008310c9c079a99f80030a51a41
:101160009d42a8bf1d46002d0cdd2b9b0a6001335c
:101170002844072b2c904d602b9300f3be8199f8e7
:1011800000300831002dacbf5d1b1d46002d2bdd4e
:10119000102d2b9a1cdd102404e0103d102d01f1c0
:1011a000080115dd01321030072a2c902b920f60b8
:1011b0004c60f2dd2aaa4146304610f009f80028ba
:1011c0007ff423af103d102d2c982b9a2da9e9dc2c
:1011d00001322844072a2c902b920f604d6000f3b7
:1011e000c18199f800300831079a1a44129b07927e
:1011f000002b9dd1baf1000f9ed1199e0f9bcdf807
:101200005490ddf81c90f31899458a46044628bf8f
:101210009946249b0f9a934280f246822b9a169805
:101220001899caf8001001320444072a2c94caf80d
:1012300004002b9200f307830af1080a0f9ab518ed
:10124000a5eb0905d31a9d42a8bf1d46002d0ddd53
:101250002b9acaf8009001322c44072a2c94caf821
:1012600004502b9200f33b840af1080a002dacbf16
:101270005d1b1d46002d7ff737aa102d2b9bdff835
:10128000f88023dd47461026ddf82090ddf8148035
:1012900004e00af1080a103d102d16dd0133103468
:1012a000072b2c942b93caf80070caf80460f0dd69
:1012b0002aaa494640460ff08bff002840f0f082f2
:1012c0002c9c2b9b0df1b40ae5e7b84601332c4466
:1012d000072b2c942b93caf80080caf804507ff790
:1012e00001aa68e5039bd9073ff522ad013501341a
:1012f0000123072d2c942b95caf80060caf80430fe
:101300007ff74aadbce62aaa414630460ff060ff9f
:1013100000287ff47aae2c982da91ce72aaa0899f8
:1013200005980ff055ff00287ff46bad2c9c2b9d8a
:101330000df1b40a0ae52aaa089905980ff048ffaa
:1013400000287ff45ead2c9c2b9d0df1b40a0ce5ba
:101350002aaa089905980ff03bff00287ff451ada9
:101360002c9c0df1b40afff768b9129b013b09f1ff
:10137000ff391293e2e600bf64ce0100dde91001ff
:1013800002460b461af0f6f8002840f07284612fee
:1013900000f01b83412f00f0b481079b013327f03d
:1013a0002003129300f00684472b04d1079b002be7
:1013b00008bf01230793dde91001039a002942f4d5
:1013c000807213924ff00003c0f23883cde91e0102
:1013d00019930a93662f00f09783462f00f03a8402
:1013e000129b0598452b0abf079b079d5d1c28aae9
:1013f00025ab019200932a4624ab02219ded1e0be2
:1014000003f0c6ff672f064640f00f84039bdb07ff
:1014100000f1b483289bddf80ce09b1b0f93139b1a
:101420000393129b472b00f03e82462f00f09883d7
:10143000652f40f37d84662f00f09283249b0c93ec
:101440000f9b0c9a19469142134600f3c8821ef076
:10145000010f00f0f683169a9d181ef4806f00f0bd
:101460004e830c9b002b40f34a83672715980c9af8
:101470000023139312930378ff2b0ed09a420cddb6
:101480004178d21a002900f0eb81129b01331293ac
:101490000b46ff2b00f10100f0d10c92129b139a26
:1014a000159013441b9a02fb035525eae573049338
:1014b000199b002b40f0ed8107939df88b30fff7cf
:1014c0003bb828f0070898ed007b08f108038ded84
:1014d000107b0b93fff72bbb3246464690460133f9
:1014e0002c44072b2c942b93caf80080caf8045084
:1014f0003ff7f5ad0af1080afce52aaa4146304655
:101500000ff066fe00287ff480ad99f800302c982b
:101510002da937e60b9a1346043314680b93002564
:10152000fff756b90b9a1346043314680b93002542
:10153000fef7c9bf043314680b930025fef7c3bf41
:10154000043314680b930025fff742b92aaa0899bf
:1015500005980ff03dfe00287ff453ac0df1b40a5e
:10156000fff752bb2aaa414630460ff031fe002851
:101570007ff44bad99f800302c982da934e62b9bc5
:10158000b949caf80010013301340121072b2c940a
:101590002b93caf8041000f3a7800af1080a2ab9ad
:1015a0000f9b1bb9039bdf077ff59ea82b9b16980b
:1015b0001899caf8001001330444072b2c94caf878
:1015c00004002b9300f37d820af1080a002ac0f27e
:1015d00050820f99caf8006001330c44072b2c94f9
:1015e0002b93caf804107ff77da8fff7e4bb2c9b70
:1015f000ddf820b0002b3ff4efab05982aaa59463e
:101600000ff0e6fdfff7e8bb0b9e3246b6f900404f
:10161000fff70db90b9a1346043314880b9300257a
:10162000fef751bf0b9a1346043314880b93002521
:10163000fff7ceb80b9a06991368cd170846043207
:1016400029460b92c3e90001fff724ba0c88043144
:10165000002501220b91fef748bf43f0200398f8c4
:101660000170039308f10108fef76fbe43f40073a5
:1016700098f80170039308f10108fef766be2aaae4
:10168000089905980ff0a4fd00287ff4baab2c9cb4
:101690000df1b40afff7d1ba039b98f8007043f438
:1016a00080630393fef751be039ad0077ff5c6ad62
:1016b000b4e54021059806f0abf9cbf80000cbf873
:1016c0001000002800f044834023cbf81430fef7cc
:1016d000f7bd0b9a136804320b929df818201a700c
:1016e000fff7d8b9994647e42aaa089905980ff058
:1016f0006ffd00287ff485ab249a2c9c0df1b40a71
:101700004de730238df88c3058238df88d30039bb6
:1017100043f00204079b632b00f37d8200230a93ae
:101720003daedde91001039a039442f4817227f083
:101730002003002913921293c0f28181cde91e018a
:1017400000231993612f00f04f82412f7ff442aea6
:1017500024a89ded1e0b15f0b7fe00224ff07f531d
:1017600051ec100b07f0b0f800220023cde90c017a
:101770000ef0eaff08b1012324933c4b0493079b2e
:101780000f9735462096cdf884a003f1ff39dde9a7
:101790000c67aa4603e00ef0d7ff28bbc246002222
:1017a000334b3046394607f08ff804460d4617f0a4
:1017b000dbfb834607f0a8ff02460b46204629467e
:1017c00007f054fe049cd04614f80b4008f8014b77
:1017d000b9f1ff3f4c4606460f464ff000024ff06e
:1017e000000309f1ff39d6d1304639460022214b9a
:1017f000209e0f9f5546cde90c01ddf884a00ef028
:10180000cbff002840f0fe80dde90c010022194bdf
:101810000ef09aff18b11bf0010f40f0f380002c7e
:1018200009db2b4608eb0401302203f8012f8b4221
:10183000fbd10134a044a8eb06030f93139bddf802
:101840000ce00393ede52aaa089905980ff0c0fc77
:1018500000287ff4d6aa249b2c9c0df1b40aede459
:1018600013990131139107e61c9a0100ec990100cc
:10187000000030400000e03f3046079410f060fd6b
:1018800020eae0720546cdf82c8004922346fff74b
:10189000b4b82d2300228df88b300792fef74dbe91
:1018a000cb46fff793ba249b0c93da1c03db079a11
:1018b00093427ff7c5ad023f27f0200312930c9ba4
:1018c000129a013b412a249300f08981fab2002147
:1018d000002bb8bf0c9b8df89820babfc3f1010351
:1018e0002d222b22092b8df8992040f36d810df1cb
:1018f000a7042046b14d00e0104685fb0321da170e
:10190000c2eba10202eb8201a3eb410303f1300120
:101910001346092b00f8011c00f1ff32ecdc3033d8
:101920000238dbb2844202f8013c40f20e820df133
:101930009a00114601e011f8013b00f8013b8c428e
:10194000f9d10134a21a0df19a031a4426abd31a25
:101950000f9a1a93012a03eb020540f3bf81169bed
:101960001d4400232ef4806e13934ef48072129364
:101970000c9325eae5730392049399e52aaa089942
:1019800005980ff025fc00287ff43baa2c9c0df154
:10199000b40afff7afba0b9a136804320b92bdf882
:1019a00018201a80fff776b8079b1396062b28bfde
:1019b0000623049307961d46129633460c960a9604
:1019c000cdf82c807e4efef7b7bd30238df88c30dd
:1019d00078239ae62d238df88b30fff7cfb80f9b35
:1019e000169a9d180c9b002b40f3638167271ef409
:1019f000806f7ff43bad25eae573049300231393d6
:101a0000129355e5049b289518f8011cdb7b8b424b
:101a100040f069814346302003f8010c289b5a1e90
:101a2000289213f8012c8a42f6d0392a0bbf049a67
:101a30000132927ad2b203f8012cfce60a93dde976
:101a4000101202f100431f932d231e91199379e682
:101a5000079b04931d460790cdf82c80139012909d
:101a60000c909df88b30fef767bd00230793fef7bf
:101a70006ebc55421032dff84c8180f28180102715
:101a8000ddf81490ddf820b004e00af1080a103dfa
:101a9000102d75dd01331034072b2c942b93caf8cd
:101aa0000080caf80470f0dd2aaa594648460ff0b3
:101ab0008ffb00287ff48aa92c9c2b9b0df1b40a84
:101ac000e5e72aaa089905980ff082fb00287ff421
:101ad00098a9249a2c9c2b9b0df1b40a76e52aaa8e
:101ae000089905980ff074fb00287ff48aa9249bbd
:101af0000f9a2c9cd31a0df1b40afff7b7bb25ea55
:101b0000e5730493672779e7079c059828aa25ab16
:101b100001920093224624ab03219ded1e0b03f09e
:101b200037fc2346064604191d463378302b00f057
:101b3000c880249d2c4400220023dde91e010ef004
:101b400003fe58b9289b9c427ff665ac30215a1c95
:101b500028921970289b9c42f9d85ce423465ae4e9
:101b6000249b0c93002b079b40f3d080002b6ad161
:101b70001ef0010f67d10c9d662738e77419dae76c
:101b800001332c44072bcaf80080caf804502c9467
:101b90002b930af1080a7ff71cad2aaa0899059829
:101ba0000ff016fb00287ff42ca92c9c2b9b0df129
:101bb000b40a0ee506230793fff7fdbb676666666a
:101bc000149a010064ce010000296fd130228df8f3
:101bd0009a200df19b02303313700132b6e607f103
:101be0000f02d2b2012173e624a89ded1e0b15f061
:101bf0006bfc00224ff07f5351ec100b06f064fe9b
:101c000000220023cde90c010ef09efd00286dd1cd
:101c1000534b0493b3e5591c059805f0f9fe0646ad
:101c2000002800f088800a907be5472fa6d1039b0f
:101c3000d9077ff5efab462f06eb05043ff475aff0
:101c400079e70c9d09e40c9b169a9d18079b662763
:101c50001d44cce6079d059828aa25ab0192009368
:101c60002a4624ab03219ded1e0b03f091fb064693
:101c7000e1e73c4e039c9df88b3000221146032087
:101c80000a9224f08004321f079104900394472f96
:101c9000d8bf1646139112910c910546fef74cbc25
:101ca000ddf820b0bbf90c30fff798b80df19a02bf
:101cb00091e7c3f101031d4425eae5730493672707
:101cc0009ce600220023dde91e010ef03dfd002808
:101cd0007ff42fafc5f1010524952be71ef0010f0e
:101ce0003ff43fae3be60a4643469ee6012324937b
:101cf0008ee70b9998f801700b6843eae37307933a
:101d00000b46043390460b93fef71fbb13b91ef02e
:101d1000010f08d0169b5d1c079b1d4425eae57347
:101d2000049366276ae6012304931d46662765e649
:101d3000249b0c93c3e5ddf820b0bbf90c3043f0d5
:101d40004003abf80c30fff749b80df19a02fde5fe
:101d5000059a0c2313604ff0ff330693fff745b845
:081d6000009a0100e89901005e
:020000040000fa
:101d680055736167653a206d6163696e666f200d12
:101d78000a00000045783a206d6163696e666f203d
:101d88000d0a0000496e746572666163653a202524
:101d98007320447269766572205374617469737430
:101da8006963730d0a0000000d0a205265636569b6
:101db800766520537461746973746963730d0a00de
:101dc80009206e52784f6b5061636b6574733a20cb
:101dd80025640d0a09206e527850656e6442756656
:101de800666572733a2025640d0a09206e5278538d
:101df80063686564427566666572733a2025640d8a
:101e08000a00000009206e52784572726f725061a4
:101e1800636b6574733a2025640d0a09206e527845
:101e2800467261676d656e744572726f72733a209f
:101e380025640d0a09206e5278427566664e6f74e5
:101e4800417661696c61626c653a2025640d0a000f
:101e58000d0a205472616e736d6974205374617435
:101e68006973746963730d0a0000000009206e54d9
:101e7800784f6b5061636b6574733a2025640d0a63
:101e880009206e547850656e644275666665727393
:101e98003a2025640d0a09206e54784572726f72d3
:101ea8005061636b6574733a2025640d0a09206ece
:101eb8005478517565756546756c6c3a2025640dc6
:101ec8000a0d0a00096e6f7420737570706f727452
:101ed80065640d0a00000000496e746572666163ee
:101ee800653a2025732048617264776172652052d3
:101ef80065676973746572205374617475730d0a2c
:101f080000000000092025733a20307825780d0a52
:101f18000000000064697361626c65640000000081
:101f280064697361626c6500656e61626c6564000a
:101f3800656e61626c65000055736167653a2025be
:101f480073203c696e746572666163653e203c6f00
:101f58006e2f6f66663e200d0a00000045783a2015
:101f68002573205049433332494e54206f6e200d5b
:101f78000a000000556e6b6e6f776e20696e74658f
:101f880072666163650d0a006f6e00006f66660019
:101f9800556e6b6e6f776e206f7074696f6e0d0a79
:101fa8000000000025732025730d0a004661696c46
:101fb800656420746f2025732025730d0a000000c6
:101fc800556e6b6e6f776e207365727669636520e8
:101fd80025730d0a000000006e6f6e65000000009a
:101fe800a431000001000000dc2d00000200000008
:101ff800901f000003000000941f00000300000071
:10200800a83100000400000055736167653a206438
:102018006e7363203c64656c2f696e666f2f6f6efc
:102028002f6f66662f6c6f6f6b75703e200d0a0000
:1020380055736167653a202573203c6f6e2f6f6674
:10204800663e203c696e746572666163653e203c3d
:102058007374726963742f707265663e2f3c636c8b
:102068006561723e200d0a0045783a202573206f7d
:102078006e20657468300d0a000000007374726980
:10208800637400007072656600000000636c65612f
:102098007200000055736167653a20646e736320af
:1020a8006c6f6f6b7570203c747970653e203c686e
:1020b8006f73744e616d653e200d0a0048656c7043
:1020c8003a203c686f73744e616d653e2855524cda
:1020d80029202d206c6f6f6b20757020666f722021
:1020e800686f73746e616d650d0a000048656c70e9
:1020f8003a203c747970653e203a2061206f722046
:102108004120666f7220495076342061646472659c
:102118007373206c6f6f6b75700d0a0048656c7077
:102128003a203c747970653e203a206161616120f3
:102138006f72204141414120666f722049507636c6
:102148002061646472657373206c6f6f6b75700dba
:102158000a00000048656c703a203c747970653e4e
:10216800203a20616e7920666f7220626f74682051
:102178004950763420616e64204950763620616477
:102188006472657373206c6f6f6b75700d0a000055
:10219800646e7363206c6f6f6b75703a20636f6d3c
:1021a8006d616e6420696e2070726f6772657373fb
:1021b8002e205265747279206c617465722e0d0a36
:1021c8000000000041000000610000004141414161
:1021d800000000006161616100000000414e59008b
:1021e800616e7900646e7363206c6f6f6b75703a03
:1021f800205b25735d204c6f6f6b75702054797070
:1022080065206e6f7420737570706f727465642ebc
:102218000d0a0000646e7363206c6f6f6b75703a03
:1022280020486f7374206e616d6520746f6f206c29
:102238006f6e672e2052657472792e0d0a000000a9
:10224800646e7363206c6f6f6b75703a2072657380
:102258006f6c76696e6720686f73743a20257320f7
:10226800666f7220747970653a2573200d0a000034
:1022780055736167653a20646e73632064656c20ea
:102288003c686f73744e616d653e7c616c6c200dab
:102298000a00000048656c703a203c686f73744e01
:1022a800616d653e2855524c29202d2052656d6f71
:1022b80076652074686520656e7472792069662079
:1022c800657869737473200d0a00000048656c70a6
:1022d8003a20616c6c202d2052656d6f7665206107
:1022e8006c6c20746865207265736f6c7665642009
:1022f800656e747279200d0a00000000616c6c0034
:102308005b25735d206e6f742070617274206f6638
:102318002074686520444e532043616368652065d6
:102328006e747279200d0a00496e636f6d706c656a
:10233800746520636f6d6d616e64200d0a00000086
:1023480055736167653a20646e736320696e666fc2
:10235800200d0a0048656c703a20646973706c61de
:10236800792074686520444e532063616368652052
:10237800656e7472792064657461696c73200d0ae6
:1023880000000000444e5320436c69656e74206958
:102398007320646f776e210d0a000000444e5320ad
:1023a800436c69656e74204946202d205374726908
:1023b80063743a2025732c205072656665727265c5
:1023c800643a2025730d0a00444e5320436c696516
:1023d8006e74202d2074696d653a2025642c207058
:1023e800656e64696e673a2025642c206375727285
:1023f800656e743a2025642c20746f74616c3a20e1
:1024080025640d0a00000000486f73746e616d65e5
:10241800203d202573200d0a54696d656f75742061
:102428003d202564200d0a0049507634203d25734f
:102438000d0a000049507636203d2025730d0a000c
:102448002d2d2d2d2d2d2d2d2d2d2d2d2d2d2d2db4
:102458002d2d2d2d2d2d2d2d2d2d2d2d2d2d2d2da4
:102468002d2d2d2d2d2d2d2d2d2d2d2d2d2d2d2d94
:102478002d2d2d2d0d0a00004e6f20444e53204364
:102488006c69656e7420436163686520656e74725b
:10249800696573200d0a0000496e76616c696420d5
:1024a800496e70757420436f6d6d616e64203a5b80
:1024b800202573205d200d0a000000006172703a2b
:1024c800206164647265737320616c7265616479fc
:1024d800207175657565640d0a0000006172703ab7
:1024e8002061646472657373206e65776c792071fe
:1024f80075657565640d0a006172703a20717565bd
:1025080075652066756c6c2f6572726f720d0a00a6
:1025180055736167653a20617270203c696e746515
:1025280072666163653e203c722f712f642f6c3e8a
:10253800203c6970416464723e200d0a000000006e
:1025480045783a20617270205049433332494e54dd
:102558002072203139322e3136382e312e31303535
:10256800200d0a006c0000006172703a202564207a
:10257800736c6f747320696e20746865206361637f
:1025880068650d0a000000006172703a20495076b3
:102598003420616464726573733a20257300000007
:1025a8002c204d414320416464726573733a2025a1
:1025b800730000002c20636f6d706c6574650d0ae4
:1025c800000000002c207065726d616e656e740de0
:1025d8000a0000006172703a204950763420616424
:1025e80064726573733a2025732c2071756575655f
:1025f800640d0a00496e76616c6964204950206157
:1026080064647265737320737472696e67200d0a4f
:1026180000000000720000006172703a2072657359
:102628006f6c766564202d2049507634206164648f
:10263800726573733a2025732c204d414320416401
:1026480064726573733a2025730d0a0071000000e7
:102658006172703a204950763420616464726573ff
:10266800733a2025732c204d4143204164647265e0
:1026780073733a2025730d0a000000006172703ae6
:10268800206e6f207375636820656e7472790d0a09
:1026980000000000640000006172703a2072656ded
:1026a8006f7665642025730d0a0000006172703a28
:1026b80020556e6b6e6f776e206f7074696f6e0d3c
:1026c8000a000000696e7465726e616c000000009b
:1026d800706f6f6c0000000065787465726e616cd5
:1026e80000000000756e6b6e6f776e005573616742
:1026f800653a2068656170696e666f20312f322fe8
:1027080033200d0a0000000045783a2068656170a2
:10271800696e666f20310d0a000000004e6f206858
:1027280065617020696e666f2065786973747320bf
:10273800666f7220747970653a202573210d0a003e
:102748004865617020747970653a2025732e204998
:102758006e697469616c2063726561746564206870
:102768006561702073697a653a202564204279741e
:1027780065730d0a00000000416c6c6f6361626c48
:102788006520626c6f636b20686561702073697a7d
:10279800653a2025642042797465730d0a000000ab
:1027a800416c6c20617661696c61626c652068655a
:1027b80061702073697a653a2025642042797465ce
:1027c800732c20686967682077617465726d61721f
:1027d8006b3a2025640d0a004c61737420686561aa
:1027e80070206572726f723a20307825780d0a0071
:1027f8004e6f20547261636520696e666f2065783c
:10280800697374732e0d0a00537461636b207570bd
:10281800206661696c65640d0a0000005374616389
:102828006b207570207375636365656465640d0a54
:102838000000000055736167653a20737461636b2b
:10284800203c75702f646f776e3e203c7072657304
:10285800657276653e0d0a0045783a2073746163a7
:102868006b20646f776e2070726573657276650d84
:102878000a00000075700000537461636b20616c7e
:102888007265616479207570210d0a005475726e45
:1028980020537461636b20646f776e20616e6420cf
:1028a8007468656e207570210d0a00005265737496
:1028b800617274696e672074686520737461636bf4
:1028c800207769746820256420696e746572666172
:1028d80063652873290d0a00646f776e0000000095
:1028e800537461636b20646f776e3a2063616e6e18
:1028f8006f7420676574206120737461636b20684e
:10290800616e646c650d0a00537461636b20646fbb
:10291800776e207375636365656465640d0a0000ee
:1029280055736167653a206966203c696e74657203
:10293800666163653e203c646f776e2f75703e203c
:102948000d0a000045783a20696620504943333221
:10295800494e5420646f776e200d0a00556e6b6ed9
:102968006f776e20696e7465726661636520737037
:1029780065636966696564200d0a000054686973b7
:1029880020696e7465726661636520616c72656149
:1029980064792075700d0a005468697320696e7433
:1029a80065726661636520616c7265616479206433
:1029b8006f776e0d0a00000057726f6e67207061a6
:1029c80072616d65746572207370656369666965a7
:1029d80064200d0a000000004f7065726174696f11
:1029e8006e207375636365737366756c210d0a00d9
:1029f8004f7065726174696f6e206661696c656499
:102a0800210d0a0055736167653a207365746d611d
:102a180063203c696e746572666163653e203c782c
:102a28003a783a783a783a783a783e200d0a0000af
:102a380045783a207365746d616320504943333299
:102a4800494e542061613a62623a63633a64643a77
:102a580065653a6666200d0a0000000061726776b7
:102a68005b325d3a2025730d0a000000496e7661dd
:102a78006c6964204d4143206164647265737320fe
:102a8800737472696e67200d0a0000005365742024
:102a98004d41432061646472657373206661696c9b
:102aa80065640d0a000000005365742042494f53c5
:102ab800204e616d65204f4b0d0a00005365742050
:102ac80042494f53204e616d65206661696c6564ab
:102ad8000d0a000055736167653a20736574626971
:102ae8006f73203c696e746572666163653e203c55
:102af800782e782e782e783e200d0a0045783a20d8
:102b080073657462696f73205049433332494e5478
:102b1800204d434850424f4152445f3239200d0afc
:102b2800000000005365742067617465776179203f
:102b380061646472657373204f4b0d0a00000000d6
:102b48005365742067617465776179206164647284
:102b5800657373206661696c65640d0a0000000086
:102b680055736167653a207365746777203c696eb1
:102b7800746572666163653e203c697076342f36f1
:102b880020616464726573733e203c76616c69648d
:102b980054696d653e200d0a0000000045783a2012
:102ba8007365746777205049433332494e54203156
:102bb80039322e3136382e302e31200d0a000000e1
:102bc8005365742069702061646472657373204f63
:102bd8004b0d0a0053657420697020616464726546
:102be8007373206661696c65640d0a0055736167cb
:102bf800653a207365746970203c696e7465726605
:102c08006163653e203c697076342f3620616464c8
:102c1800726573733e203c697076346d61736b2ff7
:102c28006970763620707265666978206c656e3ecc
:102c38000d0a000045783a20736574697020504980
:102c4800433332494e54203139322e3136382e3002
:102c58002e38203235352e3235352e3235352e3058
:102c6800200d0a00416e20616464726573732073dd
:102c780065727669636520697320616c7265616449
:102c8800792072756e6e696e672e2053746f70208e
:102c9800444843502c205a434c4c2c206574632ed6
:102ca8002066697273740d0a00000000496e76612f
:102cb8006c6964204950206d61736b20737472696c
:102cc8006e67200d0a0000004e6f20737563682040
:102cd800696e746572666163652069732075700d2d
:102ce8000a00000055736167653a20736574646e65
:102cf80073203c696e746572666163653e203c783a
:102d08002e782e782e783e200d0a000045783a203d
:102d1800736574646e73205049433332494e5420ae
:102d28003235352e3235352e3235352e30200d0ad6
:102d38000000000053657420444e5320616464729f
:102d4800657373206661696c65640d0a0000000094
:102d58006e6f7420676976656e0000007375636333
:102d6800657373006661696c0000000055736167e4
:102d7800653a202573203c696e74657266616365e7
:102d88003e203c6f6e2f6f66662f72656e65772fdb
:102d9800726571756573742f696e666f3e200d0ad2
:102da8000000000072656e6577000000726571753d
:102db8006573740052657175657374206e6565641a
:102dc8007320616e20495020616464726573730dcd
:102dd8000a000000696e666f000000004448435016
:102de800207374617475733a202564202820256443
:102df800203d3d20426f756e64292c2074696d65f5
:102e08003a2025640d0a000044484350206c65614f
:102e180073652073746172743a2025642c2064757c
:102e2800726174696f6e3a202564730d0a000000a0
:102e3800444843502072656e65772074696d653a21
:102e48002025642c20726562696e642074696d6542
:102e58003a2025640d0a0000444843502061646408
:102e6800726573733a2025730d0a00004448435075
:102e7800207365727665723a2025730d0a0000008a
:102e88004448435020626f6f74206e616d653a202c
:102e980025730d0a00000000444843503a2066613b
:102ea800696c656420746f2067657420696e666f4d
:102eb8000d0a000025732025732025730d0a0000d4
:102ec80055736167653a206465666e6574203c6970
:102ed8006e746572666163653e0d0a0045783a2036
:102ee8006465666e6574205049433332494e540d0b
:102ef8000a00000044656661756c7420696e74652b
:102f080072666163652073657420737563636573a6
:102f18007366756c0d0a00004f7065726174696f95
:102f28006e206e6f742061636365707465640d0a4a
:102f38000000000055500000444f574e00000000ac
:102f480055736167653a206e6574696e666f0d0a20
:102f58000000000045783a206e6574696e666f0d52
:102f68000a0000002d2d2d2d2d2d2d2d2d2d204924
:102f78006e74657266616365203c25732f25733e08
:102f8800202d2d2d2d2d2d2d2d2d2d200d0a000020
:102f9800496e7465726661636520697320646f7732
:102fa8006e0d0a00486f7374204e616d653a2025d6
:102fb80073202d204e424e532064697361626c6504
:102fc80064200d0a000000004950763420416464f2
:102fd800726573733a2025730d0a00004d61736b97
:102fe8003a2025730d0a0000476174657761793ac4
:102ff8002025730d0a000000444e533a2025730d16
:103008000a0000004d414320416464726573733abd
:103018002025730d0a00000064686370206973201e
:1030280025730d0a000000004c696e6b206973203f
:1030380025730d0a0000000064656661756c7420d4
:1030480049502061646472657373000025732069b8
:1030580073204f4e0d0a0000646863700000000082
:10306800444e53204c6f6f6b75703a20444e53207a
:103078006661696c75726520666f722025730d0a2a
:1030880000000000444e53204c6f6f6b75703a205f
:10309800726571756573742074696d656f75742eca
:1030a8000d0a00004c6f6f6b757020416e73776569
:1030b800723a0d0a2d2d2d2d2d2d2d2d2d2d2d2d29
:1030c8002d2d2d2d2d2d2d2d2d2d0d0a000000001f
:1030d8004e6f204c6f6f6b757020656e747279201f
:1030e800666f72205b25735d0d0a00005b25735dba
:1030f80020412049507634204164647265737320fe
:103108003a2025642e25642e25642e25640d0a0098
:103118005b25735d2041414141204950763620416d
:10312800646472657373203a25730d0a0000000009
:103138003a20737461636b20636f6d6d616e6473a5
:103148000000000074637069700000004661696cdb
:10315800656420746f206372656174652054435000
:10316800495020436f6d6d616e64730d0a00000055
:10317800544350495020636f6d6d616e64732074c1
:1031880061736b20726567697374726174696f6ebd
:10319800206661696c65640d0a00000064656c0056
:1031a8006c6f6f6b757000006e6574696e666f008a
:1031b8003a20476574206e6574776f726b20696e6c
:1031c800666f726d6174696f6e0000006465666e8b
:1031d800657400003a205365742064656661756cf7
:1031e80074206e6574776f726b20696e7465726691
:1031f800616365003a204448435020636c69656efa
:103208007420636f6d6d616e647300006468637031
:10321800730000003a205475726e204448435020d1
:10322800736572766572206f6e2f6f666600000098
:103238007a636c6c000000003a205475726e205a54
:10324800434c4c206f6e2f6f666600007365746484
:103258006e7300003a2053657420444e5320616415
:103268006472657373000000736574697000000010
:103278003a20536574204950206164647265737301
:1032880020616e64206d61736b0000007365746764
:10329800770000003a2053657420476174657761b0
:1032a80079206164647265737300000073657462e9
:1032b800696f73003a2053657420686f73742773bd
:1032c800204e657442494f53206e616d65000000c1
:1032d8007365746d616300003a20536574204d4135
:1032e80043206164647265737300000069660000be
:1032f8003a204272696e6720616e20696e74657249
:10330800666163652075702f646f776e000000003a
:10331800737461636b0000003a20537461636b201f
:103328007475726e206f6e2f6f66660068656170c7
:10333800696e666f000000003a20436865636b2081
:1033480068656170207374617475730061727000d0
:103358003a2041525020636f6d6d616e64730000b6
:10336800646e7363000000003a20444e5320636c7f
:1033780069656e7420636f6d6d616e647300000023
:103388006d6163696e666f003a20436865636b2000
:103398004d414320737461746973746963730000e9
:020000040000fa
:1033a8002c2400201c00000000000000a41e0020a7
:1033b80004000000000000000425002004000000b4
:1033c80000000000082500200400000000000000a4
:1033d8007423002028000000000000000c250020b5
:1033e8000400000000000000102500200400000078
:1033f8000000000014250020040000000000000068
:103408001825002004000000000000001c250020f2
:103418000400000000000000022500200200000057
:1034280000000000ee200020020000000000000064
:1034380020250020040000000000000024250020b2
:1034480004000000000000002825002004000000ff
:10345800000000002b2400200100000000000000f4
:103468002c2500200400000000000000302500206a
:103478000400000000000000f02500200200000009
:1034880000000000f22500200200000000000000fb
:10349800342500200400000000000000382500202a
:1034a80004000000000000003c250020040000008b
:1034b800000000004025002004000000000000007b
:1034c8009c2400201000000000000000442500207b
:1034d8000400000000000000f425002002000000a5
:1034e8000000000048250020040000000000000043
:1034f800f82200204400000000000000fc24002006
:103508000600000001000000ffffffffffff0000b2
:103518000000002008000000000000003c230020fc
:103528003800000000000000041e0020a000000079
:1035380000000000f6250020020000000100000045
:1035480001000000602400201400000000000000ba
:103558004c25002004000000000000005025002039
:1035680004000000000000000c2400201f000000e0
:1035780000000000542500200400000000000000a6
:103588005825002004000000000000005c250020f1
:103598000400000000000000602500200400000076
:1035a80000000000ed2000200100000000000000e5
:1035b800fe250020010000000100000001000000bd
:1035c800f021002064000000000000000800002036
:1035d800140300000000000064250020040000001f
:1035e8000000000068250020040000000000000022
:1035f8006c2500200400000000000000ff250020ca
:1036080001000000000000007025002004000000f8
:10361800000000000026002001000000010000005a
:1036280004000000742500200400000000000000d1
:10363800782500200400000000000000ac240020d1
:10364800100000000000000001260020010000001a
:1036580000000000f8250020020000000000000023
:10366800fa25002002000000000000007c25002050
:103678000400000000000000bc240020100000002e
:103688000000000080250020040000000000000069
:103698009c2300202800000001000000bb0103005b
:1036a800d10101004b020100330203007c02030038
:1036b800dd030300de030300e0030300e103010070
:1036c80000000000dc1f0020900000000000000047
:1036d800a8150020500200000000000084250020ea
:1036e80004000000000000008825002004000000fd
:1036f800000000008c2500200400000000000000ed
:1037080090250020040000000000000094250020ff
:1037180004000000000000009825002004000000bc
:10372800000000009c2500200400000000000000ac
:10373800cc240020100000000000000074240020a9
:103748001400000000000000ec230020200000000e
:103758000000000002260020010000000000000018
:10376800a02500200400000000000000a42500207f
:103778000400000001000000ffffffffa825002053
:103788000400000000000000ac2500200400000038
:10379800000000001c0300200400000000000000de
:1037a800200300203000000000000000b0250020a9
:1037b80004000000000000006c1b0020080100004d
:1037c800010000000c84010000000000000000005f
:1037d80000000000000000000000000000000000e1
:1037e80000000000000000000000000000000000d1
:1037f80000000000000000000000000000000000c1
:1038080000000000000000000000000000000000b0
:1038180000000000000000000000000000000000a0
:103828000000000000000000000000000000000090
:103838000000000000000000000000000000000080
:103848000000000000000000000000000000000070
:103858000000000000000000000000000000000060
:103868000000000000000000000000000000000050
:103878000000000000000000000000000000000040
:103888000000000000000000000000000000000030
:103898000000000000000000000000000000000020
:1038a8000000000000000000000000000000000010
:1038b8000000000000000000000000000000000000
:1038c800000000000000000000000000a81e00200a
:1038d800a000000000000000542200205800000052
:1038e80000000000f8170020080200000000000097
:1038f80088240020140000000100000001010000dd
:1039080035ce010025ce010045ce010052990000b8
:10391800500300201800000000000000b42500201b
:103928000400000000000000b8250020040000008a
:1039380000000000bc25002004000000000000007a
:10394800fc2500200200000000000000c025002027
:103958000400000000000000c4250020040000004e
:103968000000000003260020010000000000000005
:10397800c82500200400000000000000481f0020a7
:103988009400000000000000dc2400200c0000006f
:1039980000000000ac2200204c00000000000000e5
:1039a800741c0020c8000000000000003c1d00201e
:1039b800c8000000000000006803002009000000a3
:1039c800000000004824002018000000000000004b
:1039d800f42400200800000000000000cc2500208e
:1039e8000400000000000000f0200020800000001b
:1039f80000000000e82400200c0000000000000087
:103a080078030020000a000000000000d0250020f4
:103a18000400000000000000702100208000000069
:103a2800000000006c200020810000000000000061
:103a3800d42500200400000001000000780d0020bb
:103a4800780d00202804000001000000000000009c
:103a580064100020cc100020341100200000000069
:103a6800000000000000000000000000000000004e
:103a7800000000000000000000000000000000003e
:103a8800000000000000000000000000000000002e
:103a9800000000000000000000000000000000001e
:103aa800000000000000000000000000000000000e
:103ab80000000000000000000000000000000000fe
:103ac80000000000000000000000000000000000ee
:103ad80000000000000000000000000000000000de
:103ae80000000000000000000000000000000000ce
:103af8000000000001000000000000000e33cdab04
:103b080034126de6ecde05000b000000000000003a
:103b1800000000000000000000000000000000009d
:103b2800000000000000000000000000000000008d
:103b3800000000000000000000000000000000007d
:103b4800000000000000000000000000000000006d
:103e780000000000001a00206c0100000100000092
:103e880043000000000000000000000000000000e7
:103e9800000000000000000000000000000000001a
:103ea80043000000000000000000000000000000c7
:103eb80000000000000000000000000000000000fa
:103ec80043000000000000000000000000000000a7
:103ed80000000000000000000000000000000000da
:103ee8004300000000000000000000000000000087
:103ef80000000000000000000000000000000000ba
:103f08004300000000000000000000000000000066
:103f18000000000000000000000000000000000099
:103f28004300000000000000000000000000000046
:103f38000000000000000000000000000000000079
:103f48004300000000000000000000000000000026
:103f58000000000000000000000000000000000059
:103f68009dc60100f1b4010000000000d40c01005e
:103f78009ccc010098cc010098cc010098cc0100a1
:103f880098cc010098cc010098cc010098cc010095
:103f980098cc010098cc0100ffffffffffffffff57
:103fa800ffffffffffff00000100415343494900a5
:103fb80000000000000000000000000000000000f9
:103fc8000000000000000000000041534349490080
:103fd80000000000000000000000000000000000d9
:103fe800000000000000000000000000c4230020c2
:103ff8002800000000000000d82500200400000070
:1040080000000000dc250020040000000000000083
:10401800e02500200400000000000000a01100209e
:10402800080400000100000000000000000000007b
:10403800a0110020a0110020a8110020a811002024
:10404800b0110020b0110020b8110020b8110020d4
:10405800c0110020c0110020c8110020c811002084
:10406800d0110020d0110020d8110020d811002034
:10407800e0110020e0110020e8110020e8110020e4
:10408800f0110020f0110020f8110020f811002094
:104098000012002000120020081200200812002040
:1040a80010120020101200201812002018120020f0
:1040b80020120020201200202812002028120020a0
:1040c8003012002030120020381200203812002050
:1040d8004012002040120020481200204812002000
:1040e80050120020501200205812002058120020b0
:1040f8006012002060120020681200206812002060
:10410800701200207012002078120020781200200f
:1041180080120020801200208812002088120020bf
:10412800901200209012002098120020981200206f
:10413800a0120020a0120020a8120020a81200201f
:10414800b0120020b0120020b8120020b8120020cf
:10415800c0120020c0120020c8120020c81200207f
:10416800d0120020d0120020d8120020d81200202f
:10417800e0120020e0120020e8120020e8120020df
:10418800f0120020f0120020f8120020f81200208f
:10419800001300200013002008130020081300203b
:1041a80010130020101300201813002018130020eb
:1041b800201300202013002028130020281300209b
:1041c800301300203013002038130020381300204b
:1041d80040130020401300204813002048130020fb
:1041e80050130020501300205813002058130020ab
:1041f800601300206013002068130020681300205b
:10420800701300207013002078130020781300200a
:1042180080130020801300208813002088130020ba
:10422800901300209013002098130020981300206a
:10423800a0130020a0130020a8130020a81300201a
:10424800b0130020b0130020b8130020b8130020ca
:10425800c0130020c0130020c8130020c81300207a
:10426800d0130020d0130020d8130020d81300202a
:10427800e0130020e0130020e8130020e8130020da
:10428800f0130020f0130020f8130020f81300208a
:104298000014002000140020081400200814002036
:1042a80010140020101400201814002018140020e6
:1042b8002014002020140020281400202814002096
:1042c8003014002030140020381400203814002046
:1042d80040140020401400204814002048140020f6
:1042e80050140020501400205814002058140020a6
:1042f8006014002060140020681400206814002056
:104308007014002070140020781400207814002005
:1043180080140020801400208814002088140020b5
:104328009014002090140020981400209814002065
:10433800a0140020a0140020a8140020a814002015
:10434800b0140020b0140020b8140020b8140020c5
:10435800c0140020c0140020c8140020c814002075
:10436800d0140020d0140020d8140020d814002025
:10437800e0140020e0140020e8140020e8140020d5
:10438800f0140020f0140020f8140020f814002085
:104398000015002000150020081500200815002031
:1043a80010150020101500201815002018150020e1
:1043b8002015002020150020281500202815002091
:1043c8003015002030150020381500203815002041
:1043d80040150020401500204815002048150020f1
:1043e80050150020501500205815002058150020a1
:1043f8006015002060150020681500206815002051
:104408007015002070150020781500207815002000
:1044180080150020801500208815002088150020b0
:104428009015002090150020981500209815002060
:10443800e42500200400000001000000ffffffff4a
:10444800e825002004000000010000000000020030
:10445800740300200400000000000000ec25002088
:104468000400000000000000000000000000000040
:020000040000fa
:104478002de9f04f93b00f210a2017f0e5f90890c5
:1044880010f0010f12d1089b13f0020f40f067855e
:1044980013b0bde8f08fb9f8223013f4007f0cd0c8
:1044a8006ff00d010a22484616f020fc0a2018f089
:1044b80081fa81460028eed1e5e7d9f81c301c4680
:1044c8000293b9f82060132e40f23685d9f8187097
:1044d80007f110030693fb680f933b6910930022c2
:1044e8008df8442006238df84530330a43ea062325
:1044f800adf846300c210fa813f07cf8c3439bb2eb
:10450800b9f8222012f0040f35d032462146484629
:1045180011f096fb002840f01385029c204612f00b
:104528002ffe94f80cb04fea1b1b4fea8b0babf134
:10453800140b1ffa8bf30593d9f81c80d9f828c0ff
:10454800b8f802b0bbf1000f00f0fe84fd89bb890a
:104558001d44b8f800301d4485ea0b05adb2c54bc3
:104568001a68002a00f0f484c34bd3f800e0002353
:104578009a4619460ee01a463146029813f03af860
:10458800c8e7b4f86a10a9421fd001331bb2194614
:1045980093422ed25ef82140002cf6d094f86e108b
:1045a8000b29f2d094f86f000128eed8206c08b1de
:1045b8008445ead10029e4d1b4f86a105945e4d118
:1045c800baf1000f08bfa246dfe7d8f80000a16dd6
:1045d8008842dad1a06bf9688842d6d1012184f8e3
:1045e8006f10c4f840c0069a204616f043faa24657
:1045f8001de0baf1000f00f08c80fb68caf8383073
:1046080001218af86f10caf840c0069a504616f081
:1046180031faaaf86a50b8f80030aaf85830b8f851
:104628000230aaf85a30daf80030caf81030d9f84f
:1046380010201389143b05995b1a1381029a547b45
:10464800d2f8088055689af8373013f0400f63d1d4
:104658009af86d306ff300038af86d309af86e306f
:10466800002b7dd0012b00f0b280059ab61ab6b2a5
:10467800a6f1140292b2059214f0010209921abf2f
:10468800133e1ffa86fbddf814b014f0020f1cbfae
:104698000bf1010b1ffa8bfbdaf81c60daf820200b
:1046a8009642c0f0c980daf81810daf81400091a2e
:1046b800b21a8a1a92b20692daf85020af1abbf1ef
:1046c800000f00f0be80069a002a00f0c780002f75
:1046d80001db97420ed307eb0b02002a40f3be80a2
:1046e8000699a1eb0b029742ccbf002201228f4210
:1046f80080f2b18014f0060f00f0c68014f0040fa9
:104708000cbf00264ff40066002150460ff0aaf8af
:10471800fce36ff00d01c5e600238af871309af8c2
:10472800363013f0020f93d115f0eafdcde90601fa
:10473800baf8687018f0f8fb504ba3fb00231b0c69
:1047480007fb03f74e4ba3fb0737bf094d4a00236e
:10475800dde9060116f06cfc3844caf8240077e756
:1047680014f0040f1ad114f0100f1dd114f0020f19
:1047780027d00135caf8505002980ef02ef9aaf841
:104788006200504615f06dfc01221221504602f0dd
:10479800b5fb02238af86e300026b7e300215046a5
:1047a8000ff060f80026b1e3caf84c80002204211b
:1047b800504602f0a3fb002150460ff053f80026a4
:1047c800a4e3002150460ff04df800269ee314f0b4
:1047d800040f40f09a8314f0100f00f06685daf8a1
:1047e8004c60b04500f08d85caf84c800122042148
:1047f800504602f083fbcaf84c60002686e315f0a9
:104808007ffd06460f46baf8684018f08dfb1b4b33
:10481800a3fb00231b0c04fb03f4194ba3fb043478
:10482800a409184a00233046394616f001fc2044f2
:10483800caf8240000f05cbd921b013a92b20692bd
:104848003ae7002f3ff456af002f07db069a97424e
:10485800acbf00220122002a7ff44caf14f0040ff1
:1048680001d0002652e301221021504602f046fbf7
:1048780000264be31c25002018250020851dd96f34
:10488800d34d6210f049020014f0100f00f0458378
:10489800023b072b00f27281dfe813f008001d00cd
:1048a8001d001d001d0070011d006301daf84c6039
:1048b800b0450ad0caf84c8001220421504602f0c3
:1048c8001dfbcaf84c60002620e303238af86e30eb
:1048d8004ff4807600e00026daf808300d93daf815
:1048e8001020981a14d4daf84c30a8eb0301091aee
:1048f80000291dddbaf86c0000f40170042801d10c
:1049080001290cd000221021504602f0f7fafde2ee
:10491800daf80430daf800105b1a1844e3e70133d8
:10492800caf84c309af86d3043f002038af86d30bb
:10493800daf84c300c93daf80c00a2eb000ca3eb7d
:104948000c030a9382422fd2daf80430daf8001006
:104958005b1a0a99cb1aa8eb0303002b2ddddaf8b2
:1049680004c0daf80010aceb01018b4223d89af8a6
:104978006ce00ef0ef0e6ff3451e8af86ce09af8c3
:1049880036e06ff3451e8af836e01844caf80c0082
:104998000a44824280f0e184821a0c9b1a44caf8c5
:1049a8004c20caf8100067e00a9ba8eb030ebef182
:1049b800000f00f3b584824228d09af86c3013f0c7
:1049c800100f1dd013f0200f14d00a99caf84c10fc
:1049d800824207d2daf80430daf800209b1acb1aa0
:1049e800caf84c30caf810009af8363043f0800301
:1049f8008af836309af86c3043f020038af86c3025
:104a08009af86c3043f010038af86c30daf80c30fe
:104a18000d9a9a4235d0029bdb89baf866209a42f1
:104a280038bfaaf86630daf84c20029bdb89434489
:104a38009b1a9bb2baf85c1031b92bb19af83610b0
:104a480041f040018af83610aaf85c309af86e30c6
:104a5800042b5ad0062b40f09280904540f05682a5
:104a6800002150460ef0fefe50e2831a0c9a1344c1
:104a7800caf84c30caf81000604580f0708400f025
:104a880078bc9af8373013f0010f28d113f0400f93
:104a98001ed015f035fccde90a01baf868300c9340
:104aa80018f042fac749a1fb00131b0c0c9a02fb31
:104ab80003f3c54aa2fb03239b090c93c34a0023b3
:104ac800dde90a0116f0b4fa0c9b1844caf8240070
:104ad8009af836306ff341038af836309be7daf8f4
:104ae8004c30984597d19af86c3013f0040f92d057
:104af8009af836306ff341038af836309af837302f
:104b08006ff300038af8373085e7904503d014f037
:104b1800200f43d0fae19af86c3013f0040ff6d066
:104b280015f0eefbcde90a0118f0fef9a54ba3fb41
:104b380000231b0c41f2883202fb03f3a24aa2fbba
:104b480003239b090c93a14a0023dde90a0116f00f
:104b58006ffa0c9b1844caf8300005238af86e30a7
:104b6800d5e7daf84c300133984501d00026cde17d
:104b7800002150460ef076fe0026c7e1002614f00c
:104b8800200f40f0c3819af86e20a2f10803dbb22f
:104b9800012b40f2bb81062a00f0b881059b002b4f
:104ba8003cd0002f78dd059b3b4406998b4202dd03
:104bb800cc1ba3b20593029a137b1b0902eb830358
:104bc8000e93daf81c10daf81820059b3b440b44c6
:104bd8009a4280f0ed80531a0133db1b00f1da8032
:104be8009ab201240094029213460ea80246394450
:104bf800484611f08bfc0690059b029a9b1adaf83e
:104c0800141000949bb20eaa484611f07ffc069b34
:104c1800034498b2059b834200f0da80bbf1000f91
:104c280000f010819af86e30033bdbb2022b84bf90
:104c3800daf81c30caf820309af8363013f0100f22
:104c480040f0fb809af8363043f010038af836308b
:104c580013f0080f40f0f680dbb243f008038af83f
:104c6800363015f04dfbcde9020118f05df9554bd2
:104c7800a3fb00231b0c642404fb03f4524ba3fb8b
:104c88000434a409514a0023dde9020116f0d0f9e1
:104c98002044caf82c00d5e0029a137b1b09c7eb05
:104ca800830313440e93059b3b449cb2069ba3428b
:104cb80028bf23461c46daf81c10daf818300a19ff
:104cc800934243d25b1a01330293bdf808200127af
:104cd8000097059213460ea80246484611f016fca6
:104ce8000690059aa31adaf8141000979bb20eaa38
:104cf800484611f00bfc069a024490b2029be31a54
:104d0800daf814201344844288d1daf85010214488
:104d1800caf85010caf81c309af86e20033ad2b27a
:104d2800022a98bf46f40076daf85420b2f1ff3f21
:104d38003ff474af141bcaf85440baf86020121933
:104d48000fd54ff0ff33caf8543067e701230093bb
:104d580023460eaa484611f0d9fbdaf81c30234442
:104d6800d1e7002c3ff75aaf1144caf8501013444a
:104d7800caf81c30daf81820934206d9daf8141069
:104d8800521ad2431344caf81c304ff0ff33caf802
:104d9800543043e7781edaf81430d21a801a012307
:104da8000093059b0eaa0144484611f0affb31e77a
:104db80001230093059b0eaa3944484611f0a6fb2f
:104dc80028e700bf851dd96fd34d6210f049020056
:104dd800daf85430b3f1ff3f06d1caf85470bdf881
:104de8001430aaf8603019e79f4214d2059ad119f5
:104df800baf86020d018814201d88b4206d9bdf894
:104e08001430aaf86030caf8547007e71344db1b63
:104e1800aaf86030f7e7baf860201a440598014606
:104e2800394491427ff6faae97423ff6f7aefb1a45
:104e380001461944aaf86010f0e6012210215046f4
:104e480002f05cf8099b002b60d0daf8503001338f
:104e58005d44ab425ad1caf8503046f480669af89d
:104e68006e30023b032b2ed8dfe803f0020b3345ec
:104e780009238af86e3001221121504602f03ef8cb
:104e880044e008238af86e3015f03afa04460d46d5
:104e980018f04af8d04ba3fb00231b0cc82707fbcc
:104ea80003f7ce4ba3fb0737bf09cd4a00232046a3
:104eb800294616f0bdf83844caf830009af86d3023
:104ec80013f0010f22d101221021504602f016f8ea
:104ed8001ce0daf84c30984509d1002210215046e0
:104ee80002f00cf8002150460ef0bcfc0ee0062340
:104ef8008af86e30e7e700221021504601f0feffe5
:104f0800002150460ef0aefc00e00026baf87220f0
:104f1800324004d10221fff7c5ba0026f6e7daf8d5
:104f28007440ccb1daf87830d9f82810baf93400de
:104f3800a0470221fff7b6ba6ff00c01fff7b2ba2b
:104f48006ff00901fff7aeba6ff00d01fff7aabacb
:104f58006ff00d01fff7a6ba0221fff7a3baa14b24
:104f68001b68002b3ff494aa00252b469e4fdff8c0
:104f780068b2dff868a2b5e00026b046c4e015f0d4
:104f8800bff9974a002316f053f8a36ac01a0028fd
:104f9800a8bf1026bce015f0b3f9914a002316f01b
:104fa80047f8e36ac01a0028a8bf1026b6e015f033
:104fb800a7f98b4a002316f03bf8236bc31a002b82
:104fc800c0f2b180092384f86e30112688f00102fe
:104fd8003146204601f092ffade015f091f9804a84
:104fe800002316f025f8236bc31a002bc0f2a0800b
:104ff80001221421204601f081ff002120460ef0f5
:1050080031fc67e094f8366006f00106012120467d
:105018000ef03afe94f8363043f0010384f8363047
:105028004ff480520021204613f064fd002e51d128
:1050380094f836306ff3000384f836300a2384f886
:105048006e3047e015f05cf9654a002315f0f0ff73
:10505800636ac01a00283ddb94f86e30013b082bc8
:1050680000f2fe80dfe813f00900c200d900e40076
:10507800fc00ec00fc00fc00f40094f87030032bfa
:1050880000f2968002264ff0000994f87030013340
:1050980084f87030a36c5b00a3642169e2688b1a02
:1050a8009bb2914204d261682068091a0b449bb2f2
:1050b800e16cc91ae164b4f85c100b44a4f85c30e4
:1050c800226100223146204601f018ffb9f1000f95
:1050d80040f0cc8001352db22b46424a12689542e9
:1050e800bff4d6a93a6852f82340002cf2d094f8bd
:1050f8006e300b2beed094f8363013f0c00f3ff41f
:105108003baf4fead318102613f0040f7ff437afe4
:1051180094f8363013f0080f7ff43daf94f86e30f2
:10512800082b3ff444af94f86e30052b3ff455af8d
:10513800002e7ff44baf94f8363013f0020f81d174
:1051480094f8373013f0400fc4d094f86e30032b26
:10515800c0d115f0d5f8224a002315f069ff636a1b
:10516800c31a002bb6db94f8712094f87c309a426d
:105178003ff448af02221021204601f0bffe15f08f
:10518800bff880468946b4f8686017f0cdfeabfbdf
:1051980000231b0c06fb03f6aafb0636b609104ac9
:1051a80000234046494615f043ff3044606291e7ca
:1051b800042384f8703017f0b7feabfb00231a0cf9
:1051c8004ff47a7303fb02f3aafb03239b091b0129
:1051d800a364022657e700bf851dd96fd34d62101f
:1051e800f04902001c2500201825002094f8703092
:1051f800022b40f28b8094f8363013f0010314bf71
:10520800142602269946b8f1000f7ff43eaf01221a
:105218003146204601f072fe58e794f87030042bae
:1052280076d9042384f86e3011264ff00009eae796
:1052380094f87030042b6dd914264ff00109e2e779
:1052480094f87030042b67d914264ff00109dae777
:1052580094f87030042b61d914264ff00109d2e775
:10526800002e3ff437af4ff00009cce7002120466d
:105278000ef0f8fa2ee70135caf850500298c389a3
:10528800aaf86630aaf85c300df0a7fbaaf862000d
:10529800504614f0e6fe01221221504601f02efe7f
:1052a80002238af86e30002630e614f0020fe2d1ad
:1052b80000262be60135caf850500298c389aaf88f
:1052c8006630aaf85c300df088fbaaf862005046f8
:1052d80014f0c7fe01221021504601f00ffe0323ef
:1052e8008af86e309af8373013f0400f7ff487aaa7
:1052f8009af836306ff341038af836304ff48076e7
:1053080004e614f0020fd5d10026ffe51226bae60e
:105318001026b8e61126b6e61026b4e61126b2e63f
:10532800daf804c0daf80030aceb03018e453ff63a
:1053380042ab9af86c3003f0ef036ff345138af829
:105348006c309af836306ff345138af8363070446b
:10535800caf80c008242fff488ab604502d3401ab9
:10536800caf80c00daf81030634524bf5b1acaf893
:1053780010309af86e30032b02d0082b7ff446ab1e
:0853880046f00406fff742bbea
:020000040000fa
:105390002de9f04f57ec106b97b0056c0291044665
:1053a00093460393cde900674db1426c6a600123d7
:1053b0009340ab60294617f087fc00232364dde9a6
:1053c0000023002b994638db209a00231360a04b62
:1053d00033ea090317d0dde90067002200233046d5
:1053e00039460bf0b1f9804600282fd0039a0123eb
:1053f0001360219b002b00f0c48096481860013890
:1054000017b0bde8f08f039a42f20f731360009b50
:105410006bb9c9f3130353b9219b8f48002befd00d
:1054200000f10803219a136017b0bde8f08f219bab
:105430008a48002be4d0c31cf4e7019a22f000490b
:10544000209acdf8049001231360c0e714aa15a98f
:1054500047ec106b20460ef097f85fea195582462c
:1054600073d0c7f3130343f07f51cdf84080ddf8cc
:1054700050803046a5f2ff3541f440110022784bb0
:1054800003f0f4ff6ca3d3e9002303f01dfa6ca32f
:10549000d3e9002303f0ecff064628460f4604f04c
:1054a00033f969a3d3e9002303f00efa02460b4651
:1054b0003046394603f0dcff06460f4613f054fd34
:1054c000002204900023304639460bf047f90028ab
:1054d00040f06f81049e162e00f25981614b03eb60
:1054e000c603d3e90001dde900230bf055f90028dc
:1054f00000f0c481731e049300230c93a8eb0505f0
:105500006b1e059300f14f8100230693049b002b33
:10551000c0f24081059a0b9311461944002305916e
:105520000a93029b092b2ed8052b40f35186043b8e
:1055300002930027029b023b032b00f23386dfe835
:1055400013f0d603cb02e3036404ddf85080159d0d
:10555000454405f23243202b40f38a81c3f14003d6
:1055600009fa03f9009b05f2124023fa00f040ea21
:10557000090004f0b9f80123013da1f1f87110937d
:105580007ce739483ce70021616420468b4613f0f4
:105590006bfe4ff0ff3308930d93012307902064b7
:1055a000cdf808b00993159b002bc0f2d080049a67
:1055b0000e2a00f3cc802b4bbbf1000f03ebc20390
:1055c000d3e90089c0f2be83dde9006742464b465d
:1055d0003046394603f0a2fa13f0c6fc834604f0c5
:1055e00093f842464b4603f06ff90b4602463946a4
:1055f000304603f03bff079d0bf130032b70089bf7
:10560000012b06460f4605f1010561d00022174b1c
:1056100003f05af90022002306460f460bf094f8d7
:10562000002840f08180cdf800a00294ddf81ca095
:10563000089c28e0aff3008061436f63a787d23fe7
:10564000b3c8608b288ac63ffb799f501344d33f71
:105650000000f07fc5cc0100b4cc0100c0cc01003b
:105660000000f83f702f0100c4cc0100000024406e
:1056700003f02af90022002306460f460bf064f8d7
:10568000002840f0c58342464b463046394603f079
:1056900045fa13f069fc834604f036f842464b465f
:1056a00003f012f902460b463046394603f0defe9f
:1056b0000bf1300e05f801eba5eb0a0ea6450646e8
:1056c0000f464ff000026e4bd2d1ddf800a0029cd5
:1056d00032463b463046394603f0cafe06460f4680
:1056e00002460b46404649460bf038f848b9324668
:1056f0003b46404649460bf027f8a8b11bf0010f86
:1057000012d015f8018c079a6b1e04e09a4200f043
:105710002d8413f8018db8f1390f03f10105f5d08f
:1057200008f1010883f800805146204617f0ccfab2
:105730000022049b2a70039a01331360219b002be3
:1057400000f0a38307981d6017b0bde8f08f099a99
:10575000002a40d0029a012a40f31c83089b0a9a2f
:105760005f1eba42c0f29483d71b089b002bc0f285
:105770007e84069d089b069a1a440692059a01218a
:105780001a442046059217f0a9fa064626e001239e
:105790000c93b3e6069a049bd21a5b420a93002349
:1057a00006920b93bde6c5f1010306930023059312
:1057b000ace6ddf81090484603f0a6ff02460b4623
:1057c000304639460af0c0ff00287ff483ae09f165
:1057d000ff3304937ee60a9f069d099e002d0cdd93
:1057e000059900290b4608dda942069aa8bf2b4659
:1057f000d21aed1acb1a069205930a9bd3b1099bd4
:10580000002b00f0c082002f10dd31463a462046c2
:105810000ff046fa52460146064620460af04afa7a
:1058200051468046204617f04ffac2460a9bda1bc3
:1058300040f0aa820121204617f050fa0b9b002b62
:1058400081461fdd01461a4620460ff029fa029bc9
:10585000012b814640f35b824ff00008d9f81030ed
:1058600009eb8303186914f0c1fbc0f1200013e0b9
:10587000c3f12009009b03fa09f07ae60c903de69b
:1058800000002440029b012b40f38d824ff0000862
:105890000b9b0120002be1d1059a104410f01f0052
:1058a00000f0a180c0f12003042b40f38c84069b00
:1058b000c0f11c00034406931346034405440593ba
:1058c000069b002b05dd51461a4620460ef020feb1
:1058d0008246059b002b05dd49461a4620460ef000
:1058e00017fe81460c9b002b40f08680089b002b06
:1058f00040f36982099b002b00f09880002d05dda4
:1059000031462a4620460ef003fe0646b8f1000f47
:1059100040f03683b046089b079a013bd3180893a2
:10592000009b03f0010309931746494650460af0cd
:105930009bf831460546504615f084f842464946e4
:10594000834620460bf03cf805f130020092c26815
:105950000146002a40f032820690504615f072f857
:10596000069b05901946204617f0aef9059a32b904
:10597000029b23b9099b002b00f0de83029abbf146
:10598000000fc0f2a28205d1029b1bb9099b002b1c
:1059900000f09b82002a00f307839df800303b70e3
:1059a000089b07f1010b9f425d4600f008835146ba
:1059b00000230a22204610f0c7fa464582463146a7
:1059c0004ff000034ff00a02204600f0f18110f082
:1059d000bbfa4146064600230a22204610f0b4fadc
:1059e0005f468046a1e71c20069b03440693059b67
:1059f00003440544059363e74946504615f022f8f1
:105a00000028bff673af049f514600230a222046a8
:105a1000013f049710f098fa099b8246002b40f052
:105a2000a7830d9b002b40f3b0830893ddf81cb0d7
:105a3000ddf820805d4602e010f086fa8246494695
:105a400050460af011f800f1300705f8017ba5eb8c
:105a50000b0343454ff00a024ff000035146204626
:105a6000eadb079b089a0097012aacbf9b18013319
:105a70001d464ff0000b5146012220460ef048fd16
:105a80004946824614f0deff002840f33a8215f8ba
:105a9000012c07996b1e04e08b4200f0af8113f8d4
:105aa000012d392a03f10105f6d001321a70494659
:105ab000204617f009f9002e3ff436aebbf1000f77
:105ac00005d0b34503d05946204617f0fdf83146be
:105ad000204617f0f9f827e600230993049b5b445e
:105ae0000d930133012b1e461d460893b8bf0126b6
:105af0000021172e61640ad9012204235b0003f1ff
:105b000014008642114602f10102f7d26164204678
:105b100013f0aafb0e2d079020643ff644ad002f32
:105b20003ff441ad049900299ded007b40f3f681df
:105b3000b94b01f00f0203ebc2030d11d3e900676b
:105b4000eb0640f1ad81b54b51ec170bd3e90823bf
:105b500002f0e4ffcde90e0105f00f054ff0030957
:105b60008db1dff8b882e80709d530463946d8e963
:105b7000002302f0a9fe09f1010906460f466d1047
:105b800008f10808efd13b463246dde90e0102f08c
:105b9000c5ff074688460c9b43b10022a04b384600
:105ba00041460af0dbfd002840f07382484603f0ce
:105bb000abfd3a46434602f087fe9a4b002203f0c3
:105bc00057fc089b0546a1f15076002b00f0408160
:105bd000049bddf820901193099b002b00f0f681c7
:105be0008d4b914903ebc90353e90223002002f0d6
:105bf00095ff2a46334603f039fccde90e014146b4
:105c0000384613f0b1f9054603f07efd02460b4617
:105c10003846414603f02afc30355ffa85f8079d87
:105c200006460f4685f8008002460b46dde90e0168
:105c300001350af0b1fd002856d132463b4600201e
:105c4000774903f013fc02460b46dde90e010af02a
:105c5000a3fd002840f06282b9f1010f3ff4a3ac2c
:105c6000079bcdf848a0cdf84cb09944a046dde99b
:105c70000eab0de000206a4903f0f8fb52465b468c
:105c80000af06cfd002840f044824d4500f04a8245
:105c9000504659460022654b02f016fe0022634b27
:105ca00082468b463046394602f00efe0f460646c7
:105cb00013f05af9044603f027fd02460b4630461e
:105cc000394603f0d3fb3034e4b252465b4605f864
:105cd000014b06460f460af041fd32463b4600287e
:105ce000c8d0ddf848a04446119b04931ce500236e
:105cf0000993bbf1000f40f3da805e465d46cdf8b4
:105d000034b0cdf820b0f3e601230993f1e7009b0e
:105d1000002b7ff4a1addde90012c2f31303002bc9
:105d20007ff4b4ad22f000473f0d3f05002f00f097
:105d30000082069b01330693059b013305934ff0c8
:105d40000108a5e5089b002b3ff73eac40f0998089
:105d500049460022364b404602f0b6fddde90023fd
:105d60000af010fdddf820904e4600283ed06fea84
:105d70000b03079d04934946204616f0a5ff002e0d
:105d80003ff4d2aca3e60a9a514620460ef088ffb3
:105d900082464fe5109a002a00f06f8103f23343e8
:105da0000a9f069de7e4009b002b7ff46fadb2e7ee
:105db00010f0caf85f4606468046b6e5204616f063
