:020000040000fa
:020000040040ba
:10000000f0ef452055e64000df084100ef0a4100cf
:100010000b374100db3c4100eb4041000000000099
:1000200000000000000000000000000091c6410038
:10003000af17410000000000917e41001db7410054
:10004000af054100af054100af054100af054100dc
:10005000af054100af054100af054100af054100cc
:10006000af05410000000000af054100af054100b1
:10007000af054100af05410049014100af05410016
:10008000af054100af054100af054100af0541009c
:10009000af054100af054100af054100adc84100cb
:1000a000af054100af054100af054100af0541007c
:1000b000af054100af054100af054100af0541006c
:1000c000af054100af054100af054100af0541005c
:1000d000af054100af054100af05410043dc4100e1
:1000e000af054100af054100af054100af0541003c
:1000f000af054100af054100af054100af0541002c
:10010000af054100af054100af054100af0541001b
:10011000af054100000000000000000000000000ea
:10012000af054100af054100af054100af054100fb
:10013000af054100af054100af054100af054100eb
:10014000af054100af054100af054100af054100db
:10015000af054100af054100af054100af054100cb
:08016000af054100af054100ad
:020000040000fa
:020000040040ba
:10016800f8b500bff8bc08bc9e4670472dd64100c4
:1001780089764100f8b500bff8bc08bc9e467047b8
:040188006576410057
:020000040000fa
:020000040040ba
:08018c00e89c000001000000e6
:020000040000fa
:020000040040ba
:04019400012070478f
:020000040000fa
:020000040040ba
:100198002de9f04f2ded068bcfb00c460591934617
:1001a8000a9311901cf0bcfe03681793184612f0ce
:1001b800a3faa38915901d0603d52369002b01f026
:1001c800518100239fed7a8b9fed7b9b0f932493a6
:1001d80023931493199312931893169303935e46db
:1001e80025abdff8dca1ddf844b0229399463378db
:1001f8003446e3b1252b02d119e0252b03d014f89e
:10020800013f002bf9d1a51b8db1239b249ac9f876
:10021800006001332a44072bc9f804502492239321
:1002280000f39d8009f10809039b2b44039323786d
:10023800002b01f0ca8000234ff0ff329846079345
:100248008df86b30671c637804922b2420250137c6
:10025800a3f120025a2a00f2e483dfe812f0a50293
:10026800e203e203ae02e203e203e2035f00e20319
:10027800e203b202bf02e2037c00cd02e203e7021e
:10028800d203d203d203d203d203d203d203d203be
:10029800d203e203e203e203e203e203e203e2033e
:1002a8004a03e2037c0392034a034a034a03e20334
:1002b800e203e203e203eb02e203e203ef02e203fa
:1002c800e203e2030003e2032703e203e2039402ea
:1002d800e203e203e203e203e203e203e203e203ee
:1002e8004a03e2037c0354024a034a034a03c30253
:1002f80054025b00e203b003e203ba0323023803ab
:100308005b00e203000376003e02e203e203b3006f
:10031800e203760048f020083b7898e758461cf03e
:10032800fffd43681693184612f0e6f918905846f0
:100338001cf0f6fd83681293189b33b1129b23b10e
:10034800129b1b78002b41f083803b787fe7079a4c
:100358000a935242079248f004083b7877e722aaaa
:100368000599584610f03aff80b90df194095be7fa
:1003780022aa0599584610f031ff002800f0828122
:10038800099b1bb1099911980cf0c2fe059bb3f9a2
:100398000c3013f0400f039b18bf4ff0ff3303934b
:1003a80003984fb0bdec068bbde8f08faff300802b
:1003b8000000000000000000ffffffffffffef7fcd
:1003c80000d841000d9318f0200fb44b149340f05f
:1003d800e1810a9a18f0100f134640f09d8518f035
:1003e800400f41f01d8018f4007f00f0958504331c
:1003f80014780a93002518f0010f0bd054ea05036e
:1004080008d030239df834208df86d2048f002087c
:100418008df86c3028f48061022300228df86b205f
:100428000498421c00f0908154ea050221f08008eb
:1004380040f08f81002840f00984002b40f0a2840e
:1004480011f001034eae089302d0302306f8013da7
:100458000023089a0993139310930e93049b9342d5
:10046800b8bf13469df86b20029312b1029b01336b
:10047800029318f002030b9302d0029b02330293fb
:1004880018f084030c9340f0ea82079b02995c1ae7
:10049800002c40f3e482102c2499239a804d25dd0a
:1004a80048461023c146b046059e04e0103c102c77
:1004b80000f1080017dd01321031072a2491239238
:1004c80005604360f2dd22aa31465846069310f0d3
:1004d80085fe00287ff454af103c102c2499239af1
:1004e800069b25a8e7dc4646c846814601326318c4
:1004f800072a24932392c9f80050c9f8044000f34e
:100508008f849df86b2009f1080972b1239a013292
:1005180001330df16b000121072a2493239289e806
:10052800030000f3a98309f108090b9a6ab1239a19
:10053800013202331ba80221072a2493239289e857
:10054800030000f3a58309f108090c9a802a00f03a
:10055800eb82049a0899541a002c36dd102c239a41
:1005680026dd49461025a146059c06e0a9f110099b
:10057800b9f1100f01f1080118dd01321033072a13
:1005880024932392c1f800a04d60efdd22aa2146f2
:10059800584610f023fe00287ff4f2aea9f11009a6
:1005a800b9f1100f249b239a25a9e6dc4c4689460d
:1005b80001322344072a24932392c9f800a0c9f8da
:1005c800044000f34d8309f1080918f4807f40f0d6
:1005d8004f82239a0898c9f8006001320344072a19
:1005e8002493c9f80400239200f3248309f108092d
:1005f80018f0040f3bd0079a0299541a002c36dde4
:10060800102c239a264d1fdd1026ddf8148004e0f7
:10061800103c102c09f1080916dd01321033072aa5
:100628002493239289e86000f2dd22aa41465846c5
:1006380010f0d4fd00287ff4a3ae103c102c249bae
:10064800239a0df19409e8dc01322344072a249304
:100658002392c9f80050c9f8044008dd22aa059978
:10066800584610f0bbfd00287ff48aae249b039afd
:10067800079902988142acbf521812180392002bb6
:100688007ff476ae00232393099b1bb10999584642
:100698000cf03efd0df194093e46a8e578a1410015
:1006a800f0d7410018f0200f0d9340f0ce800a9a41
:1006b80018f0100f134640f0198418f0400f40f05e
:1006c800a28618f4007f00f01184043314780a938a
:1006d800002528f4806100239fe641468e060d938d
:1006e80000f1ea800a9acd06134600f105844c060b
:1006f80000f18f86880540f1ff83147804320025c5
:1007080001230a9289e641468c060d9300f13f8148
:10071800c80600f1f8834a0600f188868b0540f187
:10072800f2830a9890f90040e517043022462b46d8
:100738000a90002a73f10003c0f239810498421c20
:100748004ff001037ff470ae54ea050200f07f8297
:100758008846012b00f01e83022b40f0a8821498d3
:100768004eae230904f00f0143ea05732a091c461b
:100778001546435c06f8013d54ea0503f1d14eab3a
:100788009b1b089364e60d9318f0200fb54b149348
:100798003ff41fae0a9d073525f0070303f1080251
:1007a8000a92d3e9004526e69df86b30002b7ff4ca
:1007b800ccad8df86b503b7849e548f001083b78a3
:1007c80045e50a990b6807931a46002a0b4603f178
:1007d8000403fff6bcad0a933b7838e58df86b400f
:1007e8003b7834e53b78682b03bf7b7848f4007886
:1007f800013748f040082ae53b782a2b07f1010128
:1008080001f01c81a3f13002092a0f4601f24a8047
:100818000023194617f8013b01eb810102eb410166
:10082800a3f13002092af5d9049111e548f08008ae
:100838003b780ce548f008083b7808e548f01008d4
:1008480018f0200f0d933ff432af0a9d073525f0bd
:10085800070303f108020a92d3e9004539e70a9a27
:100868000d93166800248df86b40151d002e00f0be
:100878003d87049a531c00f09b862146304614f0ad
:1008880053f80990002800f08287099b04949b1b69
:100898001a4622eae27208930a95234602920993bd
:1008a800139310930e939df86b20dee548f010012a
:1008b8008e060d937ff516af0a9d073525f00703c1
:1008c80003f10802d3e900450a920123a5e50a9835
:1008d800654b046814933022782304308df86d300a
:1008e8000d9348f002010a9000258df86c20022330
:1008f80093e50a9d0d9318f0080f05f1070500f020
:10090800ed8425f0070393ed008b03f108020a92aa
:10091800b0eec87bb4ee497bf1ee10fa40f33984af
:10092800b5eec08bf1ee10fa00f1f0869df86b2061
:100938004e4e0d9c0323002118460293331f099144
:1009480028f08008472cd8bf1e46089004911391c0
:1009580010910e9189e50a980d9301688df8d410cd
:10096800002301461a468df86b30043101230293a7
:1009780009920492139210920e920a91089335ae3e
:1009880077e548f010018c060d937ff5c1ae0a9dfe
:10099800073525f00705d5e90023002a05f10800e9
:1009a8001d4673f100030a901446bff6c7ae2d2307
:1009b80064428df86b3065eb4505012330e53b78e3
:1009c8006c2b03bf7b7848f02008013748f01008eb
:1009d8003de418f0200f40f0098518f0100f35d1cc
:1009e80018f0400f40f0788618f4007f2ed00a9a4d
:1009f800136804320a929df80c201a703e46fff7dd
:100a0800f6bba3f130020023194617f8013b01ebae
:100a1800810102eb4101a3f13002092af5d90791be
:100a280016e419460d93002b00f0cf840023012013
:100a38001a4602908df8d4108df86b300993049300
:100a4800139310930e93089035ae12e50a9a136823
:100a580004320a92039a1a603e46fff7c8bb249be9
:100a680053e500bf64a1410078a1410058a14100ad
:100a78000d9a652a40f39680b5ee408bf1ee10fa98
:100a880040f03981239ac249c9f800100132013374
:100a98000121072a24932392c9f8041000f34484ff
:100aa80009f108091c9b0f9a9342249b03db18f059
:100ab800010f3ff49dad239a15981799c9f80010b6
:100ac80001320344072ac9f804002493239200f34f
:100ad800b28409f108090f9a541e002c7ff788addb
:100ae800102c239a40f308831025059e05e009f190
:100af8000809103c102c40f3ff8201321033072afa
:100b080024932392c9f800a0c9f80450efdd22aa63
:100b18003146584610f062fb00287ff431ac249b24
:100b2800239a0df19409e4e7079a0299541a002cc4
:100b38007ff70fad102c239a26dd49461025a146d4
:100b4800059c06e0a9f11009b9f1100f01f108019f
:100b580018dd01321033072a24932392c1f800a02c
:100b68004d60efdd22aa2146584610f037fb0028d9
:100b78007ff406aca9f11009b9f1100f249b239a50
:100b880025a9e6dc4c46894601322344072a2493ea
:100b98002392c9f800a0c9f8044000f3e68209f1dd
:100ba8000809d6e40f9ac9f80060012a239a03f1cc
:100bb800010302f101024ff0010124932392c9f8c5
:100bc800041040f3a582072a00f3b58209f1080949
:100bd80015981799c9f8001001320344072a24937d
:100be8002392c9f8040000f3b38209f10809b5eead
:100bf800408bf1ee10fa0f9900f021810139013292
:100c080001360b44072ac9f8006023922493c9f8d7
:100c1800041000f3468109f108091998c9f804007d
:100c2800013203441ea9072a24932392c9f800100d
:100c38007ff7dcac22aa0599584610f0cffa0028b5
:100c48007ff49eab249b0df19409d1e44146012b1e
:100c580000f03581022b27d18846002400257ee547
:100c680022aa0599584610f0b9fa00287ff488abf3
:100c7800249b0df19409a8e422aa0599584610f07e
:100c8800adfa00287ff47cab249b0df194094ce469
:100c980022aa0599584610f0a1fa00287ff470abf3
:100ca800249b0df1940950e48846002400254ea9a0
:100cb80000e03146e20842ea4572e80804f007031a
:100cc80005461446303354ea050201f8013c01f1a7
:100cd800ff36eed118f0010f3ff451ad302b3ff441
:100ce8004ead3023023906f8013c4eab5b1a08932f
:100cf8000e46fff7adbb1c99002940f32f830e9acf
:100d08000f998a42a8bf0a46002a14460ddd239a85
:100d1800c9f8006001322344072a2493c9f8044023
:100d2800239200f3cc8409f108090e9a002ca8bf7d
:100d3800121b002a144640f30081102c239a40f31a
:100d4800d88249461025a146059c06e00831a9f13c
:100d58001009b9f1100f40f3ca8201321033072a83
:100d680024932392c1f800a04d60efdd22aa21460a
:100d7800584610f033fa00287ff402ab249b239adc
:100d880025a9e4e7049b08934eaefff761bb00bfbb
:100d980094a14100002d08bf0a2cc0f08f8008f4f0
:100da800806300220297cdf81890cdf820b04eae9f
:100db800c346ddf84890174698460ae000232046c7
:100dc80029460a221af0befc04460d4654ea0503d9
:100dd8007ed00a220023204629461af0b3fc30327e
:100de80006f8012c0137013eb8f1000fe6d099f85a
:100df80000309f42e2d1ff2fe0d0002d08bf0a2c1f
:100e0800dcd3189b1699f61a30461a4617f06ef876
:100e180099f80170002fd1d009f101090027cde719
:100e280022aa0599584610f0d9f900287ff4a8aaf3
:100e38009df86b20249b0df19409fff766bb4c1eaf
:100e4800002c7ff7eaae102c20dd1025059e04e06b
:100e5800103c102c09f1080918dd01321033072a5b
:100e680024932392c9f800a0c9f80450f0dd22aaff
:100e78003146584610f0b2f900287ff481aa103c98
:100e8800102c249b239a0df19409e6dc01322344ab
:100e9800072a24932392c9f800a0c9f804407ff7d1
:100ea800baae22aa0599584610f098f900287ff49e
:100eb80067aa249b239a0df19409aee641464eaeeb
:100ec80030340123884606f8014d0893fff7c0ba6d
:100ed8004eab9b1bcdf84890d8460f97ddf820b055
:100ee800ddf81890029f0893fff7b2ba1c68043324
:100ef8000a930025fff7edbb04321c680a92012310
:100f08000025fff78aba0a9a146813460433e517ce
:100f18000a9322462b460ce41c6804330a930025e6
:100f2800fff769ba22aa0599584610f057f9002820
:100f38007ff426aa249b0df194090e9a18f4806f69
:100f48003244154600f083800f9908961846109b86
:100f5800cdf82c8071180491069749461646ddf89d
:100f68006090ddf84c80059d002b5fd0b8f1000f34
:100f780000f0088108f1ff38239b169a0a600133b4
:100f88004844072b2490c1f80490239300f3c880a9
:100f98000831129a049c1378a41b9c42a8bf1c46d3
:100fa800002c0bdd239b0e6001332044072b24907b
:100fb8004c60239300f3ab8113780831002cacbf4d
:100fc8001c1b1c46002c2ddd102c239a1ddd102720
:100fd80004e0103c102c01f1080116dd013210303c
:100fe800072a24902392c1f800a04f60f1dd22aabd
:100ff8002946584610f0f2f800287ff4c1a9103ca1
:10100800102c2498239a25a9e8dc01322044072ac9
:1010180024902392c1f800a04c6000f39181129ba8
:101028001b7808311e44109b002b9fd1b8f1000f8c
:10103800a0d134460f9a089e069fddf82c80b2187e
:1010480094428946214628bf114603460d461c9afc
:101058000f998a4280f201822399159c1798c9f842
:1010680000000131234407292493c9f8044023913f
:1010780000f38d8209f108090f997418641b8a1a04
:101088009442a8bf1446002c0ddd2399c9f80050de
:101098000131234407292493c9f80440239100f31c
:1010a800bc8309f10809002cacbf141b1446002ca2
:1010b8007ff79eaa102c239a1edd1025059e04e0ba
:1010c80009f10809103c102c16dd01321033072aeb
:1010d80024932392c9f800a0c9f80450f0dd22aa8d
:1010e8003146584610f07af800287ff449a9249b25
:1010f800239a0df19409e5e701322344072a249342
:101108002392c9f800a0c9f804407ff76faa91e5b7
:1011180018f0010f7ff457ad072a7ff77cadc0e6c2
:1011280022aa2946584610f059f800287ff428a921
:10113800249825a92de722aa0599584610f04ef8bb
:1011480000287ff41da9249b239a0df194093fe5fb
:1011580022aa0599584610f041f800287ff410a9f2
:10116800249b239a0df1940941e522aa0599584632
:1011780010f034f800287ff403a9249b0df194099a
:10118800fff7e7b9129b013b1293109b013b1093a9
:10119800f2e6b4ee488bf1ee10fa80f1e3830d9b92
:1011a800612b00f0b882412b00f07881049b013359
:1011b8000d9b23f0200500f09d83472d04d1049b4f
:1011c800002b08bf0123049318ee903a48f480726c
:1011d800002b02924ff00003c0f2b882b0ee48ab89
:1011e800069309930d9b662b00f0ef82462b00f0c7
:1011f800d883b0ee4a0b452d0abf049b049c5c1ca7
:1012080020aa1dab0192009322461cab022158462e
:1012180004f0eef90d9b672b064640f0958318f015
:10122800010f40f04383209bc6469b1bddf80880d6
:101238000f93472d00f0cf810d9b462b00f0b38212
:10124800652b40f312840d9b662b00f0ac821c9b2f
:101258000e930f9b0e9a19469142134600f3608233
:101268001ef0010f00f06383159a134408931ef4cf
:10127800806f00f010830e9b002b40f30c836723d4
:101288000d9312980e9a0023139310930378ff2b53
:101298000ed09a420cdd4178d21a002900f08481e0
:1012a800109b013310930b46ff2b00f10100f0d186
:1012b8000e92109b139a089912901344189a02fbe5
:1012c8000313089323eae3730293069b002b40f071
:1012d8007b8104939df86b20fff7c7b825f00705bd
:1012e80005f1080395ed008b0a93fff711bb4c46f7
:1012f800894601322344072a24932392c9f800a07f
:10130800c9f804403ff70eae09f1080915e622aa0c
:10131800294658460ff062ff00287ff431a8129b37
:1013280024981b7825a949e622aa059958460ff062
:1013380055ff00287ff424a80df19409fff7b2bbec
:1013480022aa294658460ff049ff00287ff418a81a
:10135800129b24981b7825a91e4464e6239ac24848
:10136800c9f80000013201330120072a249323928f
:10137800c9f8040000f3858009f1080929b90f9a12
:101388001ab918f0010f3ff433a9239a159c17983e
:10139800c9f8000001322344072a2493c9f80440fd
:1013a800239200f36a8209f108090029c0f24482f5
:1013b8000f98c9f8006001320344072a2493239246
:1013c800c9f804007ff712a934e4249b002b3ef4eb
:1013d800ddaf059c119822aa21460ff0fffe0028d8
:1013e8003ef4d4afb4f90c30fef7d3bf0a9a039990
:1013f8001368cd170846043229460a92c3e900014a
:101408003e46fef7f4be043314880a930025fff71e
:1014180060b914880432002501230a92fef7fdbf43
:10142800043314880a930025fef7e5bf0a98b0f93b
:101438000040fff779b922aa059958460ff0cefe69
:1014480000287ef49daf249b0df19409fff743bb60
:1014580048f480683b78fef7fabe18f0010f3ff4b5
:101468000baef9e54021119805f07cff059a106054
:101478001061002800f0f182059a40235361fef7bd
:10148800a0be22aa059958460ff0a8fe00287ef4af
:1014980077af1c99249b0df194096fe730238df8e1
:1014a8006c3058238df86d30049b632b48f0020490
:1014b80000f340820023099335ae18ee903a002bd2
:1014c8000d9b48f481720292a04623f02005c0f2d9
:1014d8003e81b0ee48ab002306930d9b612b00f0d4
:1014e800ec81412b7ff47eaeb0ee4a0b1ca815f0c0
:1014f8008bf8b4ee007b20ee070bb5ee400bf1ee57
:1015080010fa01d101231c93584c049bb3ee005be5
:10151800013b314605e0b5ee400bf1ee10fa14d070
:10152800114620ee050bfdeec06b0a4616ee900a3a
:10153800b3f1ff3f205c02f8010bb8eee67b1846da
:1015480030ee470b03f1ff33e5d1b6ee007bb4ee86
:10155800c70bf1ee10fa00f3ff80b4ee470bf1ee83
:1015680010fa04d116ee903adb0700f1f580002856
:1015780007db1418302301f8013fa142fbd10130e9
:101588000244931bc6460f93ddf8088051e622aa51
:10159800059958460ff022fe00287ef4f1ae1c9af9
:1015a800249b0df1940967e51399013113916ee6b7
:1015b8003046049411f0a0f820eae07208900a95e9
:1015c80002922346fff76bb92d2200238df86b207a
:1015d8000493fef74bbf1c9b0e93da1c03db049aa3
:1015e80093427ff736ae0d9b023b0d9323f0200507
:1015f8000e9b412d03f1ff331c9300f059819df898
:1016080034200021002bb8bf0e9b8df87820babf7c
:10161800c3f101032d222b22092b8df8792040f3e9
:101628005d810df187042046114d00e0104685fbd1
:101638000312d917c1eba20101eb8102a3eb42020d
:101648003032092900f8012c0b4600f1ff32eddc9d
:1016580030330238dbb2844202f8013c40f2fa81ae
:101668000df17a00114607e094a1410064a1410000
:101678006766666611f8013b00f8013b8c42f9d1b8
:101688000134a21a0df17a031a441eabd31a0f9a29
:101698001993012a1344089340f3ad81089b159ac6
:1016a800134408930023139310930e93089b2ef46e
:1016b800806e23eae3734ef48078029305e622aa4b
:1016c800059958460ff08afd00287ef459ae249bf0
:1016d8000df19409fff729bb0a9a136804320a929c
:1016e800bdf80c201a803e46fef781bd049b139678
:1016f800062b28bf06233246049610960e960996a6
:1017080002930a950893ae4efef7afbe2d228df8d0
:101718006b20fff70db930238df86c307823c1e6c4
:101728000f9b159a134408930e9b002b40f34e8190
:1017380067230d931ef4806f7ff4a3ad089b23ea03
:10174800e3730293002313931093bee509932d23ab
:101758000693b1ee48abc0e6209112f8010ce37b8a
:10176800834240f0508113464ff0300e03f801eced
:10177800209b591e209113f8011c8142f6d039296b
:1017880016bf0131a17ac9b203f8011cf9e6049b1e
:101798000293089304900a95139010900e909df868
:1017a8006b20fef762be1c9b0e93002b049b40f33c
:1017b8002d81002b40f0ec801ef0010f40f0e880f6
:1017c8000e9b089366230d93b4e7049cb0ee4a0b76
:1017d80020aa1dab0192009303211cab2246584658
:1017e80003f006ff064601193378302b00f0f98024
:1017f8001c9c2144b5ee40abf1ee10fa0bd0209bb7
:1018080099427ff611ad30205a1c20921870209b07
:101818009942f9d808e50b4606e522aa05995846e3
:101828000ff0dcfc00287ef4abad1c9a0f99249bca
:101838008a1a0df1940936e44c4210315dda10250c
:1018480004e009f10809103c102c56dd0132103370
:10185800072a24932392c9f800a0c9f80450f0dda0
:1018680022aa059958460ff0b9fc00287ef488ade5
:10187800249b239a0df19409e5e722aa0599584675
:101888000ff0acfc00287ef47bad1c99249b239ab6
:101898000df1940989e5089b23eae3730293672312
:1018a8000d934fe700220492fef7d2bc3119a1e74d
:1018b8000d9a0f32d2b20121a4e6b0ee4a0b1ca851
:1018c80014f0a2feb4ee007b20ee070bb5ee400b41
:1018d800f1ee10fa00f0af803a4c16e6002940f01d
:1018e8008f8030228df87a200df17b02303313700f
:1018f8000132cae60623049366e401322344072a28
:10190800c9f800a0c9f804402493239209f10809f2
:101918007ff74ead22aa059958460ff05ffc0028c4
:101928007ef42ead249b239a0df1940940e50e9b7d
:1019380008939ce4591c584605f014fd06460028f7
:1019480000f096800990b8e50d9b472baed118f0b2
:10195800010f3ff468ac0d9b462b06eb04013ff4e6
:1019680043af47e7184e0d9c9df86b20002319469e
:1019780003200993331f0491029028f08008472c14
:10198800d8bf1e46139110910e910890fef76dbdb9
:10199800159a0e9b1344049a1a44662308920d93d1
:1019a800c8e6049cb0ee4a0b20aa1dab0192009336
:1019b80022461cab0321584603f01afe0646cae726
:1019c8008ca1410078a1410060a14100089ac3f1af
:1019d80001031a4422eae2730293672308920d93e3
:1019e800b0e6b5ee40abf1ee10fa3ff401afc4f14a
:1019f80001041c94fde61ef0010f3ff453ae4de6c2
:101a08000df17a0272e701461346b8e613b91ef0e3
:101a1800010f0ad0159b049a01331a4422eae27393
:101a28000293662308920d938ce601230293089390
:101a380066230d9386e601231c934de70a987b786d
:101a4800026842eae2720492024604320f460a929f
:101a5800fef7fdbb0df17a0217e6119a0c2313600d
:101a68004ff0ff330393fef79bbc1c9b0e93bfe51f
:101a7800059ab2f90c3043f040039381fef789bc14
:020000040000fa
:020000040040ba
:101a880020ef40201c00000000000000f4f8452072
:101a98000400000000000000a8f04020040000003e
:101aa80000000000acf0402004000000000000002e
:101ab80090ee40202800000000000000b0f0402018
:101ac8000400000000000000b4f040200400000002
:101ad80000000000b8f040200400000000000000f2
:101ae800bcf040200400000000000000c0f04020ce
:101af800040000000000000062f240200200000024
:101b08000000000066f24020020000000000000013
:101b1800c4f040200400000000000000c8f040208d
:101b28000400000000000000ccf040200400000089
:101b380000000000d0f04020040000000000000079
:101b4800d4f040200400000000000000d8f040203d
:101b580004000000000000007ce3402000030000b7
:101b680001000000d08741000000000000000000d4
:101b7800000000000000000000000000000000005d
:101b8800000000000000000000000000000000004d
:101b9800000000000000000000000000000000003d
:101ba800000000000000000000000000000000002d
:101e68000000000000f04520f00000000000000025
:101e7800dcf04020040000000000000068f2402070
:101e880002000000000000006af24020020000008a
:101e980000000000e0f04020040000000000000006
:101ea800e4f040200400000000000000e8f04020ba
:101eb8000400000000000000ecf0402004000000d6
:101ec8000000000054ef4020140000000000000053
:101ed800f0f0402004000000000000006cf24020f8
:101ee8000200000000000000f4f0402004000000a0
:101ef80000000000c8ed402048000000000000007d
:101f0800a0f040200600000001000000ffffffffd6
:101f1800ffff000000004020080000000000000053
:101f280058ee40203800000000000000f0e9402092
:101f3800a0000000000000006ef240200200000037
:101f4800010000000100000068ef402014000000bc
:101f580000000000f8f0402004000000000000002d
:101f6800fcf04020040000000000000000ef4020ca
:101f78001f0000000000000000f1402004000000e5
:101f88000000000004f140200400000000000000f0
:101f980008f1402004000000000000000cf140207f
:101fa80004000000000000001fef402001000000b6
:101fb80000000000a5eb4020010000000100000027
:101fc8000100000010f140200400000000000000a3
:101fd80014f1402004000000000000007cef4020c5
:101fe8001400000000000000f1f845200100000086
:101ff8000000000070f24020020000000000000015
:1020080072f24020020000000000000018f1402099
:10201800040000000000000090ef402014000000c1
:10202800000000001cf14020040000000000000037
:1020380008004020300000000000000070ff45202c
:10204800900000000000000020fd45205002000024
:102058000000000020f14020040000000000000003
:1020680024f14020040000000000000028f1402076
:1020780004000000000000002cf1402004000000d3
:102088000000000030f140200400000000000000c3
:1020980034f14020040000000000000038f1402026
:1020a800040000000000000058f04020100000006c
:1020b80000000000a4ef4020140000000000000011
:1020c800e0ee4020200000000000000055f2402013
:1020d80001000000000000003cf140200400000066
:1020e8000000000040f14020040000000100000052
:1020f800ffffffff44f14020040000000000000043
:1021080048f14020040000000000000080f040205a
:102118000800000001000000ffffffffffffffffb6
:1021280038004020040000000000000064f2402055
:1021380001000000000000007ccb402000040000eb
:10214800000000004cf140200400000000000000e6
:1021580050f14020040000000000000054f140202d
:10216800040000000000000058f1402004000000b6
:102178000000000059f240200100000000000000ab
:102188005cf14020040000000000000061f24020e3
:10219800010000000000000060f140200400000081
:1021a8000000000064f1402004000000000000006e
:1021b80068f1402004000000000000006cf140209d
:1021c80004000000000000005ef240200200000051
:1021d80001000000ffff000070f140200400000033
:1021e800010000000008000074f140200400000015
:1021f800010000000008000060f24020010000001b
:102208000000000065f2402001000000000000000e
:1022180078f1402004000000000000007cf140201c
:10222800040000000000000074f2402001000000db
:102238000000000080f140200400000000000000c1
:1022480075f2402001000000000000007ccf402013
:10225800000400000000000084f140200400000099
:102268000000000076f2402001000000000000009d
:102278007cd34020000400000000000088f14020ca
:102288000400000000000000b8ef40201400000027
:10229800010000003139322e3136382e3130302edf
:1022a80031303100000000005af2402002000000e6
:1022b80001000000212600005cf24020020000001e
:1022c80001000000ffff000058f24020010000005c
:1022d80000000000f0f045200108000000000000a8
:1022e8008cf14020040000000000000090f1402024
:1022f800040000000000000094f1402004000000e9
:102308000000000098f140200400000000000000d8
:1023180077f2402001000000000000009cf14020fe
:102328000400000000000000a0f1402004000000ac
:102338000000000078f240200100000000000000ca
:1023480079f2402001000000000000007af24020ed
:102358000100000000000000a4f14020040000007b
:1023680000000000a8f14020040000000000000068
:1023780056f240200200000001000000ffff0000ac
:10238800acf140200400000001000000000400003f
:1023980054f240200100000000000000b0f140208d
:1023a8000400000000000000b4f140200400000018
:1023b800000000007bf24020010000000000000047
:1023c800b8f1402004000000000000007cd7402045
:1023d8000004000000000000bcf1402004000000e0
:1023e800000000007cf24020010000000000000016
:1023f8007cdb40200004000000000000c0f1402009
:102408000400000000000000ccef40201400000091
:10241800010000003139322e3136382e3130302e5d
:102428003130310000000000a6f04020020000001a
:1024380001000000447e0000a6eb402002000000de
:1024480001000000ffff0000c4f14020040000006c
:1024580001000000000400003c00402014000000bf
:102468000000000070ed402058000000000000004f
:102478007ce640200802000000000000e0ef402059
:10248800140000000100000001010000d1d7410044
:10249800c1d74100e1d74100c0fd000050004020f5
:1024a8001000000000000000c8f1402004000000f7
:1024b80000000000ccf140200400000000000000f3
:1024c800d0f140200400000000000000d4f14020ba
:1024d8000400000000000000f2f84520020000009f
:1024e80000000000d8f140200400000000000000b7
:1024f800dcf140200400000000000000e0f1402072
:102508000400000000000000e4f140200400000086
:102518000000000090ea4020940000000000000045
:10252800a8ec4020640000000000000068f0402093
:102538000c0000000000000010ee402048000000e1
:10254800000000003cef40201800000000000000e0
:1025580088f040200800000000000000e8f140205a
:102568000400000000000000a8eb402080000000ec
:102578000000000074f040200c0000000000000083
:102588007cdf40200004000000000000ecf1402047
:10259800040000000000000028ec4020800000003b
:1025a8000000000024eb4020810000000000000033
:1025b800f0f140200400000000000000f4f1402089
:1025c8000400000000000000f8f1402004000000b2
:1025d800000000000ced4020640000000000000036
:1025e800fcf14020040000000000000000f2402040
:1025f800040000000000000004f240200400000075
:102608000000000008f24020040000000000000064
:102618000cf24020040000000000000010f24020ee
:102628000400000000000000f4ef40201400000047
:102638000000000008f04020140000000000000026
:1026480014f24020040000000000000018f24020ae
:1026580004000000000000001cf2402004000000fc
:10266800000000001cf040201400000000000000e2
:1026780020f24020040000000000000030f040205c
:10268800140000000000000044f040201400000086
:102698000000000024f240200400000000000000b8
:1026a80028f24020040000000000000064004020e0
:1026b80010c700000000000090f040200800000053
:1026c800000000002cf24020040000000000000080
:1026d80098f04020080000000000000030f2402080
:1026e800040000000100000008c7000034f2402088
:1026f8000400000001000000aaaaaaaa38f240209b
:102708000400000001000000f8f84520f8f8452012
:10271800280400000100000000000000e4fb452040
:102728004cfc4520b4fc45200000000000000000df
:102738000000000000000000000000000000000091
:102748000000000000000000000000000000000081
:102758000000000000000000000000000000000071
:102768000000000000000000000000000000000061
:102778000000000000000000000000000000000051
:102788000000000000000000000000000000000041
:102798000000000000000000000000000000000031
:1027a8000000000000000000000000000000000021
:1027b8000000000000000000000000000000000011
:1027c80001000000000000000e33cdab34126de6ae
:1027d800ecde05000b000000000000000000000017
:1027e80000000000000000000000000000000000e1
:1027f80000000000000000000000000000000000d1
:1028080000000000000000000000000000000000c0
:1028180000000000000000000000000000000000b0
:102b480084e840206c010000010000004300000000
:102b5800000000000000000000000000000000006d
:102b6800000000000000000000000000430000001a
:102b7800000000000000000000000000000000004d
:102b880000000000000000000000000043000000fa
:102b9800000000000000000000000000000000002d
:102ba80000000000000000000000000043000000da
:102bb800000000000000000000000000000000000d
:102bc80000000000000000000000000043000000ba
:102bd80000000000000000000000000000000000ed
:102be800000000000000000000000000430000009a
:102bf80000000000000000000000000000000000cd
:102c08000000000000000000000000004300000079
:102c180000000000000000000000000000000000ac
:102c28000000000000000000000000000dcf41007f
:102c380061bc410000000000f00a410028d64100b4
:102c480024d6410024d6410024d6410024d6410090
:102c580024d6410024d6410024d6410024d6410080
:102c680024d64100ffffffffffffffffffffffff2d
:102c7800ffff0000010041534349490000000000e4
:102c8800000000000000000000000000000000003c
:102c980000000000000041534349490000000000c3
:102ca800000000000000000000000000000000001c
:102cb8000000000000000000b8ee402028000000de
:102cc800000000003cf2402004000000000000006a
:102cd80040f24020040000000000000044f24020c0
:102ce800040000000000000074c740200804000031
:102cf80001000000000000000000000074c7402030
:102d080074c740207cc740207cc7402084c740202f
:102d180084c740208cc740208cc7402094c74020df
:102d280094c740209cc740209cc74020a4c740208f
:102d3800a4c74020acc74020acc74020b4c740203f
:102d4800b4c74020bcc74020bcc74020c4c74020ef
:102d5800c4c74020ccc74020ccc74020d4c740209f
:102d6800d4c74020dcc74020dcc74020e4c740204f
:102d7800e4c74020ecc74020ecc74020f4c74020ff
:102d8800f4c74020fcc74020fcc7402004c84020ae
:102d980004c840200cc840200cc8402014c840205b
:102da80014c840201cc840201cc8402024c840200b
:102db80024c840202cc840202cc8402034c84020bb
:102dc80034c840203cc840203cc8402044c840206b
:102dd80044c840204cc840204cc8402054c840201b
:102de80054c840205cc840205cc8402064c84020cb
:102df80064c840206cc840206cc8402074c840207b
:102e080074c840207cc840207cc8402084c840202a
:102e180084c840208cc840208cc8402094c84020da
:102e280094c840209cc840209cc84020a4c840208a
:102e3800a4c84020acc84020acc84020b4c840203a
:102e4800b4c84020bcc84020bcc84020c4c84020ea
:102e5800c4c84020ccc84020ccc84020d4c840209a
:102e6800d4c84020dcc84020dcc84020e4c840204a
:102e7800e4c84020ecc84020ecc84020f4c84020fa
:102e8800f4c84020fcc84020fcc8402004c94020a9
:102e980004c940200cc940200cc9402014c9402056
:102ea80014c940201cc940201cc9402024c9402006
:102eb80024c940202cc940202cc9402034c94020b6
:102ec80034c940203cc940203cc9402044c9402066
:102ed80044c940204cc940204cc9402054c9402016
:102ee80054c940205cc940205cc9402064c94020c6
:102ef80064c940206cc940206cc9402074c9402076
:102f080074c940207cc940207cc9402084c9402025
:102f180084c940208cc940208cc9402094c94020d5
:102f280094c940209cc940209cc94020a4c9402085
:102f3800a4c94020acc94020acc94020b4c9402035
:102f4800b4c94020bcc94020bcc94020c4c94020e5
:102f5800c4c94020ccc94020ccc94020d4c9402095
:102f6800d4c94020dcc94020dcc94020e4c9402045
:102f7800e4c94020ecc94020ecc94020f4c94020f5
:102f8800f4c94020fcc94020fcc9402004ca4020a4
:102f980004ca40200cca40200cca402014ca402051
:102fa80014ca40201cca40201cca402024ca402001
:102fb80024ca40202cca40202cca402034ca4020b1
:102fc80034ca40203cca40203cca402044ca402061
:102fd80044ca40204cca40204cca402054ca402011
:102fe80054ca40205cca40205cca402064ca4020c1
:102ff80064ca40206cca40206cca402074ca402071
:1030080074ca40207cca40207cca402084ca402020
:1030180084ca40208cca40208cca402094ca4020d0
:1030280094ca40209cca40209cca4020a4ca402080
:10303800a4ca4020acca4020acca4020b4ca402030
:10304800b4ca4020bcca4020bcca4020c4ca4020e0
:10305800c4ca4020ccca4020ccca4020d4ca402090
:10306800d4ca4020dcca4020dcca4020e4ca402040
:10307800e4ca4020ecca4020ecca4020f4ca4020f0
:10308800f4ca4020fcca4020fcca402004cb40209f
:1030980004cb40200ccb40200ccb402014cb40204c
:1030a80014cb40201ccb40201ccb402024cb4020fc
:1030b80024cb40202ccb40202ccb402034cb4020ac
:1030c80034cb40203ccb40203ccb402044cb40205c
:1030d80044cb40204ccb40204ccb402054cb40200c
:1030e80054cb40205ccb40205ccb402064cb4020bc
:1030f80064cb40206ccb40206ccb402048f2402071
:103108000400000001000000ffffffff4cf2402018
:1031180004000000010000000000020060004020e0
:10312800040000000000000050f2402004000000ed
:1031380000000000000000000000000022222222ff
:020000040000fa
:020000040040ba
:1031480055736167653a206d6163696e666f200d1e
:103158000a00000045783a206d6163696e666f2049
:103168000d0a0000496e746572666163653a202530
:1031780073206472697665722073746174697374fc
:103188006963730d0a000000096e52784f6b506135
:10319800636b6574733a2025642c206e52785065f1
:1031a8006e64427566666572733a2025642c206edb
:1031b80052785363686564427566666572733a202f
:1031c80025642c20000000006e52784572726f72e0
:1031d8005061636b6574733a2025642c206e5278b5
:1031e800467261676d656e744572726f72733a20cc
:1031f80025640d0a00000000096e54784f6b506179
:10320800636b6574733a2025642c206e547850657e
:103218006e64427566666572733a2025642c206e6a
:1032280054784572726f725061636b6574733a209b
:1032380025642c206e5478517565756546756c6cdf
:103248003a2025640d0a0000096e6f7420737570aa
:10325800706f727465640d0a00000000496e746531
:1032680072666163653a20257320686172647761cc
:10327800726520737461746973746963730d0a00ed
:103288000925733a2030782538780d0a00000000a7
:1032980064697361626c656400000000646973614d
:1032a800626c6500656e61626c656400656e616282
:1032b8006c65000055736167653a202573203c6989
:1032c8006e746572666163653e203c6f6e2f6f6633
:1032d800663e200d0a00000045783a2025732050ec
:1032e80049433332494e54206f6e200d0a000000c6
:1032f800556e6b6e6f776e20696e7465726661636a
:10330800650d0a006f6e00006f666600556e6b6e85
:103318006f776e206f7074696f6e0d0a0000000081
:1033280025732025730d0a004661696c6564207455
:103338006f2025732025730d0a000000556e6b6ef3
:103348006f776e20736572766963652025730d0a41
:10335800000000006e6f6e6500000000d044400061
:103368000100000058414000020000000c334000fa
:10337800030000001033400003000000d444400064
:103388000400000055736167653a20646e7363201a
:103398003c64656c2f696e666f2f6f6e2f6f666663
:1033a8002f6c6f6f6b75703e200d0a005573616747
:1033b800653a202573203c6f6e2f6f66663e203c71
:1033c800696e746572666163653e203c73747269e8
:1033d80063742f707265663e2f3c636c6561723e44
:1033e800200d0a0045783a202573206f6e206574f9
:1033f80068300d0a0000000073747269637400007d
:103408007072656600000000636c65617200000000
:1034180055736167653a20646e7363206c6f6f6bd8
:103428007570203c747970653e203c686f73744eeb
:10343800616d653e200d0a0048656c703a203c6855
:103448006f73744e616d653e2855524c29202d20ae
:103458006c6f6f6b20757020666f7220686f737465
:103468006e616d650d0a000048656c703a203c7409
:103478007970653e203a2061206f72204120666f86
:103488007220495076342061646472657373206ccd
:103498006f6f6b75700d0a0048656c703a203c744c
:1034a8007970653e203a2061616161206f72204128
:1034b80041414120666f722049507636206164642c
:1034c80072657373206c6f6f6b75700d0a00000066
:1034d80048656c703a203c747970653e203a2061ea
:1034e8006e7920666f7220626f7468204950763456
:1034f80020616e6420495076362061646472657379
:1035080073206c6f6f6b75700d0a0000646e7363c7
:10351800206c6f6f6b75703a20636f6d6d616e64b0
:1035280020696e2070726f67726573732e20526502
:10353800747279206c617465722e0d0a00000000a7
:1035480041000000610000004141414100000000cd
:103558006161616100000000414e5900616e7900af
:10356800646e7363206c6f6f6b75703a205b2573a4
:103578005d204c6f6f6b75702054797065206e6f8d
:103588007420737570706f727465642e0d0a000074
:10359800646e7363206c6f6f6b75703a20486f733d
:1035a80074206e616d6520746f6f206c6f6e672e6e
:1035b8002052657472792e0d0a000000646e7363e0
:1035c800206c6f6f6b75703a207265736f6c7669db
:1035d8006e6720686f73743a20257320666f7220b7
:1035e800747970653a2573200d0a00005573616778
:1035f800653a20646e73632064656c203c686f7361
:10360800744e616d653e7c616c6c200d0a00000093
:1036180048656c703a203c686f73744e616d653e06
:103628002855524c29202d2052656d6f76652074df
:10363800686520656e74727920696620657869739b
:103648007473200d0a00000048656c703a20616ca4
:103658006c202d2052656d6f766520616c6c20742e
:103668006865207265736f6c76656420656e747228
:1036780079200d0a00000000616c6c005b25735d09
:10368800206e6f742070617274206f662074686594
:1036980020444e5320436163686520656e747279d7
:1036a800200d0a00496e636f6d706c657465206348
:1036b8006f6d6d616e64200d0a00000055736167bf
:1036c800653a20646e736320696e666f200d0a0088
:1036d80048656c703a20646973706c61792074680d
:1036e8006520444e5320636163686520656e74727b
:1036f800792064657461696c73200d0a000000000c
:10370800444e5320436c69656e7420697320646f5e
:10371800776e210d0a000000444e5320436c696502
:103728006e74204946202d205374726963743a20c0
:1037380025732c205072656665727265643a20257f
:10374800730d0a00444e5320436c69656e74202d36
:103758002074696d653a2025642c2070656e646953
:103768006e673a2025642c2063757272656e743a10
:103778002025642c20746f74616c3a2025640d0a2e
:1037880000000000486f73746e616d65203d202550
:1037980073200d0a54696d656f7574203d2025648a
:1037a800200d0a0049507634203d25730d0a00008b
:1037b80049507636203d2025730d0a002d2d2d2ddc
:1037c8002d2d2d2d2d2d2d2d2d2d2d2d2d2d2d2d21
:1037d8002d2d2d2d2d2d2d2d2d2d2d2d2d2d2d2d11
:1037e8002d2d2d2d2d2d2d2d2d2d2d2d2d2d2d2d01
:1037f8000d0a00004e6f20444e5320436c69656edd
:103808007420436163686520656e7472696573200e
:103818000d0a0000496e76616c696420496e707506
:103828007420436f6d6d616e64203a5b20257320b0
:103838005d200d0a000000006172703a2061646426
:103848007265737320616c72656164792071756546
:103858007565640d0a0000006172703a2061646445
:1038680072657373206e65776c79207175657565ff
:10387800640d0a006172703a20717565756520667d
:10388800756c6c2f6572726f720d0a0055736167e3
:10389800653a20617270203c696e74657266616376
:1038a800653e203c722f712f642f6c3e203c69705e
:1038b800416464723e200d0a0000000045783a20f9
:1038c800617270205049433332494e54207220317e
:1038d80039322e3136382e312e313035200d0a004e
:1038e8006c0000006172703a20256420736c6f745c
:1038f8007320696e207468652063616368650d0aca
:10390800000000006172703a2049507634206164ea
:1039180064726573733a2025730000002c204d41b2
:103928004320416464726573733a20257300000074
:103938002c20636f6d706c6574650d0a00000000c3
:103948002c207065726d616e656e740d0a00000042
:103958006172703a204950763420616464726573ec
:10396800733a2025732c207175657565640d0a00fe
:10397800496e76616c69642049502061646472659f
:10398800737320737472696e67200d0a000000005b
:10399800720000006172703a207265736f6c766510
:1039a80064202d20495076342061646472657373f5
:1039b8003a2025732c204d4143204164647265737d
:1039c800733a2025730d0a00710000006172703a85
:1039d800204950763420616464726573733a2025f7
:1039e800732c204d414320416464726573733a20ff
:1039f80025730d0a000000006172703a206e6f2076
:103a08007375636820656e7472790d0a0000000092
:103a1800640000006172703a2072656d6f766564ab
:103a28002025730d0a0000006172703a20556e6bf4
:103a38006e6f776e206f7074696f6e0d0a000000ec
:103a4800696e7465726e616c00000000706f6f6c57
:103a58000000000065787465726e616c00000000fb
:103a6800756e6b6e6f776e0055736167653a206887
:103a7800656170696e666f20312f322f33200d0a11
:103a88000000000045783a2068656170696e666fcd
:103a980020310d0a000000004e6f2068656170201b
:103aa800696e666f2065786973747320666f72201b
:103ab800747970653a202573210d0a004865617094
:103ac80020747970653a2025732e20496e697469cf
:103ad800616c20637265617465642068656170203b
:103ae80073697a653a2025642042797465730d0af2
:103af80000000000416c6c6f6361626c6520626c51
:103b08006f636b20686561702073697a653a202558
:103b1800642042797465730d0a000000416c6c20c2
:103b2800617661696c61626c65206865617020739b
:103b3800697a653a2025642042797465732c206877
:103b48006967682077617465726d61726b3a2025c8
:103b5800640d0a004c617374206865617020657299
:103b6800726f723a20307825780d0a004e6f205413
:103b78007261636520696e666f2065786973747316
:103b88002e0d0a00537461636b207570206661699d
:103b98006c65640d0a000000537461636b207570d6
:103ba800207375636365656465640d0a0000000031
:103bb80055736167653a20737461636b203c757057
:103bc8002f646f776e3e203c707265736572766500
:103bd8003e0d0a0045783a20737461636b20646f68
:103be800776e2070726573657276650d0a00000045
:103bf80075700000537461636b20616c7265616459
:103c080079207570210d0a005475726e2053746105
:103c1800636b20646f776e20616e64207468656ed4
:103c2800207570210d0a0000526573746172746901
:103c38006e672074686520737461636b207769749c
:103c48006820256420696e746572666163652873ef
:103c5800290d0a00646f776e0000000053746163d9
:103c68006b20646f776e3a2063616e6e6f742067a5
:103c78006574206120737461636b2068616e646c85
:103c8800650d0a00537461636b20646f776e20734f
:103c980075636365656465640d0a00005573616743
:103ca800653a206966203c696e7465726661636571
:103cb8003e203c646f776e2f75703e200d0a000021
:103cc80045783a206966205049433332494e54209a
:103cd800646f776e200d0a00556e6b6e6f776e20dd
:103ce800696e746572666163652073706563696681
:103cf800696564200d0a00005468697320696e7450
:103d080065726661636520616c72656164792075ae
:103d1800700d0a005468697320696e746572666173
:103d2800636520616c726561647920646f776e0ddc
:103d38000a00000057726f6e6720706172616d65ce
:103d480074657220737065636966696564200d0a1d
:103d5800000000004f7065726174696f6e207375a2
:103d6800636365737366756c210d0a004f70657225
:103d78006174696f6e206661696c6564210d0a0063
:103d880055736167653a207365746d6163203c699a
:103d98006e746572666163653e203c783a783a785d
:103da8003a783a783a783e200d0a000045783a2069
:103db8007365746d6163205049433332494e542012
:103dc80061613a62623a63633a64643a65653a6685
:103dd80066200d0a00000000617267765b325d3a6a
:103de8002025730d0a000000496e76616c69642015
:103df8004d41432061646472657373207374726902
:103e08006e67200d0a000000536574204d41432061
:103e180061646472657373206661696c65640d0a18
:103e2800000000005365742042494f53204e616dd5
:103e380065204f4b0d0a00005365742042494f53cb
:103e4800204e616d65206661696c65640d0a00002d
:103e580055736167653a2073657462696f73203cb6
:103e6800696e746572666163653e203c782e782eb3
:103e7800782e783e200d0a0045783a2073657462e2
:103e8800696f73205049433332494e54204d43489b
:103e980050424f4152445f3239200d0a0000000061
:103ea8005365742067617465776179206164647211
:103eb800657373204f4b0d0a000000005365742092
:103ec80067617465776179206164647265737320d2
:103ed8006661696c65640d0a0000000055736167ce
:103ee800653a207365746777203c696e74657266fd
:103ef8006163653e203c697076342f3620616464c6
:103f0800726573733e203c76616c696454696d65b3
:103f18003e200d0a0000000045783a20736574675a
:103f280077205049433332494e54203139322e31ab
:103f380036382e302e31200d0a00000053657420cb
:103f480069702061646472657373204f4b0d0a00b9
:103f580053657420697020616464726573732066a8
:103f680061696c65640d0a0055736167653a207371
:103f780065746970203c696e746572666163653e3c
:103f8800203c697076342f362061646472657373df
:103f98003e203c697076346d61736b2f697076369c
:103fa80020707265666978206c656e3e0d0a0000a7
:103fb80045783a2073657469702050494333324913
:103fc8004e54203139322e3136382e302e382032a8
:103fd80035352e3235352e3235352e30200d0a0046
:103fe800416e2061646472657373207365727669cb
:103ff800636520697320616c7265616479207275ec
:104008006e6e696e672e2053746f7020444843505b
:104018002c205a434c4c2c206574632e2066697200
:1040280073740d0a00000000496e76616c696420a3
:104038004950206d61736b20737472696e67200d2f
:104048000a0000004e6f207375636820696e7465fe
:1040580072666163652069732075700d0a0000003f
:1040680055736167653a20736574646e73203c69a3
:104078006e746572666163653e203c782e782e7892
:104088002e783e200d0a000045783a207365746446
:104098006e73205049433332494e54203235352e01
:1040a8003235352e3235352e30200d0a000000000d
:1040b80053657420444e53206164647265737320a1
:1040c8006661696c65640d0a000000006e6f7420fb
:1040d800676976656e0000007375636365737300c6
:1040e8006661696c0000000055736167653a2025b8
:1040f80073203c696e746572666163653e203c6f2f
:104108006e2f6f66662f72656e65772f7265717593
:104118006573742f696e666f3e200d0a00000000fb
:1041280072656e657700000072657175657374005d
:1041380052657175657374206e6565647320616e70
:1041480020495020616464726573730d0a00000091
:10415800696e666f00000000444843502073746124
:104168007475733a2025642028202564203d3d205d
:10417800426f756e64292c2074696d653a20256438
:104188000d0a000044484350206c65617365207334
:10419800746172743a2025642c20647572617469a4
:1041a8006f6e3a202564730d0a000000444843509e
:1041b8002072656e65772074696d653a2025642cd8
:1041c80020726562696e642074696d653a202564a1
:1041d8000d0a00004448435020616464726573739b
:1041e8003a2025730d0a0000444843502073657235
:1041f8007665723a2025730d0a0000004448435042
:1042080020626f6f74206e616d653a2025730d0a08
:1042180000000000444843503a206661696c6564b8
:1042280020746f2067657420696e666f0d0a000040
:1042380025732025732025730d0a000055736167c7
:10424800653a206465666e6574203c696e746572b3
:10425800666163653e0d0a0045783a206465666ebe
:104268006574205049433332494e540d0a0000000a
:1042780044656661756c7420696e74657266616305
:104288006520736574207375636365737366756cf5
:104298000d0a00004f7065726174696f6e206e6f51
:1042a800742061636365707465640d0a0000000022
:1042b80055500000444f574e000000005573616789
:1042c800653a206e6574696e666f0d0a000000001d
:1042d80045783a206e6574696e666f0d0a000000b5
:1042e8002d2d2d2d2d2d2d2d2d2d20496e746572e2
:1042f80066616365203c25732f25733e202d2d2d87
:104308002d2d2d2d2d2d2d200d0a0000496e7465a3
:10431800726661636520697320646f776e0d0a00a9
:10432800486f7374204e616d653a202573202d20e7
:104338004e424e532064697361626c6564200d0ab5
:10434800000000004950763420416464726573733c
:104358003a2025730d0a00004d61736b3a202573ce
:104368000d0a0000476174657761793a2025730d5d
:104378000a000000444e533a2025730d0a0000003d
:104388004d414320416464726573733a2025730d6f
:104398000a000000646863702069732025730d0aa1
:1043a800000000004c696e6b2069732025730d0aac
:1043b8000000000064656661756c742049502061d6
:1043c80064647265737300002573206973204f4e0f
:1043d8000d0a00006468637000000000444e53201a
:1043e8004c6f6f6b75703a20444e53206661696c50
:1043f80075726520666f722025730d0a0000000033
:10440800444e53204c6f6f6b75703a20726571750e
:104418006573742074696d656f75742e0d0a0000dc
:104428004c6f6f6b757020416e737765723a0d0a29
:104438002d2d2d2d2d2d2d2d2d2d2d2d2d2d2d2da4
:104448002d2d2d2d2d2d0d0a000000004e6f204c16
:104458006f6f6b757020656e74727920666f72204d
:104468005b25735d0d0a00005b25735d20412049c3
:104478005076342041646472657373203a20256451
:104488002e25642e25642e25640d0a005b25735d98
:10449800204141414120495076362041646472658b
:1044a8007373203a25730d0a000000003a207374d4
:1044b80061636b20636f6d6d616e64730000000053
:1044c800746370697000000064656c006c6f6f6bda
:1044d800757000006e6574696e666f003a204765f6
:1044e80074206e6574776f726b20696e666f726d7b
:1044f8006174696f6e0000006465666e6574000023
:104508003a205365742064656661756c74206e6525
:1045180074776f726b20696e74657266616365008b
:104528003a204448435020636c69656e7420636f79
:104538006d6d616e647300006468637073000000e1
:104548003a205475726e2044484350207365727641
:104558006572206f6e2f6f66660000007a636c6c60
:10456800000000003a205475726e205a434c4c20cb
:104578006f6e2f6f66660000736574646e7300005b
:104588003a2053657420444e532061646472657305
:104598007300000073657469700000003a20536569
:1045a80074204950206164647265737320616e647d
:1045b800206d61736b0000007365746777000000fd
:1045c8003a20536574204761746577617920616486
:1045d800647265737300000073657462696f7300b9
:1045e8003a2053657420686f73742773204e65747e
:1045f80042494f53206e616d650000007365746d0c
:10460800616300003a20536574204d414320616482
:104618006472657373000000696600003a20427294
:10462800696e6720616e20696e7465726661636584
:104638002075702f646f776e0000000073746163db
:104648006b0000003a20537461636b207475726ebe
:10465800206f6e2f6f66660068656170696e666fa1
:10466800000000003a20436865636b20686561704c
:104678002073746174757300617270003a2041523e
:104688005020636f6d6d616e64730000646e7363b8
:10469800000000003a20444e5320636c69656e7434
:1046a80020636f6d6d616e64730000006d616369f6
:1046b8006e666f003a20436865636b204d41432066
:0c46c8007374617469737469637300009b
:020000040000fa
:020000040040ba
:1046d4002de9f04f93b00f210a2016f0e3f907906b
:1046e40010f0010f12d1079b13f0020f40f07485f4
:1046f40013b0bde8f08fb9f8223013f4007f0cd06a
:104704006ff00d010a22484618f02bfa0a2017f020
:1047140087f981460028eed1e5e7d9f81c301c461c
:104724000293b9f82060132e40f24385d9f818702b
:1047340007f110030493fb680f933b691093002265
:104744008df8442006238df84530330a43ea0623c6
:10475400adf846300c210fa813f098fac3439bb26e
:10476400b9f8222012f0040f35d0324621464846cb
:1047740011f098fb002840f02085029c204613f09d
:10478400b1f894f80cb04fea1b1b4fea8b0babf15a
:10479400140b1ffa8bf30693d9f81c80d9f828c0a0
:1047a400b8f802b0bbf1000f00f00b85fd89bb899e
:1047b4001d44b8f800301d4485ea0b05adb2c74b63
:1047c4001a68002a00f00185c54bd3f800e00023e5
:1047d4009a4619460ee01a463146029813f056fae4
:1047e400c8e7206c844512d088b101331bb2194646
:1047f40093422ed25ef82140002cf6d094f86e102d
:104804000b29f2d094f86f000128eed8e9e741b9fa
:10481400b4f86a105945e8d1baf1000f08bfa246ae
:10482400e3e7b4f86a10a942dfd1d8f80000a16d1b
:104834008842dad1a06bf9688842d6d1012184f884
:104844006f10c4f840c0049a204616f0e9faa24654
:104854001de0baf1000f00f08c80fb68caf8383014
:1048640001218af86f10caf840c0049a504616f025
:10487400d7faaaf86a50b8f80030aaf85830b8f84d
:104884000230aaf85a30daf80030caf81030d9f8f1
:1048940010201389143b06995b1a1381029a547be6
:1048a400d2f8088055689af8373013f0400f63d176
:1048b4009af86d306ff300038af86d309af86e3011
:1048c400002b7dd0012b00f0b280069ab61ab6b246
:1048d400a6f1140292b2069214f001020a9200f0b8
:1048e400db80133e1ffa86fb14f0020f03d00bf19a
:1048f400010b1ffa8bfbdaf81c60daf820209642d1
:10490400c0f0cd80daf81810daf81400091ab21ad7
:104914008a1a92b20492daf85020af1abbf1000f4f
:1049240000f0c280049a002a00f0cb80002f01db43
:1049340097420ed307eb0b02002a40f3c28004997e
:10494400a1eb0b029742ccbf002201228f4280f2de
:10495400b58014f0060f00f0cb8014f0040f0cbfe8
:1049640000264ff40066002150460ef00df800f0ca
:104974000abc6ff00d01c5e600238af871309af87d
:10498400363013f0020f93d116f014f8cde9040178
:10499400baf8687019f0caf8524ba3fb00231b0c39
:1049a40007fb03f7504ba3fb0737bf094f4a00230c
:1049b400dde9040116f0c8fe3844caf8240077e79c
:1049c40014f0040f1ad114f0100f1dd114f0020fbb
:1049d40027d00135caf8505002980ef0e5f9aaf82c
:1049e4006200504615f099fe01221221504601f052
:1049f4001fff02238af86e300026c4e300215046cc
:104a04000df0c2ff0026bee3caf84c800022042148
:104a1400504601f00dff002150460df0b5ff002671
:104a2400b1e3002150460df0afff0026abe314f0d4
:104a3400040f40f0a78314f0100f00f09e85daf8fd
:104a44004c60b04500f07a85caf84c8001220421fc
:104a5400504601f0edfecaf84c60002693e315f0d1
:104a6400a9ff06460f46baf8684019f05ff81d4bd7
:104a7400a3fb00231b0c04fb03f41b4ba3fb043418
:104a8400a4091a4a00233046394616f05dfe204434
:104a9400caf8240000f049bdddf818b024e7921be1
:104aa400013a92b2049236e7002f3ff452af002f3e
:104ab40007db049a9742acbf00220122002a7ff44c
:104ac40048af14f0040f01d000265ce3012210214a
:104ad400504601f0adfe002655e300bfc0f0402073
:104ae400bcf04020851dd96fd34d6210f0490200ff
:104af40014f0100f00f04e83023b072b00f27e816e
:104b0400dfe813f008001d001d001d001d007c01de
:104b14001d006f01daf84c60b0450ad0caf84c8029
:104b240001220421504601f083fecaf84c6000269d
:104b340029e303238af86e304ff4807600e00026e0
:104b4400daf808300d93daf81020981a14d4daf849
:104b54004c30a8eb0301091a00291dddbaf86c00da
:104b640000f40170042801d101290cd00022102185
:104b7400504601f05dfe06e3daf80430daf800107e
:104b84005b1a1844e3e70133caf84c309af86d30e5
:104b940043f002038af86d30daf84c300b93daf8fc
:104ba4000c00a2eb000ca3eb0c0c824240d2daf80e
:104bb4000430daf80010a3eb010eaceb0e0ea8ebf8
:104bc4000e0ebef1000f3bdddaf8043019460893ef
:104bd400daf80030c91a714530d39af86c3003f012
:104be400ef036ff345138af86c309af836306ff39d
:104bf40045138af836307044caf80c000a449042cf
:104c040076d8089b984202d3401acaf80c00daf806
:104c14001030089a934202d35b1acaf810309af8fb
:104c24006e30032b01d0082b33d146f0040630e05c
:104c3400a8eb0c030c93002b00f3ae84824228d023
:104c44009af86c3013f0100f1dd013f0200f14d00d
:104c5400caf84cc0824208d2daf80430daf80020ec
:104c64009b1aaceb0303caf84c30caf810009af84c
:104c7400363043f080038af836309af86c3043f0cb
:104c840020038af86c309af86c3043f010038af8e9
:104c94006c30daf80c300d9a9a4232d0029bdb89e0
:104ca400baf866209a4238bfaaf86630daf84c207f
:104cb400029bdb8943449b1a9bb2baf85c1031b95e
:104cc4002bb19af8361041f040018af83610aaf850
:104cd4005c309af86e30042b57d0062b40f08f804e
:104ce400904540f05082002150460df04dfe4ae2be
:104cf400821a0b9b1a44caf84c20caf8100000f020
:104d040072bc9af8373013f0010f28d113f0400f1a
:104d14001ed015f04ffecde90801baf868300b93a8
:104d240018f004ffc749a1fb00131b0c0b9a02fbec
:104d340003f3c54aa2fb03239b090b93c34a002335
:104d4400dde9080116f000fd0b9b1844caf82400a5
:104d54009af836306ff341038af836309ee7daf872
:104d64004c3098459ad19af86c3013f0040f95d0d2
:104d74009af836306ff341038af836309af83730b0
:104d84006ff300038af8373088e7904503d014f0b6
:104d9400200f43d0f7e19af86c3013f0040ff6d0eb
:104da40015f008fecde9080118f0c0fea54ba3fbe1
:104db40000231b0c41f2883202fb03f3a24aa2fb3c
:104dc40003239b090b93a14a0023dde9080116f094
:104dd400bbfc0b9b1844caf8300005238af86e30dc
:104de400d5e7daf84c300133984501d00026cae102
:104df400002150460df0c8fd0026c4e1002614f041
:104e0400200f40f0c0819af86e20a2f10803dbb2b3
:104e1400012b40f2b881062a00f0b581069b002bd5
:104e240000f0a180002f46dd069b3b4404998b4291
:104e340002ddcc1ba3b20693029a137b1b0902eb7f
:104e440083030e93daf81c10daf81820069b3b440f
:104e54000b449a4280f0fc80531a0133db1b00f1af
:104e6400e3809ab201240094029213460ea80246eb
:104e74003944484612f001fd0490069b029a9b1a9d
:104e8400daf8141000949bb20eaa484612f0f5fc0e
:104e9400049b034498b2069b834264d1daf85430ed
:104ea400b3f1ff3f40f0dd80caf85470bdf818300c
:104eb400aaf8603057e0029a137b1b09c7eb8303ff
:104ec40013440e93069b3b449cb2049ba34228bf0d
:104ed40023461c46daf81c10daf818300a199342f3
:104ee4007fd25b1a01330293bdf808200127009793
:104ef400069213460ea80246484612f0befc0490e1
:104f0400069aa31adaf8141000979bb20eaa484620
:104f140012f0b3fc049a024490b2029be31adaf84a
:104f24001420134484421ed1daf850102144caf8e4
:104f34005010caf81c309af86e20033ad2b2022af2
:104f440098bf46f40076daf85420b2f1ff3f0ad055
:104f5400141bcaf85440baf8602012194cd54ff00b
:104f6400ff33caf85430bbf1000f00f0a8809af860
:104f74006e30033bdbb2022b03d9daf81c30caf8db
:104f840020309af8363013f0100f40f093809af8de
:104f9400363043f010038af8363013f0080f40f02f
:104fa4008e80dbb243f008038af8363015f002fd38
:104fb400cde9020118f0bafd224ba3fb00231b0c20
:104fc400642404fb03f4204ba3fb0434a4091f4a08
:104fd4000023dde9020116f0b7fb2044caf82c00d7
:104fe4006de00123009323460eaa484612f045fcc7
:104ff400daf81c30234495e7002cb4dc1144caf8d9
:1050040050101344caf81c30daf81820934206d919
:10501400daf81410521ad2431344caf81c304ff071
:10502400ff33caf854309ee7781edaf81430d21ae7
:10503400801a01230093069b0eaa0144484612f0ed
:105044001cfc28e7851dd96fd34d6210f04902007e
:1050540001230093069b0eaa3944484612f00dfc26
:1050640019e79f4214d2069ad119baf86020d018d1
:10507400814201d88b4206d9bdf81830aaf86030b5
:10508400caf854706fe71344db1baaf86030f7e7e3
:10509400baf860201a4406980146394491427ff6d2
:1050a40062af97423ff65faffb1a01461944aaf874
:1050b400601058e701221021504601f0b9fb0a9b09
:1050c400002b60d0daf8503001335d44ab425ad142
:1050d400caf8503046f480669af86e30023b032bcf
:1050e4002ed8dfe803f0020b334509238af86e302b
:1050f40001221121504601f09bfb44e008238af869
:105104006e3015f057fc04460d4618f00ffdd04bd9
:10511400a3fb00231b0cc82707fb03f7cd4ba3fb02
:105124000737bf09cc4a00232046294616f00cfb5a
:105134003844caf830009af86d3013f0010f22d1c8
:1051440001221021504601f073fb1ce0daf84c30c8
:10515400984509d100221021504601f069fb002135
:1051640050460df011fc0ee006238af86e30e7e796
:1051740000221021504601f05bfb002150460df047
:1051840003fc00e00026baf87220324004d1022168
:10519400fff7b8ba0026f6e7daf87440ccb1daf8cb
:1051a4007830d9f82810baf93400a0470221fff763
:1051b400a9ba6ff00c01fff7a5ba6ff00901fff768
:1051c400a1ba6ff00d01fff79dba6ff00d01fff763
:1051d40099ba0221fff796baa04b1b68002b3ff443
:1051e40087aa00252b469e4fdff864b2dff864a23d
:1051f400b5e00026b046c4e015f0dcfb964a002377
:1052040016f0a2faa36ac01a0028a8bf1026bce0b0
:1052140015f0d0fb904a002316f096fae36ac01a00
:105224000028a8bf1026b6e015f0c4fb8a4a002364
:1052340016f08afa236bc31a002bc0f2b18009233b
:1052440084f86e30112688f001023146204601f0c0
:10525400effaade015f0aefb7f4a002316f074fac6
:10526400236bc31a002bc0f2a08001221421204614
:1052740001f0defa002120460df086fb67e094f889
:10528400366006f00106012120460ef0d7fe94f8a0
:10529400363043f0010384f836304ff48052002155
:1052a400204613f01fff002e51d194f836306ff3cf
:1052b400000384f836300a2384f86e3047e015f092
:1052c40079fb654a002316f03ffa636ac01a002886
:1052d4003ddb94f86e30013b082b00f2fd80dfe8e3
:1052e40013f00900c100d800e300fb00eb00fb0051
:1052f400fb00f30094f87030032b00f29680022632
:105304004ff0000994f87030013384f87030a36cc6
:105314005b00a3642169e2688b1a9bb2914204d2b8
:1053240061682068091a0b449bb2e16cc91ae164f4
:10533400b4f85c100b44a4f85c30226100223146be
:10534400204601f075fab9f1000f40f0cb80013529
:105354002db22b46414a12689542bff4c9a93a6856
:1053640052f82340002cf2d094f86e300b2beed080
:1053740094f8363013f0c00f3ff43baf4fead31824
:10538400102613f0040f7ff437af94f8363013f07f
:10539400080f7ff43daf94f86e30082b3ff444af10
:1053a40094f86e30052b3ff455af002e7ff44bafcd
:1053b40094f8363013f0020f81d194f8373013f09b
:1053c400400fc4d094f86e30032bc0d115f0f2fa1c
:1053d400214a002316f0b8f9636ac31a002bb6db1e
:1053e40094f8712094f87c309a423ff448af02223a
:1053f4001021204601f01cfa15f0dcfa804689469b
:10540400b4f8686018f092fbabfb00231b0c06fb9e
:1054140003f6aafb0636b6090f4a0023404649465e
:1054240016f092f93044606291e7042384f87030f6
:1054340018f07cfbabfb00231a0c4ff47a7303fbcc
:1054440002f3aafb03239b091b01a364022657e76b
:10545400851dd96fd34d6210f0490200c0f0402081
:10546400bcf0402094f87030022b40f28b8094f80a
:10547400363013f0010314bf142602269946b8f1fe
:10548400000f7ff43faf01223146204601f0d0f9ee
:1054940059e794f87030042b76d9042384f86e30dd
:1054a40011264ff00009eae794f87030042b6dd907
:1054b40014264ff00109e2e794f87030042b67d901
:1054c40014264ff00109dae794f87030042b61d9ff
:1054d40014264ff00109d2e7002e3ff438af4ff005
:1054e4000009cce7002120460df04efa2fe70135e4
:1054f400caf850500298c389aaf86630aaf85c30fa
:105504000df052fcaaf86200504615f006f901228b
:105514001021504601f08cf903238af86e309af872
:10552400373013f0400f7ff49aaa9af836306ff3ad
:1055340041038af836304ff4807624e614f0020fe3
:10554400d5d100261fe60135caf850500298c38908
:10555400aaf86630aaf85c300df026fcaaf86200be
:10556400504615f0daf801221221504601f060f994
:1055740002238af86e30002605e614f0020fe2d109
:10558400002600e61226bbe61026b9e61126b7e689
:105594001026b5e61126b3e6daf804100b46089196
:1055a400daf80010591a0c9b8b423ff647ab9af875
:1055b4006ce00ef0ef0e6ff3451e8af86ce09af87b
:1055c40036e06ff3451e8af836e00c9b1844caf89f
:1055d4000c008242bff415ab831a0b9a1344caf829
:1055e4004c30caf81000089b83427ff60dabfff7de
:0455f40016bb00bf23
:020000040000fa
:020000040040ba
:1055f8002de9f04f056c93b004465bec10ab1c9f93
:105608000191914604934db1426c6a600123934025
:10561800ab60294618f01af800232364bbf1000f89
:105628005e4635db00233b60c14bb34315d04bece2
:1056380017abb5ee407bf1ee10facde902ab2dd1f8
:10564800049a012313601d9b002b00f0b380b94816
:105658001860013813b0bde8f08f049a42f20f7356
:105668001360baf1000f0dd1c6f3130656b91d9b8e
:10567800b148002beed000f108031d9a136013b057
:10568800bde8f08f1d9bad48002be3d0c31cf4e7a9
:1056980001232bf000463b60b346c5e711a910aac9
:1056a8009ded020b20460ef0a9f9310d804665d01c
:1056b800dde90223c3f3130040f07f53002510985f
:1056c8000d95a1f2ff3143f4401343ec172bb7eecd
:1056d800086b9fed914b37ee466b9fed917b9feded
:1056e800925ba6ee047b06ee901ab8eee66ba6ee89
:1056f800057bfdeec76bb5eec07bf1ee10facded84
:10570800026a00f13081029d162d00f201818c4b56
:1057180003ebc50393ed007b4bec16abb4eec67bf5
:10572800f1ee10fa40f383816b1e029300230b9372
:10573800411a4b1e069300f1108100230793029b28
:10574800002bc0f20181069a0a93114619440023de
:1057580006910593019b092b2ed8052b40f3508504
:10576800043b01930025019b023b032b00f250856b
:10577800dfe813f0490386025603d80310981199fd
:10578800014401f23243202b40f34a81c3f1400324
:1057980001f212429e402afa02f3334307ee903a8e
:1057a800b8ee677b012553ec172b0139a3f1f87389
:1057b8000d958ae763484de70021616420468946d4
:1057c80013f0f0ff4ff0ff36012308902064cdf866
:1057d80004900c960993119b002b7adb029a0e2aef
:1057e80077dc574bb9f1000f03ebc20393ed004b85
:1057f800c0f232834bec17ab87ee046bbdeec66b81
:10580800089a16ee103a012e03f13003b8eec65b83
:1058180002f1010b1370a5ee447b24d0b2ee043bd9
:1058280027ee037bb5ee407bf1ee10fa3cd0b1eeeb
:10583800442b089a06e027ee037bb5ee407bf1ee99
:1058480010fa31d087ee046bbdeec66b16ee103a37
:1058580030330bf8013babeb0203b342b8eec65b47
:10586800a2ee057be7d137ee077bb4eec74bf1ee2e
:1058780010fa08d4b4ee474bf1ee10fa14d116ee34
:10588800103adb0710d51bf8013c08990bf1ff32e1
:1058980004e0914200f0da8312f8013d392b02f15d
:1058a800010bf6d0013313704146204617f0cefea7
:1058b8000022029b8bf80020049a013313601d9b81
:1058c800002b00f055830898c3f800b013b0bde86a
:1058d800f08f099a002a52d0019a012a40f3e282f5
:1058e8000599721e9142c0f246838b1a0d93002ec1
:1058f800c0f21584079f3346079a1a440792069afe
:1059080001211a442046069217f0aafe05463ae0fd
:1059180001230b930ce700bf61436f63a787d23f56
:10592800b3c8608b288ac63ffb799f501344d33f86
:105938000000f07f51d6410040d641004cd64100ce
:105948003033410050d64100079a029bd21a5b427d
:105958000593002307920a93fce6c1f1010307931c
:1059680000230693ebe6b8eee66bb4ee467bf1ee69
:1059780010fa3ff4c8ae029b013b0293c3e6059bb5
:10598800079f099d0d93002f0cdd069900290b46f2
:1059980008ddb942079aa8bf3b46d21aff1acb1aac
:1059a80007920693059bebb1099b002b00f07382cd
:1059b8000d9b002b11dd1a46294620460ff004f8ee
:1059c80042460146054620460af05af841460e90de
:1059d800204617f03bfe0e9b9846059b0d9a9a1a97
:1059e80040f05a820121204617f03afe0a9b0590a2
:1059f800002b1fdd01461a4620460ef0e5ff019bed
:105a08000590012b40f30f8200230d93059a13692b
:105a180002eb8303186914f03ffec0f1200013e085
:105a2800c3f120030afa03f307ee903ab8e600231d
:105a38000b937de6019b012b40f33e8200230d93df
:105a48000a9b0120002be1d1069a104410f01f0098
:105a580000f09e80c0f12003042b40f3d483079b01
:105a6800c0f11c00034407931346034407440693fc
:105a7800079b002b05dd41461a4620460ef07efcaa
:105a88008046069b002b05dd1a46059920460ef038
:105a980075fc05900b9b002b40f08380002e40f393
:105aa8001e82099b002b00f09680002f05dd2946f9
:105ab8003a4620460ef062fc05460d9b002b40f04e
:105ac800ce822f46089b013e9a1909920af00102dc
:105ad8000a921e46ddf814b04046594609f0aafe5f
:105ae80029468246404615f021fb3a4659468146ea
:105af80020460af0f1fec36883460af13002002b03
:105b080040f0e58101464046079215f00ffb5946e3
:105b18000690204617f09afd069b079a33b901991b
:105b280021b90a9b002b00f04383019bb9f1000fb8
:105b3800c0f23b8205d1019919b90a99002900f0f0
:105b48003482002b00f39f82099b327006f1010911
:105b58009e42cb4600f0a282414600230a222046fc
:105b680010f01efbbd42804629464ff000034ff05f
:105b78000a02204600f0a58110f012fb39460546be
:105b880000230a22204610f00bfb4e460746a1e7e9
:105b98001c20079b03440793069b03440744069372
:105ba80066e70599404615f0c1fa0028bff676afba
:105bb800029e414600230a222046013e029610f02a
:105bc800effa099b8046002b40f002830c9b002bc8
:105bd80040f30a831e46ddf820a0ddf814b05746ce
:105be80002e010f0ddfa80465946404609f022fef0
:105bf80000f1300907f8019ba7eb0a03b3424ff005
:105c08000a024ff0000341462046eadb089b012eba
:105c1800acbf9b1901339b464ff0000a4146012255
:105c280020460ef0abfb0599804615f07ffa002858
:105c380040f3d7811bf8012c08990bf1ff3304e0de
:105c48008b4200f0688113f8012d392a03f1010b0a
:105c5800f6d001321a700599204617f0f7fc002d8e
:105c68003ff422aebaf1000f05d0aa4503d0514641
:105c7800204617f0ebfc2946204617f0e7fc13e610
:105c880000230993029b4b445e1c012e37460c935c
:105c9800b8bf01270e960021172f61640ad9012287
:105ca80004235b0003f114008742114602f101024c
:105cb800f7d26164204613f075fd0e9b08900e2bf9
:105cc80020643ff688ad002d3ff485ad029800288a
:105cd800cde90eab40f39a81c84a00f00f0302ebfe
:105ce800c3020311df0692ed007b40f14d81c44ae7
:105cf80092ed086b4bec14ab03f00f03032184ee19
:105d0800065b5bb1be4add0704d592ed006b01313d
:105d180027ee067b5b1002f10802f4d185ee076bd3
:105d28000b9b3bb1b7ee007bb4eec76bf1ee10fafc
:105d380000f10682b1ee0c5b07ee901ab8eee77b35
:105d4800a7ee065b51ec150ba1f15071002e00f087
:105d5800f880029a3546099b002b00f0a781b6ee21
:105d6800003ba64b089f03ebc50313ed024bbdeeaa
:105d7800c67b83ee045b17ee103a41ec140b30330c
:105d8800dbb235ee445bb8eec77b36ee477bb4ee4c
:105d9800c75bf1ee10fa3b7007f1010b31dcb7ee8f
:105da800003b33ee476bb4eec65bf1ee10fa00f33e
:105db800fa81012d00f02681b2ee044b089b591997
:105dc8000ae033ee476bb4eec56bf1ee10fa00f162
:105dd800ea818b4500f0168127ee047b25ee045bf3
:105de800bdeec76b16ee103a3033dbb2b8eec66bb9
:105df80037ee467bb4eec57bf1ee10fa0bf8013bab
:105e0800dfd5029250e500230993b9f1000f40f362
:105e1800bf804f46cdf83890cdf830904e463ae7df
:105e280001230993f1e7baf1000f7ff4edadcbf34d
:105e38001303002b7ff402ae2bf000431b0d1b0550
:105e4800002b00f0b381079b01330793069b0133b6
:105e5800069301230d93f3e5002e3ff7cbac40f0fa
:105e68008380b1ee047b24ee074b4bec17abb4ee0a
:105e7800c74bf1ee10fa3546059643db6fea090386
:105e8800ddf820b002930599204617f0dffb002dbe
:105e98003ff40aadefe6059a414620460ef094fd20
:105ea80080469fe50d9a002a00f03e81059a0d92e2
:105eb80003f23343079f1fe5baf1000f7ff4bead2d
:105ec800b5e710f06df94e460546074602e601466d
:105ed8002046069217f0bafb0123069a26e6019b94
:105ee800022b7ff7dead002ec8d133460599052277
:105ef800204610f055f901460590404615f016f970
:105f08000028bbdd029a08993123013202920b70f6
:105f180001f1010bb7e7029a01320292089a312384
:105f2800137098e601230993ace607ee901ab1eed8
:105f38000c5bb8eee77ba6ee075b51ec150ba1f105
:105f48005071b1ee047b36ee477b41ec160bb4ee94
:105f5800c67bf1ee10fa00f3a580b1ee466bb4ee05
:105f6800c67bf1ee10fa4dd5002305931d4685e753
:105f78000898fff76fbb059b0a990592d31a194435
:105f880000230a910d93b2e49ded0e5b0221b8e661
:105f980000216164204613f005fc4ff001090890c8
:105fa80020644e46cdf830908de6002b914611dde9
:105fb8004146012220460ef0e1f90599804615f088
:105fc800b5f8002840f3fd80b9f1390f00f0d4800e
:105fd8000af13109aa4686f8009006f1010b3d4600
:105fe80039e604d119f0010f01d023e693461bf8d6
:105ff800013c302b0bf1ff32f8d02ce63033410056
:1060080090c24100dde90eabfff7e5bb00f09480dc
:10601800029b884a5b4203f00f0102ebc10292ed3a
:10602800006b9ded0e7b1b1127ee066b00f0e180e7
