:020000040000fa
:020000040040ba
:10000000f0ef4520fd784100f9db4100ffdb4100c6
:100010000bdc410011dc410017dc41000000000056
:10002000000000000000000000000000537c4000c1
:1000300005dc410000000000537c4000537c400080
:10004000537c4000537c4000537c4000537c400074
:10005000537c4000537c4000537c4000537c400064
:10006000537c400000000000537c4000537c400063
:10007000537c4000537c4000537c4000537c400044
:10008000537c4000537c4000537c4000537c400034
:10009000537c4000537c4000537c400071bf4100c2
:1000a000537c4000537c4000537c4000537c400014
:1000b000537c4000537c4000537c4000537c400004
:1000c000537c4000537c4000537c4000537c4000f4
:1000d000537c4000537c4000537c400039db41009e
:1000e000537c4000537c4000537c4000537c4000d4
:1000f000537c4000537c4000537c4000537c4000c4
:10010000537c4000537c4000537c4000537c4000b3
:10011000537c4000000000000000000000000000d0
:10012000537c4000537c4000537c4000537c400093
:10013000537c4000537c4000537c4000537c400083
:10014000537c4000537c4000537c4000537c400073
:10015000537c4000537c4000537c4000537c400063
:08016000537c4000537c400079
:020000040000fa
:020000040040ba
:10016800f8b500bff8bc08bc9e46704761da41008c
:1001780041734100f8b500bff8bc08bc9e46704703
:040188001d734100a2
:020000040000fa
:020000040040ba
:08018c00886f00000100000073
:020000040000fa
:020000040040ba
:10019400240440201c00000000000000c004402093
:1001a4000800000001000000ffffffffffffffff4a
:1001b400000040201000000000000000ecff45207b
:1001c400140000000100000001010000f9da410000
:1001d400e9da410009db4100529900004004402063
:1001e40014000000010000001dc841004dcf410073
:1001f400f1d7410009d8410021d84100a80440208a
:100204000c00000001000000400440201700000022
:1002140080d1f008100040200c0000000000000015
:10022400d00440200400000000000000d40440205a
:100234000400000000000000d80440200400000076
:1002440000000000dc044020040000000000000066
:10025400dc0240206400000000000000e0044020b4
:100264000400000001000000245f4100b8014020a8
:100274009400000000000000e4044020040000009a
:1002840000000000e804402004000000000000001a
:1002940020f945200003000001000000748741009c
:1002a400000000000000000000000000000000004a
:1002b400000000000000000000000000000000003a
:1002c400000000000000000000000000000000002a
:1002d400000000000000000000000000000000001a
:10059400000000000000000000000000ec04402007
:1005a400040000000000000000f04520f0000000fe
:1005b4000000000084034020300000000000000020
:1005c400280040209001000000000000ce044020dc
:1005d4000200000000000000f004402004000000bd
:1005e400000000001c004020080000000000000083
:1005f400400340204400000000000000c8044020e4
:100604000600000001000000ffffffffffff0000e5
:10061400f40440200400000000000000f80440201e
:100624000400000000000000fc044020040000005e
:1006340000000000b005402002000000000000009f
:10064400b20540200200000000000000b405402074
:10065400020000000000000000054020040000002b
:100664000000000004054020040000000000000019
:100674000805402004000000000000006804402039
:1006840010000000000000000c05402004000000e1
:1006940000000000b4034020280000000000000017
:1006a4001005402004000000000000001405402054
:1006b40004000000000000001805402004000000b1
:1006c400000000001c0540200400000000000000a1
:1006d400b605402002000000000000002005402074
:1006e4000400000000000000240540200400000075
:1006f400000000007804402010000000000000000a
:10070400280540200400000000000000b805402037
:1007140002000000000000008804402010000000d7
:1007240000000000c005402001000000000000009f
:100734002c0540200400000000000000300540208b
:100744000400000000000000340540200400000004
:1007540000000000380540200400000000000000f4
:10076400b40440200c00000001000000accf4100a4
:10077400b0cf4100b4cf41003c054020040000004c
:1007840000000000400540200400000000000000bc
:1007940044054020040000000000000048054020fb
:1007a40004000000000000004c054020040000008c
:1007b400000000005005402004000000000000007c
:1007c40004044020200000000000000054044020e5
:1007d4001400000000000000540540200400000044
:1007e40001000000ffffffff580540200400000047
:1007f400000000005c054020040000000000000030
:1008040020fc452060020000000000004c02402053
:100814009000000000000000c1054020010000001d
:1008240000000000980440201000000000000000b8
:10083400600540200400000000000000c2054020c4
:1008440001000000000000006405402004000000d6
:1008540000000000680540200400000000000000c3
:100864006c054020040000000000000070054020da
:100874000400000000000000740540200400000093
:100884000000000078054020040000000000000083
:100894007c0540200400000000000000ba05402050
:1008a4000200000000000000bc054020020000001f
:1008b40000000000c305402001000000000000000b
:1008c4008005402004000000000000008405402052
:1008d400040000000000000088054020040000001f
:1008e400000000008c05402004000000000000000f
:1008f400be054020020000000000000090054020da
:100904000400000000000000c405402001000000b5
:1009140000000000940540200400000001000000d5
:10092400f0f04520f0f0452028040000010000000c
:1009340000000000dcf3452044f44520acf44520dd
:1009440000000000000000000000000000000000a3
:100954000000000000000000000000000000000093
:100964000000000000000000000000000000000083
:100974000000000000000000000000000000000073
:100984000000000000000000000000000000000063
:100994000000000000000000000000000000000053
:1009a4000000000000000000000000000000000043
:1009b4000000000000000000000000000000000033
:1009c4000000000000000000000000000000000023
:1009d4000000000000000000010000000000000012
:1009e4000e33cdab34126de6ecde05000b000000d7
:1009f40000000000000000000000000000000000f3
:100a040000000000000000000000000000000000e2
:100a140000000000000000000000000000000000d2
:100a240000000000000000000000000000000000c2
:100d5400000000000000000080fe45206c0100003f
:100d6400010000004300000000000000000000003b
:100d7400000000000000000000000000000000006f
:100d8400000000004300000000000000000000001c
:100d9400000000000000000000000000000000004f
:100da40000000000430000000000000000000000fc
:100db400000000000000000000000000000000002f
:100dc40000000000430000000000000000000000dc
:100dd400000000000000000000000000000000000f
:100de40000000000430000000000000000000000bc
:100df40000000000000000000000000000000000ef
:100e0400000000004300000000000000000000009b
:100e140000000000000000000000000000000000ce
:100e2400000000004300000000000000000000007b
:100e340000000000000000000000000000000000ae
:100e440000000000e1d1410055c441000000000051
:100e5400dcf640005cda410058da410058da41001f
:100e640058da410058da410058da410058da4100b2
:100e740058da410058da410058da4100ffffffff19
:100e8400ffffffffffffffffffff000001004153d3
:100e94004349490000000000000000000000000079
:100ea40000000000000000000000000000004153aa
:100eb4004349490000000000000000000000000059
:100ec400000000000000000000000000000000001e
:100ed400dc034020280000000000000098054020aa
:100ee40004000000000000009c05402004000000f5
:100ef40000000000a00540200400000000000000e5
:100f040018f545200804000001000000000000005e
:100f14000000000018f5452018f5452020f545206f
:100f240020f5452028f5452028f5452030f54520b5
:100f340030f5452038f5452038f5452040f5452065
:100f440040f5452048f5452048f5452050f5452015
:100f540050f5452058f5452058f5452060f54520c5
:100f640060f5452068f5452068f5452070f5452075
:100f740070f5452078f5452078f5452080f5452025
:100f840080f5452088f5452088f5452090f54520d5
:100f940090f5452098f5452098f54520a0f5452085
:100fa400a0f54520a8f54520a8f54520b0f5452035
:100fb400b0f54520b8f54520b8f54520c0f54520e5
:100fc400c0f54520c8f54520c8f54520d0f5452095
:100fd400d0f54520d8f54520d8f54520e0f5452045
:100fe400e0f54520e8f54520e8f54520f0f54520f5
:100ff400f0f54520f8f54520f8f5452000f64520a4
:1010040000f6452008f6452008f6452010f6452050
:1010140010f6452018f6452018f6452020f6452000
:1010240020f6452028f6452028f6452030f64520b0
:1010340030f6452038f6452038f6452040f6452060
:1010440040f6452048f6452048f6452050f6452010
:1010540050f6452058f6452058f6452060f64520c0
:1010640060f6452068f6452068f6452070f6452070
:1010740070f6452078f6452078f6452080f6452020
:1010840080f6452088f6452088f6452090f64520d0
:1010940090f6452098f6452098f64520a0f6452080
:1010a400a0f64520a8f64520a8f64520b0f6452030
:1010b400b0f64520b8f64520b8f64520c0f64520e0
:1010c400c0f64520c8f64520c8f64520d0f6452090
:1010d400d0f64520d8f64520d8f64520e0f6452040
:1010e400e0f64520e8f64520e8f64520f0f64520f0
:1010f400f0f64520f8f64520f8f6452000f745209f
:1011040000f7452008f7452008f7452010f745204b
:1011140010f7452018f7452018f7452020f74520fb
:1011240020f7452028f7452028f7452030f74520ab
:1011340030f7452038f7452038f7452040f745205b
:1011440040f7452048f7452048f7452050f745200b
:1011540050f7452058f7452058f7452060f74520bb
:1011640060f7452068f7452068f7452070f745206b
:1011740070f7452078f7452078f7452080f745201b
:1011840080f7452088f7452088f7452090f74520cb
:1011940090f7452098f7452098f74520a0f745207b
:1011a400a0f74520a8f74520a8f74520b0f745202b
:1011b400b0f74520b8f74520b8f74520c0f74520db
:1011c400c0f74520c8f74520c8f74520d0f745208b
:1011d400d0f74520d8f74520d8f74520e0f745203b
:1011e400e0f74520e8f74520e8f74520f0f74520eb
:1011f400f0f74520f8f74520f8f7452000f845209a
:1012040000f8452008f8452008f8452010f8452046
:1012140010f8452018f8452018f8452020f84520f6
:1012240020f8452028f8452028f8452030f84520a6
:1012340030f8452038f8452038f8452040f8452056
:1012440040f8452048f8452048f8452050f8452006
:1012540050f8452058f8452058f8452060f84520b6
:1012640060f8452068f8452068f8452070f8452066
:1012740070f8452078f8452078f8452080f8452016
:1012840080f8452088f8452088f8452090f84520c6
:1012940090f8452098f8452098f84520a0f8452076
:1012a400a0f84520a8f84520a8f84520b0f8452026
:1012b400b0f84520b8f84520b8f84520c0f84520d6
:1012c400c0f84520c8f84520c8f84520d0f8452086
:1012d400d0f84520d8f84520d8f84520e0f8452036
:1012e400e0f84520e8f84520e8f84520f0f84520e6
:1012f400f0f84520f8f84520f8f8452000f9452095
:1013040000f9452008f9452008f9452010f9452041
:1013140010f94520a405402004000000010000004d
:10132400ffffffffa80540200400000001000000ab
:10133400000002002400402004000000000000001f
:10134400ac05402004000000000000000000000084
:1013540000000000222222222222222222222222f1
:020000040000fa
:020000040040ba
:10136400b0b5a4b002aff860b9603b601346fb802f
:10137400bb685b7b87f86f30bb689b68bb66bb68e8
:101384005b687b66fb6893f8373003f04003dbb29d
:10139400002b29d0fb68002283f87120fb6893f8a6
:1013a400363003f00203dbb2002b1dd111f0a6ff8f
:1013b400bb4a4ff000031af0f9fe03460c461c46e4
:1013c400fb68b3f868301d461cf004fa0246b54bbe
:1013d400a3fb02231b0c03fb05f3b34aa2fb032369
:1013e4009b09e218fb685a62fa6892f86d306ff351
:1013f400000382f86d30fb6893f86e30002b11d037
:10140400012b5bd000bffb88a7f87c30b7f87c3099
:10141400a7f87a3097f86f3003f00103002b00f03f
:10142400f380ece097f86f3003f00403002b05d051
:101434000021f8680df036fe00f02abf97f86f30ef
:1014440003f01003002b0dd0fb68ba6eda6400229f
:101454000421f86801f056ff0021f8680df022fe1f
:1014640000f016bf97f86f3003f00203002b1fd073
:101474007b6e5a1cfb681a65b8680ef0aefb034617
:101484001a46fb68a3f86220f86814f0fbfe0122f8
:101494001221f86801f036fffb683b65022387f8e8
:1014a4004f303b6d97f84f2083f86e2000f0f0be6c
:1014b4000021f8680df0f6fd00f0eabe97f86f30f1
:1014c40003f00403002b40f0d48697f86f3003f048
:1014d4001003002b14d0fb68da6cbb6e9a420fd059
:1014e400fb68db6c7b66fb68ba6eda64012204215c
:1014f400f86801f007fffb687a6eda6400f0c8be92
:1015040097f86f3003f00203002b00f0b4867b6e73
:101514005a1cfb681a65bb68da89fb68a3f8662065
:10152400fb68b3f86620fb68a3f85c20b8680ef08b
:1015340054fb03461a46fb68a3f86220f86814f0cb
:10154400a1fe97f86f3003f01003002b46d0012260
:101554001021f86801f0d6fefb68bb64032387f80a
:101564004730bb6c97f8472083f86e20d7f8983043
:101574001b8843f480739ab2d7f898301a80fb68ba
:1015840093f8373003f04003dbb2002b1dd011f089
:10159400b5fe434a4ff000031af008fe03460c461a
:1015a4001c46fb68b3f868301d461cf013f902466c
:1015b4003c4ba3fb02231b0c03fb05f33a4aa2fb9f
:1015c40003239b09e218fb685a62fa6892f83630e2
:1015d4006ff3410382f8363000f04dbe0122122130
:1015e400f86801f08ffefb683b64022387f83f3004
:1015f4003b6c97f83f2083f86e2000f03cbeb7f8b0
:101604007a300133a7f87a3097f86f3003f0020389
:10161400002b04d0b7f87a300133a7f87a30fb688e
:10162400da69fb681b6a9a4211d3fb689b691a4604
:10163400fb685b69d31a9ab2fb68db691946fb68dd
:101644001b6acb1a9bb2d31aa7f87e3009e0fb6859
:101654001b6a1a46fb68db69d31a9bb2013ba7f8e5
:101664007e30fb681b6d7a6ed31a3b663b6efb655e
:10167400002387f87930b7f87a30002b36d0b7f8e2
:101684007e30002b44d03b6e002b0fdbb7f87e205e
:101694003b6e9a420ad9012387f8793017e000bfdc
:1016a400f0490200851dd96fd34d6210b7f87a2036
:1016b4003b6e1344002b0addb7f87e20b7f87a306e
:1016c400d21a3b6e9a4202db012387f87930b7f8cd
:1016d4007e203b6e9a421bddb7f87a20fb6d1344e3
:1016e400002b15dd012387f8793011e03b6e002bc8
:1016f40003d1012387f879300ae03b6e002b07db26
:10170400b7f87e203b6e9a4202dd012387f87930d8
:1017140097f8793083f00103dbb2002b0dd097f8f2
:101724006f3003f00403002b40f0a7850122102141
:10173400f86801f0e7fd00f0a0bd97f86f3003f002
:101744000603002b14d097f86f3003f00403002b2a
:1017540008d0d7f898301b8843f400639ab2d7f8be
:1017640098301a800021f8680df09cfc00f090bdc0
:1017740097f86f3003f01003002b00f08085fb68ae
:1017840093f86e30023b072b00f2758201a252f8e7
:1017940023f000bfb91740000918400009184000a1
:1017a40009184000091840007b1c4000091840003b
:1017b400631c4000fb68da6cbb6e9a420fd0fb6876
:1017c400db6c7b66fb68ba6eda6401220421f8687c
:1017d40001f098fdfb687a6eda6400f059bdfb688d
:1017e400bb63032387f83730bb6b97f8372083f844
:1017f4006e20d7f898301b8843f480739ab2d7f8d8
:1018040098301a80fb689b681a46fb681b69d31ad8
:10181400c7f88030d7f88030002b0bdafb685b68a0
:101824001a46fb681b68d31a1a46d7f8803013444b
:10183400c7f88030fb68da6cd7f880301344c7f8f7
:101844008430ba6ed7f88430d31ac7f88430d7f806
:101854008430002b26ddfb6893f86c3003f004031e
:10186400dbb2002b0bd0fb6893f86d3003f002035e
:10187400dbb2002b03d1d7f88430012b06d0002231
:101884001021f86801f03efd00f002bdfb68db6c3e
:101894005a1cfb68da64fa6892f86d3043f002036c
:1018a40082f86d30fb68db6cfa6812691146fa68dd
:1018b400d2688a1a9b1ac7f88430fb681a69fb68d5
:1018c400db689a420bd2fb685b681a46fb681b68ac
:1018d400d31a1a46d7f884309b1ac7f88430ba6ee4
:1018e400d7f88430d31ac7f88430d7f88430002b63
:1018f40040f39b80fb685b681a46fb681b68d31a3d
:101904001a46d7f884309a42c0f08f80fa6892f869
:101914006c306ff3041382f86c30fa6892f86c3010
:101924006ff3451382f86c30fa6892f836306ff32f
:10193400451382f83630fb68db68bb65fb68da6800
:10194400d7f884301a44fb68da60fb681a69bb6d07
:101954009a4215d3fb681a69fb68db689a422cd259
:10196400fb68db6cfa68d2681146fa6812698a1a55
:101974001a44fb68da64fb68da68fb681a611ce0e5
:10198400fb681b69fa6852681146fa6812688a1a79
:101994001344bb65fb68da68bb6d9a420dd9fb68da
:1019a400db6cfa68d2681146ba6d8a1a1a44fb686d
:1019b400da64fb68da68fb681a61fb68da68fb685a
:1019c4005b689a420bd3fb68da68fb685b6819466c
:1019d400fb681b68cb1a5b421a44fb68da60fb683d
:1019e4001a69fb685b689a420bd3fb681a69fb6847
:1019f4005b681946fb681b68cb1a5b421a44fb6898
:101a04001a61fb6893f86e30032b04d0fb6893f8db
:101a14006e30082b55d1d7f898301b8843f0040357
:101a24009ab2d7f898301a804be0fb68da68fb6802
:101a34001b699a4246d0fb6893f86c3003f010039c
:101a4400dbb2002b35d0fb6893f86c3003f0200335
:101a5400dbb2002b26d0fb68db6cfa6812691146f6
:101a6400fa68d2688a1a9a1afb68da64fb681a69f7
:101a7400fb68db689a420ad2fb68db6cfa6852683e
:101a84001146fa6812688a1a9a1afb68da64fb68c3
:101a9400da68fb681a61fa6892f8363043f080031a
:101aa40082f83630fa6892f86c3043f0200382f8fa
:101ab4006c30fa6892f86c3043f0100382f86c30a2
:101ac40000e000bffb68da68fb689b689a4250d16b
:101ad400fb6893f8373003f00103dbb2002b2dd100
:101ae400fb6893f8373003f04003dbb2002b1dd0c2
:101af40011f004fca34a4ff000031af057fb03460d
:101b04000c461c46fb68b3f868301d461bf062fea9
:101b140002469d4ba3fb02231b0c03fb05f39b4acc
:101b2400a2fb03239b09e218fb685a62fa6892f845
:101b340036306ff3410382f836301ae0fb68da6c12
:101b4400bb6e9a4215d1fb6893f86c3003f0040322
:101b5400dbb2002b0dd0fa6892f836306ff34103f4
:101b640082f83630fa6892f837306ff3000382f85f
:101b74003730bb68da89fb68b3f866309a4204d917
:101b8400bb68da89fb68a3f86620bb68da89bb6e98
:101b940099b2fb68db6c9bb2cb1a9bb21344a7f8d7
:101ba4005630fb68b3f85c30002b0ad1b7f85630d6
:101bb400002b06d0fa6892f8363043f0400382f8de
:101bc4003630fb68b7f85620a3f85c20fb6893f81e
:101bd4006e30042b33d1fb68da6cbb6e9a424cd165
:101be400fb6893f86c3003f00403dbb2002b44d0a1
:101bf40011f084fb634a4ff000031af0d7fa03464e
:101c04000c461c461bf0e6fd02465f4ba3fb022379
:101c14001b0c41f2883202fb03f35c4aa2fb032350
:101c24009b09e218fb681a63fb683b63052387f88a
:101c34002f303b6b97f82f2083f86e201de0fb6854
:101c440093f86e30062b18d1fb68da6cbb6e9a429f
:101c540040f017830021f8680df024fa11e3fb68c3
:101c6400db6c5a1cbb6e9a4240f00d830021f8686d
:101c74000df018fa07e300bf00e000bf97f86f30db
:101c840003f02003002b40f00083fb6893f86e30d0
:101c9400082b00f0fc82fb6893f86e30062b00f0f2
:101ca400f682fb6893f86e30092b00f0f082b7f8e7
:101cb4007c30002b00f0f081fb6d002b00f3ef80f3
:101cc400bb681b7bc3f30313dbb29a00fb6dd31a0f
:101cd4001a46bb6813443b61fb6d9ab2b7f87c307b
:101ce4001344a7f87c30b7f87c20b7f87e309a42ca
:101cf40003d9b7f87e30a7f87c30fb68da69b7f807
:101d04007c301a44fb689b699a4241d9fb689b6901
:101d14001a46fb68db69d31a0133c7f88030fb68c5
:101d2400d969d7f8803098b207f1100201230093e3
:101d34000346386810f0c0fa0346a7f87630fb680b
:101d44005969d7f880309bb2b7f87c20d31a98b27f
:101d540007f11002012300930346386810f0acfa2f
:101d640003461a46b7f876301344a7f87630fb6872
:101d74005a69b7f87c10d7f88030cb1a13443b6704
:101d84001be000bff0490200851dd96fd34d6210de
:101d9400fb68d969b7f87c0007f1100201230093ae
:101da4000346386810f088fa0346a7f87630fb68d3
:101db400da69b7f87c3013443b67b7f87620b7f894
:101dc4007c309a4240f06881fb681a6db7f87c3029
:101dd4001a44fb681a65fb683a6fda61fb6893f88a
:101de4006e30032b09d0fb6893f86e30042b04d0bb
:101df400fb6893f86e30052b08d1d7f898301b8810
:101e040043f400739ab2d7f898301a80fb685b6d7c
:101e1400b3f1ff3f00f04081fb685a6db7f87c30a6
:101e2400d21afb685a65fb68b3f860301a46fb683f
:101e34005b6d1344c7f88030d7f88030002b04da88
:101e4400fb684ff0ff325a6526e1fb685b6d002b9f
:101e540000f32281fb681a6dd7f880301a44fb68be
:101e64001a65fb68da69d7f880301a44fb68da61ce
:101e7400fb68da69fb689b699a420bd9fb68da69eb
:101e8400fb689b691946fb685b69cb1adb431a4400
:101e9400fb68da61fb684ff0ff325a65fce0fb6dca
:101ea400002b40f3f980b7f87c20fb6d1a44b7f897
:101eb4007e309a4206ddfb6d9bb2b7f87e20d31ac2
:101ec400a7f87c30bb681b7bc3f30313dbb29b0016
:101ed4001a46bb6813443b61fb68da69b7f87c10a7
:101ee400fb6d0b441a44fb689b699a4253d9fb6807
:101ef4009b691a46fb68db69d31a5a1cfb6dd31a1b
:101f0400c7f88030d7f88030002b2adbfb68da6909
:101f1400fb6dd118d7f8803098b207f11002012375
:101f240000930346386810f0c7f90346a7f87630e3
:101f3400fb685969d7f880309bb2b7f87c20d31a74
:101f440098b207f11002012300930346386810f099
:101f5400b3f903461a46b7f876301344a7f8763037
:101f64002ae0fb68da69fb6df96889690846f96853
:101f74004969411a5b1a013bd118b7f87c0007f193
:101f84001002012300930346386810f095f90346c4
:101f9400a7f8763010e0fb68da69fb6dd118b7f862
:101fa4007c0007f11002012300930346386810f007
:101fb40083f90346a7f87630b7f87620b7f87c3073
:101fc4009a4269d1fb685b6db3f1ff3f08d1fb68ae
:101fd400fa6d5a65fb68b7f87c20a3f860205be0d3
:101fe400fb685b6d1a46fb6d9a422fd9b7f87c20cb
:101ff400fb6d13441a46fb685b6d1946fb68b3f826
:1020040060300b449a4208d8b7f87c20fb6d134427
:102014001a46fb685b6d9a4205d2fb68b7f87c20d0
:10202400a3f860200ee0fb685b6d9ab2fb68b3f81e
:10203400603013449ab2fb6d9bb2d31a9ab2fb6818
:10204400a3f86020fb68fa6d5a6525e0b7f87c2098
:10205400fb6d13441a46fb685b6d1946fb68b3f8c5
:1020640060300b449a4217d9fb685b6d1a46fb68d3
:10207400b3f860301a44fb6d9a420dd3fb6d9ab2eb
:10208400b7f87c3013449ab2fb685b6d9bb2d31ae9
:102094009ab2fb68a3f86020b7f87a30002b51d0cd
:1020a400fb6893f86e30032b0dd0fb6893f86e3009
:1020b400042b08d0fb6893f86e30052b03d0fb6823
:1020c400da69fb681a62fb6893f8363003f0100390
:1020d400dbb2002b05d001221021f86801f012f9bf
:1020e40030e0fa6892f8363043f0100382f8363064
:1020f400fb6893f8363003f00803dbb2002b21d1e0
:10210400fa6892f8363043f0080382f8363011f05a
:10211400f5f8614a4ff000031af048f803460c46fc
:102124001c461bf057fb02465c4ba3fb02231b0c13
:10213400642202fb03f35a4aa2fb03239b09e2181d
:10214400fb68da6297f86f3003f00103002b00f0ac
:102154009f80fb681b6d5a1cb7f87a107b6e0b448a
:102164009a4240f09580fb681b6d5a1cfb681a6507
:10217400d7f898301b8843f480639ab2d7f8983024
:102184001a80fb6893f86e30023b032b68d801a2d7
:1021940052f823f0a9214000c92140002122400027
:1021a40051224000fb68bb62092387f82730bb6ad1
:1021b40097f8272083f86e2001221121f86801f096
:1021c400a1f865e0fb683b620823fb773b6afa7f72
:1021d40083f86e2011f092f82f4a4ff0000319f0a3
:1021e400e5ff03460c461c461bf0f4fa02462b4b53
:1021f400a3fb02231b0cc82202fb03f3284aa2fb05
:1022040003239b09e218fb681a63fb6893f86d309b
:1022140003f00103dbb2002b24d039e0fb68da6c55
:10222400bb6e9a4209d100221021f86801f06af8c5
:102234000021f8680cf036ff2ae0fb68bb61062336
:10224400fb75bb69fa7d83f86e200ce00022102137
:10225400f86801f057f80021f8680cf023ff17e044
:1022640000bf00e000bf01221021f86801f04af825
:102274000ee000bf0ce000bf0ae000bf08e000bfb2
:1022840006e000bf04e000bf02e000bf00e000bfc2
:102294008837bd46b0bd00bff0490200851dd96f27
:0422a400d34d6210a4
:020000040000fa
:020000040040ba
:1022a8002de9f04fabb01d468b469146069304903e
:1022b80018b1836b002b00f0f883bbf90c0081b2d6
:1022c8008c040ad4dbf8643040f4005123f4005342
:1022d800abf80c10cbf8643089b2080740f167837b
:1022e800dbf81030002b00f0628301f01a010a2994
:1022f80000f06b83002309930f930e9303931aab9b
:102308000d9399f800304d46002b00f09180252b55
:1023180002d18de0252b03d015f8013f002bf9d110
:10232800a5eb0906002e00f083800e9b0f9acdf8ce
:10233800689001333244072b1b960f920e9300f3db
:1023480060831cac039b334403932b78002b00f071
:10235800d98200224ff000038df82f3005f10109d2
:102368006b781146164692464ff0ff3509f1010980
:10237800a3f12000582800f21582dfe810f077005a
:102388001302130272001302130213021302130240
:1023980013026700620013025d00eb011302e601fd
:1023a80005020502050205020502050205020502ed
:1023b800050213021302130213021302130213027b
:1023c800130213021302130213021302130213025d
:1023d800130213021302130213021302130213024d
:1023e8001302130213021302130213021302b80199
:1023f800130213021302130213021302130213022d
:10240800130213025f0110011302130213020b01de
:10241800100113021302fe0013021302e900b900af
:10242800b4001302940013027f0013021302b801d0
:102438001aac8ae7764206934af0040a99f8003003
:1024480094e799f8003001222b218fe70698066857
:102458000346002e03f10403ecdb069399f80030e1
:1024680084e74af0010a99f800307fe799f80030cc
:1024780000297ff47baf0122202177e71af0200f93
:10248800059640f09683069a1af0100f134640f00e
:1024980049831af0400f00f045831688043200275c
:1024a8000123069235e04ff000038df82f30069b8c
:1024b8000596691c03f10406d3f8008000f099839f
:1024c8002a460021404611f03ffc002800f0aa836c
:1024d800a0eb080302939df82f300696cdf800a0d4
:1024e80001930025a0e04af0200a99f800303de762
:1024f8000699b34b059609930e6878233022043168
:102508008df831304af0020a069100278df8302004
:1025180002234ff000028df82f20002201926a1c3e
:1025280061d02af08002009256ea070261d1002d9c
:1025380040f05b82002b40f0c7821af0010302933f
:1025480000f029830df1a808302308f8413d6be01d
:102558001af02003059640f041831af0100240f06b
:10256800da821af0400300f0d682069913460a462a
:1025780004320e8806920027cbe799f800306c2bbe
:1025880003bf99f801304af0200a09f101094af01d
:10259800100aebe64af0400a99f80030e6e605969c
:1025a800002a40f056831af0200f40f0f7821af004
:1025b800100f40f09b821af0400f00f097820699a6
:1025c800b1f900600431f71732463b460691002afc
:1025d80073f10003c0f219839df82f3001936a1c30
:1025e8004ff001039dd156ea070200f00082cdf8b2
:1025f80000a0012b00f09c82022b40f03382099846
:102608000df16808330906f00f0143ea07733a0928
:102618001e461746435c08f8013d56ea0703f1d108
:102628001aaba3eb08030293029bab42b8bf2b463d
:102638009a46019bb3b10af1010a13e0069a05967e
:1026480013688df8403013464ff0000104338df8bd
:102658002f1006930123cdf800a002939a46002577
:102668000df14008009b13f002030793009b18bf6d
:102678000af1020a13f08403089340f0a580059b31
:10268800a3eb0a06002e40f39f80102e0f990e9a96
:102698004c4f21dd20461023049c04e0103e102ef0
:1026a80000f1080017dd01321031072a0f910e9250
:1026b80007604360f2dd0daa5946204601931bf0de
:1026c800d5f9002840f02581103e102e0f990e9a5a
:1026d800019b1aa8e7dc0446531c3144072b0f91d1
:1026e8000e932760666000f3e38108346ee0059678
:1026f800002a40f0ab82324aa2f11401582b08bfdd
:102708000a461af0200f099240f05e8206991af0e4
:10271800100f0a4640f0f3811af0400f00f0ef81e5
:1027280004320e88069200271af0010f00f0f1819a
:1027380056ea070200f0ed8130228df831304af078
:10274800020a8df830200223e3e64af0800a99f85d
:1027580000300be699f800302a2b09f1010700f048
:102768006a82a3f130000928b9464ff000053ff608
:10277800ffad19f8013b05eb850500eb4505a3f115
:1027880030000928f5d9f3e5a3f13000002619f83f
:10279800013b06eb860600eb4606a3f1300009284c
:1027a800f5d9e5e50596002a40f05682002b00f0a1
:1027b800a9808df840304ff000038df82f3049e79d
:1027c80020c9410018db41000f990e9b9df82f206e
:1027d80062b1013301310df12f000122072b0f9156
:1027e8000e9384e8050000f321810834079a5ab152
:1027f800013302310ca80222072b0f910e9384e8b3
:10280800050000f31f810834089a802a00f08a80a6
:10281800029aad1a002d2bdd102dad4e1edd22467d
:102828001027049c04e0103d102d02f1080214dd6d
:1028380001331031072b0f910e9382e8c000f2ddaf
:102848000daa594620461bf011f9002861d1103d08
:10285800102d0f990e9b1aaaeadc1446013329445d
:10286800072b0f910e932660656000f3d380083420
:102878000298c4f8008001330144072b0f910e938e
:10288800606000f382800834009b5a072ed5059bb0
:10289800a3eb0a05002d29dd102d0e9b8d4f1cdda5
:1028a8001026ddf8108004e0103d102d04f1080416
:1028b80013dd01331031072b0f910e9327606660eb
:1028c800f2dd0daa594640461bf0d0f808bb103d72
:1028d800102d0f990e9b1aacebdc01332944072b02
:1028e8000f910e932760656000f3f680039b059aad
:1028f8005245acbf9b185344039300294fd1002382
:102908000e93fee40f9b23b104980daa59461bf0c1
:10291800adf8bbf80c305b0600f1808103982bb052
:10292800bde8f08f059aa2eb0a07002f7ff770af7a
:10293800102f674e1edd2246049c04e0103f102f26
:1029480002f1080215dd013310311020072b0f9119
:102958000e9316605060f1dd0daa594620461bf013
:1029680085f80028d5d1103f102f0f990e9b1aaa71
:10297800e9dc144601333944072b0f910e9384e8a0
:10298800c00000f3fc80083442e70daa59460498b9
:102998001bf06cf80028bcd10f991aac74e70daa8b
:1029a800594604981bf062f80028a8d0b1e75946a8
:1029b80004980ff00df9002840f03081bbf80c1096
:1029c80001f01a010a297ff495acbbf90e30002bef
:1029d800fff690ac2b464a465946049814f0ecfe94
:1029e800039003982bb0bde8f08fddf800a0012b11
:1029f80000f0bb80022b31d1cdf800a000260027c3
:102a0800fde50daa594604981bf030f8002880d13e
:102a18001aac97e40daa594604981bf027f8002829
:102a28007ff477af0f990e9b1aac21e70daa594690
:102a380004981bf01bf800287ff46baf0f990e9bce
:102a48001aacd3e60daa594604981bf00ff80028d3
:102a58007ff45faf0f990e9b1aacd5e6cdf800a0b6
:102a6800002600271aa900e04146f20842ea477208
:102a7800f80806f0070307461646303356ea0702f9
:102a880001f8013c01f1ff38eed1009ad0077ff53b
:102a9800c7ad302b3ff4c4ad3023023908f8013cf0
:102aa8001aab5b1a02938846bee51bf079f804e47a
:102ab8000daa594604981af0d9ff00287ff429afc7
:102ac8000f990e9b1aac81e602950df16808abe5eb
:102ad80028db410018db41000daa594604981af07a
:102ae800c5ff00287ff415af0f99ffe6069a166810
:102af80013460433f717069332463b4667e51668d4
:102b08001af0010f02f1040206924ff000077ff459
:102b18000fae0223fde406990a4604320e680692b7
:102b28000027f6e404321e68069201230027f0e429
:102b3800002f08bf0a2e16d30df168083046394613
:102b48000a22002319f030fb303208f8012d3046f4
:102b5800394600230a2219f027fb06460f4656ea93
:102b68000703ebd15ce5ddf800a0cdf800a00df17e
:102b7800a8083036012308f8416d029354e50daae0
:102b8800594604981af072ff00287ff4c2ae0f99d4
:102b98000e9b1aac3ce60df1680845e5069907312d
:102ba80021f00701d1e900230831069116461f4696
:102bb8000de5069b073323f0070303f10802d3e969
:102bc800006706920123a4e4069a073222f007025e
:102bd80002f108010691d2e90067a5e5069b0733d3
:102be80023f0070303f10802d3e9006706920023e4
:102bf8008fe440460696cdf800a00ef09df89df8ab
:102c08002f300290019300250ee52d2376428df892
:102c18002f30019367eb4707012380e44ff0ff3320
:102c280003937be69df82f30029501930696cdf825
:102c380000a00546f8e4069899f8013005680430c4
:102c480045eae575b9460690fff790bb8df82f1059
:102c580051e58df82f10a6e48df82f10a6e500bfda
:020000040000fa
:020000040040ba
:102c680090b58fb000aff860b9607a603b6097f8b4
:102c78004830fa685c2101fb03f31344ac331b684a
:102c8800fb6197f84830fa685c2101fb03f31344b1
:102c9800d8331b88fb8600237b8600233b860023d2
:102ca80087f82f300023bb620023fb840023bb84fa
:102cb80097f84820f96813469b0013445b000b44bf
:102cc80003f2b2231b887b83012387f83530b14b8d
:102cd8001b6a03f00103002b00f08380ad4aad4b63
:102ce8001b6823f004031360fb8e7b8464e0fb8e77
:102cf800db00fa6913445b6803f48043b3f5804f43
:102d08005fd0fb8edb00fa6913441b6823f00303d2
:102d1800002b45d0fb68996a97f84820fc8ef86824
:102d280013465b001344db009b1a234420339b00ab
:102d380003445b681846884797f84820f88ef96876
:102d480013465b001344db009b1a034420339b00ab
:102d58000b4400225a6097f84830fa685c2101fb5e
:102d680003f31344ac331a68fb8edb00134497f863
:102d78004820f9685c2000fb02f20a44ac32116872
:102d8800fa8ed2000a44126802f003021a60bff3f6
:102d98005f8ffa8e97f848100123f86808f084f8d6
:102da800fb8e0133fb86fa8e7b8b9a4201d300237c
:102db800fb86fb8c0133fb84fa8c7b8b9a4296d37f
:102dc80000e000bf0023fb847b8cfb86714b012253
:102dd8001a62704a6f4b1b6843f004031360bff319
:102de8005f8fbb68002b40f05d8197f9353080e23a
:102df800fb8edb00fa6913441b6803f00103012b07
:102e080040f0ca80fb8edb00fa6913441b6823f08c
:102e18000303002b00f0c08097f82f30002b24d13b
:102e2800fb8edb00fa6913445b6803f48043b3f557
:102e3800804f40f02781012387f82f30fb8e7b8657
:102e48000123bb840123fb84fb8edb00fa69134456
:102e58005b6803f40043b3f5004f40f0138102238d
:102e680087f82f30fb8e3b8623e197f82f30012b14
:102e780040f00881fb8edb00fa6913445b6803f4b9
:102e88008043b3f5804f71d17a8ebb8c1344013bdc
:102e98007a8b1146184618f08efa03467b84bb8c51
:102ea8003b84002387f82f3046e0fb68996a97f83f
:102eb80048207c8cf86813465b001344db009b1a9f
:102ec800234420339b0003445b681846884797f8df
:102ed8004820788cf96813465b001344db009b1a82
:102ee800034420339b000b4400225a6097f8483073
:102ef800fa685c2101fb03f31344ac331a687b8c3a
:102f0800db00134497f84820f9685c2000fb02f2c4
:102f18000a44ac3211687a8cd2000a44126802f072
:102f280003021a607b8c002b03d17b8b013b7b84d3
:102f380002e07b8c013b7b843b8c5a1e3a84002b3d
:102f4800b3d1bb8c7a8e97f84810f86807f0acffbd
:102f5800fb8c013bfb84fb8e002b03d17b8b013b5d
:102f6800fb868fe0fb8e013bfb868be0bb8c01333d
:102f7800bb84fb8edb00fa6913445b6803f40043ef
:102f8800b3f5004f7ed1022387f82f30fb8e3b86a6
:102f98008fe000bf0000054097f82f30012b72d159
:102fa8007a8ebb8c1344013b7a8b1146184618f075
:102fb80002fa03467b84bb8c3b84002387f82f30be
:102fc80046e0fb68996a97f848207c8cf8681346b5
:102fd8005b001344db009b1a234420339b0003440b
:102fe8005b681846884797f84820788cf968134634
:102ff8005b001344db009b1a034420339b000b4403
:1030080000225a6097f84830fa685c2101fb03f304
:103018001344ac331a687b8cdb00134497f84820c0
:10302800f9685c2000fb02f20a44ac3211687a8c21
:10303800d2000a44126802f003021a607b8c002b4b
:1030480003d17b8b013b7b8402e07b8c013b7b843f
:103058003b8c5a1e3a84002bb3d1bb8c7a8e97f8de
:103068004810f86807f020fffb8c013bfb84fb8ebf
:10307800002b03d17b8b013bfb8604e0fb8e013bdd
:10308800fb8600e000bffb8e0133fb86fa8e7b8b4c
:103098009a4201d30023fb86fb8c5a1cfa847a8b54
:1030a8009a4205d3fa8c7b8b9a42fff4a1ae00e0da
:1030b80000bf97f82f30022b40f0198197f848206d
:1030c800788ef96813465b001344db009b1a0344af
:1030d80020339b000b445a68bb681a60bb681b68a6
:1030e8007b61fb8e0133fb8697f84820f96813460d
:1030f8009b0013445b000b4403f2b2231b88fa8e37
:103108009a4201d30023fb8697f84830fa685c217d
:1031180001fb03f31344d833fa8e1a80ba8c7b6808
:103128001a60bb8c3b847b8e7b843b8edb00fa6908
:1031380013445b68c3f30d03bb62bb681b681b6960
:103148003b61b1e0bb681b68196997f84820f868cb
:1031580013469b0013445b00034403f52e731b883e
:103168001a46bb6a934228bf13469bb20b81bb68c1
:103178001b68196997f84820f86813469b001344a0
:103188005b00034403f52e731b884b8197f8482096
:10319800f96813469b0013445b000b4403f52e7338
:1031a8001b881a46bb6a9a420fd897f84820f968d4
:1031b80013469b0013445b000b4403f52e731b88d6
:1031c8001a46bb6a9b1abb6201e00023bb6297f8f0
:1031d8004820788cf96813465b001344db009b1a7f
:1031e800034420339b000b4400225a6097f8483070
:1031f800fa685c2101fb03f31344ac331a687b8c37
:10320800db00134497f84820f9685c2000fb02f2c1
:103218000a44ac3211687a8cd2000a44126802f06f
:1032280003021a60354b5b6903f48033b3f5803fc2
:103238000ad17b691b695a68bb681b681b691b89b3
:103248001946104615f0a2febb6a002b2cd07b8cc9
:1032580001337b8497f84820f96813469b00134490
:103268005b000b4403f2b2231b887a8c9a4201d389
:1032780000237b84bb681b68196997f848207c8cfd
:10328800f86813465b001344db009b1a2344203381
:103298009b0003445b681b690b60bb681b68ba68ca
:1032a8001268126912681a613b8c5a1e3a84002b04
:1032b8007ff448af97f84830fa685c2101fb03f3c4
:1032c8001344ac331a687b8cdb0013445a683b68a0
:1032d8001a60bb681b683a691a61bb8c7a8e97f8ca
:1032e8004810f86807f0e0fd002387f8353097f9b3
:1032f800353018463c37bd4690bd00bf00ed00e0b4
:020000040000fa
:020000040040ba
:1033080090b58fb002af78600b46fb701346bb7068
:1033180000237b840023fb617b6893f86f30012bcb
:1033280009d10121786813f071fe786100bf7b69cb
:10333800002b06d102e06ff0010306e36ff00203f1
:1033480003e3fb7803f00103002b0ad07a6892f8b4
:10335800373043f0010382f83730fb7823f001035c
:10336800fb707a6892f836306ff3820382f8363051
:103378007a6892f836306ff3c30382f836307a6889
:1033880092f836306ff3041382f836307a6892f880
:1033980036306ff3861382f836307a6892f8363012
:1033a8006ff3c71382f836307a6892f836306ff3c5
:1033b800451382f836307b6893f86f30012b02d1c1
:1033c8007b69db69fb61fa69137b6ff3071313737e
:1033d800fb7803f00603002b52d00023fb62fb7836
:1033e80003f00203002b00f02e8102233b7204231a
:1033f8007b727b6893f86f30012b18d17b681b6c4c
:10340800002b0bd1786813f03ffa034683f00103d1
:10341800dbb2002b02d0fc23fb7665e27b681b6cd9
:10342800184614f085f803469bb2143b7b847b8cca
:103438001b021ab27b8c1b0a9bb21bb213431bb232
:103448009bb27b817b687a8ca3f86420fb691b7b29
:10345800c3f30313dbb20133dbb203f00f03d9b2ba
:10346800fa69137b61f3071313737b6893f86f3062
:10347800012b40f0e880fb691433ba681a60e2e077
:103488007b68b3f86230bb847b689a687b681b6989
:103498009a4202d10023fb62bee00023bb767b6820
:1034a80093f86f30012b03d11af012fb0346bb7659
:1034b800bb7e83f00103dbb2002b09d07b68b3f835
:1034c8006430ba8c9a4203d97b68b3f86430bb8401
:1034d8007b689a687b681b699a4232d97b689b68cb
:1034e8001a467b681b69d31afb627b68b3f85c30a9
:1034f8001a46fb6a9a4203d27b68b3f85c30fb62d7
:10350800ba8cfb6a9a4208d2bb8cfb627a6892f842
:10351800363043f0800382f836307b681a69fb6adc
:1035280099b200230193002300930b4679697868c8
:1035380018f0d8fb7b681a69fb6a1a447b681a6121
:103548006ae07b685b681a467b681b69d31abb62b2
:103558007b689a68bb6a13441a467b681b68d31a4f
:10356800fb627b68b3f85c301a46fb6a9a4203d266
:103578007b68b3f85c30fb62ba8cfb6a9a4208d26b
:10358800bb8cfb627a6892f8363043f0800382f88d
:103598003630ba6afb6a9a4201d9fb6abb62fa6a98
:1035a800bb6ad31a3b613b69002b10d07b68196951
:1035b800bb6a98b27b681b683a6992b20192009321
:1035c80003460a467969786818f08cfb0ce07b683a
:1035d8001a69bb6a99b200230193002300930b4632
:1035e8007969786818f07efb7b681a69fb6a1a4467
:1035f8007b681a617b681a697b685b689a420bd39f
:103608007b681a697b685b6819467b681b68cb1afc
:103618005b421a447b681a617b6893f8373003f081
:103628000103dbb2002b0ed07b68b3f85c301a467e
:10363800fb6a9a4207d0ba8cfb6a9a4203d0fb789d
:1036480043f00103fb70fb6afb81fb6a002b04d18a
:10365800fb7803f00303002b41d07b68b3f85c20b0
:10366800fb6a9bb2d31a9ab27b68a3f85c20fb6a08
:10367800002b03d0fb7843f00803fb70bb7803f002
:103688000103002b14d07b68002283f870201af005
:103698009ff802468f4ba3fb02231b0c4ff47a7250
:1036a80002fb03f38c4aa2fb03239a097b689a6402
:1036b8000ff022fe894a4ff0000318f075fd03460b
:1036c8000c461a467b689b6c1a447b685a627a6877
:1036d80092f8363043f0020382f8363042e0bb7885
:1036e80003f00203002b0fd07b6893f8713001338d
:1036f800dab27b6883f871207b68db6c5a1e7b68c2
:10370800da640123fb622de07b6893f8363003f01e
:103718000203dbb2002b25d0bb7803f00103002b9a
:1037280011d17b6893f87030002b0cd07b6893f82c
:103738007030013bdab27b6883f870207b689b6c41
:103748005a087b689a640ff0d7fd644a4ff000036b
:1037580018f02afd03460c461a467b689b6c1a44ef
:103768007b685a627b68b3f85a20fb691a807b68c9
:10377800b3f85820fb695a807b68da6cfb695a6099
:103788007b681a6dfb699a60fa69537b6ff387133c
:103798005373fa69137b6ff303031373fb69fa78a6
:1037a8005a73fb6900225a82fb6900221a827b68dd
:1037b800da6cfb6a1a447b68da64fb7803f002036c
:1037c800002b24d00423fb84fb7803f01003002b88
:1037d80002d1fb6900229a607b6893f86c3003f091
:1037e8000803dbb2002b05d0fb695b685a1efb6936
:1037f8005a600ee07b68db6c5a1c7b68da647a6876
:1038080092f86c3043f0080382f86c3001e0002332
:10381800fb84fb7803f00103002b06d07a6892f84a
:103828006c3043f0040382f86c30fb7803f010032b
:10383800002b06d07a6892f86d3043f0010382f8c5
:103848006d307b68da697b681b6a9a4212d37b68a1
:103858009b691a467b685b69d31a9ab27b68db69f5
:1038680019467b681b6acb1a9bb2d31a9ab2fb69ba
:10387800da810ae07b681b6a1a467b68db69d31a1f
:103888009bb2013b9ab2fb69da81fb69da897b68f2
:10389800a3f85e20f8690cf021f9fb8c1433fb8443
:1038a800fb691b7bc3f30313dbb20533dbb203f005
:1038b8000f03d9b2fa69137b61f307131373fb89fa
:1038c800fa8c7969786817f0eafd0346002b07d06f
:1038d800002307e0851dd96fd34d6210f04902001f
:1038e8004ff0ff33fb7600bf97f91b30002b0bd04e
:1038f8007b6893f86f30012b06d17b695b8c23f0d2
:1039080008039ab27b695a8497f91b30002b1ad1a5
:10391800fb7803f00403002b15d07b685b6f002b4a
:1039280011d07b68b3f8723003f00803002b0ad07b
:103938007b685c6f7b68b3f934007b68196c7b68c3
:103948009b6f0822a04797f91b3018463437bd46ad
:0439580090bd00bf5f
:020000040000fa
:020000040040ba
:10395c00f0b5a5b000af0346fb71fb79002b13d07b
:10396c000ff0c8fc05460e4619f030ff03464ff029
:10397c0000041a4623462846314618f013fc034629
:10398c000c461a46c14b1a6019f0a4ffc7f8840004
:10399c000023c7f88c30ede2d7f88c0017f040ff0d
:1039ac00c7f88000d7f880307b677b6f002b09d07d
:1039bc007b6f93f8423003f04003dbb2002b01d055
:1039cc00012300e0002383f00103dbb2002b40f065
:1039dc00ac82af4b1c68d7f8800019f01af803467c
:1039ec001a46582303fb02f32344fb67fb6f93f83f
:1039fc00543003f00103dbb2002b00f09882f96f16
:103a0c00d7f8800013f0e8f9fb6fb3f84e300c2bad
:103a1c0000f2ab8201a252f823f000bf773f4000c6
:103a2c005d3a4000cf3a4000453b4000c33b40006c
:103a3c001d3c4000693c4000293d4000453d400094
:103a4c006f3d4000f53d4000593e4000d93e4000de
:103a5c00d7f8800015f088fd034683f00103dbb234
:103a6c00002b40f06682fb6fb3f84c30022b0bd16d
:103a7c00fb6f3b67042387f86f3097f86f309ab26f
:103a8c003b6fa3f84e2070e2fb6fb3f84c30032b66
:103a9c000bd1fb6fbb66092387f8673097f867304b
:103aac009ab2bb6ea3f84e205fe2fb6f3b6602231b
:103abc0087f85f3097f85f309ab23b6ea3f84e20d0
:103acc0053e20021f86f0cf017fefb6f002283f815
:103adc005520fa6f92f854306ff3410382f854304a
:103aec00fa6f92f854306ff3820382f85430fb6f04
:103afc0000229a6203230122d7f88010f86f03f09a
:103b0c00e7fd034683f00103dbb2002b40f0138288
:103b1c000121d7f8800014f03bfbf86f13f09afcee
:103b2c00fb6fbb65032387f8573097f857309ab271
:103b3c00bb6da3f84e2018e2d7f88010f86f0af08e
:103b4c0079ffb867bb6f0a2b1cd10ff0d3fb514a1e
:103b5c004ff0000318f026fb03460c461a46fb6f89
:103b6c005b68d21afb6f1b689a42c0f0e681012297
:103b7c000221f86f0ff060fd0721d7f8800014f0d8
:103b8c0007fbdae1bb6f002b06d0fa6f92f85430ca
:103b9c0043f0080382f85430bb6f022b40f0cf8106
:103bac00fb6f3b65042387f84f3097f84f309ab280
:103bbc003b6da3f84e20fb6fb3f84c30022b01d1b8
:103bcc00012300e003230322d7f88010f86f03f0e1
:103bdc007ffd034683f00103dbb2002b40f0b18183
:103bec002a4b1a68fb6f9a600221d7f8800014f0f8
:103bfc00cffaf86f13f02efcfb6fbb64052387f82c
:103c0c00473097f847309ab2bb6ca3f84e20ace122
:103c1c00d7f88010f86f0af00dff03460a2b40f01e
:103c2c0092810ff067fb1b4a4ff0000318f0bafab1
:103c3c0003460c461a46fb6f5b68d21afb6f1b6877
:103c4c009a42c0f0808101220221f86f0ff0f4fc3f
:103c5c000721d7f8800014f09bfa74e1002387f851
:103c6c008b30002387f88a30fb6fdb6abb6007f16f
:103c7c00080300221946d7f880000cf0e3fb03463a
:103c8c00002b09d0012387f88b3017e00c0540205e
:103c9c00f4044020f0490200ae4b1a68fb6f5b68dd
:103cac00d31afa6fb2f84a20934207d3d7f8801090
:103cbc00f86f0bf08ffd012387f88a3097f88b3063
:103ccc00002b03d197f88a30002b06d007f108039c
:103cdc001946d7f880000df083fd97f88b30002b38
:103cec0000f0338103230422d7f88010f86f03f01f
:103cfc00effcfb6f3b64072387f83f3097f83f30ae
:103d0c009ab23b6ca3f84e20924b1a68fb6f5a6028
:103d1c000521d7f8800014f03bfa16e18d4b1a6898
:103d2c00fb6f5b68d31a092b40f211810022022130
:103d3c00f86f0ff081fc0ae1864b1a68fb6f9b68e9
:103d4c00d21afb6f1b699a42c0f00681fb6fbb63f2
:103d5c00092387f8373097f837309ab2bb6ba3f842
:103d6c004e2000230922d7f88010f86f03f0b0fc26
:103d7c00034683f00103dbb2002b40f0ef80754b60
:103d8c001a68fb6fda600921d7f8800014f000fa8a
:103d9c00fa6f92f854306ff3820382f85430fb6f51
:103dac005a69fb6f1b69d21afb6f9968fb6fdb6852
:103dbc00cb1a13445a08fb6fda61fb6fdb693b2ba0
:103dcc0002d8fb6f3c22da61624b1a68fb6f5a60b7
:103ddc00fb6f3b630a2387f82f3097f82f309ab28a
:103dec003b6ba3f84e20c0e0d7f88010f86f0af0b8
:103dfc0021fe03460a2b40f0b380564b1a68fb6f2a
:103e0c009b68d21afb6f5b699a420bd3fb6fbb6248
:103e1c000b2387f8273097f827309ab2bb6aa3f8a0
:103e2c004e209de04b4b1a68fb6f5b68d21afb6f00
:103e3c00db699a42c0f09480fb6f3b620923fb77ed
:103e4c00fb7f9ab23b6aa3f84e2089e0012309223a
:103e5c00d7f88010f86f03f03bfc034683f00103a6
:103e6c00dbb2002b7ed13b4b1a68fb6fda600a2168
:103e7c00d7f8800014f08cf9fa6f92f854306ff385
:103e8c00820382f85430fb6f9a69fb6f5b69d21a1c
:103e9c00fb6f9968fb6fdb68cb1a13445a08fb6ff6
:103eac00da61fb6fdb693b2b02d8fb6f3c22da61da
:103ebc00284b1a68fb6f5a60fb6fbb610c23fb75b8
:103ecc00fb7d9ab2bb69a3f84e204ee0d7f8801068
:103edc00f86f0af0affd03460a2b45d11d4b1a684b
:103eec00fb6f9b68d21afb6f9b699a420ad3002224
:103efc000221f86f0ff0a0fb0721d7f8800014f017
:103f0c0047f931e0134b1a68fb6f5b68d21afb6ff1
:103f1c00db699a4228d3fb6f3b610b23fb73fb7b62
:103f2c009ab23b69a3f84e201ee000bf1de000bf13
:103f3c001be000bf19e000bf17e000bf15e000bf99
:103f4c0013e000bf11e000bf0fe000bf0de000bfa9
:103f5c000be000bf0c05402000bf06e000bf04e0f2
:103f6c0000bf02e000bf00e000bfd7f88c30013387
:103f7c00c7f88c30d7f88c20d7f884309a42fff6eb
:103f8c000bad054bb3f90030184617f031f800bff4
:0c3f9c009437bd46f0bd00bfb0054020ca
:020000040000fa
:020000040040ba
:103fa8002de9f04f01f10b06162e83b0054640f2bd
:103fb8009e8036f0070600f1bd80b14200f2ba805b
:103fc80019f030feb6f5fc7fc0f08b82730a00f062
:103fd800b880042b00f26e81b30903f1390003f1b4
:103fe800380ec300b94f3b44a3f108015c68a142f5
:103ff80006d10ce0002a80f2aa80e468a14206d02b
:10400800636823f003039a1b0f2af3dd70463c69ab
:10401800dff8d0e2744500f09f81636823f0030362
:104028009a1b0f2a00f38481002ac7f814e0c7f806
:1040380010e080f29d80b3f5007f80f05581db08a9
:1040480003f1010c99107a6857f83c80c4f808808d
:1040580001238b4007ebcc0113430839e1607b60f7
:1040680047f83c40c8f80c408210012494409c4218
:1040780000f28b801c4206d120f0030064001c4231
:1040880000f10400fad007ebc009cc468046dcf802
:104098000c309c4507d161e1002a80f26f81db6812
:1040a8009c4500f05b81596821f003018a1b0f2aa7
:1040b800f2ddd3f80cc0d3f8088001939c19284688
:1040c80046f0010642f001055e60c8f80cc0ccf865
:1040d80008807c613c61c4f80ce0c4f808e06560c5
:1040e8005a5019f0a1fd019b03f108041ee01029a4
:1040f80020d819f097fd102618230220734f3b444f
:10410800a3f108025c68944200f031816368e168b9
:10411800a66823f00303234428465a68f16042f056
:1041280001028e605a6019f07ffd0834204603b002
:10413800bde8f08f00240c2320462b6003b0bde8b7
:10414800f08f40204ff400734ff03f0e4ae72344ae
:10415800e1685a68a66842f00102f16028468e605c
:104168005a6019f061fd0834204603b0bde8f08fad
:10417800234428465a6842f001025a6019f054fd57
:104188000834204603b0bde8f08fbc68636823f0ac
:10419800030ab24503d3aaeb06030f2b7adc4c4b78
:1041a8004c4a019311681a6806eb0108013216bfe0
:1041b80008f18f0808f1100828f07f0841462846c2
:1041c80018f016fdb0f1ff3f04eb0a0b8146019b86
:1041d80000f0f180834500f2ec803f4a11684144c9
:1041e800116000f047811868019201301bbfa9ebec
:1041f8000b0b5944c3f80090116019f007011cbf5c
:10420800c1f10803994409eb080314bfc1f18801ff
:10421800802103f07f03a1eb03084146284618f0ec
:10422800e7fc431c019a00f03f81a0eb09034344db
:1042380043f001031168c7f808904144bc42c9f82b
:104248000430116017d0baf10f0f40f2ee806068a9
:10425800aaf10c0323f0070304eb030e00f001009e
:104268004ff0050c18430f2b6060cef804c0cef851
:1042780008c000f21081194bbc681a68914288bfc7
:104288001960174b1a689142626888bf196022f05a
:10429800030294e0a21943f0010346f001066660a8
:1042a8002846ba60536019f0bffc0834204603b0b2
:1042b800bde8f08f142b70d9542b00f2ac80330b6f
:1042c80003f16f0003f16e0ec3008be618f545206d
:1042d800a4054020a0054020dc034020980540208c
:1042e8009c05402020f545205a0a042a5bd9142a47
:1042f80000f2b38002f15c01c9005b3207eb010cec
:104308007958acf1080c8c4500f093804a6822f08b
:10431800030293427dd289688c45f7d1dcf80c20e2
:104328007b68e260c4f808c09460ccf80c409be657
:10433800a11946f0010c42f00106c4f804c0284651
:1043480079613961c1f80ce0c1f808e04e60e250cb
:1043580019f06afc0834e9e67b6885e608f101088b
:1043680018f0030f0cf1080c7ff491ae37e0dc680d
:10437800a34208bf02303ff44aaec7e619441c46c0
:104388004a68db6854f8086f42f001024a60284620
:10439800f3609e6019f048fcc8e603f15c0003f185
:1043a8005b0ec3001ee69a0902f13901c9003832d2
:1043b800a4e7bc4259d0bc68626822f00302964266
:1043c800a2eb060302d80f2b3ff764af284619f07b
:1043d8002bfc0024aae659f8083999457fd110f03a
:1043e800030f00f1ff30f6d17b6823ea04037b60fa
:1043f80064009c423ff6c9ae002c3ff4c6ae1c4296
:1044080040467ff440ae64001c4200f10400fad03c
:1044180039e68c4682e7b3f5aa7f13d8f30b03f18c
:10442800780003f1770ec300dce50123c9f80430f6
:10443800cce77b689210012101fa02f213437b60fa
:1044480062466ee740f2545293421ed8b30c03f111
:104458007d0003f17c0ec300c4e5542a28d81a0b4a
:1044680002f16f01c9006e3248e7204a11684144e1
:104478001160b8e61bf07f0f7ff4b5ae0aeb0803b6
:10448800ba6843f001035360f5e67f204ff47e736a
:104498004ff07e0ea6e504f108012846019205f0ca
:1044a80001ff019a1168e6e601234ff00008c1e612
:1044b800b2f5aa7f05d8da0b02f17801c900773284
:1044c8001ce740f254518a4205d89a0c02f17d014a
:1044d800c9007c3212e74ff47e717e220ee77b68ba
:1044e80086e7f00806f1080308e600bfdc03402071
:020000040000fa
:020000040040ba
:1044f800b0b58ab000af0023fb846ae2cb4b1a68e0
:10450800b7f926309b0013441b68fb61fb69002b3d
:1045180000f05982fb6993f86e300b2b00f0538240
:10452800002387f82330002387f82530002387f8f5
:104538002430fb6993f8363003f04003dbb2002bdc
:1045480007d1fb6993f8363023f07f03dbb2002be9
:104558000ed0102387f82330fb6993f83630c3f365
:10456800c013dbb2002b14bf0123002387f82530ca
:10457800fb6993f8363003f00403dbb2002b11d04b
:104588000ef0bafeaa4a4ff0000317f00dfe0346dc
:104598000c461a46fb699b6ad31a002b02db1023d0
:1045a80087f82330fb6993f8363003f00803dbb251
:1045b800002b11d00ef0a0fe9d4a4ff0000317f01b
:1045c800f3fd03460c461a46fb69db6ad31a002b37
:1045d80002db102387f82330fb6993f86e30082b31
:1045e80019d10ef089fe924a4ff0000317f0dcfd56
:1045f80003460c461a46fb691b6bd31a002b0adbd1
:10460800112387f82330fb69bb610923fb75bb695c
:10461800fa7d83f86e20fb6993f86e30052b18d16c
:104628000ef06afe824a4ff0000317f0bdfd034604
:104638000c461a46fb691b6bd31a002b09db0122b7
:104648001421f869fef75cfe0021f8690af028fddc
:10465800b9e197f82330002b0bd097f8253083f079
:104668000103dbb21a4697f823301946f869fef7ba
:1046780047fefb6993f8363003f00203dbb2002be8
:1046880078d1fb6993f8373003f04003dbb2002b95
:1046980000f09281fb6993f86e30032b40f08c8117
:1046a8000ef02afe624a4ff0000317f07dfd034624
:1046b8000c461a46fb695b6ad31a002bc0f27e814e
:1046c800fb6993f87120fb6993f87c309a422dd1ed
:1046d800fb6993f83630c3f30003dbb287f8233065
:1046e8000121f86909f0bcf9fa6992f8363043f00b
:1046f800010382f836304ff480520021f8690ff038
:104708007dfa97f82330002b40f05a81fa6992f825
:1047180036306ff3000382f83630fb693b610a23b9
:10472800fb733b69fa7b83f86e2049e10222102172
:10473800f869fef7e5fd0ef0dffd3d4a4ff0000396
:1047480017f032fd03460c461c46fb69b3f8683087
:104758001d4619f03df80246364ba3fb02231b0cfd
:1047680003fb05f3344aa2fb03239b09e218fb6908
:104778005a6221e10ef0c0fd2d4a4ff0000317f0f8
:1047880013fd03460c461a46fb695b6ad31a002bd5
:10479800c0f21881fb6993f86e30013b082b00f2d8
:1047a800b18001a252f823f0d54740001b484000d1
:1047b8006b4840009b4840000d494000c1484000fc
:1047c8000d4940000d494000e7484000022387f8a2
:1047d8002330012387f82530fb6993f87030032bc9
:1047e80040f29280fb69042283f8702018f0f0fff1
:1047f8000246104ba3fb02231b0c4ff47a7202fbf8
:1048080003f30d4aa2fb03239b091a01fb699a646f
:104818007ae0fb6993f87030022b0fd8122387f8df
:104828002330012387f825306fe000bf680540205a
:10483800f0490200851dd96fd34d6210fb6993f8ca
:10484800363003f00103dbb2002b06d0142387f8bf
:104858002330012387f8243057e0022387f82330d8
:1048680053e0fb6993f87030042b06d8102387f8bf
:104878002330012387f8253047e0fb69bb60042318
:10488800fb71bb68fa7983f86e20112387f823300f
:104898003be0fb6993f87030042b06d8112387f8a6
:1048a8002330012387f825302fe0142387f823309d
:1048b800012387f8243028e0fb6993f87030042b33
:1048c80006d8102387f82330012387f825301ce009
:1048d800142387f82330012387f8243015e0fb6977
:1048e80093f87030042b06d8112387f8233001235e
:1048f80087f8253009e0142387f82330012387f847
:10490800243002e000bf00e000bf97f82330002bfe
:1049180049d097f82530002b3ed0fb6993f87030ca
:104928000133dab2fb6983f87020fb699b6c5a008b
:10493800fb699a64fb691b691a46fb69db68d31a31
:104948003b84fb691a69fb69db689a4209d2fb69f7
:104958005b681a46fb691b68d31a9ab23b8c1344ee
:104968003b84fb69da6c3b8cd21afb69da64fb691d
:10497800b3f85c203b8c13449ab2fb69a3f85c2023
:10498800fb69da68fb691a6197f823300022194637
:10499800f869fef7b5fc06e097f8233001221946be
:1049a800f869fef7adfc97f82430002b0bd00021f6
:1049b800f8690af075fb06e000bf04e000bf02e0fa
:1049c80000bf00e000bfb7f926309bb201339bb2ad
:1049d800fb84b7f92620044b1b689a42fff48ead7e
:0c49e80000bf2837bd46b0bd7805402058
:020000040000fa
:020000040040ba
:1049f4002de9b0038db000af786039603b681b7b54
:104a0400012b40f0bc813b689b687b6200233b73b5
:104a14007b6a05331b78c3f30003dab27b6a053380
:104a24001b78c3f38013dbb25340dab27b6a0433de
:104a34001b78c3f30013dbb25340dab27b6a03334f
:104a44001b78c3f38003dbb25340dab27b6a0233d0
:104a54001b78c3f30003dbb25340dab27b6a023340
:104a64001b78c3f38013dbb25340dab27b6a0133a1
:104a74001b78c3f30013dbb25340dab27b6a1b78b2
:104a8400c3f38003dbb25340dab23b7b62f300032f
:104a94003b737b6a05331b78c3f34003dab27b6a4a
:104aa40005331b78c3f3c013dbb25340dab27b6a1d
:104ab40004331b78c3f34013dbb25340dab27b6a8e
:104ac40003331b78c3f3c003dbb25340dab27b6a0f
:104ad40002331b78c3f34003dbb25340dab27b6a80
:104ae40002331b78c3f3c013dbb25340dab27b6ae0
:104af40001331b78c3f34013dbb25340dab27b6a51
:104b04001b78c3f3c003dbb25340dab23b7b62f3de
:104b140041033b737b6a05331b78c3f38003dab22a
:104b24007b6a04331b78c3f30003dbb25340dab26d
:104b34007b6a04331b78c3f38013dbb25340dab2cd
:104b44007b6a03331b78c3f30013dbb25340dab23e
:104b54007b6a02331b78c3f38003dbb25340dab2bf
:104b64007b6a01331b78c3f30003dbb25340dab230
:104b74007b6a01331b78c3f38013dbb25340dab290
:104b84007b6a1b78c3f30013dbb25340dab23b7b7e
:104b940062f382033b737b6a05331b78c3f3c00360
:104ba400dab27b6a04331b78c3f34003dbb25340ad
:104bb400dab27b6a04331b78c3f3c013dbb253400d
:104bc400dab27b6a03331b78c3f34013dbb253407e
:104bd400dab27b6a02331b78c3f3c003dbb25340ff
:104be400dab27b6a01331b78c3f34003dbb2534070
:104bf400dab27b6a01331b78c3f3c013dbb25340d0
:104c0400dab27b6a1b78c3f34013dbb25340dab2e7
:104c14003b7b62f3c3033b737b6a05331b78c3f3ab
:104c24000013dab27b6a04331b78c3f38003dbb26c
:104c34005340dab27b6a03331b78c3f30003dbb25d
:104c44005340dab27b6a03331b78c3f38013dbb2bd
:104c54005340dab27b6a02331b78c3f30013dbb22e
:104c64005340dab27b6a01331b78c3f38003dbb2af
:104c74005340dab27b6a1b78c3f30003dbb25340c0
:104c8400dab27b6a1b78c3f38013dbb25340dab227
:104c94003b7b62f304133b737b6a05331b78c3f3da
:104ca4004013dab27b6a04331b78c3f3c003dbb26c
:104cb4005340dab27b6a03331b78c3f34003dbb29d
:104cc4005340dab27b6a03331b78c3f3c013dbb2fd
:104cd4005340dab27b6a02331b78c3f34013dbb26e
:104ce4005340dab27b6a01331b78c3f3c003dbb2ef
:104cf4005340dab27b6a1b78c3f34003dbb2534000
:104d0400dab27b6a1b78c3f3c013dbb25340dab266
:104d14003b7b62f345133b734ff000024ff00003fb
:104d2400c7e90623244bd3f884301a464ff0000316
:104d3400c7e90623d7e90623150000241e4bd3f840
:104d440080301a464ff0000344ea020045ea0301aa
:104d540003460c46c7e90634d7e90634c7e90a34e2
:104d64003b7b1a46012393404feae374d7e90a12c6
:104d740043ea010344ea0204c7e90a3404e03b6855
:104d8400d3e90034c7e90a34d7e90a34c7e904345b
:104d9400094a3b69c2f88030074ad7e90434a0467f
:104da4004ff000094346c2f88430002318463437d4
:0c4db400bd46bde8b0037047000005409c
:020000040000fa
:020000040040ba
:104dc000b0b596b000af03463960fb807f4b1b68df
:104dd000002b01d07e4ba3e13b68002b02d14ff0aa
:104de000ff339de13b685b68fb633b689b68bb638b
:104df0003b68db687b633b681b693b63bb6b002bd9
:104e00000cd0fb6b002b09d0fb6b9b6a002b05d0f1
:104e10007b6b002b02d03b6b002b02d14ff0ff339a
:104e20007ee16c4a3b6814461d460fcd0fc42b68cb
:104e300023600023fb64684b00221a60674b00224a
:104e40001a60674b00221a60664b00221a6020220b
:104e500000215f480ff0a2f93a6b796b012016f040
:104e6000ddf9f862fb6a002b02d0fb6a5b6800e0a8
:104e70000023bb62bb6a002b0bd0bb6a5b68002bb4
:104e800007d0bb6a9b68002b03d0bb6adb68002b92
:104e900002d10023bb6404e00021b86a17f0b0f827
:104ea000b8644b4abb6cd360494bdb68002b02d122
:104eb0000123fb6420e1bb6a1a78454b1a74bb6b73
:104ec000ba6cba617b616c233b61bb699b683a69d0
:104ed0007969b869984702463c4b1a603b4b1b689e
:104ee000002b02d10223fb6406e1ba6bf96bb86cac
:104ef00011f094fc034683f00103dbb2002b02d0d7
:104f00000323fb64f8e0324abb6b1360304a3b6b0f
:104f10009360b96bf86b13f061fd034683f00103f6
:104f2000dbb2002b02d00423fb64e5e000237b65a9
:104f3000264b1b687b6423e07b6c5b6c7b627b6d28
:104f400001333b657b6c6c333b640fe03b6c5a6c0c
:104f50007b6a9a4204d11e4b5b6801331c4a536042
:104f60003b6d01333b653b6c6c333b643a6dbb6b13
:104f70009a42ebdb7b6d01337b657b6c6c337b642e
:104f80007a6dbb6b9a42d7db114b5b68002b02d06a
:104f90000523fb64b0e00023bb6000237b650b4b63
:104fa0001b687b6430e07b6c9b69bb607b6d01336d
:104fb0003b657b6c6c333b641ce03b6c9a69bb6863
:104fc0009a4211d10623fb6418e000bf3c05402043
:104fd0000404402054044020440540204c05402057
:104fe00050054020480540203b6d01333b653b6c3c
:104ff0006c333b643a6dbb6b9a42dedb7b6d0133f5
:105000007b657b6c6c337b647a6dbb6b9a4202da96
:10501000fb6c002bc7d0fb6c002b6cd1424b0022e9
:105020001a604ff41872002140480ff0b7f8404b57
:1050300000221a603f4abb6a14460fcb84e80f0077
:1050400000233b650de03a6d13465b0013449b0063
:105050001a46394b1344184617f01cfc3b6d0133bc
:105060003b653b6d0b2beed9344b00221a770023a6
:105070007b65334b1b687b6437e0fb6b1b6a184610
:1050800013f054fc034687f8233097f82330012ba4
:1050900002d00723fb642de0284a97f8233053778a
:1050a000264a7b6c5361254a7b6d93613b6b7a6b1f
:1050b000f96b224804f042fe034683f00103dbb2a1
:1050c000002b02d00823fb6414e0174b1b68002b55
:1050d00002d1154a7b6c13607b6d01337b657b6c61
:1050e0006c337b64fb6b3833fb637a6dbb6b9a422a
:1050f000c3db01e000e000bffb6c002b0cd1bb6cfc
:10510000fb60fb689b69f86898470346fb610d4ba1
:1051100001221a70094b03e00bf0ecfe4ff0ff3355
:1051200018465837bd46b0bd4005402020fc4520fc
:105130005c054020980440204c024020040440209c
:085140003c054020c1054020a0
:020000040000fa
:020000040040ba
:1051480090b5a5b002af3b600346fb710b46bb713f
:105158001346bb80bb79012b06d10023a7f880300a
:10516800bb88a7f87e3005e0bb88a7f8803000230d
:10517800a7f87e30b7f88030002b0bd112f0b0fac8
:105188000346a7f88030b7f88030002b02d14ff0e3
:10519800ff338de10123c7f88430ad4b3b674ff6f1
:1051a800ff73a7f86e30012017f058feb8663b6f02
:1051b8001b78002b0ad03b6f1b78013bdab23b6fa0
:1051c8001a70b96e012017f05afe03e0b96e01207b
:1051d80017f055fe0023a7f8823013e09d4b1a689c
:1051e800b7f982309b0013441b68c7f88430d7f89e
:1051f8008430002b0dd0b7f982309bb201339bb2bb
:10520800a7f88230b7f98220934b1b689a42e5d3fe
:1052180000e000bfd7f88430002b12d08c4b7b669f
:10522800012017f01bfe38667b6e1b780133dab25b
:105238007b6e1a70396e012017f021fe4ff0ff3394
:1052480036e1864b1b68fb640123bb6480237b64c7
:10525800fb6c9b687a6cb96cf86c98470346c7f886
:1052680084307e4b1b687e4a128801327b653a6522
:105278007b6d5b68396d786d98470346bb67774be4
:105288001b68784a12880132fb65ba65fb6d5b685a
:10529800b96df86d984703467b67d7f88430002bc3
:1052a80005d0bb6f002b02d07b6f002b31d16b4b2d
:1052b8001b68bb627b6f7b62bb6adb68796ab86a12
:1052c8009847664b1b683b63bb6ffb623b6bdb68b5
:1052d800f96a386b9847614b1b68bb63d7f8843011
:1052e8007b63bb6bdb68796bb86b9847584b3b6447
:1052f800012017f0b3fdf8633b6c1b780133dab279
:105308003b6c1a70f96b012017f0b9fd4ff0ff33b1
:10531800cee0534b1a88534b1b88b7f98210019380
:105328007b6f00931346ba6fd7f8840012f0b2fb74
:10533800474b3b62012017f091fdf8613b6a1b78ef
:105348000133dab23b6a1a70f969012017f097fd48
:10535800d7f8840006f010f8d7f88430fa7983f883
:105368006f20fb79012b09d10121d7f8840012f0b5
:1053780081f90246d7f884305a6404e0d7f88430bb
:1053880000225a6400bfd7f884305b6c002b0cd124
:10539800d7f8843093f86f30002b06d0d7f8840004
:1053a80010f030ff4ff0ff3382e0fb7903f0030386
:1053b800d9b2d7f8842092f86c3061f3010382f8ef
:1053c8006c30bb79002b1dd1d7f88430b7f880201a
:1053d800a3f85a20d7f8842092f8363043f0010316
:1053e80082f83630d7f88430bb610023fb75bb697f
:1053f800fa7d83f86e20d7f88430b7f88020a3f8b8
:105408006a2053e0d7f88430b7f88020a3f85a20f0
:10541800d7f88430b7f87e20a3f858200df06cff39
:10542800114a4ff0000316f0bffe03460c461a4619
:10543800d7f884305a62d7f8842092f8363043f08f
:10544800020382f83630fb79012b0fd01be000bf36
:10545800c305402068054020780540207405402099
:10546800ba054020bc054020f04902003b68002beb
:1054780008d03b681b68002b04d03b681a68d7f833
:1054880084309a6300bfd7f884000ef0ffff03460c
:10549800002b01db012200e00b22d7f884303b61ae
:1054a8001346fb733b69fa7b83f86e20b7f98230a9
:0854b80018468c37bd4690bd7b
:020000040000fa
:020000040040ba
:1054c00080b584b000af03463a60fb800b467b7129
:1054d000b7f90630184615f027f9f860fb68002b7d
:1054e00000f09f817b790c2b00f29a8101a252f887
:1054f00023f000bf29554000475540006555400046
:1055000083554000db554000315640004356400073
:10551000515640005f5640007d5640008b5640007b
:10552000e7574000035840003b68002b0cbf0123a5
:105530000023d9b2fa6892f8403061f3820382f80e
:10554000403001236ee13b68002b0cbf0123002398
:10555000d9b2fa6892f8403061f3c30382f8403060
:1055600001235fe13b68002b0cbf01230023d9b26c
:10557000fa6892f8403061f3041382f84030012356
:1055800050e13b68dbb203f00303d9b2fa6892f84a
:10559000403061f3010382f84030fb6893f84030fb
:1055a000c3f30103dbb2002b0bd0fb684ff0ff32db
:1055b0005a61fa6892f8413043f0010382f84130b1
:1055c00009e0fb6800225a61fa6892f841306ff3f3
:1055d000000382f84130012324e1fb6893f8413055
:1055e00003f00203dbb2002b01d000231ae1fb68b9
:1055f00093f84130c3f38003dbb21a463b68002bbb
:1056000014bf01230023dbb29a420fd0f86813f0d5
:10561000c1fa3b68002b14bf01230023d9b2fa68fa
:1056200092f8413061f3820382f841300123f9e0be
:10563000f86813f0affa3b689ab2fb681a8201234c
:10564000f0e03b68dab2fb6883f83e200123e9e032
:105650003b68dab2fb6883f856200123e2e03b683e
:10566000002b14bf01230023d9b2fa6892f842300c
:1056700061f3000382f842300123d3e03b68dab2e1
:10568000fb6883f857200123cce03b68bb60bb6814
:10569000002b00f0a680bb681b7803f00103002bf1
:1056a0002fd0bb685b7803f00103002b14bf0123ec
:1056b0000023d9b2fa6892f8403061f3c30382f84c
:1056c0004030bb685b7803f00103002b14bf01235b
:1056d0000023d9b2fa6892f8403061f3041382f8db
:1056e0004030bb685b7803f00103002b14bf01233b
:1056f0000023d9b2fa6892f8403061f3820382f84d
:105700004030bb681b7803f00203002b0fd0bb684e
:105710005b7803f00203002b14bf01230023d9b2ee
:10572000fa6892f8423061f3041382f84230bb68a1
:105730001b7803f00403002b0fd0bb685b7803f0e9
:105740000403002b14bf01230023d9b2fa6892f896
:10575000423061f3451382f84230bb681b7803f096
:105760000803002b0fd0bb685b7803f00803002b05
:1057700014bf01230023d9b2fa6892f8423061f3d2
:10578000861382f84230bb681b7803f01003002bad
:105790000fd0bb685b7803f01003002b14bf01230c
:1057a0000023d9b2fa6892f8423061f3820382f89a
:1057b0004230bb681b7803f02003002b0fd0bb687e
:1057c0005b7803f02003002b14bf01230023d9b220
:1057d000fa6892f8423061f3c30382f84230012341
:1057e00020e000231ee03b68dbb203f03f03d9b2a8
:1057f000fa6892f8433061f3050382f843300123dd
:1058000010e03b68002b14bf01230023d9b2fa68d3
:1058100092f8433061f3861382f84330012301e0ac
:0c58200000bf002318461037bd4680bdb5
:020000040000fa
:020000040040ba
:10582c0090b593b000af03463960fb803b685b6872
:10583c003b643b689b68fb63fb887b857a8da94b3b
:10584c0013447b627b6a002b04db7b6a002b01d147
:10585c007b6a01e04ff0ff33bb63bb6b002b02daba
:10586c004ff0ff3381e1ba6b13465b0013441b020c
:10587c001a469d4b13447b637b6b9b7d03f00103aa
:10588c00dbb2002b01d07b6b6fe17b6b9b7d03f05c
:10589c000203dbb2002b02d04ff0ff3365e13b6c0f
:1058ac001b69002b02d14ff0ff335ee1fb6b002b29
:1058bc0002d14ff0ff3358e1fb6bdb6c002b03d0b4
:1058cc00fb6b1b6d002b02d14ff0ff334de17b6b5b
:1058dc0004334ff43f72002118460ef059fc7b6bd9
:1058ec004ff0ff321a617b6b4ff0ff32da607b6b4b
:1058fc0000221a75ba6b7b6b5a60ba6b7b6b9a6021
:10590c007a6b937d6ff3041393757b6b272283f86b
:10591c0047203b6c1a697b6b9a613b6c9a687b6b7a
:10592c00da613b6cda687b6b1a623b6c5a697b6b95
:10593c005a623b6c9a697b6b9a623b6cda697b6b43
:10594c00da623b6c1a6a7b6b1a637b6bfa6b03f53e
:10595c002b7311465422184608f01af90121786b62
:10596c000cf03aff0221786b0cf036ff002387f81d
:10597c00463024e097f84620796b13469b0013447d
:10598c005b000b4403f52d731b88002b02d14ff0e9
:10599c00ff33eae097f84620796b13469b001344db
:1059ac005b000b4403f52e731b883f2b02d84ff082
:1059bc00ff33dae097f84630013387f8463097f832
:1059cc004630052bd6d97b6b03f52b703b6c3633ed
:1059dc000622194608f0dcf87b6b3b62012383f04e
:1059ec000103dbb2002b02d04ff0ff33bde07b6b29
:1059fc00fb61fb691b6b002b09d0fb691b6bfa6904
:105a0c005c320121104698470346002b01d001233c
:105a1c0000e0002383f00103dbb2002b04d07b6b8e
:105a2c00bb614ff0ff33a0e0002387f84730002321
:105a3c003b637b6b93f94730184614f0fbff786b94
:105a4c000bf092fb034687f8473097f94730002b51
:105a5c0003d0fc2387f8473074e0786b0bf0eefb37
:105a6c004ff0ff334ff0ff34c7e9023400233b758e
:105a7c0007f108031946786bfef7b6ff47200af0ca
:105a8c00c9fdf862194b5a68194b13403b6317490f
:105a9c003a6bfb6a13434b60786b06f0affc034622
:105aac00002b03d0fd2387f847304be0786b04f0d4
:105abc0029fa0346002b03d0fd2387f8473041e039
:105acc00002387f846301ae097f846301946786b71
:105adc000af044fc0346002b0cd0fd2387f847301a
:105aec0011e000bfb0efffff20f94520000005409a
:105afc0007feffdb97f84630013387f8463097f8fe
:105b0c004630052be0d97b6b93f94730184615f0de
:105b1c00e9fa7b6b93f94730184615f0c5fa786ba8
:105b2c0015f0fefa786b3b6c596a3b6c9b6a1a4613
:105b3c000ff004fa0346002b03d0fb2387f8473001
:105b4c0000e000bf97f94730002b05d0786b0ff0c1
:105b5c004df84ff0ff3308e07a6b937d43f001036f
:105b6c0093757b6b01221a757b6b18464c37bd46bf
:045b7c0090bd00bf19
:020000040000fa
:020000040040ba
:105b8000002900f095802de9f04f0d46164683b0b0
:105b9000804606f10b0718f049f855f804ec162f6b
:105ba0002ef00304a5f108093cd810221746be4286
:105bb0003dd8944243dac44b996809eb040088420b
:105bc00000f0b480436823f0010101444968c9072b
:105bd0004cd51ef0010f00f09b8031464046fef789
:105be000e3f9064600283ad055f8043c23f00103b7
:105bf0004b44a0f108029a4200f02181221f242a7e
:105c000000f20781132a00f2db8003462a4611685e
:105c100019605168596092689a602946404604f0bc
:105c200045fb1ce027f00707002f3a46bfda0026a5
:105c30000c233046c8f8003003b0bde8f08f2e4684
:105c4000e31b0f2b1ed8d9f8043003f001032343c4
:105c50004c44c9f80430636843f001036360404674
:105c600017f0e6ff304603b0bde8f08f23f00303e2
:105c7000e11891421fdbc36882682e46d3600c4650
:105c80009a60dde7d9f8042009eb070102f0010270
:105c90004c4443f001031743c9f804704b60636838
:105ca00043f0010308316360404604f0fffad6e791
:105cb0001146fef779b91ef0010f8ed155f8081c78
:105cc000a9eb010adaf8041021f003010b44234484
:105cd000934225dbc26881685646ca609160daf853
:105ce0000c1056f8080f221f242ac160886000f2a9
:105cf0009480132a6fd92968caf808106968caf80d
:105d00000c101b2a00f2a28008350af1100263e091
:105d100055f8083ca9eb030adaf8041021f0030156
:105d200063189342fff659af5646d8e7416821f011
:105d3000030ba34407f11000834556da1ef0010f50
:105d40007ff44baf55f8081ca9eb010adaf80410f0
:105d500021f003018b445845e2dc5646daf80c107a
:105d600056f8080f221f242ac160886000f28f8035
:105d7000132a40f28a802968caf808106968caf8ac
:105d80000c101b2a00f28a8008350af110022968db
:105d9000116069685160a96891600aeb0701abeb7b
:105da000070242f0010299604a60daf8043003f019
:105db00001031f434046caf8047017f039ff51e74a
:105dc0002b6803606b6843601b2a2dd800f1080321
:105dd00005f108021be732462968116069685160c5
:105de000a96891601c46d1462ae709eb0701abeb95
:105df000070b4bf0010299604a6055f8043c03f030
:105e000001031f43404645f8047c17f011ff2e465e
:105e100028e729460bf044ffffe6294630461c469a
:105e2000d1460bf03dff0be7ab688360eb68c360c6
:105e3000242a17d000f1100305f11002e7e650f80c
:105e4000043c23f003031c442e46f9e6a968caf873
:105e50001010e968caf81410242a0cd010350af181
:105e60001802b9e72b6903616b69436105f11802f8
:105e700000f11803cbe62a69caf818206a69caf843
:105e80001c2018350af12002a6e732467fe7294692
:105e9000304601930bf004ff019b7ee7a968caf826
:105ea0001010e968caf81410242a03d010350af13a
:105eb00018026ce72a69caf818206a69caf81c2017
:0c5ec00018350af1200262e718f54520b1
:020000040000fa
:020000040040ba
:105ecc0080b58cb000af78600b46fb70fb787a68bd
:105edc005c2101fb03f31344b0331b687b6100238b
:105eec007b8400237b8200233b840023fb83fa7892
:105efc00796813469b0013445b000b4403f2b623f2
:105f0c001b883b82fa78796813469b0013445b002c
:105f1c000b4403f52d731b88fb810023bb6101230c
:105f2c0087f82f30fb785c2202fb03f3b8337a68d6
:105f3c0013440833184613f091fbb860bb685b68d8
:105f4c001b69bb62bb6a7b62fb787a685c2101fbd4
:105f5c0003f31344da331a88bb681a8117e07b6a9f
:105f6c001b8998b2fa78796813469b0013445b003e
:105f7c000b4403f2b6231b88194614f00ffa0346a0
:105f8c001a46bb691344bb617b6a1b687b627b6ae4
:105f9c00002be4d1fb787a685c2101fb03f31344fa
:105fac00dc331b881846fb787a685c2101fb03f311
:105fbc001344da331b880133c31afa891146184685
