:020000040000fa
:020000040040ba
:10000000f0ef4520d16840006f744000bf7e400093
:100010000fa1400023b04000efb2400000000000fc
:100020000000000000000000000000000b52400033
:1000300017934000000000000b5240000b5240009c
:100040000b5240000b5240000b5240000b5240003c
:100050000b5240000b5240000b5240000b5240002c
:100060000b524000000000000b5240000b524000b9
:100070000b5240000b5240000b5240000b5240000c
:100080000b5240000b5240000b5240000b524000fc
:100090000b5240000b5240000b524000ddec400080
:1000a0000b5240000b5240000b5240000b524000dc
:1000b0000b5240000b5240000b5240000b524000cc
:1000c0000b5240000b5240000b5240000b524000bc
:1000d0000b5240000b5240000b52400057fd4000b5
:1000e0000b5240000b5240000b5240000b5240009c
:1000f0000b5240000b5240000b5240000b5240008c
:100100000b5240000b5240000b5240000b5240007b
:100110000b52400000000000000000000000000042
:100120000b5240000b5240000b5240000b5240005b
:100130000b5240000b5240000b5240000b5240004b
:100140000b5240000b5240000b5240000b5240003b
:100150000b5240000b5240000b5240000b5240002b
:080160000b5240000b5240005d
:020000040000fa
:020000040040ba
:10016800f8b500bff8bc08bc9e46704795f840003b
:1001780039ba4000f8b500bff8bc08bc9e467047c5
:0401880015ba400064
:020000040000fa
:020000040040ba
:08018c003438000001000000fe
:020000040000fa
:020000040040ba
:10019400240440201c00000000000000b40440209f
:1001a4000800000001000000ffffffffffffffff4a
:1001b400000040201000000000000000a8044020bf
:1001c4000c00000001000000ecff452017000000b7
:1001d40080d1f008ecff452014000000010000006d
:1001e400c9fc4000b1fc400099fc4000a5fc400063
:1001f400bdfc400040044020140000000100000049
:100204000101000079f9400069f9400089f94000d2
:1002140052990000100040200c0000000000000073
:10022400c40440200400000000000000dc02402060
:100234006400000000000000c80440200400000026
:1002440000000000b80140209400000000000000fd
:10025400cc044020040000000000000020f94520e8
:1002640000030000010000006cc540000000000015
:10027400000000000000000000000000000000007a
:10028400000000000000000000000000000000006a
:10029400000000000000000000000000000000005a
:1002a400000000000000000000000000000000004a
:10056400000000000000000000f04520f000000042
:1005740000000000c204402002000000000000004f
:1005840084034020300000000000000028004020c8
:100594009001000000000000d0044020040000008e
:1005a400000000001c0040200800000000000000c3
:1005b400400340204400000000000000bc04402030
:1005c4000600000001000000ffffffffffff000026
:1005d400d404402004000000000000007405402002
:1005e4000200000000000000760540200200000028
:1005f40000000000d80440200400000000000000b7
:10060400dc0440200400000000000000e00440205e
:100614000400000000000000e40440200400000086
:1006240000000000680440201000000000000000ea
:10063400e804402004000000000000007805402089
:100644000200000000000000ec0440200400000050
:1006540000000000f004402004000000000000003e
:10066400f40440200400000000000000f8044020ce
:100674000400000000000000b40340202800000033
:1006840000000000fc044020040000000000000002
:100694000005402004000000000000000405402084
:1006a4000400000000000000780440201000000056
:1006b4000000000080054020010000000000000050
:1006c4007a05402002000000000000007c05402064
:1006d40002000000000000000805402004000000a3
:1006e400000000008804402010000000000000000a
:1006f4000c0540200400000000000000100540200c
:100704000400000000000000140540200400000064
:10071400000000004c024020900000000000000097
:1007240020fc452060020000000000001805402065
:1007340004000000000000001c054020040000002c
:10074400000000002005402004000000000000001c
:10075400240540200400000000000000280540207b
:1007640004000000000000002c05402004000000ec
:1007740000000000300540200400000000000000dc
:1007840098044020100000000000000054044020a1
:1007940014000000000000000404402020000000b9
:1007a400000000008105402001000000000000005e
:1007b40034054020040000000000000038054020fb
:1007c4000400000001000000ffffffff3c05402083
:1007d4000400000000000000400540200400000068
:1007e4000000000044054020040000000000000058
:1007f4004805402004000000000000004c05402093
:1008040004000000000000007e05402002000000fb
:10081400000000005005402004000000000000001b
:100824005405402004000000000000008205402020
:1008340001000000000000005805402004000000f2
:1008440001000000f0f04520f0f0452028040000ed
:100854000100000000000000dcf3452044f44520c2
:10086400acf445200000000000000000000000007f
:100874000000000000000000000000000000000074
:100884000000000000000000000000000000000064
:100894000000000000000000000000000000000054
:1008a4000000000000000000000000000000000044
:1008b4000000000000000000000000000000000034
:1008c4000000000000000000000000000000000024
:1008d4000000000000000000000000000000000014
:1008e4000000000000000000000000000000000004
:1008f40000000000000000000000000001000000f3
:10090400000000000e33cdab34126de6ecde0500c2
:100914000b000000000000000000000000000000c8
:1009240000000000000000000000000000000000c3
:1009340000000000000000000000000000000000b3
:1009440000000000000000000000000000000000a3
:100954000000000000000000000000000000000093
:100c740000000000000000000000000080fe45208d
:100c84006c010000010000004300000000000000af
:100c94000000000000000000000000000000000050
:100ca40000000000000000004300000000000000fd
:100cb4000000000000000000000000000000000030
:100cc40000000000000000004300000000000000dd
:100cd4000000000000000000000000000000000010
:100ce40000000000000000004300000000000000bd
:100cf40000000000000000000000000000000000f0
:100d0400000000000000000043000000000000009c
:100d140000000000000000000000000000000000cf
:100d2400000000000000000043000000000000007c
:100d340000000000000000000000000000000000af
:100d4400000000000000000043000000000000005c
:100d5400000000000000000000000000000000008f
:100d640000000000000000007df44000e9e64000bf
:100d740000000000d878400090f840008cf8400053
:100d84008cf840008cf840008cf840008cf840004f
:100d94008cf840008cf840008cf840008cf840003f
:100da400ffffffffffffffffffffffffffff00004d
:100db40001004153434949000000000000000000c5
:100dc400000000000000000000000000000000001f
:100dd40000004153434949000000000000000000a6
:100de40000000000000000000000000000000000ff
:100df40000000000dc034020280000000000000088
:100e04005c05402004000000000000006005402054
:100e140004000000000000006405402004000000fd
:100e24000000000018f5452008040000010000003f
:100e3400000000000000000018f5452018f54520ca
:100e440020f5452020f5452028f5452028f54520a6
:100e540030f5452030f5452038f5452038f5452056
:100e640040f5452040f5452048f5452048f5452006
:100e740050f5452050f5452058f5452058f54520b6
:100e840060f5452060f5452068f5452068f5452066
:100e940070f5452070f5452078f5452078f5452016
:100ea40080f5452080f5452088f5452088f54520c6
:100eb40090f5452090f5452098f5452098f5452076
:100ec400a0f54520a0f54520a8f54520a8f5452026
:100ed400b0f54520b0f54520b8f54520b8f54520d6
:100ee400c0f54520c0f54520c8f54520c8f5452086
:100ef400d0f54520d0f54520d8f54520d8f5452036
:100f0400e0f54520e0f54520e8f54520e8f54520e5
:100f1400f0f54520f0f54520f8f54520f8f5452095
:100f240000f6452000f6452008f6452008f6452041
:100f340010f6452010f6452018f6452018f64520f1
:100f440020f6452020f6452028f6452028f64520a1
:100f540030f6452030f6452038f6452038f6452051
:100f640040f6452040f6452048f6452048f6452001
:100f740050f6452050f6452058f6452058f64520b1
:100f840060f6452060f6452068f6452068f6452061
:100f940070f6452070f6452078f6452078f6452011
:100fa40080f6452080f6452088f6452088f64520c1
:100fb40090f6452090f6452098f6452098f6452071
:100fc400a0f64520a0f64520a8f64520a8f6452021
:100fd400b0f64520b0f64520b8f64520b8f64520d1
:100fe400c0f64520c0f64520c8f64520c8f6452081
:100ff400d0f64520d0f64520d8f64520d8f6452031
:10100400e0f64520e0f64520e8f64520e8f64520e0
:10101400f0f64520f0f64520f8f64520f8f6452090
:1010240000f7452000f7452008f7452008f745203c
:1010340010f7452010f7452018f7452018f74520ec
:1010440020f7452020f7452028f7452028f745209c
:1010540030f7452030f7452038f7452038f745204c
:1010640040f7452040f7452048f7452048f74520fc
:1010740050f7452050f7452058f7452058f74520ac
:1010840060f7452060f7452068f7452068f745205c
:1010940070f7452070f7452078f7452078f745200c
:1010a40080f7452080f7452088f7452088f74520bc
:1010b40090f7452090f7452098f7452098f745206c
:1010c400a0f74520a0f74520a8f74520a8f745201c
:1010d400b0f74520b0f74520b8f74520b8f74520cc
:1010e400c0f74520c0f74520c8f74520c8f745207c
:1010f400d0f74520d0f74520d8f74520d8f745202c
:10110400e0f74520e0f74520e8f74520e8f74520db
:10111400f0f74520f0f74520f8f74520f8f745208b
:1011240000f8452000f8452008f8452008f8452037
:1011340010f8452010f8452018f8452018f84520e7
:1011440020f8452020f8452028f8452028f8452097
:1011540030f8452030f8452038f8452038f8452047
:1011640040f8452040f8452048f8452048f84520f7
:1011740050f8452050f8452058f8452058f84520a7
:1011840060f8452060f8452068f8452068f8452057
:1011940070f8452070f8452078f8452078f8452007
:1011a40080f8452080f8452088f8452088f84520b7
:1011b40090f8452090f8452098f8452098f8452067
:1011c400a0f84520a0f84520a8f84520a8f8452017
:1011d400b0f84520b0f84520b8f84520b8f84520c7
:1011e400c0f84520c0f84520c8f84520c8f8452077
:1011f400d0f84520d0f84520d8f84520d8f8452027
:10120400e0f84520e0f84520e8f84520e8f84520d6
:10121400f0f84520f0f84520f8f84520f8f8452086
:1012240000f9452000f9452008f9452008f9452032
:1012340010f9452010f945206805402004000000fd
:1012440001000000ffffffff6c05402004000000c8
:1012540001000000000002002400402004000000ff
:1012640000000000700540200400000000000000a1
:10127400000000000000000022222222222222225a
:020000040000fa
:020000040040ba
:101284002de9f04fabb01d468b4691460693049072
:1012940018b1836b002b00f0f883bbf90c0081b20a
:1012a4008c040ad4dbf8643040f4005123f4005376
:1012b400abf80c10cbf8643089b2080740f16783af
:1012c400dbf81030002b00f0628301f01a010a29c8
:1012d40000f06b83002309930f930e9303931aabcf
:1012e4000d9399f800304d46002b00f09180252b8a
:1012f40002d18de0252b03d015f8013f002bf9d145
:10130400a5eb0906002e00f083800e9b0f9acdf802
:10131400689001333244072b1b960f920e9300f30f
:1013240060831cac039b334403932b78002b00f0a5
:10133400d98200224ff000038df82f3005f1010906
:101344006b781146164692464ff0ff3509f10109b4
:10135400a3f12000582800f21582dfe810f077008e
:101364001302130272001302130213021302130274
:1013740013026700620013025d00eb011302e60131
:101384000502050205020502050205020502050221
:1013940005021302130213021302130213021302af
:1013a4001302130213021302130213021302130291
:1013b4001302130213021302130213021302130281
:1013c4001302130213021302130213021302b801cd
:1013d4001302130213021302130213021302130261
:1013e400130213025f0110011302130213020b0113
:1013f400100113021302fe0013021302e900b900e4
:10140400b4001302940013027f0013021302b80104
:101414001aac8ae7764206934af0040a99f8003037
:1014240094e799f8003001222b218fe7069806688b
:101434000346002e03f10403ecdb069399f8003015
:1014440084e74af0010a99f800307fe799f8003000
:1014540000297ff47baf0122202177e71af0200fc7
:10146400059640f09683069a1af0100f134640f042
:1014740049831af0400f00f0458316880432002790
:101484000123069235e04ff000038df82f30069bc0
:101494000596691c03f10406d3f8008000f09983d3
:1014a4002a460021404608f041fd002800f0aa83a6
:1014b400a0eb080302939df82f300696cdf800a008
:1014c40001930025a0e04af0200a99f800303de796
:1014d4000699b34b059609930e687823302204319c
:1014e4008df831304af0020a069100278df8302039
:1014f40002234ff000028df82f20002201926a1c73
:1015040061d02af08002009256ea070261d1002dd0
:1015140040f05b82002b40f0c7821af00103029373
:1015240000f029830df1a808302308f8413d6be051
:101534001af02003059640f041831af0100240f09f
:10154400da821af0400300f0d682069913460a465e
:1015540004320e8806920027cbe799f800306c2bf2
:1015640003bf99f801304af0200a09f101094af051
:10157400100aebe64af0400a99f80030e6e60596d0
:10158400002a40f056831af0200f40f0f7821af038
:10159400100f40f09b821af0400f00f097820699da
:1015a400b1f900600431f71732463b460691002a30
:1015b40073f10003c0f219839df82f3001936a1c64
:1015c4004ff001039dd156ea070200f00082cdf8e6
:1015d40000a0012b00f09c82022b40f0338209987a
:1015e4000df16808330906f00f0143ea07733a095d
:1015f4001e461746435c08f8013d56ea0703f1d13d
:101604001aaba3eb08030293029bab42b8bf2b4671
:101614009a46019bb3b10af1010a13e0069a0596b2
:1016240013688df8403013464ff0000104338df8f1
:101634002f1006930123cdf800a002939a460025ab
:101644000df14008009b13f002030793009b18bfa1
:101654000af1020a13f08403089340f0a580059b65
:10166400a3eb0a06002e40f39f80102e0f990e9aca
:101674004c4f21dd20461023049c04e0103e102e24
:1016840000f1080017dd01321031072a0f910e9284
:1016940007604360f2dd0daa5946204601930ef01f
:1016a40001f9002840f02581103e102e0f990e9a62
:1016b400019b1aa8e7dc0446531c3144072b0f9105
:1016c4000e932760666000f3e38108346ee00596ac
:1016d400002a40f0ab82324aa2f11401582b08bf11
:1016e4000a461af0200f099240f05e8206991af019
:1016f400100f0a4640f0f3811af0400f00f0ef811a
:1017040004320e88069200271af0010f00f0f181ce
:1017140056ea070200f0ed8130228df831304af0ac
:10172400020a8df830200223e3e64af0800a99f891
:1017340000300be699f800302a2b09f1010700f07c
:101744006a82a3f130000928b9464ff000053ff63c
:10175400ffad19f8013b05eb850500eb4505a3f149
:1017640030000928f5d9f3e5a3f13000002619f873
:10177400013b06eb860600eb4606a3f13000092880
:10178400f5d9e5e50596002a40f05682002b00f0d5
:10179400a9808df840304ff000038df82f3049e7d1
:1017a40028eb400098f940000f990e9b9df82f20dc
:1017b40062b1013301310df12f000122072b0f918a
:1017c4000e9384e8050000f321810834079a5ab186
:1017d400013302310ca80222072b0f910e9384e8e7
:1017e400050000f31f810834089a802a00f08a80db
:1017f400029aad1a002d2bdd102dad4e1edd2246b2
:101804001027049c04e0103d102d02f1080214dda1
:1018140001331031072b0f910e9382e8c000f2dde3
:101824000daa594620460ef03df8002861d1103d1e
:10183400102d0f990e9b1aaaeadc14460133294491
:10184400072b0f910e932660656000f3d380083454
:101854000298c4f8008001330144072b0f910e93c2
:10186400606000f382800834009b5a072ed5059be4
:10187400a3eb0a05002d29dd102d0e9b8d4f1cddd9
:101884001026ddf8108004e0103d102d04f108044a
:1018940013dd01331031072b0f910e93276066601f
:1018a400f2dd0daa594640460df0fcff08bb103d81
:1018b400102d0f990e9b1aacebdc01332944072b36
:1018c4000f910e932760656000f3f680039b059ae1
:1018d4005245acbf9b185344039300294fd10023b6
:1018e4000e93fee40f9b23b104980daa59460df004
:1018f400d9ffbbf80c305b0600f1808103982bb054
:10190400bde8f08f059aa2eb0a07002f7ff770afae
:10191400102f674e1edd2246049c04e0103f102f5a
:1019240002f1080215dd013310311020072b0f914d
:101934000e9316605060f1dd0daa594620460df055
:10194400b1ff0028d5d1103f102f0f990e9b1aaa72
:10195400e9dc144601333944072b0f910e9384e8d4
:10196400c00000f3fc80083442e70daa59460498ed
:101974000df098ff0028bcd10f991aac74e70daa9a
:10198400594604980df08eff0028a8d0b1e75946b7
:10199400049807f0d1fa002840f03081bbf80c100d
:1019a40001f01a010a297ff495acbbf90e30002b23
:1019b400fff690ac2b464a46594604980af05ef866
:1019c400039003982bb0bde8f08fddf800a0012b45
:1019d40000f0bb80022b31d1cdf800a000260027f7
:1019e400fde50daa594604980df05cff002880d14e
:1019f4001aac97e40daa594604980df053ff002839
:101a04007ff477af0f990e9b1aac21e70daa5946c4
:101a140004980df047ff00287ff46baf0f990e9bdd
:101a24001aacd3e60daa594604980df03bff0028e2
:101a34007ff45faf0f990e9b1aacd5e6cdf800a0ea
:101a4400002600271aa900e04146f20842ea47723c
:101a5400f80806f0070307461646303356ea07022d
:101a640001f8013c01f1ff38eed1009ad0077ff56f
:101a7400c7ad302b3ff4c4ad3023023908f8013c24
:101a84001aab5b1a02938846bee50ef051f904e4e2
:101a94000daa594604980df005ff00287ff429afdc
:101aa4000f990e9b1aac81e602950df16808abe51f
:101ab400a8f9400098f940000daa594604980df081
:101ac400f1fe00287ff415af0f99ffe6069a166819
:101ad40013460433f717069332463b4667e5166808
:101ae4001af0010f02f1040206924ff000077ff48e
:101af4000fae0223fde406990a4604320e680692ec
:101b04000027f6e404321e68069201230027f0e45d
:101b1400002f08bf0a2e16d30df168083046394647
:101b24000a2200230cf006fc303208f8012d30465e
:101b3400394600230a220cf0fdfb06460f4656eafe
:101b44000703ebd15ce5ddf800a0cdf800a00df1b2
:101b5400a8083036012308f8416d029354e50daa14
:101b6400594604980df09efe00287ff4c2ae0f99ea
:101b74000e9b1aac3ce60df1680845e50699073161
:101b840021f00701d1e900230831069116461f46ca
:101b94000de5069b073323f0070303f10802d3e99d
:101ba400006706920123a4e4069a073222f0070292
:101bb40002f108010691d2e90067a5e5069b073307
:101bc40023f0070303f10802d3e900670692002318
:101bd4008fe440460696cdf800a006f06ffe9df80f
:101be4002f300290019300250ee52d2376428df8c7
:101bf4002f30019367eb4707012380e44ff0ff3355
:101c040003937be69df82f30029501930696cdf859
:101c140000a00546f8e4069899f8013005680430f8
:101c240045eae575b9460690fff790bb8df82f108d
:101c340051e58df82f10a6e48df82f10a6e500bf0e
:020000040000fa
:020000040040ba
:101c4400a44b834200d07047a34b1b68002bfad0ef
:101c5400a24b93f90020531edbb2012bf3d82de9dc
:101c6400f04f87b0012a0bd09b4b1c68994b1b6823
:101c7400002b40f37d82002540f2dc57954e37e07f
:101c8400974b1b68b3f1ff3feed1964a0021052024
:101c94000df0bafb924b1860b0f1ff3f00f0628286
:101ca4000df0f2ff904aa2fb00231b0c03eb83020e
:101cb40002f2e7328d49a1fb021292094ff47a71c4
:101cc40001fb02f2b2fbf3f3894a1360cce703236e
:101cd40004222146304609f065fc94f8433043f071
:101ce400800384f8433001356c3433689d4240da14
:101cf400e06c0028f7d0636c9b69984794f84330f4
:101d040013f0400fefd0636c5b69e06c98470028d8
:101d1400dddb0228e7d1adf81670636c1b6c03a9f8
:101d2400206d98470398e063bdf81030a4f8403064
:101d3400bdf81230003318bf012394f8432063f335
:101d4400451284f843209df8143084f86930bdf8b6
:101d54001630a4f85e3094f8423043f0400384f81f
:101d64004230d3b203f0bf0343f0800384f843301e
:101d7400b9e75a4a92f90020012a22d05d4b1b6828
:101d84003bb95d4b1b6823b95c4b1b68002b00f00f
:101d9400ae81584b1b68002b59d10025564b1b684c
:101da400002b00f04c810022534b1a604a4b1c68f4
:101db400484b1b68934240f3db801646dff84481ae
:101dc400a8e0454a1468002b40f3da8194f94320d3
:101dd400002a80f28c81224600252946012608e04b
:101de40001316c328b420dd092f94300002880f20d
:101df4007e8192f8420010f0400ff1d006fa01f013
:101e04000543ede701238b40013bab4200f0b88171
:101e1400304b1b68002b16dd00252e4e4ff00308b7
:101e2400042704e001356c3433689d420bda94f8de
:101e3400423013f0400ff5d043463a46214630462f
:101e440009f0b0fbeee7ff22244b1a704fe10022a9
:101e5400284b1a60204b1c681e4b1b68934240f3ae
:101e6400508115461b4e04e001356c3433689d42a5
:101e740019da94f8423013f0400ff5d0636c5b6ac2
:101e8400206d984794f8603003f001038342ebd04f
:101e940094f8603043f0020360f3820360f30003bc
:101ea40084f86030e0e7012578e78c6240460df065
:101eb4004dfb636c5b6b3a463946206d984701468f
:101ec4000028f2d10e4a13680133136046e000275c
:101ed400efe700bf04044020300540208105402086
:101ee40038054020fde94000851dd96fd34d6210af
:101ef40028054020200540203405402024054020aa
:101f04001c0540205802402001366c34b44b1b6839
:101f1400b3422ddd94f8423013f0400ff4d0b4f8fe
:101f24005a70636c5b6d206d98470743bfb20df028
:101f3400c3fcb4f85a3023ea0703a4f85a300df06e
:101f440003ffb4f85c303b43a4f85c30636c1b6d56
:101f54003946206d984717f0160fb8d194f84330de
:101f640013f0200fd0d0636c9b6b206d9847cbe7a8
:101f74000026dff8988208f10c049a4f07f106094d
:101f84001de0ca464ff0010bbef8223023f47c5307
:101f94009bb2aef82230baf802201343aef82230d6
:101fa400baf8040000eb4000714608eb80000df025
:101fb400cdfa012303fa0bfb1bea060f26d02046b9
:101fc4000df0b0f8864688b3def814309a89130a07
:101fd40043ea02239bb240f60602934212d0b3f5c1
:101fe400006fced04ff6ff72934206d001226ff0fd
:101ff4000b0170460df042f9e1e707f10c0a4ff0ce
:10200400020bc1e74ff0000bba46bde746ea0b06e8
:10201400baf80430744800eb0310038943f0010359
:102024000381002201210df0a9f9c8e70df044fc59
:102034006d4a138b23f0010313830df085fe6b4b64
:102044001c68674b1b68002b0cdd002640f2866879
:10205400dff8bc91624f65e0d9f800200132c9f87d
:10206400002069e02db9604d05f1300405f51c75bb
:1020740030e05f4c5f4e002704f510750de013440b
:10208400a381238943f0020323813a460221204697
:102094000df074f91034ac420fd02368002bf9d042
:1020a400b4f90a20002af5d0a38931685b1a9bb2df
:1020b40019b2a1810029eddce1e70df0fdfb4a4aec
:1020c400138923f0020313810df03efecbe7103495
:1020d400ac4209d054f8102c34f8083c002bf6d04c
:1020e400002af4d09047f2e7434b1b6813b907b0ba
:1020f400bde8f08f00224ff4807140480df03ef9a6
:10210400f5e73f4b1b68002bb3d001254be6204677
:1021140009f00efa0023a4f85c3001366c343b68f5
:10212400b3429fdd94f8423013f0400ff5d0b4f879
:102134005c3013ea080f8fd194f8602012f0020f7c
:10214400e8d012f0040f14bf4ff400614ff4805133
:10215400194394f860306ff3410384f86030002c25
:10216400d5d1d7e707f042feff22264b1a70bee70f
:10217400244b93f90030012b7ff400ae1b4b1c68f9
:102184000023039304930593154b1b68002b23dd55
:1021940062340025dff87c801b4f114ee27958f839
:1021a400223006a901eb820252f80c2c00923a4626
:1021b400072120460df06ef90023a371e37906aae6
:1021c40002eb830353f80c2c013243f80c2c013539
:1021d4006c3433689d42e1db02220a4b1a70cde570
:1021e40004044020ecf6400020fc4520300540204b
:1021f40040fc4520280540202405402030fc452093
:10220400340540208105402088f140004c024020e4
:082214001805402004fd400004
:020000040000fa
:020000040040ba
:10221c002de9f04f01f10b06162e83b0054640f266
:10222c009e8036f0070600f1bd80b14200f2ba8004
:10223c000df006feb6f5fc7fc0f08b82730a00f041
:10224c00b880042b00f26e81b30903f1390003f15d
:10225c00380ec300b94f3b44a3f108015c68a1429e
:10226c0006d10ce0002a80f2aa80e468a14206d0d4
:10227c00636823f003039a1b0f2af3dd70463c6955
:10228c00dff8d0e2744500f09f81636823f003030c
:10229c009a1b0f2a00f38481002ac7f814e0c7f8b0
:1022ac0010e080f29d80b3f5007f80f05581db0853
:1022bc0003f1010c99107a6857f83c80c4f8088037
:1022cc0001238b4007ebcc0113430839e1607b60a1
:1022dc0047f83c40c8f80c408210012494409c42c2
:1022ec0000f28b801c4206d120f0030064001c42db
:1022fc0000f10400fad007ebc009cc468046dcf8ac
:10230c000c309c4507d161e1002a80f26f81db68bb
:10231c009c4500f05b81596821f003018a1b0f2a50
:10232c00f2ddd3f80cc0d3f8088001939c19284631
:10233c0046f0010642f001055e60c8f80cc0ccf80e
:10234c0008807c613c61c4f80ce0c4f808e065606e
:10235c005a500df077fd019b03f108041ee0102983
:10236c0020d80df06dfd102618230220734f3b442e
:10237c00a3f108025c68944200f031816368e16863
:10238c00a66823f00303234428465a68f16042f000
:10239c0001028e605a600df055fd0834204603b0e2
:1023ac00bde8f08f00240c2320462b6003b0bde861
:1023bc00f08f40204ff400734ff03f0e4ae7234458
:1023cc00e1685a68a66842f00102f16028468e6006
:1023dc005a600df037fd0834204603b0bde8f08f8d
:1023ec00234428465a6842f001025a600df02afd37
:1023fc000834204603b0bde8f08fbc68636823f056
:10240c00030ab24503d3aaeb06030f2b7adc4c4b21
:10241c004c4a019311681a6806eb0108013216bf89
:10242c0008f18f0808f1100828f07f08414628466b
:10243c000cf026fdb0f1ff3f04eb0a0b8146019b2b
:10244c0000f0f180834500f2ec803f4a1168414472
:10245c00116000f047811868019201301bbfa9eb95
:10246c000b0b5944c3f80090116019f007011cbf05
:10247c00c1f10803994409eb080314bfc1f18801a9
:10248c00802103f07f03a1eb0308414628460cf0a2
:10249c00f7fc431c019a00f03f81a0eb0903434475
:1024ac0043f001031168c7f808904144bc42c9f8d5
:1024bc000430116017d0baf10f0f40f2ee80606853
:1024cc00aaf10c0323f0070304eb030e00f0010048
:1024dc004ff0050c18430f2b6060cef804c0cef8fb
:1024ec0008c000f21081194bbc681a68914288bf71
:1024fc001960174b1a689142626888bf196022f004
:10250c00030294e0a21943f0010346f00106666051
:10251c002846ba6053600df095fc0834204603b091
:10252c00bde8f08f142b70d9542b00f2ac80330b18
:10253c0003f16f0003f16e0ec3008be618f5452016
:10254c006805402064054020dc0340205c054020e9
:10255c006005402020f545205a0a042a5bd9142a2c
:10256c0000f2b38002f15c01c9005b3207eb010c95
:10257c007958acf1080c8c4500f093804a6822f035
:10258c00030293427dd289688c45f7d1dcf80c208c
:10259c007b68e260c4f808c09460ccf80c409be601
:1025ac00a11946f0010c42f00106c4f804c02846fb
:1025bc0079613961c1f80ce0c1f808e04e60e25075
:1025cc000df040fc0834e9e67b6885e608f101086b
:1025dc0018f0030f0cf1080c7ff491ae37e0dc68b7
:1025ec00a34208bf02303ff44aaec7e619441c466a
:1025fc004a68db6854f8086f42f001024a602846ca
:10260c00f3609e600df01efcc8e603f15c0003f164
:10261c005b0ec3001ee69a0902f13901c90038327b
:10262c00a4e7bc4259d0bc68626822f0030296420f
:10263c00a2eb060302d80f2b3ff764af28460df030
:10264c0001fc0024aae659f8083999457fd110f00d
:10265c00030f00f1ff30f6d17b6823ea04037b60a3
:10266c0064009c423ff6c9ae002c3ff4c6ae1c423f
:10267c0040467ff440ae64001c4200f10400fad0e6
:10268c0039e68c4682e7b3f5aa7f13d8f30b03f136
:10269c00780003f1770ec300dce50123c9f80430a0
:1026ac00cce77b689210012101fa02f213437b60a4
:1026bc0062466ee740f2545293421ed8b30c03f1bb
:1026cc007d0003f17c0ec300c4e5542a28d81a0bf4
:1026dc0002f16f01c9006e3248e7204a116841448b
:1026ec001160b8e61bf07f0f7ff4b5ae0aeb080360
:1026fc00ba6843f001035360f5e67f204ff47e7314
:10270c004ff07e0ea6e504f108012846019203f075
:10271c0029fa019a1168e6e601234ff00008c1e698
:10272c00b2f5aa7f05d8da0b02f17801c90077322d
:10273c001ce740f254518a4205d89a0c02f17d01f3
:10274c00c9007c3212e74ff47e717e220ee77b6863
:10275c0086e7f00806f1080308e600bfdc0340201a
:020000040000fa
:020000040040ba
:10276c002de9f04f99b00f210c200cf069f910f005
:10277c00020f0fd110f0010f00f05f820df0b6face
:10278c00b0f1000840f354820024dff8d0a2dff847
:10279c00c0b27be10bf03afd04460d460df070fa29
:1027ac0002460023204629460bf0c0fda84b1860ba
:1027bc00e4e70122114628460af0b9fc97f8543098
:1027cc006ff3451387f854308ce128460cf043fd29
:1027dc00002800f05781b7f84c30022b06d0032ba1
:1027ec000cbf09230223a7f84e304be10423a7f8b2
:1027fc004e3047e10021384607f072ff002287f87f
:10280c00552097f8543003f0fd0362f3820387f8e8
:10281c005430ba62032301222946384603f06afb7e
:10282c00002800f02f81012128460bf08bf9384647
:10283c000af04cfd0323a7f84e3023e12946384615
:10284c0006f0a0fc0a282ad0002800f01b8197f87b
:10285c00543043f0080387f85430022840f01281ba
:10286c000423a7f84e30b7f84c30022b0cbf0123d1
:10287c00032303222946384603f03cfb002800f0d2
:10288c000181dbf80030bb60022128460bf05af9bd
:10289c0038460af01bfd0523a7f84e30f2e00bf08a
:1028ac00b5fc6c4a00230bf041fd7b68c31a59f848
:1028bc0006209342c0f0e6800122022138460af03d
:1028cc00b5fe072128460bf03df9dbe029463846da
:1028dc0006f058fc0a2840f0d5800bf097fc5d4ab6
:1028ec0000230bf023fd7b68c31a59f80620934292
:1028fc00c0f0c8800122022138460af097fe072159
:10290c0028460bf01ff9bde0fb6a18a941f85c3da5
:10291c000022284607f09efe0646002860d1dbf810
:10292c0000307a689b1ab7f84a209342c0f0aa800c
:10293c0028460cf0a5fe029028460cf0adfe039044
:10294c0007f12c09002307f13402494628460cf004
:10295c0073fa97f8553013f0020f58d195f84230ae
:10296c0013f0200f0ed097f8553013f0080f54d1f8
:10297c0097f8553013f0100f55d007f13c0128464d
:10298c000df024fa0422012128460af0d0fb45f26e
:10299c0002034a464946284609f0bcfefb6a7a6b9c
:1029ac001a400399029b0b409a4205d0042303aab8
:1029bc0002a9284605f08cf804a9274bb3f90000ae
:1029cc0009f022fb0d9bbb620821a7f84e1097f86b
:1029dc00543043f0320387f8543028460bf0b2f8e9
:1029ec0001a9284608f066fd002e4bd003230422d3
:1029fc002946384603f07efa0723a7f84e30dbf859
:102a0c0000307b60052128460bf09cf83ae007f17a
:102a1c00300128460df0d2f9a0e707f1380128461d
:102a2c000df0d0f9a4e718a9002341f8503d284631
:102a3c000df0ccf9a6e7dbf800307a689b1a092b6d
:102a4c0020d90022022138460af0f0fd1ae000bf1e
:102a5c00e8044020f049020076054020d4044020d0
:102a6c00dbf80030ba689b1a3a6993420ad30923ff
:102a7c00a7f84e30002309222946384603f03afacb
:102a8c0000284fd10134a04500f0d28020460cf034
:102a9c0065fb05460028f5d090f8423013f0400f46
:102aac00f0d0daf800900cf0abff582606fb00f6dd
:102abc0009eb060797f8543013f0010fe2d0b7f882
:102acc004e20023a92b2052a0cd813f0200f09d0ee
:102adc003b6a3bb1dbf80020d31ab7f8482093428d
:102aec00bff467aeb7f84e30013b0b2bcad801a22e
:102afc0052f823f0d7274000012840004928400015
:102b0c0073284000d928400015294000432a400072
:102b1c006d2a4000812a4000712b4000a72b4000f9
:102b2c00f92b4000dbf80030fb60092128460bf044
:102b3c0009f897f854306ff3820387f854307b69a7
:102b4c00ba6813443a699b1afa689b1a5b083b2bc8
:102b5c0098bf3c23fb61dbf800307b600a23a7f8ad
:102b6c004e308fe72946384606f00cfb0a2889d1ef
:102b7c00dbf80030ba689a1a79698a4203d30b23be
:102b8c00a7f84e307ee77a689b1afa699342fff4f5
:102b9c0079af0923a7f84e3074e70123092229469f
:102bac00384603f0a7f900283ff46cafdbf800308f
:102bbc00fb600a2128460af0c5ff97f854306ff3e2
:102bcc00820387f85430bb69ba6813447a699b1a3c
:102bdc00fa689b1a5b083b2b98bf3c23fb61dbf824
:102bec0000307b600c23a7f84e304be72946384663
:102bfc0006f0c8fa0a287ff445afdbf80030ba6853
:102c0c009a1ab9698a4209d27a689b1afa6993426c
:102c1c00fff438af0b23a7f84e3033e70022022124
:102c2c0038460af003fd072128460af08bff29e7f6
:102c3c00034bb3f900000cf0aff919b0bde8f08ffd
:042c4c0076054020a9
:020000040000fa
:020000040040ba
:102c50002de9f04f89b081460591069207939df8c2
:102c60004880cdf810805c2303fb0803d3f8ac2028
:102c70000192b3f8d87008eb880300eb4303b3f874
:102c8000b2a29e4b1b6a13f0010f58d011469b4a0b
:102c9000136823f004031360baf1000f46d0fe005e
:102ca0008b195a6812f4804f40d13c4600255c22b3
:102cb000049902fb010200920297ddf804b011e0d2
:102cc000029f33e00134a4b2a24598bf002401352d
:102cd000adb2aa4529d0e6000beb06035a6812f400
:102ce000804fedd11b6833f00303ebd008eb4807ae
:102cf000c8ebc707274409eb8707d9f82830d7f86e
:102d0000840098470023c7f88430009bd3f8ac2098
:102d1000935903f003039351bff35f8f01232246be
:102d20004146484605f090fbcce7029f734b0122d9
:102d30001a621a6842f004021a60bff35f8f059ba3
:102d4000002b00f06181baf1000f00f0d380002366
:102d500002930093194603934ff05c0b049b0bfb0b
:102d6000039b63e0536813f4804f44d05346039aa7
:102d700002990a44013a92fbfaf40afb1424002c4b
:102d800001dae418fdd4a4b2029e03e0013ca4b22f
:102d9000013eb6b2e6b108eb4805c8ebc5052544cf
:102da00009eb8505d9f82830d5f884009847002329
:102db000c5f88430dbf8ac2052f8343003f003035c
:102dc00042f83430002ce1d10af1ff34a4b2dfe73d
:102dd000029b039a4146484605f036fb009b013ba7
:102de0009bb227b90af1ff37bfb2002110e0013fc3
:102df000bfb200210ce0029b01339bb202935368e7
:102e000013f4004f40f00981009b01e059bb009b87
:102e10000137bfb2ba4598bf00275a1c92b2009240
:102e2000534500f2f380009b9a4565d9019c04eb61
:102e3000c70254f8373013f0010fe7d054f8373099
:102e400033f00303e2d000298cd1536813f4804f90
:102e50004ed0536813f4004f40f0dc8003970123f9
:102e600019460293d4e75346039a02995418621ef6
:102e700092fbfaf40afb1424002c01dae418fdd4c6
:102e8000a4b2029e03e0013ca4b2013eb6b2e6b198
:102e900008eb4805c8ebc505254409eb8505d9f8bd
:102ea0002830d5f8840098470023c5f88430dbf833
:102eb000ac2052f8343003f0030342f83430002cd5
:102ec000e1d10af1ff34a4b2dfe7029b039a414645
:102ed000484605f0b9fa009b013b9bb227b90af1bd
:102ee000ff37bfb2002193e7013fbfb200218fe758
:102ef000009b8de701208ae0012088e0000005406a
:102f0000c2f85c722037bc45fad1bff34f8fbff3d4
:102f10006f8fc0b101339bb2b5f8b2729f4298bfb8
:102f200000232768d7f810c0f71809eb8707d7f8f0
:102f300084703f69ccf80070d4f800c0dcf81070e1
:102f40003f68ccf81070013989b24ff6ff77b9426b
:102f500044d02768d7f810c0b5f8b872874228bfa8
:102f60000746acf8087027683f69b5f8b8c2a7f8fb
:102f70000ac0b5f8b872b8422cbfc01b0020f718c1
:102f8000203709eb87074ff0000cc7f804c04ff05b
:102f90005c0c049f0cfb0797d7f8acc05cf833704f
:102fa00007f003074cf83370576917f4803fb0d02f
:102fb000def81070d7f804c027683f69b7f808b08a
:102fc0006746bff34f8fbbf1000f9ed00bf1ff3b65
:102fd0002bf01f0b0bf1200bdc4491e75c2202fb72
:102fe0000892d2f8ac2002ebc3035b68079a136027
:102ff000059b1b68c3f810a0029b039a41464846f4
:1030000005f022fa002002e0012000e0012009b0d2
:10301000bde8f08f03970123029308eb4803c8eb48
:10302000c303039d2b4409eb8303d3f884e0059c81
:10303000c4f800e07b1c9bb208eb880109eb41015e
:10304000b1f8b212994298bf00235c2101fb0891ac
:10305000a1f8d830069b1846029901605068c0f369
:103060000d002368d3f810a02b46049e324606ebd1
:10307000860509eb450506eb4606c2ebc606014a86
:0830800061e700bf00ed00e074
:020000040000fa
:020000040040ba
:10308800002900f095802de9f04f0d46164683b0d3
:10309800804606f10b070cf0d5fe55f804ec162f08
:1030a8002ef00304a5f108093cd810221746be42a9
:1030b8003dd8944243dac44b996809eb040088422e
:1030c80000f0b480436823f0010101444968c9074e
:1030d8004cd51ef0010f00f09b8031464046fff7ab
:1030e80099f8064600283ad055f8043c23f0010325
:1030f8004b44a0f108029a4200f02181221f242aa1
:1031080000f20781132a00f2db8003462a46116881
:1031180019605168596092689a602946404602f0e1
:1031280023fd1ce027f00707002f3a46bfda0026e8
:103138000c233046c8f8003003b0bde8f08f2e46a7
:10314800e31b0f2b1ed8d9f8043003f001032343e7
:103158004c44c9f80430636843f001036360404697
:103168000cf072fe304603b0bde8f08f23f0030385
:10317800e11891421fdbc36882682e46d3600c4673
:103188009a60dde7d9f8042009eb070102f0010293
:103198004c4443f001031743c9f804704b6063685b
:1031a80043f0010308316360404602f0ddfcd6e7d6
:1031b8001146fff72fb81ef0010f8ed155f8081ce5
:1031c800a9eb010adaf8041021f003010b442344a7
:1031d800934225dbc26881685646ca609160daf876
:1031e8000c1056f8080f221f242ac160886000f2cc
:1031f8009480132a6fd92968caf808106968caf830
:103208000c101b2a00f2a28008350af1100263e0b4
:1032180055f8083ca9eb030adaf8041021f0030179
:1032280063189342fff659af5646d8e7416821f034
:10323800030ba34407f11000834556da1ef0010f73
:103248007ff44baf55f8081ca9eb010adaf8041013
:1032580021f003018b445845e2dc5646daf80c109d
:1032680056f8080f221f242ac160886000f28f8058
:10327800132a40f28a802968caf808106968caf8cf
:103288000c101b2a00f28a8008350af110022968fe
:10329800116069685160a96891600aeb0701abeb9e
:1032a800070242f0010299604a60daf8043003f03c
:1032b80001031f434046caf804700cf0c5fd51e7ee
:1032c8002b6803606b6843601b2a2dd800f1080344
:1032d80005f108021be732462968116069685160e8
:1032e800a96891601c46d1462ae709eb0701abebb8
:1032f800070b4bf0010299604a6055f8043c03f053
:1033080001031f43404645f8047c0cf09dfd2e4602
:1033180028e7294605f072feffe6294630461c4696
:10332800d14605f06bfe0be7ab688360eb68c360c2
:10333800242a17d000f1100305f11002e7e650f82f
:10334800043c23f003031c442e46f9e6a968caf896
:103358001010e968caf81410242a0cd010350af1a4
:103368001802b9e72b6903616b69436105f118021b
:1033780000f11803cbe62a69caf818206a69caf866
:103388001c2018350af12002a6e732467fe72946b5
:103398003046019305f032fe019b7ee7a968caf822
:1033a8001010e968caf81410242a03d010350af15d
:1033b80018026ce72a69caf818206a69caf81c203a
:0c33c80018350af1200262e718f54520d4
:020000040000fa
:020000040040ba
:1033d400b14b1b680bb1b1487047002900f046811e
:1033e4002de9f04f83b04d688c6804b125b94ff0d6
:1033f400ff3003b0bde8f08fab6a002b00f03981d9
:10340400ce680f69002f18bf002e0cbf4ff0010ac1
:103414004ff0000a02d14ff0ff30eae7dff8a0c214
:103424008e46bee80f00ace80f00ccf80070002117
:103434009b4b19609b4b19609b4b19609b4b19600c
:103444002022964806f0fefe002f00f015813388f6
:10345400012b6ad0781e334600220833824200f0e2
:103464000b81013219880129f7d1002b00f00c815e
:10347400d3f80480b8f1000f00f0fe80d8f80430cf
:10348400002b00f0f980d8f80830002b00f0f4800d
:10349400d8f80c30002b00f0ef80002140460cf0ef
:1034a400dbf801907d4bd860002800f0e88098f8a4
:1034b40000201a7483686c22214681469847764b13
:1034c4001860002800f0db802246294648460af0ae
:1034d40019ff002800f0d380704b1c609f606e4b76
:1034e400d3f800b0002c40f3d3804ff000090095ce
:1034f40000225946284604f0d9f8002800f0bf807d
:1035040009f101090bf16c0b38354c45f0d1009de4
:10351400614a1168002c26dd604ad2f804908c467a
:103524004ff0000e834628460de033469de70133f5
:103534006c329c4206d0516c8d42f8d109f10109dc
:10354400da46f4e70099dcf844500ef1010e0cf170
:103554006c0c744503d0624673460091ebe7054654
:10356400baf1000f20d14d4bd3f804e0bef1000fa7
:1035740040f085807046aa46a6451bdad0b9d1f83a
:1035840018c00ef1010e6c317445f5dd8b699c4554
:103594000ed00a46734601336c329c42ecdd9569c9
:1035a400ac45f8d10620e7e73c4bc3f80490dae7d2
:1035b4000620e1e78146554600284ed14ff0000a27
:1035c4003b4bc3f800a04ff418725146394806f03b
:1035d40039fe394bc3f800a0dff8e8e098e80f00a3
:1035e4008ee80f00d046dff8e0a00aeb08000cf0ec
:1035f400b5fb08f10c08b8f1900ff6d10022274b67
:103604001a77254b1b680093dff89080dff8a0a0a1
:10361400a34602e009f1010938356c22009b02fb44
:103624000934d9451ada286a0af08efd012826d110
:10363400012388f81d30c8f81440c8f818903b4698
:1036440032462946404602f0e1fec0b1daf80030c5
:10365400002bdfd1caf80040dce780b90198836908
:1036640098470122154b1a700c48c2e64ff0ff3000
:1036740070474ff0ff30bce60022084bda6006f0da
:10368400b5fb4ff0ff30b4e60022044bda60f6e7f6
:10369400014b196867e700bf30054020040440204f
:1036a40034054020180540201c05402020054020fa
:1036b4002c05402020fc4520240540208105402085
:0c36c40054044020980440204c02402098
:020000040000fa
:020000040040ba
:1036d0009368002b73d02de9f04f8b8983b00c4693
:1036e00019070090164626d5226922b313f002006e
:1036f00035682cd04ff00009b04fc846b246b845e7
:1037000043464a4628bf3b460098b8f1000f50d0c8
:10371000e169666ab047002858dddaf808301b1afc
:103720008144a8eb0008caf80830002be7d100203c
:1037300003b0bde8f08f2146009805f0fffb00289c
:1037400040f03381a389356813f00200d2d113f021
:10375000010945d14f46019637b39a05d4f8088040
:1037600040f183804745c346c0f0ab8013f4906faf
:1037700040f0ac802068ba465a46494605f042fc03
:10378000a2682368a2eb08025b44a2602360019a4e
:103790009368a3eb0a03d144a7eb0a079360002bbd
:1037a000c5d0a389002fd8d1d5f800906f6808350f
:1037b000d2e7d5f80090d5f8048008359fe70020bf
:1037c0007047214600980af0a5ff70b3b4f90c3099
:1037d00043f040034ff0ff30a38103b0bde8f08f0a
:1037e000814633464e46a8469a464d464eb380b370
:1037f000206823696269b145cb4628bfb346984229
:103800005f4604d9a36813449b4500f3a680934503
:103810004bdb1346676ae16900982a46b847071ee2
:10382000d4ddb9eb0709ccd00120daf80830db1b76
:103830003d44f61bcaf80830002b3ff478af002e49
:10384000d5d108f1080313e9600098460833002e2b
:10385000f9d032460a21284606f06afb002800f01b
:10386000a1800130a0eb0509c2e7206823699842d6
:1038700002d863699f425dd2b84528bfb846424628
:10388000494605f0bffba3682268a3eb0803424446
:10389000a36022600bb1c24679e7214600980af086
:1038a00039ff002892d1c24671e75a46294605f0f1
:1038b000a9fba2682368a2eb0b025b44a260236011
:1038c000afe72068b846ba46bb4655e7626920684c
:1038d000216902eb4208a0eb010a08ebd8780af153
:1038e00001004fea680838444045424684bf80469c
:1038f00042465b0544d511460098fef78ffc83468f
:10390000002855d05246216903f080fca38923f496
:10391000906343f08003a3810beb0a00a8eb0a033a
:10392000c4f810b0c4f814802060a360b846ba464a
:10393000bb4621e76ff00041b94228bf39464a46ed
:1039400091fbf3f10098666a03fb01f3e169b0476c
:10395000b0f1000a3ff71baf38e71a46294601933a
:1039600005f050fb2268019b00981a442260214612
:103970000af0d0fe019b00287ff428af1f4650e7d5
:103980000098fff781fb83460028c5d1009d21697f
:10399000284602f0edf8b4f90c300c2223f0800335
:1039a0002a6015e706f1010922e74ff0ff30bfe674
:1039b000009a0c231360b4f90c3009e700fcff7f78
:020000040000fa
:020000040040ba
:1039c0002de9f0478c460d460446089e002b51d148
:1039d0008a4217466dd9b2fa82febef1000f0bd0b3
:1039e000cef1200c01fa0ef520fa0cfc02fa0ef7cb
:1039f0004cea050c00fa0ef44fea174a250cbcfb02
:103a0000faf81ffa87f90afb18cc45ea0c4508fbbf
:103a100009f3ab420ad9ed1908f1ff3280f0238196
:103a2000ab4240f22081a8f102083d44ed1aa4b255
:103a3000b5fbfaf00afb105544ea054400fb09f90e
:103a4000a14509d9e41900f1ff3380f00a81a145ad
:103a500040f2078102383c44a4eb090440ea0840e4
:103a60000021002e61d024fa0ef40023346073602c
:103a7000bde8f0878b4207d9002e54d0002186e89c
:103a800021000846bde8f087b3fa83f1002940f031
:103a90008e80ab4202d3824200f2fa80841a65eb38
:103aa00003050120ac46002e3fd086e81010bde88b
:103ab000f08712b90127b7fbf2f7b7fa87febef11c
:103ac000000f34d1eb1b3a0c1ffa87fc0121b3fb2a
:103ad000f2f8250c02fb183345ea03450cfb08f30a
:103ae000ab4207d9ed1908f1ff3002d2ab4200f228
:103af000d1808046ed1aa3b2b5fbf2f002fb10555f
:103b000043ea05440cfb00fca44507d9e41900f185
:103b1000ff3302d2a44500f2b8801846a4eb0c048f
:103b200040ea08409de731463046bde8f087cef1d7
:103b3000200405fa0ef307fa0ef720fa04f83a0cff
:103b400025fa04f448ea0308b4fbf2f14fea1845f9
:103b500002fb11441ffa87fc45ea044501fb0cf304
:103b6000ab4200fa0ef409d9ed1901f1ff3080f0f3
:103b70008a80ab4240f2878002393d44eb1a1ffa3b
:103b800088f5b3fbf2f002fb103345ea034500fb76
:103b90000cf3ab4207d9ed1900f1ff386fd2ab42fd
:103ba0006dd902383d44eb1a40ea01418fe7c1f17b
:103bb000200722fa07f88b4005fa01f448ea0303cc
:103bc00020fa07fe4fea134cfd404eea040eb5fb07
:103bd000fcf94fea1e440cfb19551ffa83f844ea1e
:103be000054509fb08f4ac4202fa01f200fa01fab9
:103bf00008d9ed1809f1ff3043d2ac4241d9a9f1ff
:103c000002091d442d1b1ffa8efeb5fbfcf00cfbb8
:103c100010554eea054400fb08f8a04507d9e41802
:103c200000f1ff3529d2a04527d902381c4440eacb
:103c30000940a4eb0804a0fb02894c45c6464d464a
:103c400015d312d056b1baeb0e0364eb050404fa97
:103c500007f7cb401f43cc40376074600021bde8bc
:103c6000f0871846f8e69046e0e6c245ead2b8eb9f
:103c7000020e69eb03050138e4e72846d7e7404622
:103c800091e78146bee7014678e702383c4445e7c4
:0c3c9000084608e7a8f102083d442be7b5
:020000040000fa
:020000040040ba
:043c9c00012070474c
:020000040000fa
:020000040040ba
:103ca000a2eb0300704700bf02780b78012a28bfff
:103cb0009a42f5d16de9044540ea0104cde9026775
:103cc0006ff0000c4fea447212b380ea010414f062
:103cd000070f6ad100f0070420f0070004f0030585
:103ce00021f007014feac505f0e8042314f0040fa2
:103cf000f1e804670cfa05f462ea040266ea0406d5
:103d00000ad063ea0403624667ea0407664603e0f2
:103d1000f0e80423f1e8046782fa4cf582ea06042d
:103d2000a4fa8cf46cbb83fa4cf583ea0705a5fa78
:103d30008cf595b950e9022351e9026782fa4cf5f6
:103d400082ea0604a4fa8cf483fa4cf583ea0705a8
:103d5000a5fa8cf52543dbd09cb92dbab5fa85f4cc
:103d600024f0070427fa04f1dde9026723fa04f3db
:103d700003f0ff0001f0ff01fde80445a0eb0100a6
:103d8000704724bab4fa84f424f0070426fa04f144
:103d9000dde9026722fa04f202f0ff0001f0ff0100
:103da000fde80445a0eb0100704714f0030f3cd17f
:103db00010f0030428d150f8082b51f8083b82fa80
:103dc0004cf582ea0305a5fa8cf55db950f8042c90
:103dd00051f8043c82fa4cf582ea0305a5fa8cf509
:103de000002de8d02dbab5fa85f424f0070423faa3
:103df00004f122fa04f202f0ff0001f0ff01fde8f5
:103e00000445a0eb010070474feac40420f0030012
:103e100050f8082b21f0030151f8083b0cfa04f488
:103e200062ea040263ea0403c9e710f003041ad04b
:103e3000a1eb040120f00300e40750f8042b06d0a6
:103e40000fd28b785ffaa2f4e41a06d12bb1cb78ab
:103e50005ffab2f4e41a00d11bb920465df8104baa
:103e6000704701f1040150f8042bcc0721f0030145
:103e700051f8043b48d824d222f07f4482fa4cf512
:103e800094ea1325a5fa8cf50ad165b951f8043bdb
:103e900084ea0204b4eb036f0ed150f8042bebe775
:103ea0004fea132355e035f07f454dd10878fde802
:103eb0000445c0f1000070474fea126203f0ff03af
:103ec00047e002ea1c4482fa4cf594ea1345a5fa4d
:103ed0008cf50ad165b951f8043b84ea0204b4ebcd
:103ee000034f0cd150f8042bebe74fea134330e0bb
:103ef00015ea1c4528d10b884fea124229e04fea07
:103f0000124203ea1c4324e002f0ff0482fa4cf55b
:103f100094ea1365a5fa8cf50ad165b951f8043b0a
:103f200084ea0204b4eb032f09d150f8042bebe729
:103f30004fea13630de015f0ff0f05d10b684fea50
:103f4000122223f07f4304e04ff00000fde8044517
:103f5000704712ba1bba82fa4cf482ea0304a4fa3c
:103f60008cf5b5fa85f402fa04f203fa04f34fea89
:0c3f70001260fde80445a0eb13607047f0
:020000040000fa
:020000040040ba
:103f7c0041f25003984200f046814ff0ff307047f9
:103f8c00a74870472de9f04184b04d688e682b69c5
:103f9c00002b00f02181002e00f01e81f36c002b11
:103fac0000f01f81336d002b00f01e819c4c4ff4f0
:103fbc003f720021201d06f041f94ff0ff332361c1
:103fcc00e360002222754ff0000362f30413a37523
:103fdc00272384f847302b69a361ab68e361eb6856
:103fec0023626b696362ab69a362eb69e3622b6a60
:103ffc0023635422314604f52b7003f001f901219f
:10400c00204607f021fc0221204607f01dfcb4f8e5
:10401c00b432002b00f0eb80b4f8b8323f2b40f2f6
:10402c00e9800123214603eb830201eb4202b2f843
:10403c00b422002a00f0e18003eb830201eb420280
:10404c00b2f8b8223f2a40f2db800133dbb2052bf9
:10405c00e9d9734b2a4652f8360fc3f8ac02928852
:10406c00a3f8b0221b6b33b101216e48984710b9ed
:10407c004ff0ff30b2e06a4c94f9470009f09ef81b
:10408c00d4f8f86227893368d4f8fc12384698477c
:10409c00b0f1ff3f05d1624803f0e4f94ff0ff3077
:1040ac009ce0e0607369032138469847b0f1ff3f0c
:1040bc00f1d022462061d4f8fc3219890091b4f871
:1040cc00f012adf80410997a8df806100f218df8c6
:1040dc0007101b690293f36c343269469847002829
:1040ec00d9db4f4c204606f0d7fc4ff0ff324ff097
:1040fc00ff33cde9002300238df80c3069462046b0
:10410c0002f09cfc484a5168484b0b4043f040037a
:10411c005360204604f03cfc0028bcd1404803f01e
:10412c00d3fd0028b7d100243d4ee1b2304606f055
:10413c0077fd00284dd10134e3b2052bf5d90024cd
:10414c00374b93f94730002b0cdb590903f01f0355
:10415c00012202fa03f3364a01f1600042f82030e2
:10416c0042f821302e4e30460af098ff6f6aad6a45
:10417c00304b1b689e4221d0002b8cd196f9470006
:10418c0009f01cf896f94730002b09db5a0903f0ab
:10419c001f030121994002f16003254a42f82310c4
:1041ac001f4b0022a3f84a20a3f84820a3f84e2066
:1041bc00a3f84c201f655d651e4b1e60002c7ff420
:1041cc006aaf1748837d43f00103837501230375a0
:1041dc0004e06ff00204b3e74ff0ff3004b0bde829
:1041ec00f0814ff0ff30f9e74ff0ff30f6e74ff07a
:1041fc00ff30f3e74ff0ff30f0e74ff0ff30ede723
:10420c004ff0ff30eae7064b9b7d13f0010f7ff474
:10421c00b7ae13f0020f3ff4b5ae4ff0ff3070475e
:10422c0020f945207cf945200000054007feffdb06
:08423c0000e100e0cc04402089
:020000040000fa
:020000040040ba
:104244002de9f04f87b00f2102200af0fdfb8046d4
:1042540010f0010f40f0828018f0020f40f08480cb
:1042640007b0bde8f08fa28840f206439a4213d00b
:104274003946324628460bf001f830460bf028fa4e
:1042840005460028e8d0ac6920460af02bff2388b5
:10429400012be8d03946ece7a3690393d5f82890bd
:1042a400daf804b048460bf0affb04f10e030493b4
:1042b400c0eb001019465bf8200007f0b3fc8346fe
:1042c40028b104f108020146484607f0bdf899f800
:1042d400433013f0100f3fd1d9f80430039a9a42b7
:1042e40001d03146c5e7bbf1000f04d0e388012bb0
:1042f40026d03146bde704f108030393daf804b08d
:1043040048460bf081fbc0eb00100beb80030593d8
:1043140004995bf8200007f0b9fc0028e6d0037884
:1043240013f0020f06d0059b1433039a802109f081
:10433400a3fedbe7039a0146484607f085f8d5e774
:10434400d4f80e30d9f80420083400943146484695
:1043540005f0b8fb31468ce731468ae702266ff058
:104364000c07dff878a188e75c4c6369023363616a
:104374000bf0c0fc6368021e04927ff771af03f177
:10438400140203f1240b002303932546904674e0a2
:1043940063687a68524900915146384605f092fba9
:1043a400638a013363822468c4b134f8042c12f4a0
:1043b400007f14bfe98fa98f638a8b42f3d26969a6
:1043c400a068081a696b01fb03f39842ebd3b9f1b7
:1043d400000fddd012f4807fe5d0d9e756f8104cf9
:1043e40004b36b69a2689b1aea6a93421ad36ff00a
:1043f400020a4ff00009211f56f8240c0bf038f97b
:10440400404609f0c1fb53464a46211d384608f090
:1044140059fa56f8104c2cb16b69a2689b1aea6ad7
:104424009342e8d256f8243c5a6a33699a4219d323
:104434007369bbb100246ff0030a404609f0a4fb82
:10444400814678b1011f56f8240c0bf011f953463c
:10445400002209f10401384608f034fa0134736982
:10446400a342ead8039b0133039308f13c080bf100
:104474003c0b049a9a423ff4f3ae03980af072fe9e
:1044840007465e46dbf80040002ca7d06b69a268a3
:104494009b1a2a6b93421ad34ff0ff3a4ff000094c
:1044a400211f56f8240c0bf0e3f8304609f06cfb9e
:1044b40053464a46211d384608f004fa3468002c55
:1044c4008cd06b69a2689b1a2a6b9342e8d297f846
:1044d400439009f010094ff0010a66e740034020b9
:0444e400bc044020b4
:020000040000fa
:020000040040ba
:1044e8002de9f04f87b0074601900e465c2303fb89
:1044f80001f31946049300eb010adaf8b04006eb21
:10450800860300eb4303b3f8b652b3f8b48201f163
:10451800c009814448460af0d3fd029043681a69ed
:10452800baf8da300381002a00f0078106eb860327
:1045380007eb4303b3f8b6a210464ff0000e02e0b3
:104548008e44006858b10789b7fbfaf399b20afba1
:1045580013739bb2002bf3d0013189b2f0e75c20d2
:10456800019b00fb0630b0f8da304146b0f8dc00b9
:1045780003f1010ca0eb0c0090fbf8fc08fb1c08f5
:10458800b8f1000f02da18eb0108fcd4f045c0f0ce
:10459800ce8003eb0e0c9cfbf1f001fb10c0002851
:1045a80001da4018fdd481b205917149496911f4c5
:1045b800803f0bd1002a71d006eb860a019901ebe6
:1045c8004a0ac5f30d0ba846154658e0684900206d
:1045d800c1f88400bff34f8fd1f88010c1f34e3a71
:1045e800c1f3c90188464fea4a1b89070391dff8de
:1045f800809143f6e07c0bea0c0c0398414640eab4
:104608000c07c9f86c72013900f14040b1f1ff3f65
:10461800f5d10af1ff3aabf1200bbaf1ff3fe8d12f
:10462800bff34f8fbff36f8fc4e74768c1f30d0126
:1046380039434160002101339bb2baf8b402984271
:1046480098bf0023013a92b2bab104ebc30047689d
:1046580007f0404747606f68b5f808c0aceb010c3d
:10466800674444f833708845dfd247684bea070748
:104678004760a1eb080189b2dde72d6875b129898a
:10468800baf8b672b1fbf7f082b207fb101080b22d
:1046980008b1013292b2002ad7d1eee7cbb906ebc6
:1046a8008603019a02eb4303b3f8b432013b9bb291
:1046b80004ebc3014a6842f400424a60029a5381fb
:1046c8001ffa8ef5d5b106eb8600019a02eb400081
:1046d80007e0013b9bb2ebe7013b9bb2013dadb26a
:1046e80065b104ebc3014a6822f000424a60002b1e
:1046f800f2d1b0f8b432013b9bb2efe75c23019ce6
:1047080003fb0646bdf81430a6f8da30bff35f8f16
:10471800184a136843f4007313600498cc30029964
:1047280020440af004ff002007b0bde8f08f02998a
:1047380048460af06bff0320f6e75c20019b00fb6c
:104748000630b0f8da304146b0f8dc0003f1010e6b
:10475800a0eb0e0090fbf8fe08fb1e08b8f1000f56
:1047680002da4ff0000e0ee74ff0000e11e700bf1f
:0847780000ed00e00000054027
:020000040000fa
:020000040040ba
:104780002de9f04385b00af089f9002800f007818f
:1047900004460af0f6fb002800f0038194f841304b
:1047a00013f0020f0bd1a5682368ed1aadb2002dee
:1047b00000f0f880a38f012b05d00025f2e0e3681c
:1047c000b3f84c50f3e76369002b00f0e48094f8f1
:1047d000403013f0800f40f09f80c3f3801304f14a
:1047e000180204f11401606a04f044fb60620028be
:1047f00000f0d38094f8403043f0c00384f8403098
:1048000094f8403003f00303022b00f08a80e6683e
:10481000a369336363697363636ab363f76994f885
:10482000413013f0020f00f0818006f14409b6f820
:104830004c500823326911890b44138105f1080893
:104840001ffa88f8628d130a43ea02233b80228d07
:10485000130a43ea02237b804fea182343ea082322
:10486000bb800022fa80336b0193736b02938df847
:104870000c2011238df80d30bb88adf80e300c21c3
:1048800001a807f039fac04382b294f8413013f01e
:10489000020f55d00821384607f02efac24392b2d3
:1048a0002946d9f8040007f027fac04380b2c04374
:1048b000f88096f8343003f0f003e02b47d094f8fa
:1048c00057308df8013094f84330c3f305028df86a
:1048d0000020c3f380138df802306b46424611214d
:1048e000304602f01ffa002333600023f385304680
:1048f00001f024fa002855d1336900221a8194f876
:10490000413013f0020f43d12368a360738c23f06e
:1049100008037384002545e0626a002a7ff470afc3
:104920005be7606a0af08efc606170e7a568236847
:10493000ed1aadb205f108039bb24ff0000979e71b
:104940004146384607f0d8f9c04380b2afe794f843
:104950005730002b08bf01238df8013094f8433005
:10496000c3f305028df80020c3f380138df80230e5
:104970006b4642461121304602f0d4f900233360e1
:1049800094f8423013f0040fafd00123f385aee763
:10499000a6f84c20bae7002504e0002502e0002537
:0c49a00000e00025284605b0bde8f083cb
:020000040000fa
:020000040040ba
:1049ac0054784f544c4f000065fa400054784f54e3
:1049bc004849000071fa400054784654434e540064
:1049cc007dfa4000547842434654000089fa400076
:1049dc0054784d465400000095fa400054785046e7
:1049ec0054000000a1fa400054784246543634007a
:1049fc00adfa40005442465431323700b9fa400007
:104a0c005442465432353500c5fa4000544246549f
:104a1c0035313100d1fa40005442465431303233f2
:104a2c00ddfa40005442465431353138e9fa400041
:104a3c004754424631353138f5fa400054785455d4
:104a4c005200000001fb4000547853434600000024
:104a5c000dfb400054784d434600000019fb40000c
:104a6c0054784543434e540025fb400054784c4346
:104a7c00434e540031fb400054784454460000002f
:104a8c003dfb4000547843534500000049fb400077
:104a9c0052784f524c4f000055fb400052784f5209
:104aac004849000061fb400052784652434e540086
:104abc006dfb4000527842434652000079fb4000a7
:104acc0052784d465200000085fb4000527850460b
:104adc005200000091fb400052784246523634009e
:104aec009dfb40005442465231323700a9fb400036
:104afc005442465232353500b5fb400054424652c2
:104b0c0035313100c1fb4000544246523130323312
:104b1c00cdfb40005442465231353138d9fb400070
:104b2c0054584d4246520000e5fb40005278554621
:104b3c0052000000f1fb400052784f46520000003a
:104b4c00fdfb400052784a520000000009fc400076
:104b5c00527846435345000015fc400052784c46b1
:104b6c004645000021fc400052785253450000009d
:104b7c002dfc4000527841450000000039fc4000fb
:104b8c00527852524500000045fc40005278524f7a
:104b9c004500000051fc4000527849484345000054
:104bac005dfc4000527854434500000069fc400015
:0c4bbc00527855434500000075fc400095
:020000040000fa
:020000040040ba
:104bc8002de9f04f8bb005468b46b0f924301846d6
:104bd80000930b8823f080030b8007f043ff002825
:104be80000f0c7806868002857d00122594606f0af
:104bf800c9fa00284ed000221146009e304608f01f
:104c080094fe30460af00cfc04460190002800f09f
:104c1800b380dbf81c30043300220121304601f058
:104c2800cbffdbf81c209bf82930043352f82330e3
:104c38000aaa42f8103d297e304608f0edf83521e1
:104c480030460af0bdfa08f0f3fd82b2abf8242032
:104c58005e4b03ea002040ea1220adf81c00012355
:104c6800adf81e304ff48073adf820300023adf856
:104c78002630adf82430adf8223007ab07cb2060e2
:104c88006160a26004f10c03dbf820502e46dff8c7
:104c980044a165e06ff0060095e0002302930393ba
:104ca80004930593042202a9a86806f01bff0bf0e1
:104cb80019f8042202a906f015ff0bf019f8071ecf
:104cc8000cdd0024042620460af04afa324602a9de
:104cd80006f008ff10b10134a742f4d102ab06a8d0
:104ce800002253f8041b01b101329842f9d1002483
:104cf800561e02e00134042c0ed002ab53f82400f7
:104d08000028f7d0a64214bf00220122594606f017
:104d180039fa0028eed06ee70023cbf81c306ff08c
:104d2800060050e02a4921fa02f212f0010f17d0ca
:104d3800a5eb060808f1ff3703f101091f703a4691
:104d48003146484602f05efa09eb070346442c3c1c
:104d5800e4b2122c04d82afa04f414f0010f18d182
:104d680015f8014b5cb1a4f12c02d2b2122af7d883
:104d7800d8e76ff0090026e06ff0090023e0ad1bcb
:104d8800013d5c1c1d702a463146204602f03afa65
:104d9800631900221a705a709bf828109970da70fb
:104da800012119715c1d019be41aa4b22146009de2
:104db800284608f0bafd2846fff7defc844214bff7
:104dc8006ff0090001200bb0bde8f08f00ffff0075
:084dd8000d00040009000400b5
:020000040000fa
:020000040040ba
:104de0002de9f84f8246037f032b12d08946794b79
:104df0001d68f5b1daf8140090f8423013f0080f8e
:104e000040f0d480734a1368013313600120bde879
:104e1000f88f406990f8423013f0080f02d101205a
:104e2000bde8f88f0022114607f0ccfb0120bde859
:104e3000f88f28220021684805f006fab9f1000f22
:104e400000f0b980daf80c00634b1861d9f804302f
:104e50002c2404fb03f428344368214698478046f9
:104e6000002800f0ab802246002105f0edf908f1a2
:104e70002803c8f80030c8f804802c23c8f808308c
:104e8000d9f80430c8f80c300124c8f81040534b4e
:104e9000c8f81430524bc8f81830524bc8f81c30c0
:104ea000514bc8f82030404609f0a8ff4a4ac2f8e2
:104eb00000804ff6ff739384d9f808305361d9f816
:104ec0000c301384d9f81410518414761ffa83fb24
:104ed0000bf1080b89b20beb810b4fea8b0bd9f866
:104ee0000430002b2bdd164600270be03a4807f074
:104ef0003ffd0020bde8f88f20620135d9f804306d
:104f0000ab421cdd294640460af0a6fc0446306947
:104f100043685946984760600028e7d027622761b8
:104f20006761338c1bb12061338c00eb8300738c81
:104f3000002be1d06061738c00eb0310dce7c8222a
:104f40002a490f2008f06af8234bd86000283bd08c
:104f5000b3f92430b3f1ff3f03d01f4a244b1a604a
:104f600048e7002235211c4b187e0af003ff044657
:104f7000b0f1ff3f28d033210af036ff322805d8a0
:104f800033220521204600f037f8d0b1002202215b
:104f9000204600f031f80023164a4ff48071204675
:104fa00009f0a4fd68b10c4b9c84d6e700221146a1
:104fb00007f008fb26e70020bde8f88f0020bde8d9
:104fc000f88f204608f072f8034809f04bfb0020e8
:104fd000bde8f88ff8044020b403402009f14000f8
:104fe00061cb4000e1fc400019e14000dd79400068
:084ff000fc0440205ff74000c3
:020000040000fa
:020000040040ba
:104ff80070b50d46144609f04dfd002800f0f58007
:1050080006460c2d00f2f380dfe815f00d001800bd
:1050180023002e004c00640069006d0071007c00c4
:105028008000dc00e400b4fa84f4640990f84030ad
:1050380064f3820380f84030012070bdb4fa84f430
:10504800640990f8403064f3c30380f840300120cd
:1050580070bdb4fa84f4640990f8403064f3041322
:1050680080f84030012070bd04f0030490f840300f
:1050780064f3010380f8403054b14ff0ff334361cb
:1050880090f8413043f0010380f84130012070bdb1
:105098000022426190f8413062f3000380f8413009
:1050a800012070bd90f8413013f0020f40f0a1804c
:1050b800003418bf0124c3f38003a34200f09b808f
:1050c80009f0a7fb96f8413064f3820386f8413073
:1050d800012070bd09f09dfb3482012070bd80f86d
:1050e8003e40012070bd80f85640012070bd00345c
:1050f80018bf012490f8423064f3000380f842306e
:10510800012070bd80f85740012070bd002c74d07c
:10511800237813f0010f12d0627890f8403062f3d0
:10512800c30380f840306278dbb262f3041380f87e
:1051380040306278dbb262f3820380f84030237833
:1051480013f0020f08d06378c3f3400396f84220a7
:1051580063f3041286f84220237813f0040f08d072
:105168006378c3f3800396f8422063f3451286f808
:105178004220237813f0080f08d06378c3f3c003e4
:1051880096f8422063f3861286f84220237813f0bb
:10519800100f08d06378c3f3001396f8422063f326
:1051a800820286f84220237813f0200f27d06378f4
:1051b800c3f3401396f8422063f3c30286f84220f3
:1051c800012070bd90f8433064f3050380f8433044
:1051d800012070bd003418bf012490f8433064f3f7
:1051e800861380f84330012070bd002070bd002078
:1051f80070bd002070bd012070bd002070bd012071
:0252080070bd77
:020000040000fa
:020000040040ba
:02520a00fee7bd
:020000040000fa
:020000040040ba
:10520c002de9f04f87b00f21092009f019fc10f09f
:10521c00010f40f0cf8007b0bde8f08fd9f81c50db
:10522c00ab881c0a44ea0324a4b2072c40f2d980b0
:10523c00b9f82030a34240f0d780d9f81860eb8839
:10524c00f3b1f36803933369049300228df81420af
:10525c0011238df81530ab88adf816300c210deb01
:10526c00010006f043fdc3439bb2b9f8222012f0b3
:10527c00040f20d022462946484605f091fd00bb7c
:10528c002a88130a43ea02232b806a88130a43ea0a
:10529c0002236b80083cac80d9f828301846554b5b
:1052ac001968002940f39a80534b1a68043a00237a
:1052bc000196804610e01a462146284606f016fd57
:1052cc00dde76ff0090184e0668d6888864212d0b4
:1052dc000133994240f3828052f8044f002cf7d0ee
:1052ec0094f8420010f0020ff2d094f85660e06c83
:1052fc00b042eddae8e7a08f01282bd00028e7d1e7
:10530c000127b4f840e0666ad4f81cc0b4f828b0a1
:10531c00b5f800a0d34520d01ef0040f18bf47f0fd
:10532c000207b0451cd016b11ef0080f01d047f093
:10533c000407bcf1000f02d01ef0100f13d047f081
:10534c0008070f2817d038430f28c1d1019e01231d
:10535c00a38711e000270120d3e740f00200e0e72b
:10536c0040f00400e5e7d9f81860f668b44508bfca
:10537c0040f00800e5e7019e94f8423013f0400f2e
:10538c0004d0337c03f0f003e02b30d1494604f118
:10539c0044000af0d7f8b4f8543013f4807f09d0e5
:1053ac00256d3db100234ff48072d9f82810b4f963
:1053bc001200a84709200af087f9814600283ff41b
:1053cc002aafb9f8223013f4007f3ff427af6ff007
:1053dc000d010922484609f04dffebe76ff00d0176
:1053ec00f7e76ff00c01f4e76ff00c01f1e76ff0e9
:0c53fc000d01eee748054020440540206c
:020000040000fa
:020000040040ba
:105408002de9f04fe1b00546714bb3f900402c226d
:1054180055a9204602f02aff9df85431022b04d0ea
:105428000025204609f0bafd5ce0c0220021204694
:1054380002f01cffc02801d00025f2e74ff49c724f
:1054480007a9204602f012ff8146032840f2b880df
:105458000422604907a806f039fe064608b100256f
:10546800dfe70af045fc5c4b1f68b0f1000840f329
:10547800848040f2852a4ff0060b0ce02afa03f3e9
:1054880013f0010f03d03b6c569a9a421ad001369a
:105498005837b04571d0304609f062fe0146002801
:1054a800f5d090f8423013f0400ff0d097f8543010
:1054b80013f0010febd0b7f84e30033b9bb2092b2a
:1054c800e5d8dbe75a463c315ca806f0fffd00282a
:1054d800ddd1bd4255d0002f4dd00021204608f027
:1054e80094fd0025284661b0bde8f08f3b4b5b6812
:1054f80069463846984700281bdd009b0344009303
:10550800019b1b1a0193019a002a57dd0098017824
:105518003529ebd008f108031e688e42e7d008331e
:10552800ab42f9d14378023318440090d31a01935f
:10553800e9e7002842d1029d022d0bd0052d05d0a8
:105548007a6a039b9a420dd000256ae7b7f84c3077
:10555800022b37d1039b7b6297f8543043f0040346
:1055680087f85430052d7ff45caf6946384605f05e
:10557800b9f8052555e7002553e70db1002550e793
:105588002f4697f8543013f0040f07d1599bfb624c
:1055980097f8553043f0010387f8553000230293fc
:1055a800039304930593069308ab0093a9f10403ae
:1055b8000193dff8288008f14805a4e7002530e7c3
:1055c80000252ee7039a7b6a9a42ced0002528e769
:1055d8007605402040fe4000d4044020d4cf40004f
:020000040000fa
:020000040040ba
:1055e8002de9f04f83b00646037f032b37d00c46d6
:1055f8006b4bdf680fbb002900f0ce800a791a7464
:1056080005685b683bb10b791bb9654b1b689d420c
:1056180001d004f099fbf068614b98601d60a268a6
:10562800da62e2681a6322695a6362699a63226ad3
:105638009a87626ada875b680bb3594c6568706948
:105648000af0e0f9237c002b40f09f80544ad3688d
:105658000133d3600124204603b0bde8f08f504bde
:105668001c7c0cb90124f6e75d6840690af0caf9a8
:10567800c0eb001005eb800009f050fbebe78368f6
:105688003c2229469847464b5860002800f08680ff
:10569800236803eb4303db0028330193404b1b686b
:1056a800002b56dd00f12408dff8f4a0dff808b17c
:1056b80024e004f049fb0024cde7a8f1100009f02c
:1056c800aefd002841d0404609f0a9fd00283cd095
:1056d80058f8243cda68a36903fb02f36333abfb95
:1056e80003235b09c8f81030e369c8f814300137a0
:1056f80008f13c08daf80030bb422adda8f1240999
:10570800daf8080043680199984705460028d0d080
:1057180000f128030360c0f804901823836023680d
:10572800c360012303611f4b43611f4b83611f4b00
:10573800c3611f4b036209f05dfb48f8245ca8f1c4
:10574800200009f06cfd0028b7d104f0fdfa002410
:1057580081e709f0d1fa124c20644ff4fa62154936
:10576800022007f057fca06104f11c000af034fb8a
:10577800236c33b1a36923b118b10022084b5a61d5
:105788005be704f0e1fa002465e7c0eb001005ebe5
:10579800800009f0c3fa59e700245ce700245ae7bf
:1057a800400340202df64000b1e04000d5fc400009
:0c57b80031fe4000454240001f85eb51cf
:020000040000fa
:020000040040ba
:1057c4002de9f043adf5077d80464ff4007269463c
:1057d400b0f9240002f04cfdcdf800d26844829068
:1057e4009de8070086ab03e9070003ab8193bdf88e
:1057f4000c321f0a47ea0327bfb2adf80c72bdf89a
:105804000e22130a43ea0223adf80e32bdf8162223
:10581400130a43ea0223adf81632bdf81222130a22
:1058240043ea0223adf81232bdf81422130a43ea04
:105834000223adf81432bdf810324fea132949eab5
:1058440003291ffa89f9adf81092d8f80060f368bb
:10585400002b00f09880002404e00134f3689c429b
:1058640080f091802146304609f0f4ff0546037824
:1058740013f0010ff1d0838cbb42eed1002800f06d
:105884008780038813f0800f40f082809df80e32e9
:1058940013f0030f70d109f1ff33adf81032b9f1f1
:1058a400000f10d00426002480a808f002f8324625
:1058b400214680a809f078f8bdf810325a1eadf8d8
:1058c4001022002bf0d1bdf812325a1eadf812226c
:1058d40033b12a46414680a801f030fd0028f2d1b8
:1058e400bdf814325a1eadf8142233b12a4641468b
:1058f40080a801f023fd0028f2d1bdf816325a1e0b
:10590400adf8162233b12a46414680a801f016fdaf
:105914000028f2d1eb8c002b3ad02b8823f480732f
:1059240043f080032b80002385f82a3095f8263035
:1059340013b1012385f82a3095f827302bb195f857
:105944002a3043f0020385f82a30ab6913b94ff4c7
:105954009663ab61d8f81c30ab60eb60b8f82630c6
:10596400013b1bb2a8f82630002b0ada094a136857
:10597400002bfcd1012007e0006a07f09bfe002009
:1059840002e0012000e000200df5077dbde8f08372
:085994000020f9e7f0044020b7
:020000040000fa
:020000040040ba
:10599c002de9f84308f0c6f9002800f0d880064637
:1059ac006c4c6d4fdff8b881f56f002d00f09d80c9
:1059bc00eb685b689e4202d02368002bfcd12a79ed
:1059cc0012b92368002bfcd1eb7a022b02d023688e
:1059dc00002bfcd1ab7a013b032b68d8dfe803f03a
:1059ec00025725253b6843f010033b60bb6813f05e
:1059fc00040f1ad02b79032b47d0022b30d0012b5c
:105a0c003dd1ab79db0503f078636a79920402f43b
:105a1c00f802134343ea08037b63eb7903f00103b9
:105a2c00002b0cbf02230523ab72aa7a032a5cd984
:105a3c00e86843689e4202d02368002bfcd1eb79c6
:105a4c0013f0010f4ed18368002b62d0531edbb2d2
:105a5c00022b41d9052a35d8042a2fd000223ce04c
:105a6c00ab79db0503f0786329893c4a0a4313437d
:105a7c006a79920402f4f80213437b63cde723683e
:105a8c00002bfcd10823ab7216e00323cce7bb68d8
:105a9c0013f0040f29d0012a06d03b6823f0100321
:105aac003b600523ab7207e07b6b2b81f5e723682a
:105abc00002bfcd10823ab72aa7ab9e70323ab7293
:105acc0000220ae0931fdbb2012b17d92368002bad
:105adc00fcd16ff0130200e00122d0f808902b8962
:105aec002946c8472b79032b0bd109f0e1fe3378fb
:105afc00013333700af024f9bde8f8836ff0090222
:105b0c00ebe7022306f17c022946304606f0d0fc76
:105b1c004ae72b79032be8d006f17c0009f0aefaaa
:105b2c00814630b199f80b30022b02d02368002b40
:105b3c00fcd14d4502d02368002bfcd1494606f11f
:105b4c00880009f0befc032389f80b302ce7bde874
:105b5c00f88300bfc804402000000540000002503c
:045b6c0000000260d3
:020000040000fa
:020000040040ba
:105b7000002944d02de9f0410d4680460af066f92f
:105b800055f8047c694927f00103a5f10804e218df
:105b90008e685068b24220f003005ed0fe0750606d
:105ba0000bd455f8087ce41b01f1080ea568754577
:105bb0003b446dd0e768ef60bd6015186d68ed0778
:105bc0003ed543f001026260e350b3f5007f17d287
:105bd000db08581c9a104d6851f83070a7600123fb
:105be000934001ebc0022b43083ae2604b6041f85e
:105bf0003040fc604046bde8f0410af029b97047ea
:105c00005a0a042a52d89a0902f13907ff0002f110
:105c10003805c819ca59083890424fd0516821f048
:105c200003018b4232d292689042f7d1c368a060e0
:105c3000e3609c60c4604046bde8f0410af008b9ea
:105c400095683b4fbd42034440d0d068e86043f0c4
:105c5000010285606260e350b7e7ff07034407d4a1
:105c600055f8082ca41a1344a068e268c26090603a
:105c7000304a126843f00100934260608c60b9d3ef
:105c80002d4b4046196804f059fcb3e71046cde7a8
:105c900011184968c90744d49168d268ca6003449e
:105ca00043f0010091606060e350a3e7142a16d826
:105cb00002f15c07ff0002f15b05aae7aa100123cd
:105cc0004d6893402b434b600346b0e743f001021d
:105cd0004c610c61e560a5606260e3508ae7542a7c
:105ce00006d81a0b02f16f07ff0002f16e0590e76c
:105cf000b2f5aa7f06d8da0b02f17807ff0002f1ad
:105d0000770586e740f25450824206d89a0c02f199
:105d10007d07ff0002f17c057be74ff47e777e254f
:105d200077e743f001016160136063e718f54520f0
:0c5d300020f545206c0540206405402053
:020000040000fa
:020000040040ba
:105d3c002de9f04383b004460146806b08f07efaef
:105d4c00002800f0c380a56b636b664a934216d0a3
:105d5c006a68934213d004f1340007f061fb0646e5
:105d6c0000283fd009f0a4fc0346006800909b88f3
:105d7c00adf80430a6636d464ff001090be02846e0
:105d8c0009f096fc0346006800909b88adf804303f
:105d9c006d464ff00109204609f07bfa8046a76b4f
:105dac00384609f085fc4ff400630246294620462c
:105dbc0008f0f2f80646002800f08980002f62d027
:105dcc00b7f85e30984500f28680b9f1010f5cd0cf
:105ddc00002d64d02146384609f0dcfcb0fa80f680
:105dec00760974e0666bb6f1ff3f25d0284609f0c2
:105dfc0023fa864220d094f834302033dbb20f2bb8
:105e0c0023d801238df8003000238df801305e2358
:105e1c008df8023094f8353003f07f038df80330a1
:105e2c0094f836308df8043094f837308df805300e
:105e3c006d464ff00209aee74ff0ff330093adf81b
:105e4c0004306d464ff00209a5e7626b6b68534056
:105e5c00a9680b4212d1e26301236a4604f13c01aa
:105e6c00284606f03ff8022837d020f002035bb238
:105e7c00012b06d100254ff002098ce7eb68e36398
:105e8c00eae7002623e000239ce7638c43f0100331
:105e9c00638401222146384605f0c0ff17e0124bff
:105eac001b6843b12146114807f0b0ff638c43f0e7
:105ebc00080363840be000220d49104608f00cf92e
:105ecc00094b18600028edd1002600e00026304672
:105edc0003b0bde8f0830026f9e76d464ff00209e8
:105eec0059e700bf7f0000010405402078044020e2
:045efc007da3400042
:020000040000fa
